1AIRLINE STANDARD SCHEDULE DATA SET                                                                                                                                                            001000001
00000000000000000000000000000000000000000000000000000000000000000000000000000000000000000000000000000000000000000000000000000000000000000000000000000000000000000000000000000000000000000000000000000000
00000000000000000000000000000000000000000000000000000000000000000000000000000000000000000000000000000000000000000000000000000000000000000000000000000000000000000000000000000000000000000000000000000000
00000000000000000000000000000000000000000000000000000000000000000000000000000000000000000000000000000000000000000000000000000000000000000000000000000000000000000000000000000000000000000000000000000000
00000000000000000000000000000000000000000000000000000000000000000000000000000000000000000000000000000000000000000000000000000000000000000000000000000000000000000000000000000000000000000000000000000000
2UAH          26MAR2125MAR2226MAR21 AIR ALGERIE                        C AIMS                                                                                                                 1300000002
00000000000000000000000000000000000000000000000000000000000000000000000000000000000000000000000000000000000000000000000000000000000000000000000000000000000000000000000000000000000000000000000000000000
00000000000000000000000000000000000000000000000000000000000000000000000000000000000000000000000000000000000000000000000000000000000000000000000000000000000000000000000000000000000000000000000000000000
00000000000000000000000000000000000000000000000000000000000000000000000000000000000000000000000000000000000000000000000000000000000000000000000000000000000000000000000000000000000000000000000000000000
00000000000000000000000000000000000000000000000000000000000000000000000000000000000000000000000000000000000000000000000000000000000000000000000000000000000000000000000000000000000000000000000000000000
3 AH 30160101J31MAY2131MAY211       ALG08400840+0100  IST12151215+0300  73H                                                                                                 F16Y132               000003
3 AH 30170101J31MAY2131MAY211       IST13251325+0300  ALG16551655+0100  73H                                                                                                 F16Y132               000004
3 AH 30180101J01MAY2103MAY211    6  ALG21102110+0100  IST00450045+0300  73H                                                                                                 F24Y120               000005
3 AH 30180201J10MAY2131MAY211       ALG21102110+0100  IST00450045+0300  73H                                                                                                 F24Y120               000006
3 AH 30190101J02MAY2102MAY21      7 IST02000200+0300  ALG05300530+0100  73H                                                                                                 F24Y120               000007
3 AH 30190201J04MAY2101JUN21 2      IST02000200+0300  ALG05300530+0100  73H                                                                                                 F24Y120               000008
3 AH 30600101J31MAR2128APR21  3     ALG10001000+0100  CTU21552155+0800  332                                                                                                 F18C14Y219            000009
3 AH 30600201J01APR2129APR21   4    CTU17101710+0800  PEK20102010+0800  332                                                                                                 F18C14Y219            000010
3 AH 30600301J03JUN2130DEC21   4  7 ALG12001200+0100  PEK23102310+0800  332                                                                                                 F18C14Y219            000011
3 AH 30610101J26MAR2126MAR21    5   CTU15001500+0800  ALG03300330+0100  332                                                                                                 F18C14Y219            000012
3 AH 30610201J01APR2129APR21   4    PEK21402140+0800  ALG10401040+0100  332                                                                                                 F18C14Y219            000013
3 AH 30610301J04JUN2131DEC211   5   PEK00500050+0800  ALG13201320+0100  332                                                                                                 F18C14Y219            000014
3 AH 60000101J01APR2108APR21   4    ALG08500850+0100  AAE09500950+0100  73H                                                                                                 F16Y132               000015
3 AH 60000201J13MAY2127MAY21   4    ALG08500850+0100  AAE09500950+0100  73H                                                                                                 F16Y132               000016
3 AH 60010101J01APR2108APR21   4    AAE16301630+0100  ALG17301730+0100  73H                                                                                                 F16Y132               000017
3 AH 60010201J13MAY2127MAY21   4    AAE16301630+0100  ALG17301730+0100  73H                                                                                                 F16Y132               000018
3 AH 60060101J26MAR2109APR2112  5   ALG18001800+0100  AAE19001900+0100  73H                                                                                                 F16Y132               000019
3 AH 60060201J27MAR2110APR21   4 6  ALG18301830+0100  AAE19301930+0100  73H                                                                                                 F16Y132               000020
3 AH 60060301J28MAR2107APR21  3   7 ALG18151815+0100  AAE19151915+0100  73H                                                                                                 F16Y132               000021
3 AH 60060401J11APR2111APR21      7 ALG18001800+0100  AAE19001900+0100  73H                                                                                                 F16Y132               000022
3 AH 60060501J12APR2104MAY211234567 ALG16101610+0100  AAE17101710+0100  73H                                                                                                 F16Y132               000023
3 AH 60060601J06MAY2106MAY21   4    ALG16101610+0100  AAE17101710+0100  73H                                                                                                 F16Y132               000024
3 AH 60060701J07MAY2111MAY2112  567 ALG17001700+0100  AAE18001800+0100  73H                                                                                                 F16Y132               000025
3 AH 60060801J13MAY2129MAY21   4 6  ALG18301830+0100  AAE19301930+0100  73H                                                                                                 F16Y132               000026
3 AH 60060901J14MAY2131MAY2112  5   ALG18001800+0100  AAE19001900+0100  73H                                                                                                 F16Y132               000027
3 AH 60061001J16MAY2130MAY21      7 ALG18151815+0100  AAE19151915+0100  73H                                                                                                 F16Y132               000028
3 AH 60070101J26MAR2112APR21123 567 AAE07150715+0100  ALG08150815+0100  73H                                                                                                 F16Y132               000029
3 AH 60070201J01APR2108APR21   4    AAE06500650+0100  ALG07500750+0100  73H                                                                                                 F16Y132               000030
3 AH 60070301J13APR2103MAY211234567 AAE09100910+0100  ALG10101010+0100  73H                                                                                                 F16Y132               000031
3 AH 60070401J05MAY2107MAY21  3 5   AAE09100910+0100  ALG10101010+0100  73H                                                                                                 F16Y132               000032
3 AH 60070501J08MAY2131MAY211 3 567 AAE07150715+0100  ALG08150815+0100  73H                                                                                                 F16Y132               000033
3 AH 60260101J26MAR2109APR2112345 7 ALG18151815+0100  CZL19051905+0100  73H                                                                                                 F16Y132               000034
3 AH 60260201J27MAR2110APR21     6  ALG18401840+0100  CZL19301930+0100  73H                                                                                                 F16Y132               000035
3 AH 60260301J11APR2111APR21      7 ALG18301830+0100  CZL19201920+0100  73H                                                                                                 F16Y132               000036
3 AH 60260401J12APR2101MAY211234567 ALG16201620+0100  CZL17101710+0100  73H                                                                                                 F16Y132               000037
3 AH 60260501J03MAY2105MAY21123     ALG16201620+0100  CZL17101710+0100  73H                                                                                                 F16Y132               000038
3 AH 60260601J07MAY2112MAY21123 56  ALG17151715+0100  CZL18051805+0100  73H                                                                                                 F16Y132               000039
3 AH 60260701J14MAY2131MAY21123 5   ALG18151815+0100  CZL19051905+0100  73H                                                                                                 F16Y132               000040
3 AH 60260801J15MAY2129MAY21     6  ALG18401840+0100  CZL19301930+0100  73H                                                                                                 F16Y132               000041
3 AH 60270101J26MAR2103APR211234567 CZL07200720+0100  ALG08100810+0100  73H                                                                                                 F16Y132               000042
3 AH 60270201J04APR2111APR21      7 CZL07450745+0100  ALG08350835+0100  73H                                                                                                 F16Y132               000043
3 AH 60270301J05APR2110APR21123456  CZL07200720+0100  ALG08100810+0100  73H                                                                                                 F16Y132               000044
3 AH 60270401J12APR2112APR211       CZL07350735+0100  ALG08250825+0100  73H                                                                                                 F16Y132               000045
3 AH 60270501J13APR2101MAY211234567 CZL09000900+0100  ALG09500950+0100  73H                                                                                                 F16Y132               000046
3 AH 60270601J03MAY2106MAY211 34    CZL09000900+0100  ALG09500950+0100  73H                                                                                                 F16Y132               000047
3 AH 60270701J08MAY2129MAY21  34 6  CZL07200720+0100  ALG08100810+0100  73H                                                                                                 F16Y132               000048
3 AH 60270801J10MAY2131MAY211       CZL07200720+0100  ALG08100810+0100  73H                                                                                                 F16Y132               000049
3 AH 60280101J27MAR2129MAY21     6  ALG09100910+0100  CZL10151015+0100  AT7                                                                                                 Y66                   000050
3 AH 60320101J26MAR2112APR211   5   ALG08300830+0100  TEE09450945+0100  AT7                                                                                                 Y66                   000051
3 AH 60320201J28MAR2130MAY21      7 ALG12151215+0100  TEE13301330+0100  AT7                                                                                                 Y66                   000052
3 AH 60320301J31MAR2107APR21  3     ALG11451145+0100  TEE13001300+0100  AT7                                                                                                 Y66                   000053
3 AH 60320401J14APR2105MAY21  3     ALG12501250+0100  TEE14051405+0100  AT7                                                                                                 Y66                   000054
3 AH 60320501J07MAY2131MAY211   5   ALG08300830+0100  TEE09450945+0100  AT7                                                                                                 Y66                   000055
3 AH 60320601J12MAY2126MAY21  3     ALG11451145+0100  TEE13001300+0100  AT7                                                                                                 Y66                   000056
3 AH 60330101J26MAR2112APR211   5   TEE10351035+0100  ALG12101210+0100  AT7                                                                                                 Y66                   000057
3 AH 60330201J28MAR2130MAY21      7 TEE14201420+0100  ALG15551555+0100  AT7                                                                                                 Y66                   000058
3 AH 60330301J31MAR2107APR21  3     TEE13501350+0100  ALG15251525+0100  AT7                                                                                                 Y66                   000059
3 AH 60330401J14APR2105MAY21  3     TEE14551455+0100  ALG16301630+0100  AT7                                                                                                 Y66                   000060
3 AH 60330501J07MAY2131MAY211   5   TEE10351035+0100  ALG12101210+0100  AT7                                                                                                 Y66                   000061
3 AH 60330601J12MAY2126MAY21  3     TEE13501350+0100  ALG15251525+0100  AT7                                                                                                 Y66                   000062
3 AH 60380101J26MAR2109APR21    5   ALG13401340+0100  BLJ14301430+0100  736                                                                                                 F16Y85                000063
3 AH 60380201J28MAR2128MAR21      7 ALG07300730+0100  BLJ08450845+0100  AT7                                                                                                 F16Y86                000064
3 AH 60380301J04APR2130MAY21      7 ALG07300730+0100  BLJ08450845+0100  AT7                                                                                                 F16Y86                000065
3 AH 60380401J16APR2130APR21    5   ALG14001400+0100  BLJ15151515+0100  AT7                                                                                                 Y66                   000066
3 AH 60380501J07MAY2128MAY21    5   ALG13401340+0100  BLJ14301430+0100  736                                                                                                 F16Y85                000067
3 AH 60390101J26MAR2109APR21    5   BLJ15301530+0100  ALG16201620+0100  736                                                                                                 F16Y85                000068
3 AH 60390201J28MAR2128MAR21      7 BLJ09350935+0100  ALG10501050+0100  AT7                                                                                                 F16Y86                000069
3 AH 60390301J04APR2130MAY21      7 BLJ09350935+0100  ALG10501050+0100  AT7                                                                                                 F16Y86                000070
3 AH 60390401J16APR2130APR21    5   BLJ16051605+0100  ALG17201720+0100  AT7                                                                                                 Y66                   000071
3 AH 60390501J07MAY2128MAY21    5   BLJ15301530+0100  ALG16201620+0100  736                                                                                                 F16Y85                000072
3 AH 60400101J29MAR2131MAY211       ALG11301130+0100  BSK12301230+0100  AT7                                                                                                 Y66                   000073
3 AH 60400201J31MAR2131MAR21  3     ALG10001000+0100  BSK10501050+0100  736                                                                                                 F16Y85                000074
3 AH 60400301J01APR2108APR21   4    ALG09450945+0100  BSK10351035+0100  736                                                                                                 F16Y85                000075
3 AH 60400401J15APR2106MAY21   4    ALG10501050+0100  BSK11401140+0100  736                                                                                                 F16Y85                000076
3 AH 60400501J12MAY2126MAY21  3     ALG10001000+0100  BSK10501050+0100  736                                                                                                 F16Y85                000077
3 AH 60400601J13MAY2127MAY21   4    ALG09450945+0100  BSK10351035+0100  736                                                                                                 F16Y85                000078
3 AH 60410101J29MAR2131MAY211       BSK13201320+0100  ALG14201420+0100  AT7                                                                                                 Y66                   000079
3 AH 60410201J31MAR2131MAR21  3     BSK11501150+0100  ALG12401240+0100  736                                                                                                 F16Y85                000080
3 AH 60410301J01APR2108APR21   4    BSK11351135+0100  ALG12251225+0100  736                                                                                                 F16Y85                000081
3 AH 60410401J15APR2106MAY21   4    BSK12401240+0100  ALG13301330+0100  736                                                                                                 F16Y85                000082
3 AH 60410501J12MAY2126MAY21  3     BSK11501150+0100  ALG12401240+0100  736                                                                                                 F16Y85                000083
3 AH 60410601J13MAY2127MAY21   4    BSK11351135+0100  ALG12251225+0100  736                                                                                                 F16Y85                000084
3 AH 60420101J27MAR2127MAR21     6  ALG09500950+0100  BSK10401040+0100  73H                                                                                                 F16Y132               000085
3 AH 60420201J28MAR2111APR21      7 ALG13401340+0100  BSK14301430+0100  736                                                                                                 F16Y85                000086
3 AH 60420301J03APR2110APR21     6  ALG09500950+0100  BSK10401040+0100  736                                                                                                 F16Y85                000087
3 AH 60420401J17APR2101MAY21     6  ALG11001100+0100  BSK11501150+0100  736                                                                                                 F16Y85                000088
3 AH 60420501J08MAY2129MAY21     6  ALG09500950+0100  BSK10401040+0100  736                                                                                                 F16Y85                000089
3 AH 60420601J09MAY2130MAY21      7 ALG13401340+0100  BSK14301430+0100  736                                                                                                 F16Y85                000090
3 AH 60430101J27MAR2127MAR21     6  BSK11401140+0100  ALG12301230+0100  73H                                                                                                 F16Y132               000091
3 AH 60430201J28MAR2111APR21      7 BSK15301530+0100  ALG16201620+0100  736                                                                                                 F16Y85                000092
3 AH 60430301J03APR2110APR21     6  BSK11401140+0100  ALG12301230+0100  736                                                                                                 F16Y85                000093
3 AH 60430401J17APR2101MAY21     6  BSK12501250+0100  ALG13401340+0100  736                                                                                                 F16Y85                000094
3 AH 60430501J08MAY2129MAY21     6  BSK11401140+0100  ALG12301230+0100  736                                                                                                 F16Y85                000095
3 AH 60430601J09MAY2130MAY21      7 BSK15301530+0100  ALG16201620+0100  736                                                                                                 F16Y85                000096
3 AH 60500101J30MAR2125MAY21 2      ALG10001000+0100  BJA10451045+0100  AT7                                                                                                 Y66                   000097
3 AH 60510101J30MAR2125MAY21 2      BJA11351135+0100  ALG12201220+0100  AT7                                                                                                 Y66                   000098
3 AH 60520101J01APR2108APR21   4    ALG12201220+0100  BJA13051305+0100  AT7                                                                                                 Y66                   000099
3 AH 60520201J15APR2106MAY21   4    ALG14001400+0100  BJA14451445+0100  AT7                                                                                                 Y66                   000100
3 AH 60520301J13MAY2127MAY21   4    ALG12201220+0100  BJA13051305+0100  AT7                                                                                                 Y66                   000101
3 AH 60530101J01APR2108APR21   4    BJA13551355+0100  ALG14401440+0100  AT7                                                                                                 Y66                   000102
3 AH 60530201J15APR2106MAY21   4    BJA15351535+0100  ALG16201620+0100  AT7                                                                                                 Y66                   000103
3 AH 60530301J13MAY2127MAY21   4    BJA13551355+0100  ALG14401440+0100  AT7                                                                                                 Y66                   000104
3 AH 60560101J27MAR2110APR21     6  ALG13501350+0100  GJL14451445+0100  736                                                                                                 F16Y85                000105
3 AH 60560201J30MAR2106APR21 2      ALG09300930+0100  GJL10201020+0100  736                                                                                                 F16Y85                000106
3 AH 60560301J01APR2108APR21   4    ALG09250925+0100  GJL10151015+0100  AT7                                                                                                 Y66                   000107
3 AH 60560401J08MAY2129MAY21     6  ALG13501350+0100  GJL14451445+0100  736                                                                                                 F16Y85                000108
3 AH 60560501J11MAY2125MAY21 2      ALG09300930+0100  GJL10201020+0100  736                                                                                                 F16Y85                000109
3 AH 60560601J13MAY2127MAY21   4    ALG09250925+0100  GJL10151015+0100  AT7                                                                                                 Y66                   000110
3 AH 60570101J27MAR2110APR21     6  GJL15451545+0100  ALG16401640+0100  736                                                                                                 F16Y85                000111
3 AH 60570201J30MAR2106APR21 2      GJL11201120+0100  ALG12101210+0100  736                                                                                                 F16Y85                000112
3 AH 60570301J01APR2108APR21   4    GJL11051105+0100  ALG11551155+0100  AT7                                                                                                 Y66                   000113
3 AH 60570401J08MAY2129MAY21     6  GJL15451545+0100  ALG16401640+0100  736                                                                                                 F16Y85                000114
3 AH 60570501J11MAY2125MAY21 2      GJL11201120+0100  ALG12101210+0100  736                                                                                                 F16Y85                000115
3 AH 60570601J13MAY2127MAY21   4    GJL11051105+0100  ALG11551155+0100  AT7                                                                                                 Y66                   000116
3 AH 60580101J26MAR2109APR21    5   ALG10001000+0100  GJL10501050+0100  736                                                                                                 F16Y85                000117
3 AH 60580201J29MAR2105APR211       ALG09450945+0100  GJL10351035+0100  736                                                                                                 F16Y85                000118
3 AH 60580301J31MAR2107APR21  3     ALG09500950+0100  GJL10401040+0100  736                                                                                                 F16Y85                000119
3 AH 60580401J12APR2103MAY211       ALG11001100+0100  GJL11501150+0100  736                                                                                                 F16Y85                000120
3 AH 60580501J14APR2105MAY21  3 5   ALG10501050+0100  GJL11401140+0100  736                                                                                                 F16Y85                000121
3 AH 60580601J07MAY2128MAY21    5   ALG10001000+0100  GJL10501050+0100  736                                                                                                 F16Y85                000122
3 AH 60580701J10MAY2131MAY211       ALG09450945+0100  GJL10351035+0100  736                                                                                                 F16Y85                000123
3 AH 60580801J12MAY2126MAY21  3     ALG09500950+0100  GJL10401040+0100  736                                                                                                 F16Y85                000124
3 AH 60590101J26MAR2109APR21    5   GJL11501150+0100  ALG12401240+0100  736                                                                                                 F16Y85                000125
3 AH 60590201J29MAR2105APR211       GJL11351135+0100  ALG12251225+0100  736                                                                                                 F16Y85                000126
3 AH 60590301J31MAR2107APR21  3     GJL11401140+0100  ALG12301230+0100  736                                                                                                 F16Y85                000127
3 AH 60590401J12APR2103MAY211       GJL12501250+0100  ALG13401340+0100  736                                                                                                 F16Y85                000128
3 AH 60590501J14APR2105MAY21  3 5   GJL12401240+0100  ALG13301330+0100  736                                                                                                 F16Y85                000129
3 AH 60590601J07MAY2128MAY21    5   GJL11501150+0100  ALG12401240+0100  736                                                                                                 F16Y85                000130
3 AH 60590701J10MAY2131MAY211       GJL11351135+0100  ALG12251225+0100  736                                                                                                 F16Y85                000131
3 AH 60590801J12MAY2126MAY21  3     GJL11401140+0100  ALG12301230+0100  736                                                                                                 F16Y85                000132
3 AH 60700101J27MAR2110APR21     6  ALG09400940+0100  LOO10501050+0100  AT7                                                                                                 Y66                   000133
3 AH 60700201J28MAR2130MAY21      7 ALG11301130+0100  LOO12401240+0100  AT7                                                                                                 Y66                   000134
3 AH 60700301J30MAR2106APR21 2      ALG09500950+0100  LOO11001100+0100  AT7                                                                                                 Y66                   000135
3 AH 60700401J01APR2127MAY21   4    ALG11451145+0100  LOO12551255+0100  AT7                                                                                                 Y66                   000136
3 AH 60700501J08MAY2129MAY21     6  ALG09400940+0100  LOO10501050+0100  AT7                                                                                                 Y66                   000137
3 AH 60700601J11MAY2125MAY21 2      ALG09500950+0100  LOO11001100+0100  AT7                                                                                                 Y66                   000138
3 AH 60710101J27MAR2110APR21     6  LOO11401140+0100  ALG12451245+0100  AT7                                                                                                 Y66                   000139
3 AH 60710201J28MAR2130MAY21      7 LOO13301330+0100  ALG14351435+0100  AT7                                                                                                 Y66                   000140
3 AH 60710301J30MAR2106APR21 2      LOO11501150+0100  ALG12551255+0100  AT7                                                                                                 Y66                   000141
3 AH 60710401J01APR2127MAY21   4    LOO13451345+0100  ALG14501450+0100  AT7                                                                                                 Y66                   000142
3 AH 60710501J08MAY2129MAY21     6  LOO11401140+0100  ALG12451245+0100  AT7                                                                                                 Y66                   000143
3 AH 60710601J11MAY2125MAY21 2      LOO11501150+0100  ALG12551255+0100  AT7                                                                                                 Y66                   000144
3 AH 61000101J29MAR2105APR211       ALG10001000+0100  ORN11001100+0100  73H                                                                                                 F16Y132               000145
3 AH 61000201J31MAR2126MAY21  3     ALG07000700+0100  ORN08150815+0100  AT7                                                                                                 Y66                   000146
3 AH 61000301J10MAY2131MAY211       ALG10001000+0100  ORN11001100+0100  73H                                                                                                 F16Y132               000147
3 AH 61030101J31MAR2131MAR21  3     ORN16001600+0100  ALG17151715+0100  AT7                                                                                                 Y66                   000148
3 AH 61030201J07APR2126MAY21  3     ORN16001600+0100  ALG17151715+0100  AT7                                                                                                 Y66                   000149
3 AH 61060101J26MAR2111APR21 23 5 7 ALG18451845+0100  ORN19451945+0100  73H                                                                                                 F16Y132               000150
3 AH 61060201J27MAR2110APR211    6  ALG18301830+0100  ORN19301930+0100  73H                                                                                                 F16Y132               000151
3 AH 61060301J01APR2108APR21   4    ALG18401840+0100  ORN19401940+0100  73H                                                                                                 F16Y132               000152
3 AH 61060401J12APR2106MAY211234567 ALG16001600+0100  ORN17001700+0100  73H                                                                                                 F16Y132               000153
3 AH 61060501J07MAY2112MAY21123 567 ALG17301730+0100  ORN18301830+0100  73H                                                                                                 F16Y132               000154
3 AH 61060601J13MAY2131MAY211  4 6  ALG18301830+0100  ORN19301930+0100  73H                                                                                                 F16Y132               000155
3 AH 61060701J14MAY2130MAY21 23 5 7 ALG18451845+0100  ORN19451945+0100  73H                                                                                                 F16Y132               000156
3 AH 61070101J26MAR2111APR21    5 7 ORN06300630+0100  ALG07300730+0100  73H                                                                                                 F16Y132               000157
3 AH 61070201J27MAR2127MAR21     6  ORN07000700+0100  ALG08000800+0100  73H                                                                                                 F16Y132               000158
3 AH 61070301J29MAR2110APR21123  6  ORN07000700+0100  ALG08000800+0100  73H                                                                                                 F16Y132               000159
3 AH 61070401J01APR2108APR21   4    ORN06450645+0100  ALG07450745+0100  73H                                                                                                 F16Y132               000160
3 AH 61070501J12APR2112APR211       ORN08000800+0100  ALG09000900+0100  73H                                                                                                 F16Y132               000161
3 AH 61070601J13APR2107MAY211234567 ORN08500850+0100  ALG09500950+0100  73H                                                                                                 F16Y132               000162
3 AH 61070701J08MAY2101JUN21123  6  ORN07000700+0100  ALG08000800+0100  73H                                                                                                 F16Y132               000163
3 AH 61070801J09MAY2130MAY21    5 7 ORN06300630+0100  ALG07300730+0100  73H                                                                                                 F16Y132               000164
3 AH 61070901J13MAY2127MAY21   4    ORN06450645+0100  ALG07450745+0100  73H                                                                                                 F16Y132               000165
3 AH 61110101J29MAR2105APR211       ORN13251325+0100  ALG14251425+0100  73H                                                                                                 F16Y132               000166
3 AH 61110201J10MAY2131MAY211       ORN13251325+0100  ALG14251425+0100  73H                                                                                                 F16Y132               000167
3 AH 61180101J26MAR2109APR21    5   ALG09300930+0100  TLM10301030+0100  736                                                                                                 F16Y85                000168
3 AH 61180201J16APR2130APR21    5   ALG11001100+0100  TLM12001200+0100  736                                                                                                 F16Y85                000169
3 AH 61180301J07MAY2128MAY21    5   ALG09300930+0100  TLM10301030+0100  736                                                                                                 F16Y85                000170
3 AH 61190101J26MAR2109APR21    5   TLM11301130+0100  ALG12301230+0100  736                                                                                                 F16Y85                000171
3 AH 61190201J16APR2130APR21    5   TLM13001300+0100  ALG14001400+0100  736                                                                                                 F16Y85                000172
3 AH 61190301J07MAY2128MAY21    5   TLM11301130+0100  ALG12301230+0100  736                                                                                                 F16Y85                000173
3 AH 61200101J29MAR2105APR211       ALG13001300+0100  TLM14001400+0100  73H                                                                                                 F16Y132               000174
3 AH 61200201J12APR2103MAY211       ALG12101210+0100  TLM13101310+0100  736                                                                                                 F16Y85                000175
3 AH 61200301J10MAY2131MAY211       ALG13001300+0100  TLM14001400+0100  73H                                                                                                 F16Y132               000176
3 AH 61210101J29MAR2105APR211       TLM15001500+0100  ALG16001600+0100  73H                                                                                                 F16Y132               000177
3 AH 61210201J12APR2103MAY211       TLM14101410+0100  ALG15101510+0100  736                                                                                                 F16Y85                000178
3 AH 61210301J10MAY2131MAY211       TLM15001500+0100  ALG16001600+0100  73H                                                                                                 F16Y132               000179
3 AH 61240101J28MAR2111APR21      7 ALG11501150+0100  TID12401240+0100  AT7                                                                                                 Y66                   000180
3 AH 61240201J31MAR2131MAR21  3     ALG10401040+0100  TID11301130+0100  AT7                                                                                                 Y66                   000181
3 AH 61240301J07APR2107APR21  3     ALG10401040+0100  TID11301130+0100  AT7                                                                                                 Y66                   000182
3 AH 61240401J14APR2105MAY21  3     ALG09300930+0100  TID10201020+0100  AT7                                                                                                 Y66                   000183
3 AH 61240501J18APR2102MAY21      7 ALG11501150+0100  TID12401240+0100  AT7                                                                                                 Y66                   000184
3 AH 61240601J09MAY2130MAY21      7 ALG11501150+0100  TID12401240+0100  AT7                                                                                                 Y66                   000185
3 AH 61240701J12MAY2126MAY21  3     ALG10401040+0100  TID11301130+0100  AT7                                                                                                 Y66                   000186
3 AH 61250101J28MAR2111APR21      7 TID13301330+0100  ALG14201420+0100  AT7                                                                                                 Y66                   000187
3 AH 61250201J31MAR2131MAR21  3     TID12201220+0100  ALG13101310+0100  AT7                                                                                                 Y66                   000188
3 AH 61250301J07APR2107APR21  3     TID12201220+0100  ALG13101310+0100  AT7                                                                                                 Y66                   000189
3 AH 61250401J14APR2105MAY21  3     TID11101110+0100  ALG12001200+0100  AT7                                                                                                 Y66                   000190
3 AH 61250501J18APR2102MAY21      7 TID13301330+0100  ALG14201420+0100  AT7                                                                                                 Y66                   000191
3 AH 61250601J09MAY2130MAY21      7 TID13301330+0100  ALG14201420+0100  AT7                                                                                                 Y66                   000192
3 AH 61250701J12MAY2126MAY21  3     TID12201220+0100  ALG13101310+0100  AT7                                                                                                 Y66                   000193
3 AH 61260101J31MAR2131MAR21  3     ORN06200620+0100  EBH07200720+0100  AT7                                                                                                 Y66                   000194
3 AH 61260201J07APR2126MAY21  3     ORN06200620+0100  EBH07200720+0100  AT7                                                                                                 Y66                   000195
3 AH 61270101J31MAR2131MAR21  3     EBH08100810+0100  ORN09150915+0100  AT7                                                                                                 Y66                   000196
3 AH 61270201J07APR2126MAY21  3     EBH08100810+0100  ORN09150915+0100  AT7                                                                                                 Y66                   000197
3 AH 61280101J28MAR2128MAR21      7 ORN07000700+0100  MZW08200820+0100  AT7                                                                                                 Y66                   000198
3 AH 61280201J04APR2130MAY21      7 ORN07000700+0100  MZW08200820+0100  AT7                                                                                                 Y66                   000199
3 AH 61290101J28MAR2128MAR21      7 MZW09100910+0100  ORN10351035+0100  AT7                                                                                                 Y66                   000200
3 AH 61290201J04APR2130MAY21      7 MZW09100910+0100  ORN10351035+0100  AT7                                                                                                 Y66                   000201
3 AH 61320101J27MAR2127MAR21     6  ALG10451045+0100  CBH12151215+0100  73H                                                                                                 F16Y132               000202
3 AH 61320201J29MAR2105APR211       ALG09000900+0100  CBH10351035+0100  73H                                                                                                 F16Y132               000203
3 AH 61320301J01APR2127MAY21   4    ALG10001000+0100  CBH12151215+0100  AT7                                                                                                 Y66                   000204
3 AH 61320401J03APR2129MAY21     6  ALG09000900+0100  CBH11151115+0100  AT7                                                                                                 Y66                   000205
3 AH 61320501J10MAY2131MAY211       ALG09000900+0100  CBH10351035+0100  73H                                                                                                 F16Y132               000206
3 AH 61330101J27MAR2127MAR21     6  CBH13151315+0100  ALG14351435+0100  73H                                                                                                 F16Y132               000207
3 AH 61330201J29MAR2105APR211       CBH15101510+0100  ALG16401640+0100  73H                                                                                                 F16Y132               000208
3 AH 61330301J01APR2127MAY21   4    CBH13051305+0100  ALG15051505+0100  AT7                                                                                                 Y66                   000209
3 AH 61330401J03APR2129MAY21     6  CBH12051205+0100  ALG14051405+0100  AT7                                                                                                 Y66                   000210
3 AH 61330501J10MAY2131MAY211       CBH15101510+0100  ALG16401640+0100  73H                                                                                                 F16Y132               000211
3 AH 61340101J26MAR2126MAR21    5   ALG10001000+0100  CBH11301130+0100  736                                                                                                 F16Y85                000212
3 AH 61340201J02APR2109APR21    5   ALG10001000+0100  CBH11301130+0100  AT7                                                                                                 Y66                   000213
3 AH 61340301J07MAY2128MAY21    5   ALG10001000+0100  CBH11301130+0100  AT7                                                                                                 Y66                   000214
3 AH 61350101J26MAR2126MAR21    5   CBH12301230+0100  ALG13501350+0100  736                                                                                                 F16Y85                000215
3 AH 61350201J02APR2109APR21    5   CBH12301230+0100  ALG14001400+0100  AT7                                                                                                 Y66                   000216
3 AH 61350301J07MAY2128MAY21    5   CBH12301230+0100  ALG14001400+0100  AT7                                                                                                 Y66                   000217
3 AH 61400101J26MAR2126MAR21    5   ALG08300830+0100  AZR11201120+0100  AT7                                                                                                 Y66                   000218
3 AH 61400201J28MAR2130MAY21      7 ALG07300730+0100  AZR10201020+0100  AT7                                                                                                 Y66                   000219
3 AH 61400301J29MAR2131MAY2112      ALG14001400+0100  AZR16501650+0100  AT7                                                                                                 Y66                   000220
3 AH 61400401J02APR2128MAY21    5   ALG08300830+0100  AZR11201120+0100  AT7                                                                                                 Y66                   000221
3 AH 61410101J27MAR2127MAR21     6  AZR07000700+0100  ALG09500950+0100  AT7                                                                                                 Y66                   000222
3 AH 61410201J29MAR2131MAY211       AZR13201320+0100  ALG16101610+0100  AT7                                                                                                 Y66                   000223
3 AH 61410301J30MAR2101JUN21 2      AZR12551255+0100  ALG15351535+0100  AT7                                                                                                 Y66                   000224
3 AH 61410401J01APR2129MAY21   4 6  AZR07000700+0100  ALG09500950+0100  AT7                                                                                                 Y66                   000225
3 AH 61420101J27MAR2110APR21     6  ALG09200920+0100  AZR11101110+0100  736                                                                                                 F16Y86                000226
3 AH 61420201J28MAR2111APR21   4  7 ALG09000900+0100  AZR10501050+0100  73H                                                                                                 F16Y132               000227
3 AH 61420301J29MAR2131MAY211       ALG10001000+0100  AZR12501250+0100  AT7                                                                                                 Y66                   000228
3 AH 61420401J18APR2102MAY21      7 ALG10101010+0100  AZR12001200+0100  73H                                                                                                 F16Y132               000229
3 AH 61420501J08MAY2129MAY21     6  ALG09200920+0100  AZR11101110+0100  736                                                                                                 F16Y86                000230
3 AH 61420601J09MAY2130MAY21   4  7 ALG09000900+0100  AZR10501050+0100  73H                                                                                                 F16Y132               000231
3 AH 61430101J27MAR2110APR21     6  AZR12101210+0100  ALG14001400+0100  736                                                                                                 F16Y86                000232
3 AH 61430201J28MAR2111APR21   4  7 AZR11501150+0100  ALG13401340+0100  73H                                                                                                 F16Y132               000233
3 AH 61430301J29MAR2131MAY211       AZR13401340+0100  ALG16301630+0100  AT7                                                                                                 Y66                   000234
3 AH 61430401J18APR2102MAY21      7 AZR13001300+0100  ALG14501450+0100  73H                                                                                                 F16Y132               000235
3 AH 61430501J08MAY2129MAY21     6  AZR12101210+0100  ALG14001400+0100  736                                                                                                 F16Y86                000236
3 AH 61430601J09MAY2130MAY21   4  7 AZR11501150+0100  ALG13401340+0100  73H                                                                                                 F16Y132               000237
3 AH 61460101J26MAR2128MAY21    5   ALG10001000+0100  TIN12301230+0100  73H                                                                                                 F16Y132               000238
3 AH 61460201J27MAR2127MAR21     6  ALG11401140+0100  TIN14101410+0100  736                                                                                                 F16Y85                000239
3 AH 61460301J29MAR2131MAY211       ALG10301030+0100  TIN13001300+0100  73H                                                                                                 F16Y132               000240
3 AH 61460401J01APR2108APR21   4    ALG09050905+0100  TIN11351135+0100  73H                                                                                                 F16Y132               000241
3 AH 61460501J03APR2110APR21     6  ALG11401140+0100  TIN14101410+0100  73H                                                                                                 F16Y132               000242
3 AH 61460601J08MAY2108MAY21     6  ALG11401140+0100  TIN14101410+0100  73H                                                                                                 F16Y132               000243
3 AH 61460701J13MAY2127MAY21   4    ALG09050905+0100  TIN11351135+0100  73H                                                                                                 F16Y132               000244
3 AH 61460801J15MAY2129MAY21     6  ALG11401140+0100  TIN14101410+0100  73H                                                                                                 F16Y132               000245
3 AH 61470101J26MAR2128MAY21    5   TIN13201320+0100  ALG15401540+0100  73H                                                                                                 F16Y132               000246
3 AH 61470201J27MAR2127MAR21     6  TIN15101510+0100  ALG17301730+0100  736                                                                                                 F16Y85                000247
3 AH 61470301J29MAR2131MAY211       TIN14001400+0100  ALG16201620+0100  73H                                                                                                 F16Y132               000248
3 AH 61470401J01APR2108APR21   4    TIN12301230+0100  ALG14451445+0100  73H                                                                                                 F16Y132               000249
3 AH 61470501J03APR2110APR21     6  TIN15101510+0100  ALG17301730+0100  73H                                                                                                 F16Y132               000250
3 AH 61470601J08MAY2108MAY21     6  TIN15101510+0100  ALG17301730+0100  73H                                                                                                 F16Y132               000251
3 AH 61470701J13MAY2127MAY21   4    TIN12301230+0100  ALG14451445+0100  73H                                                                                                 F16Y132               000252
3 AH 61470801J15MAY2129MAY21     6  TIN15101510+0100  ALG17301730+0100  73H                                                                                                 F16Y132               000253
3 AH 61480101J30MAR2125MAY21 2      ALG09300930+0100  CBH11001100+0100  73H                                                                                                 F16Y132               000254
3 AH 61480102J30MAR2125MAY21 2      CBH12001200+0100  TIN13101310+0100  73H                                                                                                 F16Y132               000255
3 AH 61490101J30MAR2125MAY21 2      TIN14101410+0100  ALG16301630+0100  73H                                                                                                 F16Y132               000256
3 AH 61500101J30MAR2125MAY21 2      ALG09300930+0100  TIN12001200+0100  73H                                                                                                 F16Y132               000257
3 AH 61510101J30MAR2125MAY21 2      TIN13001300+0100  CBH14001400+0100  73H                                                                                                 F16Y132               000258
3 AH 61510102J30MAR2125MAY21 2      CBH15001500+0100  ALG16351635+0100  73H                                                                                                 F16Y132               000259
3 AH 61560101J27MAR2110APR21     6  ALG09300930+0100  TMX11001100+0100  73H                                                                                                 F16Y132               000260
3 AH 61560201J28MAR2111APR21      7 ALG09150915+0100  TMX10451045+0100  73H                                                                                                 F16Y132               000261
3 AH 61560301J29MAR2105APR211       ALG09300930+0100  TMX11001100+0100  736                                                                                                 F16Y85                000262
3 AH 61560401J31MAR2131MAR21  3     ALG12301230+0100  TMX14001400+0100  73H                                                                                                 F16Y132               000263
3 AH 61560501J07APR2107APR21  3     ALG09000900+0100  TMX10301030+0100  73H                                                                                                 F16Y132               000264
3 AH 61560601J14APR2105MAY21  3     ALG11101110+0100  TMX12401240+0100  736                                                                                                 F16Y85                000265
3 AH 61560701J18APR2102MAY21      7 ALG11001100+0100  TMX12301230+0100  736                                                                                                 F16Y85                000266
3 AH 61560801J08MAY2129MAY21     6  ALG09300930+0100  TMX11001100+0100  73H                                                                                                 F16Y132               000267
3 AH 61560901J09MAY2130MAY21      7 ALG09150915+0100  TMX10451045+0100  73H                                                                                                 F16Y132               000268
3 AH 61561001J10MAY2131MAY211       ALG09300930+0100  TMX11001100+0100  736                                                                                                 F16Y85                000269
3 AH 61561101J12MAY2126MAY21  3     ALG12301230+0100  TMX14001400+0100  73H                                                                                                 F16Y132               000270
3 AH 61570101J27MAR2110APR21     6  TMX12001200+0100  ALG13301330+0100  73H                                                                                                 F16Y132               000271
3 AH 61570201J28MAR2111APR21      7 TMX11451145+0100  ALG13151315+0100  73H                                                                                                 F16Y132               000272
3 AH 61570301J29MAR2105APR211       TMX12001200+0100  ALG13301330+0100  736                                                                                                 F16Y85                000273
3 AH 61570401J31MAR2131MAR21  3     TMX15001500+0100  ALG16301630+0100  73H                                                                                                 F16Y132               000274
3 AH 61570501J07APR2107APR21  3     TMX11301130+0100  ALG13001300+0100  73H                                                                                                 F16Y132               000275
3 AH 61570601J14APR2105MAY21  3     TMX13401340+0100  ALG15101510+0100  736                                                                                                 F16Y85                000276
3 AH 61570701J18APR2102MAY21      7 TMX13301330+0100  ALG15001500+0100  736                                                                                                 F16Y85                000277
3 AH 61570801J08MAY2129MAY21     6  TMX12001200+0100  ALG13301330+0100  73H                                                                                                 F16Y132               000278
3 AH 61570901J09MAY2130MAY21      7 TMX11451145+0100  ALG13151315+0100  73H                                                                                                 F16Y132               000279
3 AH 61571001J10MAY2131MAY211       TMX12001200+0100  ALG13301330+0100  736                                                                                                 F16Y85                000280
3 AH 61571101J12MAY2126MAY21  3     TMX15001500+0100  ALG16301630+0100  73H                                                                                                 F16Y132               000281
3 AH 61640101J27MAR2127MAR21     6  AAE14351435+0100  ORN16001600+0100  73H                                                                                                 F16Y132               000282
3 AH 61640201J29MAR2129MAR211       AAE15001500+0100  ORN17001700+0100  AT7                                                                                                 Y66                   000283
3 AH 61640301J01APR2108APR21   4    AAE10451045+0100  ORN12351235+0100  73H                                                                                                 F16Y132               000284
3 AH 61640401J03APR2129MAY21     6  AAE14351435+0100  ORN16001600+0100  73H                                                                                                 F16Y132               000285
3 AH 61640501J05APR2131MAY211       AAE15001500+0100  ORN17001700+0100  AT7                                                                                                 Y66                   000286
3 AH 61640601J13MAY2127MAY21   4    AAE10451045+0100  ORN12351235+0100  73H                                                                                                 F16Y132               000287
3 AH 61650101J27MAR2127MAR21     6  ORN12201220+0100  AAE13351335+0100  73H                                                                                                 F16Y132               000288
3 AH 61650201J29MAR2129MAR211       ORN12151215+0100  AAE14151415+0100  AT7                                                                                                 Y66                   000289
3 AH 61650301J01APR2108APR21   4    ORN13351335+0100  AAE15301530+0100  73H                                                                                                 F16Y132               000290
3 AH 61650401J03APR2129MAY21     6  ORN12201220+0100  AAE13351335+0100  73H                                                                                                 F16Y132               000291
3 AH 61650501J05APR2131MAY211       ORN12151215+0100  AAE14151415+0100  AT7                                                                                                 Y66                   000292
3 AH 61650601J13MAY2127MAY21   4    ORN13351335+0100  AAE15301530+0100  73H                                                                                                 F16Y132               000293
3 AH 61680101J29MAR2129MAR211       ORN07000700+0100  CZL08400840+0100  AT7                                                                                                 Y66                   000294
3 AH 61680201J30MAR2130MAR21 2      ORN07350735+0100  CZL09150915+0100  AT7                                                                                                 Y66                   000295
3 AH 61680301J31MAR2107APR21  3     ORN10451045+0100  CZL12151215+0100  73H                                                                                                 F16Y132               000296
3 AH 61680401J05APR2131MAY211       ORN07000700+0100  CZL08400840+0100  AT7                                                                                                 Y66                   000297
3 AH 61680501J06APR2101JUN21 2      ORN07350735+0100  CZL09150915+0100  AT7                                                                                                 Y66                   000298
3 AH 61680601J12MAY2126MAY21  3     ORN10451045+0100  CZL12151215+0100  73H                                                                                                 F16Y132               000299
3 AH 61690101J29MAR2129MAR211       CZL09300930+0100  ORN11251125+0100  AT7                                                                                                 Y66                   000300
3 AH 61690201J30MAR2130MAR21 2      CZL10051005+0100  ORN12001200+0100  AT7                                                                                                 Y66                   000301
3 AH 61690301J31MAR2107APR21  3     CZL13151315+0100  ORN14451445+0100  73H                                                                                                 F16Y132               000302
3 AH 61690401J05APR2131MAY211       CZL09300930+0100  ORN11251125+0100  AT7                                                                                                 Y66                   000303
3 AH 61690501J06APR2101JUN21 2      CZL10051005+0100  ORN12001200+0100  AT7                                                                                                 Y66                   000304
3 AH 61690601J12MAY2126MAY21  3     CZL13151315+0100  ORN14451445+0100  73H                                                                                                 F16Y132               000305
3 AH 61700101J26MAR2109APR21    5   ALG07300730+0100  AAE08450845+0100  AT7                                                                                                 Y66                   000306
3 AH 61700201J27MAR2129MAR211    67 ALG07150715+0100  AAE08300830+0100  AT7                                                                                                 Y66                   000307
3 AH 61700301J30MAR2106APR21 2      ALG13501350+0100  AAE14501450+0100  736                                                                                                 F16Y85                000308
3 AH 61700401J31MAR2131MAR21  3     ALG08050805+0100  AAE09200920+0100  AT7                                                                                                 Y66                   000309
3 AH 61700501J03APR2110APR21     6  ALG07150715+0100  AAE08300830+0100  AT7                                                                                                 Y66                   000310
3 AH 61700601J04APR2111APR21      7 ALG07150715+0100  AAE08300830+0100  AT7                                                                                                 Y66                   000311
3 AH 61700701J05APR2105APR211       ALG07000700+0100  AAE08150815+0100  AT7                                                                                                 Y66                   000312
3 AH 61700801J07APR2107APR21  3     ALG08050805+0100  AAE09200920+0100  AT7                                                                                                 Y66                   000313
3 AH 61700901J07MAY2128MAY21    5   ALG07300730+0100  AAE08450845+0100  AT7                                                                                                 Y66                   000314
3 AH 61701001J08MAY2129MAY21     6  ALG07150715+0100  AAE08300830+0100  AT7                                                                                                 Y66                   000315
3 AH 61701101J09MAY2131MAY211     7 ALG07150715+0100  AAE08300830+0100  AT7                                                                                                 Y66                   000316
3 AH 61701201J11MAY2125MAY21 2      ALG13501350+0100  AAE14501450+0100  736                                                                                                 F16Y85                000317
3 AH 61701301J12MAY2126MAY21  3     ALG08050805+0100  AAE09200920+0100  AT7                                                                                                 Y66                   000318
3 AH 61710101J26MAR2109APR21    5   AAE09350935+0100  ALG10551055+0100  AT7                                                                                                 Y66                   000319
3 AH 61710201J27MAR2127MAR21     6  AAE09200920+0100  ALG10351035+0100  AT7                                                                                                 Y66                   000320
3 AH 61710301J28MAR2104APR211     7 AAE09200920+0100  ALG10401040+0100  AT7                                                                                                 Y66                   000321
3 AH 61710401J30MAR2106APR21 2      AAE15501550+0100  ALG16501650+0100  736                                                                                                 F16Y85                000322
3 AH 61710501J31MAR2131MAR21  3     AAE10101010+0100  ALG11301130+0100  AT7                                                                                                 Y66                   000323
3 AH 61710601J03APR2110APR21     6  AAE09200920+0100  ALG10351035+0100  AT7                                                                                                 Y66                   000324
3 AH 61710701J05APR2105APR211       AAE09050905+0100  ALG10251025+0100  AT7                                                                                                 Y66                   000325
3 AH 61710801J07APR2107APR21  3     AAE10101010+0100  ALG11301130+0100  AT7                                                                                                 Y66                   000326
3 AH 61710901J11APR2111APR21      7 AAE09200920+0100  ALG10401040+0100  AT7                                                                                                 Y66                   000327
3 AH 61711001J07MAY2128MAY21    5   AAE09350935+0100  ALG10551055+0100  AT7                                                                                                 Y66                   000328
3 AH 61711101J08MAY2129MAY21     6  AAE09200920+0100  ALG10351035+0100  AT7                                                                                                 Y66                   000329
3 AH 61711201J09MAY2131MAY211     7 AAE09200920+0100  ALG10401040+0100  AT7                                                                                                 Y66                   000330
3 AH 61711301J11MAY2125MAY21 2      AAE15501550+0100  ALG16501650+0100  736                                                                                                 F16Y85                000331
3 AH 61711401J12MAY2126MAY21  3     AAE10101010+0100  ALG11301130+0100  AT7                                                                                                 Y66                   000332
3 AH 61760101J26MAR2109APR21    5   ALG14001400+0100  AAE15151515+0100  AT7                                                                                                 Y66                   000333
3 AH 61760201J27MAR2110APR21     6  ALG15001500+0100  AAE16151615+0100  AT7                                                                                                 Y66                   000334
3 AH 61760301J28MAR2111APR21      7 ALG14151415+0100  AAE15151515+0100  736                                                                                                 F16Y85                000335
3 AH 61760401J29MAR2105APR211       ALG13251325+0100  AAE14251425+0100  736                                                                                                 F16Y85                000336
3 AH 61760501J30MAR2106APR21 2      ALG07150715+0100  AAE08300830+0100  AT7                                                                                                 Y66                   000337
3 AH 61760601J31MAR2107APR21  3     ALG14001400+0100  AAE15001500+0100  736                                                                                                 F16Y85                000338
3 AH 61760701J07MAY2128MAY21    5   ALG14001400+0100  AAE15151515+0100  AT7                                                                                                 Y66                   000339
3 AH 61760801J08MAY2115MAY21     67 ALG15001500+0100  AAE16151615+0100  AT7                                                                                                 Y66                   000340
3 AH 61760901J10MAY2110MAY211       ALG13251325+0100  AAE14401440+0100  AT7                                                                                                 Y66                   000341
3 AH 61761001J11MAY2125MAY21 2      ALG07150715+0100  AAE08300830+0100  AT7                                                                                                 Y66                   000342
3 AH 61761101J12MAY2112MAY21  3     ALG14001400+0100  AAE15151515+0100  AT7                                                                                                 Y66                   000343
3 AH 61761201J16MAY2130MAY21      7 ALG14151415+0100  AAE15151515+0100  736                                                                                                 F16Y85                000344
3 AH 61761301J17MAY2131MAY211       ALG13251325+0100  AAE14251425+0100  736                                                                                                 F16Y85                000345
3 AH 61761401J19MAY2126MAY21  3     ALG14001400+0100  AAE15001500+0100  736                                                                                                 F16Y85                000346
3 AH 61761501J22MAY2129MAY21     6  ALG15001500+0100  AAE16151615+0100  AT7                                                                                                 Y66                   000347
3 AH 61770101J26MAR2109APR21    5   AAE16051605+0100  ALG17251725+0100  AT7                                                                                                 Y66                   000348
3 AH 61770201J27MAR2110APR21     6  AAE17051705+0100  ALG18251825+0100  AT7                                                                                                 Y66                   000349
3 AH 61770301J28MAR2111APR21      7 AAE16151615+0100  ALG17151715+0100  736                                                                                                 F16Y85                000350
3 AH 61770401J29MAR2105APR211       AAE15251525+0100  ALG16251625+0100  736                                                                                                 F16Y85                000351
3 AH 61770501J30MAR2106APR21 2      AAE09200920+0100  ALG10401040+0100  AT7                                                                                                 Y66                   000352
3 AH 61770601J31MAR2107APR21  3     AAE16001600+0100  ALG17001700+0100  736                                                                                                 F16Y85                000353
3 AH 61770701J07MAY2128MAY21    5   AAE16051605+0100  ALG17251725+0100  AT7                                                                                                 Y66                   000354
3 AH 61770801J08MAY2115MAY21     67 AAE17051705+0100  ALG18251825+0100  AT7                                                                                                 Y66                   000355
3 AH 61770901J10MAY2110MAY211       AAE15301530+0100  ALG16501650+0100  AT7                                                                                                 Y66                   000356
3 AH 61771001J11MAY2125MAY21 2      AAE09200920+0100  ALG10401040+0100  AT7                                                                                                 Y66                   000357
3 AH 61771101J12MAY2112MAY21  3     AAE16051605+0100  ALG17251725+0100  AT7                                                                                                 Y66                   000358
3 AH 61771201J16MAY2130MAY21      7 AAE16151615+0100  ALG17151715+0100  736                                                                                                 F16Y85                000359
3 AH 61771301J17MAY2131MAY211       AAE15251525+0100  ALG16251625+0100  736                                                                                                 F16Y85                000360
3 AH 61771401J19MAY2126MAY21  3     AAE16001600+0100  ALG17001700+0100  736                                                                                                 F16Y85                000361
3 AH 61771501J22MAY2129MAY21     6  AAE17051705+0100  ALG18251825+0100  AT7                                                                                                 Y66                   000362
3 AH 61800101J26MAR2102APR21    56  ALG07300730+0100  ORN08450845+0100  AT7                                                                                                 Y66                   000363
3 AH 61800201J28MAR2111APR21      7 ALG07400740+0100  ORN08550855+0100  AT7                                                                                                 Y66                   000364
3 AH 61800301J29MAR2129MAR211       ALG06300630+0100  ORN07450745+0100  AT7                                                                                                 Y66                   000365
3 AH 61800401J30MAR2106APR21 2      ALG09250925+0100  ORN10251025+0100  736                                                                                                 F16Y85                000366
3 AH 61800501J01APR2108APR21   4    ALG06450645+0100  ORN08000800+0100  AT7                                                                                                 Y66                   000367
3 AH 61800601J03APR2110APR21     6  ALG07300730+0100  ORN08450845+0100  AT7                                                                                                 Y66                   000368
3 AH 61800701J05APR2105APR211       ALG06300630+0100  ORN07450745+0100  AT7                                                                                                 Y66                   000369
3 AH 61800801J09APR2109APR21    5   ALG07300730+0100  ORN08450845+0100  AT7                                                                                                 Y66                   000370
3 AH 61800901J07MAY2128MAY21    5   ALG07300730+0100  ORN08450845+0100  AT7                                                                                                 Y66                   000371
3 AH 61801001J08MAY2129MAY21     6  ALG07300730+0100  ORN08450845+0100  AT7                                                                                                 Y66                   000372
3 AH 61801101J09MAY2130MAY21      7 ALG07400740+0100  ORN08550855+0100  AT7                                                                                                 Y66                   000373
3 AH 61801201J10MAY2131MAY211       ALG06300630+0100  ORN07450745+0100  AT7                                                                                                 Y66                   000374
3 AH 61801301J11MAY2125MAY21 2      ALG09250925+0100  ORN10251025+0100  736                                                                                                 F16Y85                000375
3 AH 61801401J13MAY2127MAY21   4    ALG06450645+0100  ORN08000800+0100  AT7                                                                                                 Y66                   000376
3 AH 61810101J26MAR2102APR21    56  ORN09350935+0100  ALG10501050+0100  AT7                                                                                                 Y66                   000377
3 AH 61810201J28MAR2111APR21      7 ORN09450945+0100  ALG11001100+0100  AT7                                                                                                 Y66                   000378
3 AH 61810301J29MAR2129MAR211       ORN08350835+0100  ALG09500950+0100  AT7                                                                                                 Y66                   000379
3 AH 61810401J30MAR2106APR21 2      ORN11251125+0100  ALG12251225+0100  736                                                                                                 F16Y85                000380
3 AH 61810501J01APR2108APR21   4    ORN08500850+0100  ALG10051005+0100  AT7                                                                                                 Y66                   000381
3 AH 61810601J03APR2110APR21     6  ORN09350935+0100  ALG10501050+0100  AT7                                                                                                 Y66                   000382
3 AH 61810701J05APR2105APR211       ORN08350835+0100  ALG09500950+0100  AT7                                                                                                 Y66                   000383
3 AH 61810801J09APR2109APR21    5   ORN09350935+0100  ALG10501050+0100  AT7                                                                                                 Y66                   000384
3 AH 61810901J07MAY2128MAY21    5   ORN09350935+0100  ALG10501050+0100  AT7                                                                                                 Y66                   000385
3 AH 61811001J08MAY2129MAY21     6  ORN09350935+0100  ALG10501050+0100  AT7                                                                                                 Y66                   000386
3 AH 61811101J09MAY2130MAY21      7 ORN09450945+0100  ALG11001100+0100  AT7                                                                                                 Y66                   000387
3 AH 61811201J10MAY2131MAY211       ORN08350835+0100  ALG09500950+0100  AT7                                                                                                 Y66                   000388
3 AH 61811301J11MAY2125MAY21 2      ORN11251125+0100  ALG12251225+0100  736                                                                                                 F16Y85                000389
3 AH 61811401J13MAY2127MAY21   4    ORN08500850+0100  ALG10051005+0100  AT7                                                                                                 Y66                   000390
3 AH 61820101J31MAR2131MAR21  3     ALG13451345+0100  ORN14451445+0100  736                                                                                                 F16Y85                000391
3 AH 61820201J07APR2107APR21  3     ALG14001400+0100  ORN15001500+0100  736                                                                                                 F16Y85                000392
3 AH 61820301J12MAY2126MAY21  3     ALG13451345+0100  ORN14451445+0100  736                                                                                                 F16Y85                000393
3 AH 61830101J31MAR2131MAR21  3     ORN15451545+0100  ALG16451645+0100  736                                                                                                 F16Y85                000394
3 AH 61830201J07APR2107APR21  3     ORN16001600+0100  ALG17001700+0100  736                                                                                                 F16Y85                000395
3 AH 61830301J12MAY2126MAY21  3     ORN15451545+0100  ALG16451645+0100  736                                                                                                 F16Y85                000396
3 AH 61840101J26MAR2110APR21    56  ALG14001400+0100  ORN15001500+0100  736                                                                                                 F16Y85                000397
3 AH 61840201J28MAR2111APR21      7 ALG14451445+0100  ORN15451545+0100  736                                                                                                 F16Y85                000398
3 AH 61840301J30MAR2106APR21 2      ALG13451345+0100  ORN14451445+0100  736                                                                                                 F16Y85                000399
3 AH 61840401J01APR2108APR21   4    ALG14401440+0100  ORN15401540+0100  736                                                                                                 F16Y85                000400
3 AH 61840501J07MAY2129MAY21    56  ALG14001400+0100  ORN15001500+0100  736                                                                                                 F16Y85                000401
3 AH 61840601J09MAY2130MAY21      7 ALG14451445+0100  ORN15451545+0100  736                                                                                                 F16Y85                000402
3 AH 61840701J11MAY2125MAY21 2      ALG13451345+0100  ORN14451445+0100  736                                                                                                 F16Y85                000403
3 AH 61840801J13MAY2127MAY21   4    ALG14401440+0100  ORN15401540+0100  736                                                                                                 F16Y85                000404
3 AH 61850101J26MAR2110APR21 2  56  ORN16001600+0100  ALG17001700+0100  736                                                                                                 F16Y85                000405
3 AH 61850201J28MAR2111APR21      7 ORN16451645+0100  ALG17451745+0100  736                                                                                                 F16Y85                000406
3 AH 61850301J01APR2108APR21   4    ORN16401640+0100  ALG17401740+0100  736                                                                                                 F16Y85                000407
3 AH 61850401J07MAY2129MAY21 2  56  ORN16001600+0100  ALG17001700+0100  736                                                                                                 F16Y85                000408
3 AH 61850501J09MAY2130MAY21      7 ORN16451645+0100  ALG17451745+0100  736                                                                                                 F16Y85                000409
3 AH 61850601J13MAY2127MAY21   4    ORN16401640+0100  ALG17401740+0100  736                                                                                                 F16Y85                000410
3 AH 61900101J26MAR2109APR21    5   ALG09300930+0100  CZL10201020+0100  736                                                                                                 F16Y85                000411
3 AH 61900201J27MAR2110APR211  4 6  ALG07300730+0100  CZL08400840+0100  AT7                                                                                                 Y66                   000412
3 AH 61900301J28MAR2111APR21      7 ALG09450945+0100  CZL10351035+0100  736                                                                                                 F16Y85                000413
3 AH 61900401J30MAR2106APR21 2      ALG07050705+0100  CZL08150815+0100  AT7                                                                                                 Y66                   000414
3 AH 61900501J31MAR2107APR21  3     ALG07200720+0100  CZL08300830+0100  AT7                                                                                                 Y66                   000415
3 AH 61900601J07MAY2128MAY21    5   ALG09300930+0100  CZL10201020+0100  736                                                                                                 F16Y85                000416
3 AH 61900701J08MAY2131MAY211  4 6  ALG07300730+0100  CZL08400840+0100  AT7                                                                                                 Y66                   000417
3 AH 61900801J09MAY2130MAY21      7 ALG09450945+0100  CZL10351035+0100  736                                                                                                 F16Y85                000418
3 AH 61900901J11MAY2125MAY21 2      ALG07050705+0100  CZL08150815+0100  AT7                                                                                                 Y66                   000419
3 AH 61901001J12MAY2126MAY21  3     ALG07200720+0100  CZL08300830+0100  AT7                                                                                                 Y66                   000420
3 AH 61910101J26MAR2109APR21    5   CZL11201120+0100  ALG12101210+0100  736                                                                                                 F16Y85                000421
3 AH 61910201J27MAR2110APR211  4 6  CZL09300930+0100  ALG10401040+0100  AT7                                                                                                 Y66                   000422
3 AH 61910301J28MAR2111APR21      7 CZL11251125+0100  ALG12151215+0100  736                                                                                                 F16Y85                000423
3 AH 61910401J30MAR2106APR21 2      CZL09050905+0100  ALG10151015+0100  AT7                                                                                                 Y66                   000424
3 AH 61910501J31MAR2107APR21  3     CZL09200920+0100  ALG10301030+0100  AT7                                                                                                 Y66                   000425
3 AH 61910601J07MAY2128MAY21    5   CZL11201120+0100  ALG12101210+0100  736                                                                                                 F16Y85                000426
3 AH 61910701J08MAY2131MAY211  4 6  CZL09300930+0100  ALG10401040+0100  AT7                                                                                                 Y66                   000427
3 AH 61910801J09MAY2130MAY21      7 CZL11251125+0100  ALG12151215+0100  736                                                                                                 F16Y85                000428
3 AH 61910901J11MAY2125MAY21 2      CZL09050905+0100  ALG10151015+0100  AT7                                                                                                 Y66                   000429
3 AH 61911001J12MAY2126MAY21  3     CZL09200920+0100  ALG10301030+0100  AT7                                                                                                 Y66                   000430
3 AH 61920101J26MAR2109APR21 2  5   ALG13501350+0100  CZL14401440+0100  736                                                                                                 F16Y85                000431
3 AH 61920201J27MAR2110APR21     6  ALG15001500+0100  CZL15501550+0100  73H                                                                                                 F16Y132               000432
3 AH 61920301J29MAR2105APR211       ALG14301430+0100  CZL15201520+0100  736                                                                                                 F16Y85                000433
3 AH 61920401J07MAY2128MAY21 2  5   ALG13501350+0100  CZL14401440+0100  736                                                                                                 F16Y85                000434
3 AH 61920501J08MAY2129MAY21     6  ALG15001500+0100  CZL15501550+0100  73H                                                                                                 F16Y132               000435
3 AH 61920601J10MAY2131MAY211       ALG14301430+0100  CZL15201520+0100  736                                                                                                 F16Y85                000436
3 AH 61930101J26MAR2109APR21 2  5   CZL15401540+0100  ALG16301630+0100  736                                                                                                 F16Y85                000437
3 AH 61930201J27MAR2110APR21     6  CZL16501650+0100  ALG17401740+0100  73H                                                                                                 F16Y132               000438
3 AH 61930301J29MAR2105APR211       CZL16201620+0100  ALG17101710+0100  736                                                                                                 F16Y85                000439
3 AH 61930401J07MAY2128MAY21 2  5   CZL15401540+0100  ALG16301630+0100  736                                                                                                 F16Y85                000440
3 AH 61930501J08MAY2129MAY21     6  CZL16501650+0100  ALG17401740+0100  73H                                                                                                 F16Y132               000441
3 AH 61930601J10MAY2131MAY211       CZL16201620+0100  ALG17101710+0100  736                                                                                                 F16Y85                000442
3 AH 61940101J28MAR2111APR21      7 ALG14051405+0100  CZL14551455+0100  73H                                                                                                 F16Y132               000443
3 AH 61940201J31MAR2107APR21  3     ALG15551555+0100  CZL17051705+0100  AT7                                                                                                 Y66                   000444
3 AH 61940301J01APR2108APR21   4    ALG14001400+0100  CZL14501450+0100  736                                                                                                 F16Y85                000445
3 AH 61940401J09MAY2109MAY21      7 ALG14051405+0100  CZL14551455+0100  736                                                                                                 F16Y85                000446
3 AH 61940501J12MAY2126MAY21  3     ALG15551555+0100  CZL17051705+0100  AT7                                                                                                 Y66                   000447
3 AH 61940601J13MAY2127MAY21   4    ALG14001400+0100  CZL14501450+0100  736                                                                                                 F16Y85                000448
3 AH 61940701J16MAY2130MAY21      7 ALG14051405+0100  CZL14551455+0100  73H                                                                                                 F16Y132               000449
3 AH 61950101J28MAR2111APR21      7 CZL15551555+0100  ALG16451645+0100  73H                                                                                                 F16Y132               000450
3 AH 61950201J31MAR2107APR21  3     CZL17551755+0100  ALG19051905+0100  AT7                                                                                                 Y66                   000451
3 AH 61950301J01APR2108APR21   4    CZL15501550+0100  ALG16401640+0100  736                                                                                                 F16Y85                000452
3 AH 61950401J09MAY2109MAY21      7 CZL15551555+0100  ALG16451645+0100  736                                                                                                 F16Y85                000453
3 AH 61950501J12MAY2126MAY21  3     CZL17551755+0100  ALG19051905+0100  AT7                                                                                                 Y66                   000454
3 AH 61950601J13MAY2127MAY21   4    CZL15501550+0100  ALG16401640+0100  736                                                                                                 F16Y85                000455
3 AH 61950701J16MAY2130MAY21      7 CZL15551555+0100  ALG16451645+0100  73H                                                                                                 F16Y132               000456
3 AH 62000101J26MAR2110APR211 34567 ALG17301730+0100  GHA19001900+0100  AT7                                                                                                 Y66                   000457
3 AH 62000201J12APR2106MAY211  4 6  ALG16301630+0100  GHA18001800+0100  AT7                                                                                                 Y66                   000458
3 AH 62000301J07MAY2112MAY211 3 567 ALG16301630+0100  GHA18001800+0100  AT7                                                                                                 Y66                   000459
3 AH 62000401J13MAY2131MAY211 34567 ALG17301730+0100  GHA19001900+0100  AT7                                                                                                 Y66                   000460
3 AH 62010101J26MAR2103APR2112 4567 GHA07150715+0100  ALG08450845+0100  AT7                                                                                                 Y66                   000461
3 AH 62010201J04APR2125APR21      7 GHA07350735+0100  ALG09050905+0100  AT7                                                                                                 Y66                   000462
3 AH 62010301J05APR2110APR2112 456  GHA07150715+0100  ALG08450845+0100  AT7                                                                                                 Y66                   000463
3 AH 62010401J13APR2107MAY21 2  5   GHA07150715+0100  ALG08450845+0100  AT7                                                                                                 Y66                   000464
3 AH 62010501J02MAY2130MAY21      7 GHA07350735+0100  ALG09050905+0100  AT7                                                                                                 Y66                   000465
3 AH 62010601J08MAY2101JUN2112 456  GHA07150715+0100  ALG08450845+0100  AT7                                                                                                 Y66                   000466
3 AH 62160101J26MAR2128MAY21    5   ALG11401140+0100  OGX13201320+0100  AT7                                                                                                 Y66                   000467
3 AH 62160201J27MAR2127MAR21     6  ALG11301130+0100  OGX13101310+0100  AT7                                                                                                 Y66                   000468
3 AH 62160301J28MAR2130MAY21      7 ALG07150715+0100  OGX08550855+0100  AT7                                                                                                 Y66                   000469
3 AH 62160401J30MAR2130MAR21 2      ALG08000800+0100  OGX09400940+0100  AT7                                                                                                 Y66                   000470
3 AH 62160501J31MAR2107APR21  3     ALG13201320+0100  OGX14351435+0100  736                                                                                                 F16Y85                000471
3 AH 62160601J01APR2108APR21   4    ALG12451245+0100  OGX14251425+0100  AT7                                                                                                 Y66                   000472
3 AH 62160701J03APR2110APR21     6  ALG11301130+0100  OGX13101310+0100  AT7                                                                                                 Y66                   000473
3 AH 62160801J06APR2125MAY21 2      ALG08000800+0100  OGX09400940+0100  AT7                                                                                                 Y66                   000474
3 AH 62160901J14APR2105MAY21  3     ALG11551155+0100  OGX13101310+0100  736                                                                                                 F16Y85                000475
3 AH 62161001J08MAY2129MAY21     6  ALG11301130+0100  OGX13101310+0100  AT7                                                                                                 Y66                   000476
3 AH 62161101J12MAY2126MAY21  3     ALG13201320+0100  OGX14351435+0100  736                                                                                                 F16Y85                000477
3 AH 62161201J13MAY2127MAY21   4    ALG12451245+0100  OGX14251425+0100  AT7                                                                                                 Y66                   000478
3 AH 62170101J26MAR2128MAY21    5   OGX14101410+0100  ALG15501550+0100  AT7                                                                                                 Y66                   000479
3 AH 62170201J27MAR2127MAR21     6  OGX14001400+0100  ALG15401540+0100  AT7                                                                                                 Y66                   000480
3 AH 62170301J28MAR2130MAY21      7 OGX09450945+0100  ALG11251125+0100  AT7                                                                                                 Y66                   000481
3 AH 62170401J30MAR2130MAR21 2      OGX15501550+0100  ALG17301730+0100  AT7                                                                                                 Y66                   000482
3 AH 62170501J31MAR2107APR21  3     OGX15351535+0100  ALG16451645+0100  736                                                                                                 F16Y85                000483
3 AH 62170601J01APR2108APR21   4    OGX15151515+0100  ALG16551655+0100  AT7                                                                                                 Y66                   000484
3 AH 62170701J03APR2110APR21     6  OGX14001400+0100  ALG15401540+0100  AT7                                                                                                 Y66                   000485
3 AH 62170801J06APR2125MAY21 2      OGX15501550+0100  ALG17301730+0100  AT7                                                                                                 Y66                   000486
3 AH 62170901J14APR2105MAY21  3     OGX14101410+0100  ALG15201520+0100  736                                                                                                 F16Y85                000487
3 AH 62171001J08MAY2129MAY21     6  OGX14001400+0100  ALG15401540+0100  AT7                                                                                                 Y66                   000488
3 AH 62171101J12MAY2126MAY21  3     OGX15351535+0100  ALG16451645+0100  736                                                                                                 F16Y85                000489
