1AIRLINE STANDARD SCHEDULE DATA SET                                                                                                                                                            001000001
00000000000000000000000000000000000000000000000000000000000000000000000000000000000000000000000000000000000000000000000000000000000000000000000000000000000000000000000000000000000000000000000000000000
00000000000000000000000000000000000000000000000000000000000000000000000000000000000000000000000000000000000000000000000000000000000000000000000000000000000000000000000000000000000000000000000000000000
00000000000000000000000000000000000000000000000000000000000000000000000000000000000000000000000000000000000000000000000000000000000000000000000000000000000000000000000000000000000000000000000000000000
00000000000000000000000000000000000000000000000000000000000000000000000000000000000000000000000000000000000000000000000000000000000000000000000000000000000000000000000000000000000000000000000000000000
2UAH          10FEB2109FEB2210FEB21 AIR ALGERIE                        C AIMS                                                                                                                 1300000002
00000000000000000000000000000000000000000000000000000000000000000000000000000000000000000000000000000000000000000000000000000000000000000000000000000000000000000000000000000000000000000000000000000000
00000000000000000000000000000000000000000000000000000000000000000000000000000000000000000000000000000000000000000000000000000000000000000000000000000000000000000000000000000000000000000000000000000000
00000000000000000000000000000000000000000000000000000000000000000000000000000000000000000000000000000000000000000000000000000000000000000000000000000000000000000000000000000000000000000000000000000000
00000000000000000000000000000000000000000000000000000000000000000000000000000000000000000000000000000000000000000000000000000000000000000000000000000000000000000000000000000000000000000000000000000000
3 AH 10010101J10FEB2123FEB211234567 CDG13401340+0100  ALG15451545+0100  332                                                                                                 F18C40Y211            000003
3 AH 10010201J24FEB2128FEB21  34567 CDG13401340+0100  ALG15451545+0100  332                                                                                                 F18C14Y219            000004
3 AH 10030101J16FEB2128FEB211234567 CDG11301130+0100  ALG13351335+0100  332                                                                                                 F18C14Y219            000005
3 AH 10040101J10FEB2110FEB21  3     ALG10451045+0100  ORY13051305+0100  332                                                                                                 Y302                  000006
3 AH 10040201J11FEB2115FEB211  4567 ALG10451045+0100  ORY13051305+0100  332                                                                                                 F18C14Y219            000007
3 AH 10050101J10FEB2110FEB21  3     ORY14201420+0100  ALG16301630+0100  332                                                                                                 Y302                  000008
3 AH 10050201J11FEB2115FEB211  4567 ORY14201420+0100  ALG16301630+0100  332                                                                                                 F18C14Y219            000009
3 AH 10110101J10FEB2115FEB211 34567 ORY13001300+0100  ALG15101510+0100  332                                                                                                 Y302                  000010
3 AH 12150101J16FEB2128FEB211234567 CDG15201520+0100  ALG17251725+0100  332                                                                                                 Y302                  000011
3 AH 30600101J10FEB2131MAR21  3     ALG10001000+0100  CTU21552155+0800  332                                                                                                 F18C14Y219            000012
3 AH 30600201J11FEB2101APR21   4    CTU17101710+0800  PEK20102010+0800  332                                                                                                 F18C14Y219            000013
3 AH 30600301J01APR2130DEC21   4  7 ALG12001200+0100  PEK23102310+0800  332                                                                                                 F18C14Y219            000014
3 AH 30610101J11FEB2101APR21   4    PEK21402140+0800  ALG10401040+0100  332                                                                                                 F18C14Y219            000015
3 AH 30610201J02APR2131DEC211   5   PEK00500050+0800  ALG13201320+0100  332                                                                                                 F18C14Y219            000016
3 AH 60000101J11FEB2111FEB21   4    ALG07300730+0100  AAE08300830+0100  73H                                                                                                 F16Y132               000017
3 AH 60000201J18FEB2125MAR21   4    ALG08500850+0100  AAE09500950+0100  73H                                                                                                 F16Y132               000018
3 AH 60010101J11FEB2111FEB21   4    AAE15101510+0100  ALG16101610+0100  73H                                                                                                 F16Y132               000019
3 AH 60010201J18FEB2125MAR21   4    AAE16301630+0100  ALG17301730+0100  73H                                                                                                 F16Y132               000020
3 AH 60060101J10FEB2115FEB211 34567 ALG16001600+0100  AAE17001700+0100  73H                                                                                                 F16Y132               000021
3 AH 60060201J16FEB2130MAR2112  5 7 ALG18001800+0100  AAE19001900+0100  73H                                                                                                 F16Y132               000022
3 AH 60060301J17FEB2131MAR21  3     ALG17351735+0100  AAE18351835+0100  73H                                                                                                 F16Y132               000023
3 AH 60060401J18FEB2127MAR21   4 6  ALG18301830+0100  AAE19301930+0100  73H                                                                                                 F16Y132               000024
3 AH 60070101J10FEB2115FEB211 34567 AAE07200720+0100  ALG08200820+0100  73H                                                                                                 F16Y132               000025
3 AH 60070201J16FEB2116FEB21 2      AAE07150715+0100  ALG08150815+0100  73H                                                                                                 F16Y132               000026
3 AH 60070301J17FEB2101MAR21123  6  AAE07150715+0100  ALG08150815+0100  73H                                                                                                 F16Y132               000027
3 AH 60070401J18FEB2101APR21   4    AAE06500650+0100  ALG07500750+0100  73H                                                                                                 F16Y132               000028
3 AH 60070501J19FEB2128MAR21    5 7 AAE07450745+0100  ALG08450845+0100  73H                                                                                                 F16Y132               000029
3 AH 60070601J02MAR2130MAR21 2      AAE07150715+0100  ALG08150815+0100  73H                                                                                                 F16Y132               000030
3 AH 60070701J03MAR2131MAR211 3  6  AAE07150715+0100  ALG08150815+0100  73H                                                                                                 F16Y132               000031
3 AH 60130101J13FEB2113FEB21     6  CZL14101410+0100  ALG15001500+0100  73H                                                                                                 F16Y132               000032
3 AH 60240101J11FEB2111FEB21   4    ALG08000800+0100  CZL08500850+0100  73H                                                                                                 F16Y132               000033
3 AH 60260101J10FEB2112FEB21  3 5   ALG16001600+0100  CZL16501650+0100  73H                                                                                                 F16Y132               000034
3 AH 60260201J11FEB2114FEB21   4 67 ALG16101610+0100  CZL17001700+0100  73H                                                                                                 F16Y132               000035
3 AH 60260301J15FEB2115FEB211       ALG16201620+0100  CZL17101710+0100  73H                                                                                                 F16Y132               000036
3 AH 60260401J16FEB2131MAR21 2345   ALG18151815+0100  CZL19051905+0100  73H                                                                                                 F16Y132               000037
3 AH 60260501J20FEB2127MAR21     6  ALG18401840+0100  CZL19301930+0100  73H                                                                                                 F16Y132               000038
3 AH 60260601J21FEB2128MAR21      7 ALG18151815+0100  CZL19151915+0100  73H                                                                                                 F16Y132               000039
3 AH 60260701J22FEB2129MAR211       ALG18301830+0100  CZL19301930+0100  73H                                                                                                 F16Y132               000040
3 AH 60270101J10FEB2112FEB21  3 5   CZL07100710+0100  ALG08000800+0100  73H                                                                                                 F16Y132               000041
3 AH 60270201J11FEB2114FEB21   4 67 CZL07150715+0100  ALG08050805+0100  73H                                                                                                 F16Y132               000042
3 AH 60270301J16FEB2116FEB21 2      CZL07350735+0100  ALG08250825+0100  73H                                                                                                 F16Y132               000043
3 AH 60270401J17FEB2131MAR21  3 56  CZL07200720+0100  ALG08100810+0100  73H                                                                                                 F16Y132               000044
3 AH 60270501J18FEB2125MAR21   4    CZL07150715+0100  ALG08150815+0100  73H                                                                                                 F16Y132               000045
3 AH 60270601J21FEB2128MAR21      7 CZL07450745+0100  ALG08350835+0100  73H                                                                                                 F16Y132               000046
3 AH 60270701J22FEB2129MAR211       CZL07300730+0100  ALG08300830+0100  73H                                                                                                 F16Y132               000047
3 AH 60270801J23FEB2123FEB21 2      CZL07350735+0100  ALG08250825+0100  73H                                                                                                 F16Y132               000048
3 AH 60270901J02MAR2130MAR21 2      CZL07350735+0100  ALG08250825+0100  73H                                                                                                 F16Y132               000049
3 AH 60271001J01APR2101APR21   4    CZL07200720+0100  ALG08100810+0100  73H                                                                                                 F16Y132               000050
3 AH 60280101J13FEB2113FEB21     6  ALG10001000+0100  CZL10501050+0100  AT7                                                                                                 Y66                   000051
3 AH 60280201J20FEB2127FEB21     6  ALG09100910+0100  CZL10151015+0100  AT7                                                                                                 Y66                   000052
3 AH 60280301J06MAR2127MAR21     6  ALG09100910+0100  CZL10001000+0100  73H                                                                                                 F16Y132               000053
3 AH 60320101J10FEB2117FEB21  3   7 ALG11451145+0100  TEE13001300+0100  AT7                                                                                                 Y66                   000054
3 AH 60320201J12FEB2129MAR211   5   ALG08300830+0100  TEE09450945+0100  AT7                                                                                                 Y66                   000055
3 AH 60320301J21FEB2128MAR21      7 ALG12151215+0100  TEE13301330+0100  AT7                                                                                                 Y66                   000056
3 AH 60320401J24FEB2131MAR21  3     ALG11451145+0100  TEE13001300+0100  AT7                                                                                                 Y66                   000057
3 AH 60330101J10FEB2117FEB21  3   7 TEE13501350+0100  ALG15251525+0100  AT7                                                                                                 Y66                   000058
3 AH 60330201J12FEB2129MAR211   5   TEE10351035+0100  ALG12101210+0100  AT7                                                                                                 Y66                   000059
3 AH 60330301J21FEB2128MAR21      7 TEE14201420+0100  ALG15551555+0100  AT7                                                                                                 Y66                   000060
3 AH 60330401J24FEB2131MAR21  3     TEE13501350+0100  ALG15251525+0100  AT7                                                                                                 Y66                   000061
3 AH 60380101J12FEB2112FEB21    5   ALG13201320+0100  BLJ14351435+0100  AT7                                                                                                 Y66                   000062
3 AH 60380201J14FEB2128MAR21      7 ALG07300730+0100  BLJ08450845+0100  AT7                                                                                                 F16Y86                000063
3 AH 60380301J19FEB2126MAR21    5   ALG13401340+0100  BLJ14301430+0100  736                                                                                                 F16Y85                000064
3 AH 60390101J12FEB2112FEB21    5   BLJ15251525+0100  ALG16401640+0100  AT7                                                                                                 Y66                   000065
3 AH 60390201J14FEB2128MAR21      7 BLJ09350935+0100  ALG10501050+0100  AT7                                                                                                 F16Y86                000066
3 AH 60390301J19FEB2126MAR21    5   BLJ15301530+0100  ALG16201620+0100  736                                                                                                 F16Y85                000067
3 AH 60400101J10FEB2110FEB21  3     ALG06400640+0100  BSK07400740+0100  AT7                                                                                                 Y66                   000068
3 AH 60400201J11FEB2111FEB21   4    ALG08450845+0100  BSK09450945+0100  AT7                                                                                                 Y66                   000069
3 AH 60400301J15FEB2115FEB211       ALG11301130+0100  BSK12301230+0100  AT7                                                                                                 Y66                   000070
3 AH 60400401J17FEB2131MAR21  3     ALG10001000+0100  BSK10501050+0100  736                                                                                                 F16Y85                000071
3 AH 60400501J18FEB2125MAR21   4    ALG09450945+0100  BSK10351035+0100  736                                                                                                 F16Y85                000072
3 AH 60400601J22FEB2122FEB211       ALG14151415+0100  BSK15051505+0100  AT7                                                                                                 Y66                   000073
3 AH 60400701J01MAR2129MAR211       ALG14151415+0100  BSK15051505+0100  73H                                                                                                 F16Y132               000074
3 AH 60410101J10FEB2110FEB21  3     BSK08300830+0100  ALG09300930+0100  AT7                                                                                                 Y66                   000075
3 AH 60410201J11FEB2111FEB21   4    BSK10351035+0100  ALG11351135+0100  AT7                                                                                                 Y66                   000076
3 AH 60410301J15FEB2115FEB211       BSK13201320+0100  ALG14201420+0100  AT7                                                                                                 Y66                   000077
3 AH 60410401J17FEB2131MAR21  3     BSK11501150+0100  ALG12401240+0100  736                                                                                                 F16Y85                000078
3 AH 60410501J18FEB2125MAR21   4    BSK11351135+0100  ALG12251225+0100  736                                                                                                 F16Y85                000079
3 AH 60410601J22FEB2122FEB211       BSK16051605+0100  ALG16551655+0100  AT7                                                                                                 Y66                   000080
3 AH 60410701J01MAR2129MAR211       BSK16051605+0100  ALG16551655+0100  73H                                                                                                 F16Y132               000081
3 AH 60420101J13FEB2113FEB21     6  ALG07300730+0100  BSK08300830+0100  AT7                                                                                                 Y66                   000082
3 AH 60420201J14FEB2114FEB21      7 ALG11101110+0100  BSK12101210+0100  AT7                                                                                                 Y66                   000083
3 AH 60420301J20FEB2127FEB21     6  ALG09500950+0100  BSK10401040+0100  736                                                                                                 F16Y85                000084
3 AH 60420401J21FEB2128MAR21      7 ALG13401340+0100  BSK14301430+0100  736                                                                                                 F16Y85                000085
3 AH 60420501J06MAR2127MAR21     6  ALG14001400+0100  BSK14501450+0100  736                                                                                                 F16Y85                000086
3 AH 60430101J13FEB2113FEB21     6  BSK09200920+0100  ALG10201020+0100  AT7                                                                                                 Y66                   000087
3 AH 60430201J14FEB2114FEB21      7 BSK13001300+0100  ALG14001400+0100  AT7                                                                                                 Y66                   000088
3 AH 60430301J20FEB2127FEB21     6  BSK11401140+0100  ALG12301230+0100  736                                                                                                 F16Y85                000089
3 AH 60430401J21FEB2128MAR21      7 BSK15301530+0100  ALG16201620+0100  736                                                                                                 F16Y85                000090
3 AH 60430501J06MAR2127MAR21     6  BSK15501550+0100  ALG16401640+0100  736                                                                                                 F16Y85                000091
3 AH 60500101J16FEB2130MAR21 2      ALG10001000+0100  BJA10301030+0100  736                                                                                                 F16Y85                000092
3 AH 60510101J16FEB2130MAR21 2      BJA11301130+0100  ALG12001200+0100  736                                                                                                 F16Y85                000093
3 AH 60520101J11FEB2111FEB21   4    ALG14101410+0100  BJA14551455+0100  AT7                                                                                                 Y66                   000094
3 AH 60520201J18FEB2125MAR21   4    ALG14501450+0100  BJA15351535+0100  AT7                                                                                                 Y66                   000095
3 AH 60530101J11FEB2111FEB21   4    BJA15451545+0100  ALG16301630+0100  AT7                                                                                                 Y66                   000096
3 AH 60530201J18FEB2125MAR21   4    BJA16251625+0100  ALG17101710+0100  AT7                                                                                                 Y66                   000097
3 AH 60560101J11FEB2111FEB21   4    ALG13401340+0100  GJL14401440+0100  AT7                                                                                                 Y66                   000098
3 AH 60560201J13FEB2113FEB21     6  ALG14251425+0100  GJL15151515+0100  AT7                                                                                                 Y66                   000099
3 AH 60560301J16FEB2130MAR21 2      ALG09300930+0100  GJL10201020+0100  736                                                                                                 F16Y85                000100
3 AH 60560401J18FEB2125FEB21   4    ALG14201420+0100  GJL15101510+0100  AT7                                                                                                 Y66                   000101
3 AH 60560501J20FEB2127FEB21     6  ALG14001400+0100  GJL14501450+0100  AT7                                                                                                 Y66                   000102
3 AH 60560601J04MAR2125MAR21   4    ALG14201420+0100  GJL15101510+0100  736                                                                                                 F16Y85                000103
3 AH 60560701J06MAR2127MAR21     6  ALG14001400+0100  GJL14501450+0100  736                                                                                                 F16Y85                000104
3 AH 60570101J11FEB2111FEB21   4    GJL15301530+0100  ALG16301630+0100  AT7                                                                                                 Y66                   000105
3 AH 60570201J13FEB2113FEB21     6  GJL16051605+0100  ALG17151715+0100  AT7                                                                                                 Y66                   000106
3 AH 60570301J16FEB2130MAR21 2      GJL11201120+0100  ALG12101210+0100  736                                                                                                 F16Y85                000107
3 AH 60570401J18FEB2125FEB21   4    GJL16101610+0100  ALG17001700+0100  AT7                                                                                                 Y66                   000108
3 AH 60570501J20FEB2127FEB21     6  GJL15501550+0100  ALG16401640+0100  AT7                                                                                                 Y66                   000109
3 AH 60570601J04MAR2125MAR21   4    GJL16101610+0100  ALG17001700+0100  736                                                                                                 F16Y85                000110
3 AH 60570701J06MAR2127MAR21     6  GJL15501550+0100  ALG16401640+0100  736                                                                                                 F16Y85                000111
3 AH 60580101J10FEB2110FEB21  3     ALG10201020+0100  GJL11201120+0100  AT7                                                                                                 Y66                   000112
3 AH 60580201J12FEB2112FEB21    5   ALG11301130+0100  GJL12301230+0100  AT7                                                                                                 Y66                   000113
3 AH 60580301J15FEB2115FEB211       ALG09200920+0100  GJL10101010+0100  AT7                                                                                                 Y66                   000114
3 AH 60580401J17FEB2131MAR21  3     ALG09500950+0100  GJL10401040+0100  736                                                                                                 F16Y85                000115
3 AH 60580501J19FEB2126MAR21    5   ALG10001000+0100  GJL10501050+0100  736                                                                                                 F16Y85                000116
3 AH 60580601J22FEB2129MAR211       ALG09450945+0100  GJL10351035+0100  736                                                                                                 F16Y85                000117
3 AH 60590101J10FEB2110FEB21  3     GJL12101210+0100  ALG13101310+0100  AT7                                                                                                 Y66                   000118
3 AH 60590201J12FEB2112FEB21    5   GJL13201320+0100  ALG14201420+0100  AT7                                                                                                 Y66                   000119
3 AH 60590301J15FEB2115FEB211       GJL11001100+0100  ALG11501150+0100  AT7                                                                                                 Y66                   000120
3 AH 60590401J17FEB2131MAR21  3     GJL11401140+0100  ALG12301230+0100  736                                                                                                 F16Y85                000121
3 AH 60590501J19FEB2126MAR21    5   GJL11501150+0100  ALG12401240+0100  736                                                                                                 F16Y85                000122
3 AH 60590601J22FEB2129MAR211       GJL11351135+0100  ALG12251225+0100  736                                                                                                 F16Y85                000123
3 AH 60700101J11FEB2111FEB21   4    ALG12251225+0100  LOO13351335+0100  AT7                                                                                                 Y66                   000124
3 AH 60700201J13FEB2113FEB21     6  ALG09400940+0100  LOO10501050+0100  AT7                                                                                                 Y66                   000125
3 AH 60700301J14FEB2128MAR21      7 ALG11301130+0100  LOO12401240+0100  AT7                                                                                                 Y66                   000126
3 AH 60700401J16FEB2130MAR21 2   6  ALG09400940+0100  LOO10501050+0100  AT7                                                                                                 Y66                   000127
3 AH 60700501J18FEB2125MAR21   4    ALG11451145+0100  LOO12551255+0100  AT7                                                                                                 Y66                   000128
3 AH 60710101J11FEB2111FEB21   4    LOO14251425+0100  ALG15301530+0100  AT7                                                                                                 Y66                   000129
3 AH 60710201J13FEB2113FEB21     6  LOO11401140+0100  ALG12451245+0100  AT7                                                                                                 Y66                   000130
3 AH 60710301J14FEB2128MAR21      7 LOO13301330+0100  ALG14351435+0100  AT7                                                                                                 Y66                   000131
3 AH 60710401J16FEB2130MAR21 2   6  LOO11401140+0100  ALG12451245+0100  AT7                                                                                                 Y66                   000132
3 AH 60710501J18FEB2125MAR21   4    LOO13451345+0100  ALG14501450+0100  AT7                                                                                                 Y66                   000133
3 AH 61000101J10FEB2110FEB21  3     ALG07150715+0100  ORN08300830+0100  AT7                                                                                                 Y66                   000134
3 AH 61000201J15FEB2115FEB211       ALG09350935+0100  ORN10501050+0100  AT7                                                                                                 Y66                   000135
3 AH 61000301J17FEB2131MAR21  3     ALG06000600+0100  ORN07150715+0100  AT7                                                                                                 Y66                   000136
3 AH 61000401J22FEB2129MAR211       ALG10301030+0100  ORN11301130+0100  73H                                                                                                 F16Y132               000137
3 AH 61020101J10FEB2110FEB21  3     ALG06450645+0100  ORN08000800+0100  AT7                                                                                                 Y66                   000138
3 AH 61030101J10FEB2110FEB21  3     ORN15451545+0100  ALG17001700+0100  AT7                                                                                                 Y66                   000139
3 AH 61030201J17FEB2117FEB21  3     ORN16251625+0100  ALG17401740+0100  AT7                                                                                                 Y66                   000140
3 AH 61030301J24FEB2124FEB21  3     ORN16251625+0100  ALG17401740+0100  AT7                                                                                                 Y66                   000141
3 AH 61030401J03MAR2131MAR21  3     ORN16251625+0100  ALG17401740+0100  AT7                                                                                                 Y66                   000142
3 AH 61060101J10FEB2110FEB21  3     ALG17401740+0100  ORN18401840+0100  73H                                                                                                 F16Y132               000143
3 AH 61060201J11FEB2111FEB21   4    ALG15401540+0100  ORN16401640+0100  73H                                                                                                 F16Y132               000144
3 AH 61060301J12FEB2115FEB211   567 ALG16001600+0100  ORN17001700+0100  73H                                                                                                 F16Y132               000145
3 AH 61060401J16FEB2130MAR2112  56  ALG18301830+0100  ORN19301930+0100  73H                                                                                                 F16Y132               000146
3 AH 61060501J17FEB2131MAR21  3   7 ALG18451845+0100  ORN19451945+0100  73H                                                                                                 F16Y132               000147
3 AH 61060601J18FEB2125MAR21   4    ALG18001800+0100  ORN19001900+0100  73H                                                                                                 F16Y132               000148
3 AH 61070101J10FEB2110FEB21  3     ORN06300630+0100  ALG07300730+0100  736                                                                                                 F16Y85                000149
3 AH 61070201J11FEB2118FEB211  4    ORN07000700+0100  ALG08000800+0100  73H                                                                                                 F16Y132               000150
3 AH 61070301J12FEB2112FEB21    5   ORN07100710+0100  ALG08100810+0100  73H                                                                                                 F16Y132               000151
3 AH 61070401J13FEB2113FEB21     6  ORN07150715+0100  ALG08150815+0100  73H                                                                                                 F16Y132               000152
3 AH 61070501J14FEB2114FEB21      7 ORN08000800+0100  ALG09000900+0100  73H                                                                                                 F16Y132               000153
3 AH 61070601J16FEB2116FEB21 2      ORN07200720+0100  ALG08200820+0100  73H                                                                                                 F16Y132               000154
3 AH 61070701J17FEB2131MAR211 3  6  ORN07450745+0100  ALG08450845+0100  73H                                                                                                 F16Y132               000155
3 AH 61070801J19FEB2126MAR21    5   ORN06300630+0100  ALG07300730+0100  73H                                                                                                 F16Y132               000156
3 AH 61070901J21FEB2128MAR21      7 ORN06450645+0100  ALG07450745+0100  73H                                                                                                 F16Y132               000157
3 AH 61071001J23FEB2123FEB21 2      ORN07200720+0100  ALG08200820+0100  73H                                                                                                 F16Y132               000158
3 AH 61071101J25FEB2101APR21   4    ORN07000700+0100  ALG08000800+0100  73H                                                                                                 F16Y132               000159
3 AH 61071201J02MAR2130MAR21 2      ORN07200720+0100  ALG08200820+0100  73H                                                                                                 F16Y132               000160
3 AH 61110101J15FEB2129MAR211       ORN13251325+0100  ALG14251425+0100  73H                                                                                                 F16Y132               000161
3 AH 61180101J12FEB2112FEB21    5   ALG08300830+0100  TLM10001000+0100  AT7                                                                                                 Y66                   000162
3 AH 61180201J19FEB2126MAR21    5   ALG09300930+0100  TLM10301030+0100  73H                                                                                                 F16Y132               000163
3 AH 61190101J12FEB2112FEB21    5   TLM10501050+0100  ALG12201220+0100  AT7                                                                                                 Y66                   000164
3 AH 61190201J19FEB2126MAR21    5   TLM11301130+0100  ALG12301230+0100  73H                                                                                                 F16Y132               000165
3 AH 61200101J15FEB2115FEB211       ALG12201220+0100  TLM13501350+0100  AT7                                                                                                 Y66                   000166
3 AH 61200201J22FEB2129MAR211       ALG13001300+0100  TLM14001400+0100  73H                                                                                                 F16Y132               000167
3 AH 61210101J15FEB2115FEB211       TLM14401440+0100  ALG16101610+0100  AT7                                                                                                 Y66                   000168
3 AH 61210201J22FEB2129MAR211       TLM15001500+0100  ALG16001600+0100  73H                                                                                                 F16Y132               000169
3 AH 61240101J10FEB2117FEB21  3   7 ALG10401040+0100  TID11301130+0100  AT7                                                                                                 Y66                   000170
3 AH 61240201J21FEB2128MAR21      7 ALG11501150+0100  TID12401240+0100  AT7                                                                                                 Y66                   000171
3 AH 61240301J24FEB2131MAR21  3     ALG10401040+0100  TID11301130+0100  AT7                                                                                                 Y66                   000172
3 AH 61250101J10FEB2117FEB21  3   7 TID12201220+0100  ALG13101310+0100  AT7                                                                                                 Y66                   000173
3 AH 61250201J21FEB2128MAR21      7 TID13301330+0100  ALG14201420+0100  AT7                                                                                                 Y66                   000174
3 AH 61250301J24FEB2131MAR21  3     TID12201220+0100  ALG13101310+0100  AT7                                                                                                 Y66                   000175
3 AH 61260101J10FEB2110FEB21  3     ORN08500850+0100  EBH09500950+0100  AT7                                                                                                 Y66                   000176
3 AH 61260201J17FEB2117FEB21  3     ORN07000700+0100  EBH08000800+0100  AT7                                                                                                 Y66                   000177
3 AH 61260301J24FEB2124FEB21  3     ORN07000700+0100  EBH08000800+0100  AT7                                                                                                 Y66                   000178
3 AH 61260401J03MAR2131MAR21  3     ORN07000700+0100  EBH08000800+0100  AT7                                                                                                 Y66                   000179
3 AH 61270101J10FEB2110FEB21  3     EBH10401040+0100  ORN11451145+0100  AT7                                                                                                 Y66                   000180
3 AH 61270201J17FEB2117FEB21  3     EBH08500850+0100  ORN09550955+0100  AT7                                                                                                 Y66                   000181
3 AH 61270301J24FEB2124FEB21  3     EBH08500850+0100  ORN09550955+0100  AT7                                                                                                 Y66                   000182
3 AH 61270401J03MAR2131MAR21  3     EBH08500850+0100  ORN09550955+0100  AT7                                                                                                 Y66                   000183
3 AH 61280101J14FEB2128MAR21      7 ORN07000700+0100  MZW08200820+0100  AT7                                                                                                 Y66                   000184
3 AH 61290101J14FEB2128MAR21      7 MZW09100910+0100  ORN10351035+0100  AT7                                                                                                 Y66                   000185
3 AH 61320101J11FEB2111FEB21   4    ALG10001000+0100  CBH11301130+0100  73H                                                                                                 F16Y86                000186
3 AH 61320201J13FEB2113FEB21     6  ALG09000900+0100  CBH10301030+0100  AT7                                                                                                 Y66                   000187
3 AH 61320301J15FEB2129MAR211       ALG09000900+0100  CBH10351035+0100  73H                                                                                                 F16Y132               000188
3 AH 61320401J18FEB2125MAR21   4    ALG10001000+0100  CBH12151215+0100  AT7                                                                                                 Y66                   000189
3 AH 61320501J20FEB2127MAR21     6  ALG09000900+0100  CBH11151115+0100  AT7                                                                                                 Y66                   000190
3 AH 61330101J11FEB2111FEB21   4    CBH12301230+0100  ALG14051405+0100  73H                                                                                                 F16Y86                000191
3 AH 61330201J13FEB2113FEB21     6  CBH11201120+0100  ALG13351335+0100  AT7                                                                                                 Y66                   000192
3 AH 61330301J15FEB2115FEB211       CBH15351535+0100  ALG17501750+0100  AT7                                                                                                 Y66                   000193
3 AH 61330401J18FEB2125MAR21   4    CBH13051305+0100  ALG15051505+0100  AT7                                                                                                 Y66                   000194
3 AH 61330501J20FEB2127MAR21     6  CBH12051205+0100  ALG14051405+0100  AT7                                                                                                 Y66                   000195
3 AH 61330601J22FEB2129MAR211       CBH15101510+0100  ALG16401640+0100  73H                                                                                                 F16Y132               000196
3 AH 61340101J12FEB2112FEB21    5   ALG10001000+0100  CBH11301130+0100  73H                                                                                                 F16Y132               000197
3 AH 61340201J19FEB2126MAR21    5   ALG10001000+0100  CBH11301130+0100  AT7                                                                                                 Y66                   000198
3 AH 61350101J12FEB2112FEB21    5   CBH12301230+0100  ALG14001400+0100  73H                                                                                                 F16Y132               000199
3 AH 61350201J19FEB2126MAR21    5   CBH12301230+0100  ALG14001400+0100  AT7                                                                                                 Y66                   000200
3 AH 61400101J12FEB2126MAR21    5   ALG08300830+0100  AZR11201120+0100  AT7                                                                                                 Y66                   000201
3 AH 61400201J14FEB2128MAR21      7 ALG07300730+0100  AZR10201020+0100  AT7                                                                                                 Y66                   000202
3 AH 61400301J15FEB2123FEB2112      ALG14001400+0100  AZR16501650+0100  AT7                                                                                                 Y66                   000203
3 AH 61400401J01MAR2129MAR211       ALG14001400+0100  AZR15501550+0100  736                                                                                                 F16Y86                000204
3 AH 61400501J02MAR2130MAR21 2      ALG14001400+0100  AZR16501650+0100  AT7                                                                                                 Y66                   000205
3 AH 61410101J11FEB2101APR21   4    AZR07000700+0100  ALG09500950+0100  AT7                                                                                                 Y66                   000206
3 AH 61410201J13FEB2127MAR21     6  AZR07000700+0100  ALG09500950+0100  AT7                                                                                                 Y66                   000207
3 AH 61410301J15FEB2129MAR211       AZR13201320+0100  ALG16101610+0100  AT7                                                                                                 Y66                   000208
3 AH 61410401J16FEB2123FEB21 2      AZR14551455+0100  ALG17351735+0100  AT7                                                                                                 Y66                   000209
3 AH 61410501J02MAR2130MAR21 2      AZR13201320+0100  ALG15101510+0100  736                                                                                                 F16Y86                000210
3 AH 61420101J11FEB2113FEB21   4 6  ALG10001000+0100  AZR11501150+0100  73H                                                                                                 F16Y132               000211
3 AH 61420201J14FEB2114FEB21      7 ALG10001000+0100  AZR12401240+0100  73H                                                                                                 F16Y132               000212
3 AH 61420301J15FEB2115FEB211       ALG10001000+0100  AZR12401240+0100  AT7                                                                                                 Y66                   000213
3 AH 61420401J18FEB2128MAR21   4  7 ALG09000900+0100  AZR10501050+0100  73H                                                                                                 F16Y132               000214
3 AH 61420501J20FEB2127FEB21     6  ALG09200920+0100  AZR11101110+0100  736                                                                                                 F16Y86                000215
3 AH 61420601J22FEB2122FEB211       ALG10001000+0100  AZR12501250+0100  AT7                                                                                                 Y66                   000216
3 AH 61420701J01MAR2129MAR211       ALG10001000+0100  AZR11501150+0100  73H                                                                                                 F16Y132               000217
3 AH 61420801J06MAR2127MAR21     6  ALG10001000+0100  AZR11501150+0100  736                                                                                                 F16Y86                000218
3 AH 61430101J11FEB2113FEB21   4 6  AZR12501250+0100  ALG14401440+0100  73H                                                                                                 F16Y132               000219
3 AH 61430201J14FEB2114FEB21      7 AZR13301330+0100  ALG16101610+0100  73H                                                                                                 F16Y132               000220
3 AH 61430301J15FEB2115FEB211       AZR13301330+0100  ALG16101610+0100  AT7                                                                                                 Y66                   000221
3 AH 61430401J18FEB2128MAR21   4  7 AZR11501150+0100  ALG13401340+0100  73H                                                                                                 F16Y132               000222
3 AH 61430501J20FEB2127FEB21     6  AZR12101210+0100  ALG14001400+0100  736                                                                                                 F16Y86                000223
3 AH 61430601J22FEB2122FEB211       AZR13401340+0100  ALG16301630+0100  AT7                                                                                                 Y66                   000224
3 AH 61430701J01MAR2129MAR211       AZR12501250+0100  ALG14401440+0100  73H                                                                                                 F16Y132               000225
3 AH 61430801J06MAR2127MAR21     6  AZR12501250+0100  ALG14401440+0100  736                                                                                                 F16Y86                000226
3 AH 61460101J11FEB2111FEB21   4    ALG09000900+0100  TIN11301130+0100  73H                                                                                                 F16Y132               000227
3 AH 61460201J12FEB2112FEB21    5   ALG09100910+0100  TIN11401140+0100  73H                                                                                                 F16Y132               000228
3 AH 61460301J13FEB2113FEB21     6  ALG10001000+0100  TIN12301230+0100  73H                                                                                                 F16Y132               000229
3 AH 61460401J15FEB2129MAR211       ALG10301030+0100  TIN13001300+0100  73H                                                                                                 F16Y132               000230
3 AH 61460501J18FEB2125MAR21   4    ALG09050905+0100  TIN11351135+0100  73H                                                                                                 F16Y132               000231
3 AH 61460601J19FEB2119FEB21    5   ALG09300930+0100  TIN12001200+0100  73H                                                                                                 F16Y132               000232
3 AH 61460701J20FEB2127MAR21     6  ALG11401140+0100  TIN14101410+0100  73H                                                                                                 F16Y132               000233
3 AH 61460801J26FEB2126FEB21    5   ALG10001000+0100  TIN12301230+0100  73H                                                                                                 F16Y132               000234
3 AH 61460901J05MAR2126MAR21    5   ALG09300930+0100  TIN12001200+0100  73H                                                                                                 F16Y132               000235
3 AH 61470101J11FEB2111FEB21   4    TIN12201220+0100  ALG14401440+0100  73H                                                                                                 F16Y132               000236
3 AH 61470201J12FEB2112FEB21    5   TIN12301230+0100  ALG14501450+0100  73H                                                                                                 F16Y132               000237
3 AH 61470301J13FEB2113FEB21     6  TIN13301330+0100  ALG15501550+0100  73H                                                                                                 F16Y132               000238
3 AH 61470401J15FEB2129MAR211       TIN14001400+0100  ALG16201620+0100  73H                                                                                                 F16Y132               000239
3 AH 61470501J18FEB2125MAR21   4    TIN12301230+0100  ALG14451445+0100  73H                                                                                                 F16Y132               000240
3 AH 61470601J19FEB2119FEB21    5   TIN12501250+0100  ALG15101510+0100  73H                                                                                                 F16Y132               000241
3 AH 61470701J20FEB2127MAR21     6  TIN15101510+0100  ALG17301730+0100  73H                                                                                                 F16Y132               000242
3 AH 61470801J26FEB2126FEB21    5   TIN13201320+0100  ALG15401540+0100  73H                                                                                                 F16Y132               000243
3 AH 61470901J05MAR2126MAR21    5   TIN12501250+0100  ALG15101510+0100  73H                                                                                                 F16Y132               000244
3 AH 61480101J16FEB2130MAR21 2      ALG09300930+0100  CBH11001100+0100  73H                                                                                                 F16Y132               000245
3 AH 61480102J16FEB2130MAR21 2      CBH12001200+0100  TIN13101310+0100  73H                                                                                                 F16Y132               000246
3 AH 61490101J16FEB2130MAR21 2      TIN14101410+0100  ALG16301630+0100  73H                                                                                                 F16Y132               000247
3 AH 61500101J16FEB2130MAR21 2      ALG09300930+0100  TIN12001200+0100  73H                                                                                                 F16Y132               000248
3 AH 61510101J16FEB2130MAR21 2      TIN13001300+0100  CBH14001400+0100  73H                                                                                                 F16Y132               000249
3 AH 61510102J16FEB2130MAR21 2      CBH15001500+0100  ALG16351635+0100  73H                                                                                                 F16Y132               000250
3 AH 61560101J10FEB2113FEB21  3  6  ALG10001000+0100  TMX11301130+0100  73H                                                                                                 F16Y132               000251
3 AH 61560201J14FEB2114FEB21      7 ALG10001000+0100  TMX11151115+0100  736                                                                                                 F16Y85                000252
3 AH 61560301J15FEB2115FEB211       ALG10001000+0100  TMX11301130+0100  736                                                                                                 F16Y85                000253
3 AH 61560401J17FEB2131MAR21  3     ALG12301230+0100  TMX14001400+0100  73H                                                                                                 F16Y132               000254
3 AH 61560501J20FEB2127MAR21     6  ALG09300930+0100  TMX11001100+0100  73H                                                                                                 F16Y132               000255
3 AH 61560601J21FEB2128MAR21      7 ALG10001000+0100  TMX11301130+0100  73H                                                                                                 F16Y132               000256
3 AH 61560701J22FEB2129MAR211       ALG09300930+0100  TMX11001100+0100  736                                                                                                 F16Y85                000257
3 AH 61570101J10FEB2113FEB21  3  6  TMX12301230+0100  ALG14001400+0100  73H                                                                                                 F16Y132               000258
3 AH 61570201J14FEB2114FEB21      7 TMX12151215+0100  ALG13401340+0100  736                                                                                                 F16Y85                000259
3 AH 61570301J15FEB2115FEB211       TMX12301230+0100  ALG14001400+0100  736                                                                                                 F16Y85                000260
3 AH 61570401J17FEB2131MAR21  3     TMX15001500+0100  ALG16301630+0100  73H                                                                                                 F16Y132               000261
3 AH 61570501J20FEB2127MAR21     6  TMX12001200+0100  ALG13301330+0100  73H                                                                                                 F16Y132               000262
3 AH 61570601J21FEB2128MAR21      7 TMX12301230+0100  ALG14001400+0100  73H                                                                                                 F16Y132               000263
3 AH 61570701J22FEB2129MAR211       TMX12001200+0100  ALG13301330+0100  736                                                                                                 F16Y85                000264
3 AH 61640101J11FEB2111FEB21   4    AAE09250925+0100  ORN11151115+0100  73H                                                                                                 F16Y132               000265
3 AH 61640201J13FEB2113FEB21     6  AAE15001500+0100  ORN17001700+0100  AT7                                                                                                 Y66                   000266
3 AH 61640301J15FEB2129MAR211       AAE15001500+0100  ORN17001700+0100  AT7                                                                                                 Y66                   000267
3 AH 61640401J18FEB2125MAR21   4    AAE10451045+0100  ORN12351235+0100  73H                                                                                                 F16Y132               000268
3 AH 61640501J20FEB2120FEB21     6  AAE14351435+0100  ORN16001600+0100  73H                                                                                                 F16Y132               000269
3 AH 61640601J27FEB2127FEB21     6  AAE14351435+0100  ORN16001600+0100  73H                                                                                                 F16Y132               000270
3 AH 61640701J06MAR2127MAR21     6  AAE15001500+0100  ORN17001700+0100  AT7                                                                                                 Y66                   000271
3 AH 61650101J11FEB2111FEB21   4    ORN12151215+0100  AAE14101410+0100  73H                                                                                                 F16Y132               000272
3 AH 61650201J13FEB2113FEB21     6  ORN12201220+0100  AAE14201420+0100  AT7                                                                                                 Y66                   000273
3 AH 61650301J15FEB2129MAR211       ORN12151215+0100  AAE14151415+0100  AT7                                                                                                 Y66                   000274
3 AH 61650401J18FEB2125MAR21   4    ORN13351335+0100  AAE15301530+0100  73H                                                                                                 F16Y132               000275
3 AH 61650501J20FEB2120FEB21     6  ORN12201220+0100  AAE13351335+0100  73H                                                                                                 F16Y132               000276
3 AH 61650601J27FEB2127FEB21     6  ORN12201220+0100  AAE13351335+0100  73H                                                                                                 F16Y132               000277
3 AH 61650701J06MAR2127MAR21     6  ORN12201220+0100  AAE14201420+0100  AT7                                                                                                 Y66                   000278
3 AH 61680101J10FEB2110FEB21  3     ORN12351235+0100  CZL14151415+0100  AT7                                                                                                 Y66                   000279
3 AH 61680201J15FEB2129MAR211       ORN07000700+0100  CZL08400840+0100  AT7                                                                                                 Y66                   000280
3 AH 61680301J16FEB2116FEB21 2      ORN07350735+0100  CZL09150915+0100  AT7                                                                                                 Y66                   000281
3 AH 61680401J17FEB2117FEB21  3     ORN11001100+0100  CZL12301230+0100  73H                                                                                                 F16Y132               000282
3 AH 61680501J23FEB2130MAR21 2      ORN07350735+0100  CZL09150915+0100  AT7                                                                                                 Y66                   000283
3 AH 61680601J24FEB2124FEB21  3     ORN11001100+0100  CZL12301230+0100  73H                                                                                                 F16Y132               000284
3 AH 61680701J03MAR2131MAR21  3     ORN11451145+0100  CZL13151315+0100  73H                                                                                                 F16Y132               000285
3 AH 61690101J10FEB2110FEB21  3     CZL15051505+0100  ORN17001700+0100  AT7                                                                                                 Y66                   000286
3 AH 61690201J15FEB2129MAR211       CZL09300930+0100  ORN11251125+0100  AT7                                                                                                 Y66                   000287
3 AH 61690301J16FEB2116FEB21 2      CZL10051005+0100  ORN12001200+0100  AT7                                                                                                 Y66                   000288
3 AH 61690401J17FEB2117FEB21  3     CZL13301330+0100  ORN15001500+0100  73H                                                                                                 F16Y132               000289
3 AH 61690501J23FEB2130MAR21 2      CZL10051005+0100  ORN12001200+0100  AT7                                                                                                 Y66                   000290
3 AH 61690601J24FEB2124FEB21  3     CZL13301330+0100  ORN15001500+0100  73H                                                                                                 F16Y132               000291
3 AH 61690701J03MAR2131MAR21  3     CZL14151415+0100  ORN15451545+0100  73H                                                                                                 F16Y132               000292
3 AH 61700101J10FEB2110FEB21  3     ALG08300830+0100  AAE09450945+0100  AT7                                                                                                 Y66                   000293
3 AH 61700201J11FEB2111FEB21   4    ALG08300830+0100  AAE09450945+0100  AT7                                                                                                 Y66                   000294
3 AH 61700301J12FEB2112FEB21    5   ALG07300730+0100  AAE08450845+0100  AT7                                                                                                 Y66                   000295
3 AH 61700401J13FEB2113FEB21     6  ALG07350735+0100  AAE08500850+0100  AT7                                                                                                 Y66                   000296
3 AH 61700501J14FEB2129MAR211    67 ALG07150715+0100  AAE08300830+0100  AT7                                                                                                 Y66                   000297
3 AH 61700601J16FEB2130MAR21 2      ALG13501350+0100  AAE14501450+0100  736                                                                                                 F16Y85                000298
3 AH 61700701J17FEB2131MAR21  3     ALG08050805+0100  AAE09200920+0100  AT7                                                                                                 Y66                   000299
3 AH 61700801J19FEB2126MAR21    5   ALG07300730+0100  AAE08450845+0100  AT7                                                                                                 Y66                   000300
3 AH 61700901J04MAR2125MAR21   4    ALG08300830+0100  AAE09450945+0100  AT7                                                                                                 Y66                   000301
3 AH 61710101J10FEB2110FEB21  3     AAE10351035+0100  ALG11551155+0100  AT7                                                                                                 Y66                   000302
3 AH 61710201J11FEB2111FEB21   4    AAE10351035+0100  ALG11551155+0100  AT7                                                                                                 Y66                   000303
3 AH 61710301J12FEB2112FEB21    5   AAE09350935+0100  ALG10551055+0100  AT7                                                                                                 Y66                   000304
3 AH 61710401J13FEB2113FEB21     6  AAE09400940+0100  ALG11001100+0100  AT7                                                                                                 Y66                   000305
3 AH 61710501J14FEB2129MAR211     7 AAE09200920+0100  ALG10401040+0100  AT7                                                                                                 Y66                   000306
3 AH 61710601J16FEB2130MAR21 2      AAE15501550+0100  ALG16501650+0100  736                                                                                                 F16Y85                000307
3 AH 61710701J17FEB2131MAR21  3     AAE10101010+0100  ALG11301130+0100  AT7                                                                                                 Y66                   000308
3 AH 61710801J19FEB2126MAR21    5   AAE09350935+0100  ALG10551055+0100  AT7                                                                                                 Y66                   000309
3 AH 61710901J20FEB2127MAR21     6  AAE09200920+0100  ALG10351035+0100  AT7                                                                                                 Y66                   000310
3 AH 61711001J04MAR2125MAR21   4    AAE10351035+0100  ALG11551155+0100  AT7                                                                                                 Y66                   000311
3 AH 61740101J11FEB2111FEB21   4    ALG13351335+0100  AAE14501450+0100  AT7                                                                                                 Y66                   000312
3 AH 61740201J04MAR2125MAR21   4    ALG14101410+0100  AAE15251525+0100  AT7                                                                                                 Y66                   000313
3 AH 61750101J11FEB2111FEB21   4    AAE15401540+0100  ALG17001700+0100  AT7                                                                                                 Y66                   000314
3 AH 61750201J04MAR2125MAR21   4    AAE16151615+0100  ALG17351735+0100  AT7                                                                                                 Y66                   000315
3 AH 61760101J10FEB2117FEB21  3     ALG14001400+0100  AAE15151515+0100  AT7                                                                                                 Y66                   000316
3 AH 61760201J12FEB2113FEB21    56  ALG13301330+0100  AAE14451445+0100  AT7                                                                                                 Y66                   000317
3 AH 61760301J14FEB2115FEB211     7 ALG13251325+0100  AAE14401440+0100  AT7                                                                                                 Y66                   000318
3 AH 61760401J16FEB2130MAR21 2      ALG07150715+0100  AAE08300830+0100  AT7                                                                                                 Y66                   000319
3 AH 61760501J19FEB2131MAR21  3 5   ALG14001400+0100  AAE15151515+0100  AT7                                                                                                 Y66                   000320
3 AH 61760601J20FEB2128MAR21     67 ALG15001500+0100  AAE16151615+0100  AT7                                                                                                 Y66                   000321
3 AH 61760701J22FEB2129MAR211       ALG13251325+0100  AAE14401440+0100  AT7                                                                                                 Y66                   000322
3 AH 61770101J10FEB2117FEB21  3     AAE16051605+0100  ALG17251725+0100  AT7                                                                                                 Y66                   000323
3 AH 61770201J12FEB2113FEB21    56  AAE15351535+0100  ALG16551655+0100  AT7                                                                                                 Y66                   000324
3 AH 61770301J14FEB2115FEB211     7 AAE15301530+0100  ALG16501650+0100  AT7                                                                                                 Y66                   000325
3 AH 61770401J16FEB2130MAR21 2      AAE09200920+0100  ALG10401040+0100  AT7                                                                                                 Y66                   000326
3 AH 61770501J19FEB2131MAR21  3 5   AAE16051605+0100  ALG17251725+0100  AT7                                                                                                 Y66                   000327
3 AH 61770601J20FEB2128MAR21     67 AAE17051705+0100  ALG18251825+0100  AT7                                                                                                 Y66                   000328
3 AH 61770701J22FEB2129MAR211       AAE15301530+0100  ALG16501650+0100  AT7                                                                                                 Y66                   000329
3 AH 61800101J10FEB2110FEB21  3     ALG06400640+0100  ORN07550755+0100  AT7                                                                                                 Y66                   000330
3 AH 61800201J12FEB2115FEB211   567 ALG06300630+0100  ORN07450745+0100  AT7                                                                                                 Y66                   000331
3 AH 61800301J16FEB2130MAR21 2      ALG09250925+0100  ORN10251025+0100  736                                                                                                 F16Y85                000332
3 AH 61800401J17FEB2131MAR21  3     ALG07000700+0100  ORN08150815+0100  AT7                                                                                                 Y66                   000333
3 AH 61800501J18FEB2125MAR21   4    ALG06450645+0100  ORN08000800+0100  AT7                                                                                                 Y66                   000334
3 AH 61800601J19FEB2126MAR21    5   ALG07300730+0100  ORN08450845+0100  AT7                                                                                                 Y66                   000335
3 AH 61800701J20FEB2127FEB21     6  ALG07300730+0100  ORN08450845+0100  AT7                                                                                                 Y66                   000336
3 AH 61800801J21FEB2128MAR21      7 ALG07400740+0100  ORN08550855+0100  AT7                                                                                                 Y66                   000337
3 AH 61800901J22FEB2129MAR211       ALG06300630+0100  ORN07450745+0100  AT7                                                                                                 Y66                   000338
3 AH 61801001J06MAR2127MAR21     6  ALG07300730+0100  ORN08300830+0100  736                                                                                                 F16Y85                000339
3 AH 61810101J10FEB2110FEB21  3     ORN08450845+0100  ALG10001000+0100  AT7                                                                                                 Y66                   000340
3 AH 61810201J12FEB2115FEB211   567 ORN08350835+0100  ALG09500950+0100  AT7                                                                                                 Y66                   000341
3 AH 61810301J16FEB2130MAR21 2      ORN11251125+0100  ALG12251225+0100  736                                                                                                 F16Y85                000342
3 AH 61810401J17FEB2131MAR21  3     ORN09050905+0100  ALG10201020+0100  AT7                                                                                                 Y66                   000343
3 AH 61810501J18FEB2125MAR21   4    ORN08500850+0100  ALG10051005+0100  AT7                                                                                                 Y66                   000344
3 AH 61810601J19FEB2126MAR21    5   ORN09350935+0100  ALG10501050+0100  AT7                                                                                                 Y66                   000345
3 AH 61810701J20FEB2127FEB21     6  ORN09350935+0100  ALG10501050+0100  AT7                                                                                                 Y66                   000346
3 AH 61810801J21FEB2128MAR21      7 ORN09450945+0100  ALG11001100+0100  AT7                                                                                                 Y66                   000347
3 AH 61810901J22FEB2129MAR211       ORN08350835+0100  ALG09500950+0100  AT7                                                                                                 Y66                   000348
3 AH 61811001J06MAR2127MAR21     6  ORN09300930+0100  ALG10301030+0100  736                                                                                                 F16Y85                000349
3 AH 61820101J10FEB2110FEB21  3     ALG12001200+0100  ORN13151315+0100  AT7                                                                                                 Y66                   000350
3 AH 61820201J17FEB2131MAR21  3     ALG14001400+0100  ORN15001500+0100  736                                                                                                 F16Y85                000351
3 AH 61830101J10FEB2110FEB21  3     ORN14051405+0100  ALG15201520+0100  AT7                                                                                                 Y66                   000352
3 AH 61830201J12FEB2112FEB21    5   ORN13551355+0100  ALG14551455+0100  73H                                                                                                 F16Y132               000353
3 AH 61830301J17FEB2131MAR21  3     ORN16001600+0100  ALG17001700+0100  736                                                                                                 F16Y85                000354
3 AH 61840101J10FEB2110FEB21  3     ALG08300830+0100  ORN09300930+0100  736                                                                                                 F16Y85                000355
3 AH 61840201J11FEB2111FEB21   4    ALG13301330+0100  ORN14451445+0100  AT7                                                                                                 Y66                   000356
3 AH 61840301J12FEB2112FEB21    5   ALG14151415+0100  ORN15151515+0100  736                                                                                                 F16Y85                000357
3 AH 61840401J13FEB2113FEB21     6  ALG13001300+0100  ORN14151415+0100  AT7                                                                                                 Y66                   000358
3 AH 61840501J14FEB2114FEB21      7 ALG13251325+0100  ORN14401440+0100  AT7                                                                                                 Y66                   000359
3 AH 61840601J15FEB2115FEB211       ALG13401340+0100  ORN14551455+0100  AT7                                                                                                 Y66                   000360
3 AH 61840701J16FEB2130MAR21 2      ALG13451345+0100  ORN14451445+0100  736                                                                                                 F16Y85                000361
3 AH 61840801J18FEB2125MAR21   4    ALG15301530+0100  ORN16451645+0100  AT7                                                                                                 Y66                   000362
3 AH 61840901J19FEB2126MAR21    5   ALG14001400+0100  ORN15001500+0100  73H                                                                                                 F16Y132               000363
3 AH 61841001J20FEB2127MAR21     6  ALG14001400+0100  ORN15001500+0100  736                                                                                                 F16Y85                000364
3 AH 61841101J21FEB2128MAR21      7 ALG14451445+0100  ORN15451545+0100  736                                                                                                 F16Y85                000365
3 AH 61841201J01MAR2129MAR211       ALG13401340+0100  ORN14551455+0100  AT7                                                                                                 Y66                   000366
3 AH 61850101J10FEB2110FEB21  3     ORN15401540+0100  ALG16401640+0100  736                                                                                                 F16Y85                000367
3 AH 61850201J11FEB2111FEB21   4    ORN15351535+0100  ALG16501650+0100  AT7                                                                                                 Y66                   000368
3 AH 61850301J12FEB2112FEB21    5   ORN16151615+0100  ALG17051705+0100  736                                                                                                 F16Y85                000369
3 AH 61850401J13FEB2113FEB21     6  ORN15301530+0100  ALG16451645+0100  AT7                                                                                                 Y66                   000370
3 AH 61850501J14FEB2114FEB21      7 ORN15301530+0100  ALG16451645+0100  AT7                                                                                                 Y66                   000371
3 AH 61850601J15FEB2115FEB211       ORN15451545+0100  ALG17001700+0100  AT7                                                                                                 Y66                   000372
3 AH 61850701J16FEB2127FEB21 2   6  ORN16001600+0100  ALG17001700+0100  736                                                                                                 F16Y85                000373
3 AH 61850801J18FEB2125MAR21   4    ORN17351735+0100  ALG18501850+0100  AT7                                                                                                 Y66                   000374
3 AH 61850901J19FEB2126MAR21    5   ORN16001600+0100  ALG17001700+0100  73H                                                                                                 F16Y132               000375
3 AH 61851001J21FEB2128MAR21      7 ORN16451645+0100  ALG17451745+0100  736                                                                                                 F16Y85                000376
3 AH 61851101J01MAR2129MAR211       ORN15451545+0100  ALG17001700+0100  AT7                                                                                                 Y66                   000377
3 AH 61851201J02MAR2130MAR21 2      ORN15451545+0100  ALG16451645+0100  736                                                                                                 F16Y85                000378
3 AH 61851301J06MAR2127MAR21     6  ORN16001600+0100  ALG17001700+0100  736                                                                                                 F16Y85                000379
3 AH 61900101J10FEB2115FEB211 34567 ALG06300630+0100  CZL07400740+0100  AT7                                                                                                 Y66                   000380
3 AH 61900201J16FEB2130MAR21 2      ALG07050705+0100  CZL08150815+0100  AT7                                                                                                 Y66                   000381
3 AH 61900301J17FEB2131MAR21  3     ALG07200720+0100  CZL08300830+0100  AT7                                                                                                 Y66                   000382
3 AH 61900401J18FEB2129MAR211  4 6  ALG07300730+0100  CZL08400840+0100  AT7                                                                                                 Y66                   000383
3 AH 61900501J19FEB2126MAR21    5   ALG08300830+0100  CZL09200920+0100  736                                                                                                 F16Y85                000384
3 AH 61900601J21FEB2128MAR21      7 ALG09450945+0100  CZL10351035+0100  736                                                                                                 F16Y85                000385
3 AH 61910101J10FEB2115FEB211 34567 CZL08300830+0100  ALG09400940+0100  AT7                                                                                                 Y66                   000386
3 AH 61910201J16FEB2130MAR21 2      CZL09050905+0100  ALG10151015+0100  AT7                                                                                                 Y66                   000387
3 AH 61910301J17FEB2131MAR21  3     CZL09200920+0100  ALG10301030+0100  AT7                                                                                                 Y66                   000388
3 AH 61910401J18FEB2129MAR211  4 6  CZL09300930+0100  ALG10401040+0100  AT7                                                                                                 Y66                   000389
3 AH 61910501J19FEB2126MAR21    5   CZL10201020+0100  ALG11101110+0100  736                                                                                                 F16Y85                000390
3 AH 61910601J21FEB2128MAR21      7 CZL11251125+0100  ALG12151215+0100  736                                                                                                 F16Y85                000391
3 AH 61920101J12FEB2112FEB21    5   ALG13501350+0100  CZL15001500+0100  AT7                                                                                                 Y66                   000392
3 AH 61920201J13FEB2113FEB21     6  ALG13351335+0100  CZL14451445+0100  AT7                                                                                                 Y66                   000393
3 AH 61920301J15FEB2115FEB211       ALG12301230+0100  CZL13201320+0100  73H                                                                                                 F16Y132               000394
3 AH 61920401J16FEB2130MAR21 2      ALG13501350+0100  CZL14401440+0100  736                                                                                                 F16Y85                000395
3 AH 61920501J19FEB2126MAR21    5   ALG13501350+0100  CZL14401440+0100  73H                                                                                                 F16Y132               000396
3 AH 61920601J20FEB2127MAR21     6  ALG15001500+0100  CZL15501550+0100  73H                                                                                                 F16Y132               000397
3 AH 61920701J22FEB2129MAR211       ALG14301430+0100  CZL15301530+0100  73H                                                                                                 F16Y132               000398
3 AH 61930101J12FEB2112FEB21    5   CZL15501550+0100  ALG17001700+0100  AT7                                                                                                 Y66                   000399
3 AH 61930201J13FEB2113FEB21     6  CZL15351535+0100  ALG16451645+0100  AT7                                                                                                 Y66                   000400
3 AH 61930301J15FEB2115FEB211       CZL14201420+0100  ALG15101510+0100  73H                                                                                                 F16Y132               000401
3 AH 61930401J16FEB2130MAR21 2      CZL15401540+0100  ALG16401640+0100  736                                                                                                 F16Y85                000402
3 AH 61930501J19FEB2126MAR21    5   CZL15401540+0100  ALG16301630+0100  73H                                                                                                 F16Y132               000403
3 AH 61930601J20FEB2127MAR21     6  CZL16501650+0100  ALG17401740+0100  73H                                                                                                 F16Y132               000404
3 AH 61930701J22FEB2129MAR211       CZL16301630+0100  ALG17301730+0100  73H                                                                                                 F16Y132               000405
3 AH 61940101J10FEB2110FEB21  3     ALG14201420+0100  CZL15301530+0100  AT7                                                                                                 Y66                   000406
3 AH 61940201J14FEB2114FEB21      7 ALG13551355+0100  CZL15051505+0100  AT7                                                                                                 Y66                   000407
3 AH 61940301J17FEB2131MAR21  3     ALG15551555+0100  CZL17051705+0100  AT7                                                                                                 Y66                   000408
3 AH 61940401J18FEB2125MAR21   4    ALG14001400+0100  CZL15001500+0100  736                                                                                                 F16Y85                000409
3 AH 61940501J21FEB2128MAR21      7 ALG14051405+0100  CZL14551455+0100  736                                                                                                 F16Y85                000410
3 AH 61950101J10FEB2110FEB21  3     CZL16201620+0100  ALG17301730+0100  AT7                                                                                                 Y66                   000411
3 AH 61950201J14FEB2114FEB21      7 CZL15551555+0100  ALG17051705+0100  AT7                                                                                                 Y66                   000412
3 AH 61950301J17FEB2131MAR21  3     CZL17551755+0100  ALG19051905+0100  AT7                                                                                                 Y66                   000413
3 AH 61950401J18FEB2125MAR21   4    CZL16001600+0100  ALG17001700+0100  736                                                                                                 F16Y85                000414
3 AH 61950501J21FEB2128MAR21      7 CZL15551555+0100  ALG16451645+0100  736                                                                                                 F16Y85                000415
3 AH 62000101J10FEB2131MAR21  3     ALG16151615+0100  GHA17251725+0100  AT7                                                                                                 Y66                   000416
3 AH 62000201J11FEB2129MAR211  4567 ALG15301530+0100  GHA17001700+0100  AT7                                                                                                 Y66                   000417
3 AH 62010101J11FEB2101APR2112 4567 GHA07000700+0100  ALG08300830+0100  AT7                                                                                                 Y66                   000418
3 AH 62160101J10FEB2110FEB21  3     ALG12451245+0100  OGX14251425+0100  AT7                                                                                                 Y66                   000419
3 AH 62160201J11FEB2125MAR21   4    ALG12451245+0100  OGX14251425+0100  AT7                                                                                                 Y66                   000420
3 AH 62160301J12FEB2112FEB21    5   ALG11401140+0100  OGX13201320+0100  AT7                                                                                                 Y66                   000421
3 AH 62160401J13FEB2127MAR21     6  ALG11101110+0100  OGX12501250+0100  AT7                                                                                                 Y66                   000422
3 AH 62160501J14FEB2128MAR21      7 ALG07150715+0100  OGX08550855+0100  AT7                                                                                                 Y66                   000423
3 AH 62160601J16FEB2123FEB21 2      ALG08000800+0100  OGX09400940+0100  AT7                                                                                                 Y66                   000424
3 AH 62160701J17FEB2131MAR21  3     ALG13201320+0100  OGX14351435+0100  736                                                                                                 F16Y85                000425
3 AH 62160801J19FEB2126MAR21    5   ALG11401140+0100  OGX13201320+0100  AT7                                                                                                 Y66                   000426
3 AH 62160901J02MAR2130MAR21 2      ALG08000800+0100  OGX09100910+0100  73H                                                                                                 F16Y132               000427
3 AH 62170101J10FEB2110FEB21  3     OGX15151515+0100  ALG16551655+0100  AT7                                                                                                 Y66                   000428
3 AH 62170201J11FEB2125MAR21   4    OGX15151515+0100  ALG16551655+0100  AT7                                                                                                 Y66                   000429
3 AH 62170301J12FEB2112FEB21    5   OGX14101410+0100  ALG15501550+0100  AT7                                                                                                 Y66                   000430
3 AH 62170401J13FEB2127MAR21     6  OGX13401340+0100  ALG15201520+0100  AT7                                                                                                 Y66                   000431
3 AH 62170501J14FEB2128MAR21      7 OGX09450945+0100  ALG11251125+0100  AT7                                                                                                 Y66                   000432
3 AH 62170601J16FEB2123FEB21 2      OGX15501550+0100  ALG17301730+0100  AT7                                                                                                 Y66                   000433
3 AH 62170701J17FEB2131MAR21  3     OGX15351535+0100  ALG16451645+0100  736                                                                                                 F16Y85                000434
3 AH 62170801J19FEB2126MAR21    5   OGX14101410+0100  ALG15501550+0100  AT7                                                                                                 Y66                   000435
3 AH 62170901J02MAR2130MAR21 2      OGX15101510+0100  ALG16201620+0100  73H                                                                                                 F16Y132               000436
3 AH 62180101J15FEB2129MAR211       ALG07000700+0100  OGX08400840+0100  AT7                                                                                                 Y66                   000437
3 AH 62190101J15FEB2129MAR211       OGX09300930+0100  ALG11101110+0100  AT7                                                                                                 Y66                   000438
3 AH 62220101J10FEB2110FEB21  3     ALG15501550+0100  HME17001700+0100  73H                                                                                                 F16Y132               000439
3 AH 62220201J11FEB2120FEB21  3456  ALG15501550+0100  HME17301730+0100  AT7                                                                                                 Y66                   000440
3 AH 62220301J14FEB2114FEB21      7 ALG15501550+0100  HME17001700+0100  AT7                                                                                                 Y66                   000441
3 AH 62220401J15FEB2115FEB211       ALG15501550+0100  HME17001700+0100  736                                                                                                 F16Y85                000442
3 AH 62220501J21FEB2131MAR21  34567 ALG15501550+0100  HME17301730+0100  AT7                                                                                                 Y66                   000443
3 AH 62220601J22FEB2122FEB211       ALG15501550+0100  HME17001700+0100  AT7                                                                                                 Y66                   000444
3 AH 62220701J01MAR2129MAR211       ALG15501550+0100  HME17001700+0100  AT7                                                                                                 Y66                   000445
3 AH 62230101J11FEB2111FEB21   4    HME07000700+0100  ALG08150815+0100  73H                                                                                                 F16Y132               000446
3 AH 62230201J12FEB2114FEB21    567 HME07000700+0100  ALG08450845+0100  AT7                                                                                                 Y66                   000447
3 AH 62230301J15FEB2115FEB211       HME07000700+0100  ALG08150815+0100  AT7                                                                                                 Y66                   000448
3 AH 62230401J16FEB2116FEB21 2      HME07150715+0100  ALG08150815+0100  736                                                                                                 F16Y85                000449
3 AH 62230501J18FEB2101APR211  4567 HME07000700+0100  ALG08400840+0100  AT7                                                                                                 Y66                   000450
3 AH 62230601J23FEB2123FEB21 2      HME07000700+0100  ALG08400840+0100  AT7                                                                                                 Y66                   000451
3 AH 62230701J02MAR2130MAR21 2      HME07150715+0100  ALG08150815+0100  736                                                                                                 F16Y85                000452
3 AH 62240101J15FEB2115FEB211       ALG08000800+0100  HME09400940+0100  AT7                                                                                                 F16Y86                000453
3 AH 62240102J15FEB2115FEB211       HME10301030+0100  IAM11501150+0100  AT7                                                                                                 F16Y86                000454
3 AH 62250101J15FEB2115FEB211       IAM12401240+0100  HME14051405+0100  AT7                                                                                                 F16Y86                000455
3 AH 62250102J15FEB2115FEB211       HME14551455+0100  ALG16401640+0100  AT7                                                                                                 F16Y86                000456
3 AH 62260101J10FEB2110FEB21  3     ALG07300730+0100  HME08450845+0100  736                                                                                                 F16Y86                000457
3 AH 62260201J11FEB2114FEB21   4  7 ALG10201020+0100  HME12001200+0100  AT7                                                                                                 Y66                   000458
3 AH 62260301J12FEB2112FEB21    5   ALG10201020+0100  HME11351135+0100  73H                                                                                                 F16Y132               000459
3 AH 62260401J17FEB2131MAR21  3     ALG11201120+0100  HME13001300+0100  AT7                                                                                                 Y66                   000460
3 AH 62260501J18FEB2125MAR21   4    ALG10401040+0100  HME11551155+0100  AT7                                                                                                 Y66                   000461
3 AH 62260601J19FEB2128MAR21    5 7 ALG10201020+0100  HME12001200+0100  AT7                                                                                                 Y66                   000462
3 AH 62270101J10FEB2110FEB21  3     HME14501450+0100  ALG16051605+0100  736                                                                                                 F16Y86                000463
3 AH 62270201J11FEB2114FEB21   4  7 HME12501250+0100  ALG14351435+0100  AT7                                                                                                 Y66                   000464
3 AH 62270301J12FEB2112FEB21    5   HME12351235+0100  ALG13501350+0100  73H                                                                                                 F16Y132               000465
3 AH 62270401J17FEB2131MAR21  3     HME13501350+0100  ALG15301530+0100  AT7                                                                                                 Y66                   000466
3 AH 62270501J18FEB2125MAR21   4    HME12451245+0100  ALG14001400+0100  AT7                                                                                                 Y66                   000467
3 AH 62270601J19FEB2128MAR21    5 7 HME12501250+0100  ALG14301430+0100  AT7                                                                                                 Y66                   000468
3 AH 62280101J13FEB2113FEB21     6  ALG11101110+0100  HME12301230+0100  AT7                                                                                                 Y66                   000469
3 AH 62280201J20FEB2127MAR21     6  ALG11101110+0100  HME12501250+0100  AT7                                                                                                 Y66                   000470
3 AH 62290101J13FEB2113FEB21     6  HME13201320+0100  ALG14401440+0100  AT7                                                                                                 Y66                   000471
3 AH 62290201J20FEB2127MAR21     6  HME13401340+0100  ALG15201520+0100  AT7                                                                                                 Y66                   000472
3 AH 62300101J11FEB2111FEB21   4    ALG07000700+0100  TMR09250925+0100  73H                                                                                                 F16Y132               000473
3 AH 62300201J15FEB2129MAR211       ALG10001000+0100  TMR12251225+0100  73H                                                                                                 F16Y132               000474
3 AH 62300301J18FEB2125MAR21   4    ALG11101110+0100  TMR13301330+0100  73H                                                                                                 F16Y132               000475
3 AH 62310101J15FEB2129MAR211       TMR13251325+0100  ALG15551555+0100  73H                                                                                                 F16Y132               000476
3 AH 62310201J18FEB2125MAR21   4    TMR14251425+0100  ALG17001700+0100  73H                                                                                                 F16Y132               000477
3 AH 62320101J12FEB2126MAR21    5   ALG07300730+0100  TMR09550955+0100  73H                                                                                                 F16Y132               000478
3 AH 62320102J12FEB2126MAR21    5   TMR10551055+0100  DJG11451145+0100  73H                                                                                                 F16Y132               000479
3 AH 62320103J12FEB2126MAR21    5   DJG12451245+0100  ALG15001500+0100  73H                                                                                                 F16Y132               000480
3 AH 62320201J14FEB2128MAR21      7 ALG08000800+0100  TMR10251025+0100  73H                                                                                                 F16Y132               000481
3 AH 62320202J14FEB2128MAR21      7 TMR11251125+0100  DJG12151215+0100  73H                                                                                                 F16Y132               000482
3 AH 62320203J14FEB2128MAR21      7 DJG13151315+0100  ALG15301530+0100  73H                                                                                                 F16Y132               000483
3 AH 62340101J11FEB2111FEB21   4    ORN08350835+0100  TMR11051105+0100  73H                                                                                                 F16Y132               000484
3 AH 62340201J18FEB2125MAR21   4    ORN08000800+0100  TMR10301030+0100  73H                                                                                                 F16Y132               000485
3 AH 62350101J11FEB2111FEB21   4    TMR11551155+0100  ALG14301430+0100  73H                                                                                                 F16Y132               000486
3 AH 62350201J18FEB2125MAR21   4    TMR11301130+0100  ORN13451345+0100  73H                                                                                                 F16Y132               000487
3 AH 62360101J16FEB2130MAR21 2      ALG08450845+0100  GHA09450945+0100  73H                                                                                                 F16Y132               000488
3 AH 62360102J16FEB2130MAR21 2      GHA10501050+0100  TMR12301230+0100  73H                                                                                                 F16Y132               000489
