1AIRLINE STANDARD SCHEDULE DATA SET                                                                                                                                                            001000001
00000000000000000000000000000000000000000000000000000000000000000000000000000000000000000000000000000000000000000000000000000000000000000000000000000000000000000000000000000000000000000000000000000000
00000000000000000000000000000000000000000000000000000000000000000000000000000000000000000000000000000000000000000000000000000000000000000000000000000000000000000000000000000000000000000000000000000000
00000000000000000000000000000000000000000000000000000000000000000000000000000000000000000000000000000000000000000000000000000000000000000000000000000000000000000000000000000000000000000000000000000000
00000000000000000000000000000000000000000000000000000000000000000000000000000000000000000000000000000000000000000000000000000000000000000000000000000000000000000000000000000000000000000000000000000000
2UAH          12MAR2111MAR2212MAR21 AIR ALGERIE                        C AIMS                                                                                                                 1300000002
00000000000000000000000000000000000000000000000000000000000000000000000000000000000000000000000000000000000000000000000000000000000000000000000000000000000000000000000000000000000000000000000000000000
00000000000000000000000000000000000000000000000000000000000000000000000000000000000000000000000000000000000000000000000000000000000000000000000000000000000000000000000000000000000000000000000000000000
00000000000000000000000000000000000000000000000000000000000000000000000000000000000000000000000000000000000000000000000000000000000000000000000000000000000000000000000000000000000000000000000000000000
00000000000000000000000000000000000000000000000000000000000000000000000000000000000000000000000000000000000000000000000000000000000000000000000000000000000000000000000000000000000000000000000000000000
3 AH 30600101J24MAR2128APR21  3     ALG10001000+0100  CTU21552155+0800  332                                                                                                 F18C14Y219            000003
3 AH 30600201J25MAR2129APR21   4    CTU17101710+0800  PEK20102010+0800  332                                                                                                 F18C14Y219            000004
3 AH 30600301J03JUN2130DEC21   4  7 ALG12001200+0100  PEK23102310+0800  332                                                                                                 F18C14Y219            000005
3 AH 30610101J25MAR2129APR21   4    PEK21402140+0800  ALG10401040+0100  332                                                                                                 F18C14Y219            000006
3 AH 30610201J04JUN2131DEC211   5   PEK00500050+0800  ALG13201320+0100  332                                                                                                 F18C14Y219            000007
3 AH 60000101J18MAR2108APR21   4    ALG08500850+0100  AAE09500950+0100  73H                                                                                                 F16Y132               000008
3 AH 60000201J13MAY2127MAY21   4    ALG08500850+0100  AAE09500950+0100  73H                                                                                                 F16Y132               000009
3 AH 60010101J18MAR2108APR21   4    AAE16301630+0100  ALG17301730+0100  73H                                                                                                 F16Y132               000010
3 AH 60010201J13MAY2127MAY21   4    AAE16301630+0100  ALG17301730+0100  73H                                                                                                 F16Y132               000011
3 AH 60060101J12MAR2109APR2112  5   ALG18001800+0100  AAE19001900+0100  73H                                                                                                 F16Y132               000012
3 AH 60060201J13MAR2110APR21   4 6  ALG18301830+0100  AAE19301930+0100  73H                                                                                                 F16Y132               000013
3 AH 60060301J14MAR2107APR21  3   7 ALG18151815+0100  AAE19151915+0100  73H                                                                                                 F16Y132               000014
3 AH 60060401J11APR2111APR21      7 ALG18301830+0100  AAE19301930+0100  73H                                                                                                 F16Y132               000015
3 AH 60060501J12APR2106MAY211234567 ALG16101610+0100  AAE17101710+0100  73H                                                                                                 F16Y132               000016
3 AH 60060601J07MAY2112MAY21123 567 ALG17001700+0100  AAE18001800+0100  73H                                                                                                 F16Y132               000017
3 AH 60060701J13MAY2129MAY21   4 6  ALG18301830+0100  AAE19301930+0100  73H                                                                                                 F16Y132               000018
3 AH 60060801J14MAY2131MAY2112  5   ALG18001800+0100  AAE19001900+0100  73H                                                                                                 F16Y132               000019
3 AH 60060901J16MAY2130MAY21  3   7 ALG18151815+0100  AAE19151915+0100  73H                                                                                                 F16Y132               000020
3 AH 60070101J12MAR2112APR21123 567 AAE07150715+0100  ALG08150815+0100  73H                                                                                                 F16Y132               000021
3 AH 60070201J18MAR2108APR21   4    AAE06500650+0100  ALG07500750+0100  73H                                                                                                 F16Y132               000022
3 AH 60070301J13APR2107MAY211234567 AAE09100910+0100  ALG10101010+0100  73H                                                                                                 F16Y132               000023
3 AH 60070401J08MAY2101JUN21123 567 AAE07150715+0100  ALG08150815+0100  73H                                                                                                 F16Y132               000024
3 AH 60070501J13MAY2127MAY21   4    AAE06500650+0100  ALG07500750+0100  73H                                                                                                 F16Y132               000025
3 AH 60260101J12MAR2109APR2112345 7 ALG18151815+0100  CZL19051905+0100  73H                                                                                                 F16Y132               000026
3 AH 60260201J13MAR2110APR21     6  ALG18401840+0100  CZL19301930+0100  73H                                                                                                 F16Y132               000027
3 AH 60260301J11APR2111APR21      7 ALG18401840+0100  CZL19301930+0100  73H                                                                                                 F16Y132               000028
3 AH 60260401J12APR2106MAY211234567 ALG16201620+0100  CZL17101710+0100  73H                                                                                                 F16Y132               000029
3 AH 60260501J07MAY2112MAY21123 567 ALG17151715+0100  CZL18051805+0100  73H                                                                                                 F16Y132               000030
3 AH 60260601J13MAY2131MAY2112345 7 ALG18151815+0100  CZL19051905+0100  73H                                                                                                 F16Y132               000031
3 AH 60260701J15MAY2129MAY21     6  ALG18401840+0100  CZL19301930+0100  73H                                                                                                 F16Y132               000032
3 AH 60270101J12MAR2112APR211234567 CZL07200720+0100  ALG08100810+0100  73H                                                                                                 F16Y132               000033
3 AH 60270201J13APR2107MAY211234567 CZL09000900+0100  ALG09500950+0100  73H                                                                                                 F16Y132               000034
3 AH 60270301J08MAY2101JUN211234567 CZL07200720+0100  ALG08100810+0100  73H                                                                                                 F16Y132               000035
3 AH 60280101J13MAR2129MAY21     6  ALG09100910+0100  CZL10151015+0100  AT7                                                                                                 Y66                   000036
3 AH 60320101J12MAR2112APR211   5   ALG08300830+0100  TEE09450945+0100  AT7                                                                                                 Y66                   000037
3 AH 60320201J14MAR2130MAY21      7 ALG12151215+0100  TEE13301330+0100  AT7                                                                                                 Y66                   000038
3 AH 60320301J17MAR2126MAY21  3     ALG11451145+0100  TEE13001300+0100  AT7                                                                                                 Y66                   000039
3 AH 60320401J07MAY2131MAY211   5   ALG08300830+0100  TEE09450945+0100  AT7                                                                                                 Y66                   000040
3 AH 60330101J12MAR2112APR211   5   TEE10351035+0100  ALG12101210+0100  AT7                                                                                                 Y66                   000041
3 AH 60330201J14MAR2130MAY21      7 TEE14201420+0100  ALG15551555+0100  AT7                                                                                                 Y66                   000042
3 AH 60330301J17MAR2126MAY21  3     TEE13501350+0100  ALG15251525+0100  AT7                                                                                                 Y66                   000043
3 AH 60330401J07MAY2131MAY211   5   TEE10351035+0100  ALG12101210+0100  AT7                                                                                                 Y66                   000044
3 AH 60380101J12MAR2109APR21    5   ALG13401340+0100  BLJ14301430+0100  736                                                                                                 F16Y85                000045
3 AH 60380201J14MAR2128MAR21      7 ALG07300730+0100  BLJ08450845+0100  AT7                                                                                                 F16Y86                000046
3 AH 60380301J04APR2130MAY21      7 ALG07300730+0100  BLJ08450845+0100  AT7                                                                                                 F16Y86                000047
3 AH 60380401J16APR2130APR21    5   ALG13401340+0100  BLJ14551455+0100  AT7                                                                                                 Y66                   000048
3 AH 60380501J07MAY2128MAY21    5   ALG13401340+0100  BLJ14301430+0100  736                                                                                                 F16Y85                000049
3 AH 60390101J12MAR2109APR21    5   BLJ15301530+0100  ALG16201620+0100  736                                                                                                 F16Y85                000050
3 AH 60390201J14MAR2128MAR21      7 BLJ09350935+0100  ALG10501050+0100  AT7                                                                                                 F16Y86                000051
3 AH 60390301J04APR2130MAY21      7 BLJ09350935+0100  ALG10501050+0100  AT7                                                                                                 F16Y86                000052
3 AH 60390401J16APR2130APR21    5   BLJ15451545+0100  ALG17001700+0100  AT7                                                                                                 Y66                   000053
3 AH 60390501J07MAY2128MAY21    5   BLJ15301530+0100  ALG16201620+0100  736                                                                                                 F16Y85                000054
3 AH 60400101J15MAR2115MAR211       ALG11301130+0100  BSK12301230+0100  AT7                                                                                                 Y66                   000055
3 AH 60400201J17MAR2131MAR21  3     ALG10001000+0100  BSK10501050+0100  736                                                                                                 F16Y85                000056
3 AH 60400301J18MAR2127MAY21   4    ALG09450945+0100  BSK10351035+0100  736                                                                                                 F16Y85                000057
3 AH 60400401J22MAR2131MAY211       ALG11301130+0100  BSK12301230+0100  AT7                                                                                                 Y66                   000058
3 AH 60400501J12MAY2126MAY21  3     ALG10001000+0100  BSK10501050+0100  736                                                                                                 F16Y85                000059
3 AH 60410101J15MAR2115MAR211       BSK13201320+0100  ALG14201420+0100  AT7                                                                                                 Y66                   000060
3 AH 60410201J17MAR2131MAR21  3     BSK11501150+0100  ALG12401240+0100  736                                                                                                 F16Y85                000061
3 AH 60410301J18MAR2127MAY21   4    BSK11351135+0100  ALG12251225+0100  736                                                                                                 F16Y85                000062
3 AH 60410401J22MAR2131MAY211       BSK13201320+0100  ALG14201420+0100  AT7                                                                                                 Y66                   000063
3 AH 60410501J12MAY2126MAY21  3     BSK11501150+0100  ALG12401240+0100  736                                                                                                 F16Y85                000064
3 AH 60420101J13MAR2129MAY21     6  ALG09500950+0100  BSK10401040+0100  736                                                                                                 F16Y85                000065
3 AH 60420201J14MAR2111APR21      7 ALG13401340+0100  BSK14301430+0100  736                                                                                                 F16Y85                000066
3 AH 60420301J09MAY2130MAY21      7 ALG13401340+0100  BSK14301430+0100  736                                                                                                 F16Y85                000067
3 AH 60430101J13MAR2129MAY21     6  BSK11401140+0100  ALG12301230+0100  736                                                                                                 F16Y85                000068
3 AH 60430201J14MAR2111APR21      7 BSK15301530+0100  ALG16201620+0100  736                                                                                                 F16Y85                000069
3 AH 60430301J09MAY2130MAY21      7 BSK15301530+0100  ALG16201620+0100  736                                                                                                 F16Y85                000070
3 AH 60500101J16MAR2125MAY21 2      ALG10001000+0100  BJA10451045+0100  AT7                                                                                                 Y66                   000071
3 AH 60510101J16MAR2125MAY21 2      BJA11351135+0100  ALG12201220+0100  AT7                                                                                                 Y66                   000072
3 AH 60520101J18MAR2127MAY21   4    ALG12201220+0100  BJA13051305+0100  AT7                                                                                                 Y66                   000073
3 AH 60530101J18MAR2127MAY21   4    BJA13551355+0100  ALG14401440+0100  AT7                                                                                                 Y66                   000074
3 AH 60560101J13MAR2110APR21     6  ALG13501350+0100  GJL14451445+0100  736                                                                                                 F16Y85                000075
3 AH 60560201J16MAR2106APR21 2      ALG09300930+0100  GJL10201020+0100  736                                                                                                 F16Y85                000076
3 AH 60560301J18MAR2118MAR21   4    ALG09250925+0100  GJL10151015+0100  AT7                                                                                                 Y66                   000077
3 AH 60560401J25MAR2108APR21   4    ALG09250925+0100  GJL10151015+0100  AT7                                                                                                 Y66                   000078
3 AH 60560501J08MAY2129MAY21     6  ALG13501350+0100  GJL14451445+0100  736                                                                                                 F16Y85                000079
3 AH 60560601J11MAY2125MAY21 2      ALG09300930+0100  GJL10201020+0100  736                                                                                                 F16Y85                000080
3 AH 60560701J13MAY2127MAY21   4    ALG09250925+0100  GJL10151015+0100  AT7                                                                                                 Y66                   000081
3 AH 60570101J13MAR2110APR21     6  GJL15451545+0100  ALG16401640+0100  736                                                                                                 F16Y85                000082
3 AH 60570201J16MAR2106APR21 2      GJL11201120+0100  ALG12101210+0100  736                                                                                                 F16Y85                000083
3 AH 60570301J18MAR2118MAR21   4    GJL11051105+0100  ALG11551155+0100  AT7                                                                                                 Y66                   000084
3 AH 60570401J25MAR2108APR21   4    GJL11051105+0100  ALG11551155+0100  AT7                                                                                                 Y66                   000085
3 AH 60570501J08MAY2129MAY21     6  GJL15451545+0100  ALG16401640+0100  736                                                                                                 F16Y85                000086
3 AH 60570601J11MAY2125MAY21 2      GJL11201120+0100  ALG12101210+0100  736                                                                                                 F16Y85                000087
3 AH 60570701J13MAY2127MAY21   4    GJL11051105+0100  ALG11551155+0100  AT7                                                                                                 Y66                   000088
3 AH 60580101J12MAR2128MAY21    5   ALG10001000+0100  GJL10501050+0100  736                                                                                                 F16Y85                000089
3 AH 60580201J15MAR2131MAY211       ALG09450945+0100  GJL10351035+0100  736                                                                                                 F16Y85                000090
3 AH 60580301J17MAR2126MAY21  3     ALG09500950+0100  GJL10401040+0100  736                                                                                                 F16Y85                000091
3 AH 60590101J12MAR2128MAY21    5   GJL11501150+0100  ALG12401240+0100  736                                                                                                 F16Y85                000092
3 AH 60590201J15MAR2131MAY211       GJL11351135+0100  ALG12251225+0100  736                                                                                                 F16Y85                000093
3 AH 60590301J17MAR2126MAY21  3     GJL11401140+0100  ALG12301230+0100  736                                                                                                 F16Y85                000094
3 AH 60700101J13MAR2110APR21     6  ALG09400940+0100  LOO10501050+0100  AT7                                                                                                 Y66                   000095
3 AH 60700201J14MAR2130MAY21      7 ALG11301130+0100  LOO12401240+0100  AT7                                                                                                 Y66                   000096
3 AH 60700301J16MAR2106APR21 2      ALG09500950+0100  LOO11001100+0100  AT7                                                                                                 Y66                   000097
3 AH 60700401J18MAR2118MAR21   4    ALG11451145+0100  LOO12551255+0100  AT7                                                                                                 Y66                   000098
3 AH 60700501J25MAR2125MAR21   4    ALG11451145+0100  LOO12551255+0100  AT7                                                                                                 Y66                   000099
3 AH 60700601J01APR2127MAY21   4    ALG11451145+0100  LOO12551255+0100  AT7                                                                                                 Y66                   000100
3 AH 60700701J08MAY2129MAY21     6  ALG09400940+0100  LOO10501050+0100  AT7                                                                                                 Y66                   000101
3 AH 60700801J11MAY2125MAY21 2      ALG09500950+0100  LOO11001100+0100  AT7                                                                                                 Y66                   000102
3 AH 60710101J13MAR2110APR21     6  LOO11401140+0100  ALG12451245+0100  AT7                                                                                                 Y66                   000103
3 AH 60710201J14MAR2130MAY21      7 LOO13301330+0100  ALG14351435+0100  AT7                                                                                                 Y66                   000104
3 AH 60710301J16MAR2106APR21 2      LOO11501150+0100  ALG12551255+0100  AT7                                                                                                 Y66                   000105
3 AH 60710401J18MAR2118MAR21   4    LOO13451345+0100  ALG14501450+0100  AT7                                                                                                 Y66                   000106
3 AH 60710501J25MAR2125MAR21   4    LOO13451345+0100  ALG14501450+0100  AT7                                                                                                 Y66                   000107
3 AH 60710601J01APR2127MAY21   4    LOO13451345+0100  ALG14501450+0100  AT7                                                                                                 Y66                   000108
3 AH 60710701J08MAY2129MAY21     6  LOO11401140+0100  ALG12451245+0100  AT7                                                                                                 Y66                   000109
3 AH 60710801J11MAY2125MAY21 2      LOO11501150+0100  ALG12551255+0100  AT7                                                                                                 Y66                   000110
3 AH 61000101J15MAR2105APR211       ALG10001000+0100  ORN11001100+0100  73H                                                                                                 F16Y132               000111
3 AH 61000201J17MAR2126MAY21  3     ALG07000700+0100  ORN08150815+0100  AT7                                                                                                 Y66                   000112
3 AH 61000301J10MAY2131MAY211       ALG10001000+0100  ORN11001100+0100  73H                                                                                                 F16Y132               000113
3 AH 61030101J17MAR2126MAY21  3     ORN16001600+0100  ALG17151715+0100  AT7                                                                                                 Y66                   000114
3 AH 61060101J12MAR2111APR21 23 5 7 ALG18451845+0100  ORN19451945+0100  73H                                                                                                 F16Y132               000115
3 AH 61060201J13MAR2110APR211  4 6  ALG18301830+0100  ORN19301930+0100  73H                                                                                                 F16Y132               000116
3 AH 61060301J12APR2106MAY211234567 ALG16001600+0100  ORN17001700+0100  73H                                                                                                 F16Y132               000117
3 AH 61060401J07MAY2112MAY21123 567 ALG17301730+0100  ORN18301830+0100  73H                                                                                                 F16Y132               000118
3 AH 61060501J13MAY2131MAY211  4 6  ALG18301830+0100  ORN19301930+0100  73H                                                                                                 F16Y132               000119
3 AH 61060601J14MAY2130MAY21 23 5 7 ALG18451845+0100  ORN19451945+0100  73H                                                                                                 F16Y132               000120
3 AH 61070101J12MAR2111APR21    5 7 ORN06300630+0100  ALG07300730+0100  73H                                                                                                 F16Y132               000121
3 AH 61070201J13MAR2113MAR21     6  ORN07000700+0100  ALG08000800+0100  73H                                                                                                 F16Y132               000122
3 AH 61070301J15MAR2112APR21123  6  ORN07000700+0100  ALG08000800+0100  73H                                                                                                 F16Y132               000123
3 AH 61070401J18MAR2108APR21   4    ORN06450645+0100  ALG07450745+0100  73H                                                                                                 F16Y132               000124
3 AH 61070501J13APR2107MAY211234567 ORN08500850+0100  ALG09500950+0100  73H                                                                                                 F16Y132               000125
3 AH 61070601J08MAY2101JUN21123  6  ORN07000700+0100  ALG08000800+0100  73H                                                                                                 F16Y132               000126
3 AH 61070701J09MAY2130MAY21    5 7 ORN06300630+0100  ALG07300730+0100  73H                                                                                                 F16Y132               000127
3 AH 61070801J13MAY2127MAY21   4    ORN06450645+0100  ALG07450745+0100  73H                                                                                                 F16Y132               000128
3 AH 61110101J15MAR2105APR211       ORN13251325+0100  ALG14251425+0100  73H                                                                                                 F16Y132               000129
3 AH 61110201J10MAY2131MAY211       ORN13251325+0100  ALG14251425+0100  73H                                                                                                 F16Y132               000130
3 AH 61180101J12MAR2128MAY21    5   ALG09300930+0100  TLM10301030+0100  736                                                                                                 F16Y85                000131
3 AH 61190101J12MAR2128MAY21    5   TLM11301130+0100  ALG12301230+0100  736                                                                                                 F16Y85                000132
3 AH 61200101J15MAR2105APR211       ALG13001300+0100  TLM14001400+0100  73H                                                                                                 F16Y132               000133
3 AH 61200201J12APR2103MAY211       ALG13001300+0100  TLM14001400+0100  736                                                                                                 F16Y85                000134
3 AH 61200301J10MAY2131MAY211       ALG13001300+0100  TLM14001400+0100  73H                                                                                                 F16Y132               000135
3 AH 61210101J15MAR2105APR211       TLM15001500+0100  ALG16001600+0100  73H                                                                                                 F16Y132               000136
3 AH 61210201J12APR2103MAY211       TLM15001500+0100  ALG16001600+0100  736                                                                                                 F16Y85                000137
3 AH 61210301J10MAY2131MAY211       TLM15001500+0100  ALG16001600+0100  73H                                                                                                 F16Y132               000138
3 AH 61240101J14MAR2114MAR21      7 ALG11501150+0100  TID12401240+0100  AT7                                                                                                 Y66                   000139
3 AH 61240201J17MAR2117MAR21  3     ALG10401040+0100  TID11301130+0100  AT7                                                                                                 Y66                   000140
3 AH 61240301J21MAR2121MAR21      7 ALG11501150+0100  TID12401240+0100  AT7                                                                                                 Y66                   000141
3 AH 61240401J24MAR2124MAR21  3     ALG10401040+0100  TID11301130+0100  AT7                                                                                                 Y66                   000142
3 AH 61240501J28MAR2130MAY21      7 ALG11501150+0100  TID12401240+0100  AT7                                                                                                 Y66                   000143
3 AH 61240601J31MAR2131MAR21  3     ALG10401040+0100  TID11301130+0100  AT7                                                                                                 Y66                   000144
3 AH 61240701J07APR2126MAY21  3     ALG10401040+0100  TID11301130+0100  AT7                                                                                                 Y66                   000145
3 AH 61250101J14MAR2114MAR21      7 TID13301330+0100  ALG14201420+0100  AT7                                                                                                 Y66                   000146
3 AH 61250201J17MAR2117MAR21  3     TID12201220+0100  ALG13101310+0100  AT7                                                                                                 Y66                   000147
3 AH 61250301J21MAR2121MAR21      7 TID13301330+0100  ALG14201420+0100  AT7                                                                                                 Y66                   000148
3 AH 61250401J24MAR2124MAR21  3     TID12201220+0100  ALG13101310+0100  AT7                                                                                                 Y66                   000149
3 AH 61250501J28MAR2130MAY21      7 TID13301330+0100  ALG14201420+0100  AT7                                                                                                 Y66                   000150
3 AH 61250601J31MAR2131MAR21  3     TID12201220+0100  ALG13101310+0100  AT7                                                                                                 Y66                   000151
3 AH 61250701J07APR2126MAY21  3     TID12201220+0100  ALG13101310+0100  AT7                                                                                                 Y66                   000152
3 AH 61260101J17MAR2126MAY21  3     ORN06200620+0100  EBH07200720+0100  AT7                                                                                                 Y66                   000153
3 AH 61270101J17MAR2126MAY21  3     EBH08100810+0100  ORN09150915+0100  AT7                                                                                                 Y66                   000154
3 AH 61280101J14MAR2114MAR21      7 ORN07000700+0100  MZW08200820+0100  AT7                                                                                                 Y66                   000155
3 AH 61280201J21MAR2130MAY21      7 ORN07000700+0100  MZW08200820+0100  AT7                                                                                                 Y66                   000156
3 AH 61290101J14MAR2114MAR21      7 MZW09100910+0100  ORN10351035+0100  AT7                                                                                                 Y66                   000157
3 AH 61290201J21MAR2130MAY21      7 MZW09100910+0100  ORN10351035+0100  AT7                                                                                                 Y66                   000158
3 AH 61320101J13MAR2120MAR21     6  ALG09000900+0100  CBH10301030+0100  736                                                                                                 F16Y85                000159
3 AH 61320201J15MAR2105APR211       ALG09000900+0100  CBH10351035+0100  73H                                                                                                 F16Y132               000160
3 AH 61320301J18MAR2118MAR21   4    ALG10001000+0100  CBH11301130+0100  736                                                                                                 F16Y85                000161
3 AH 61320401J25MAR2125MAR21   4    ALG10001000+0100  CBH12151215+0100  AT7                                                                                                 Y66                   000162
3 AH 61320501J27MAR2129MAY21     6  ALG09000900+0100  CBH11151115+0100  AT7                                                                                                 Y66                   000163
3 AH 61320601J01APR2127MAY21   4    ALG10001000+0100  CBH12151215+0100  AT7                                                                                                 Y66                   000164
3 AH 61320701J10MAY2131MAY211       ALG09000900+0100  CBH10351035+0100  73H                                                                                                 F16Y132               000165
3 AH 61330101J13MAR2120MAR21     6  CBH11301130+0100  ALG13001300+0100  736                                                                                                 F16Y85                000166
3 AH 61330201J15MAR2105APR211       CBH15101510+0100  ALG16401640+0100  73H                                                                                                 F16Y132               000167
3 AH 61330301J18MAR2118MAR21   4    CBH12301230+0100  ALG14001400+0100  736                                                                                                 F16Y85                000168
3 AH 61330401J25MAR2125MAR21   4    CBH13051305+0100  ALG15051505+0100  AT7                                                                                                 Y66                   000169
3 AH 61330501J27MAR2129MAY21     6  CBH12051205+0100  ALG14051405+0100  AT7                                                                                                 Y66                   000170
3 AH 61330601J01APR2127MAY21   4    CBH13051305+0100  ALG15051505+0100  AT7                                                                                                 Y66                   000171
3 AH 61330701J10MAY2131MAY211       CBH15101510+0100  ALG16401640+0100  73H                                                                                                 F16Y132               000172
3 AH 61340101J12MAR2112MAR21    5   ALG10001000+0100  CBH11301130+0100  736                                                                                                 F16Y85                000173
3 AH 61340201J19MAR2109APR21    5   ALG10001000+0100  CBH11301130+0100  AT7                                                                                                 Y66                   000174
3 AH 61340301J07MAY2128MAY21    5   ALG10001000+0100  CBH11301130+0100  AT7                                                                                                 Y66                   000175
3 AH 61350101J12MAR2112MAR21    5   CBH12301230+0100  ALG14001400+0100  736                                                                                                 F16Y85                000176
3 AH 61350201J19MAR2109APR21    5   CBH12301230+0100  ALG14001400+0100  AT7                                                                                                 Y66                   000177
3 AH 61350301J07MAY2128MAY21    5   CBH12301230+0100  ALG14001400+0100  AT7                                                                                                 Y66                   000178
3 AH 61400101J12MAR2128MAY21    5   ALG08300830+0100  AZR11201120+0100  AT7                                                                                                 Y66                   000179
3 AH 61400201J14MAR2130MAY21      7 ALG07300730+0100  AZR10201020+0100  AT7                                                                                                 Y66                   000180
3 AH 61400301J15MAR2131MAY2112      ALG14001400+0100  AZR16501650+0100  AT7                                                                                                 Y66                   000181
3 AH 61410101J13MAR2129MAY21     6  AZR07000700+0100  ALG09500950+0100  AT7                                                                                                 Y66                   000182
3 AH 61410201J15MAR2131MAY211       AZR13201320+0100  ALG16101610+0100  AT7                                                                                                 Y66                   000183
3 AH 61410301J16MAR2101JUN21 2      AZR12551255+0100  ALG15351535+0100  AT7                                                                                                 Y66                   000184
3 AH 61410401J18MAR2127MAY21   4    AZR07000700+0100  ALG09500950+0100  AT7                                                                                                 Y66                   000185
3 AH 61420101J13MAR2110APR21     6  ALG09200920+0100  AZR11101110+0100  736                                                                                                 F16Y86                000186
3 AH 61420201J14MAR2111APR21   4  7 ALG09000900+0100  AZR10501050+0100  73H                                                                                                 F16Y132               000187
3 AH 61420301J15MAR2115MAR211       ALG10001000+0100  AZR12501250+0100  AT7                                                                                                 Y66                   000188
3 AH 61420401J22MAR2122MAR211       ALG10001000+0100  AZR12501250+0100  AT7                                                                                                 Y66                   000189
3 AH 61420501J29MAR2131MAY211       ALG10001000+0100  AZR12501250+0100  AT7                                                                                                 Y66                   000190
3 AH 61420601J18APR2109MAY21      7 ALG09000900+0100  AZR10501050+0100  73H                                                                                                 F16Y132               000191
3 AH 61420701J08MAY2129MAY21     6  ALG09200920+0100  AZR11101110+0100  736                                                                                                 F16Y86                000192
3 AH 61420801J13MAY2130MAY21   4  7 ALG09000900+0100  AZR10501050+0100  73H                                                                                                 F16Y132               000193
3 AH 61430101J13MAR2110APR21     6  AZR12101210+0100  ALG14001400+0100  736                                                                                                 F16Y86                000194
3 AH 61430201J14MAR2111APR21   4  7 AZR11501150+0100  ALG13401340+0100  73H                                                                                                 F16Y132               000195
3 AH 61430301J15MAR2115MAR211       AZR13401340+0100  ALG16301630+0100  AT7                                                                                                 Y66                   000196
3 AH 61430401J22MAR2122MAR211       AZR13401340+0100  ALG16301630+0100  AT7                                                                                                 Y66                   000197
3 AH 61430501J29MAR2131MAY211       AZR13401340+0100  ALG16301630+0100  AT7                                                                                                 Y66                   000198
3 AH 61430601J18APR2109MAY21      7 AZR11501150+0100  ALG13401340+0100  73H                                                                                                 F16Y132               000199
3 AH 61430701J08MAY2129MAY21     6  AZR12101210+0100  ALG14001400+0100  736                                                                                                 F16Y86                000200
3 AH 61430801J13MAY2130MAY21   4  7 AZR11501150+0100  ALG13401340+0100  73H                                                                                                 F16Y132               000201
3 AH 61460101J12MAR2128MAY21    5   ALG10001000+0100  TIN12301230+0100  73H                                                                                                 F16Y132               000202
3 AH 61460201J13MAR2110APR21     6  ALG11401140+0100  TIN14101410+0100  73H                                                                                                 F16Y132               000203
3 AH 61460301J15MAR2131MAY211       ALG10301030+0100  TIN13001300+0100  73H                                                                                                 F16Y132               000204
3 AH 61460401J18MAR2108APR21   4    ALG09050905+0100  TIN11351135+0100  73H                                                                                                 F16Y132               000205
3 AH 61460501J08MAY2108MAY21     6  ALG11401140+0100  TIN14101410+0100  73H                                                                                                 F16Y132               000206
3 AH 61460601J13MAY2127MAY21   4    ALG09050905+0100  TIN11351135+0100  73H                                                                                                 F16Y132               000207
3 AH 61460701J15MAY2129MAY21     6  ALG11401140+0100  TIN14101410+0100  73H                                                                                                 F16Y132               000208
3 AH 61470101J12MAR2128MAY21    5   TIN13201320+0100  ALG15401540+0100  73H                                                                                                 F16Y132               000209
3 AH 61470201J13MAR2110APR21     6  TIN15101510+0100  ALG17301730+0100  73H                                                                                                 F16Y132               000210
3 AH 61470301J15MAR2131MAY211       TIN14001400+0100  ALG16201620+0100  73H                                                                                                 F16Y132               000211
3 AH 61470401J18MAR2108APR21   4    TIN12301230+0100  ALG14451445+0100  73H                                                                                                 F16Y132               000212
3 AH 61470501J08MAY2108MAY21     6  TIN15101510+0100  ALG17301730+0100  73H                                                                                                 F16Y132               000213
3 AH 61470601J13MAY2127MAY21   4    TIN12301230+0100  ALG14451445+0100  73H                                                                                                 F16Y132               000214
3 AH 61470701J15MAY2129MAY21     6  TIN15101510+0100  ALG17301730+0100  73H                                                                                                 F16Y132               000215
3 AH 61480101J16MAR2125MAY21 2      ALG09300930+0100  CBH11001100+0100  73H                                                                                                 F16Y132               000216
3 AH 61480102J16MAR2125MAY21 2      CBH12001200+0100  TIN13101310+0100  73H                                                                                                 F16Y132               000217
3 AH 61490101J16MAR2125MAY21 2      TIN14101410+0100  ALG16301630+0100  73H                                                                                                 F16Y132               000218
3 AH 61500101J16MAR2125MAY21 2      ALG09300930+0100  TIN12001200+0100  73H                                                                                                 F16Y132               000219
3 AH 61510101J16MAR2125MAY21 2      TIN13001300+0100  CBH14001400+0100  73H                                                                                                 F16Y132               000220
3 AH 61510102J16MAR2125MAY21 2      CBH15001500+0100  ALG16351635+0100  73H                                                                                                 F16Y132               000221
3 AH 61560101J13MAR2110APR21     6  ALG09300930+0100  TMX11001100+0100  73H                                                                                                 F16Y132               000222
3 AH 61560201J14MAR2111APR21      7 ALG09150915+0100  TMX10451045+0100  73H                                                                                                 F16Y132               000223
3 AH 61560301J15MAR2105APR211       ALG09300930+0100  TMX11001100+0100  736                                                                                                 F16Y85                000224
3 AH 61560401J17MAR2107APR21  3     ALG12301230+0100  TMX14001400+0100  73H                                                                                                 F16Y132               000225
3 AH 61560501J14APR2105MAY21  3     ALG12301230+0100  TMX14001400+0100  736                                                                                                 F16Y85                000226
3 AH 61560601J18APR2102MAY21      7 ALG10001000+0100  TMX11301130+0100  736                                                                                                 F16Y85                000227
3 AH 61560701J08MAY2129MAY21     6  ALG09300930+0100  TMX11001100+0100  73H                                                                                                 F16Y132               000228
3 AH 61560801J09MAY2109MAY21      7 ALG10001000+0100  TMX11301130+0100  73H                                                                                                 F16Y132               000229
3 AH 61560901J10MAY2131MAY211       ALG09300930+0100  TMX11001100+0100  736                                                                                                 F16Y85                000230
3 AH 61561001J12MAY2126MAY21  3     ALG12301230+0100  TMX14001400+0100  73H                                                                                                 F16Y132               000231
3 AH 61561101J16MAY2130MAY21      7 ALG09150915+0100  TMX10451045+0100  73H                                                                                                 F16Y132               000232
3 AH 61570101J13MAR2110APR21     6  TMX12001200+0100  ALG13301330+0100  73H                                                                                                 F16Y132               000233
3 AH 61570201J14MAR2111APR21      7 TMX11451145+0100  ALG13151315+0100  73H                                                                                                 F16Y132               000234
3 AH 61570301J15MAR2105APR211       TMX12001200+0100  ALG13301330+0100  736                                                                                                 F16Y85                000235
3 AH 61570401J17MAR2107APR21  3     TMX15001500+0100  ALG16301630+0100  73H                                                                                                 F16Y132               000236
3 AH 61570501J14APR2105MAY21  3     TMX15001500+0100  ALG16301630+0100  736                                                                                                 F16Y85                000237
3 AH 61570601J18APR2102MAY21      7 TMX12301230+0100  ALG14001400+0100  736                                                                                                 F16Y85                000238
3 AH 61570701J08MAY2129MAY21     6  TMX12001200+0100  ALG13301330+0100  73H                                                                                                 F16Y132               000239
3 AH 61570801J09MAY2109MAY21      7 TMX12301230+0100  ALG14001400+0100  73H                                                                                                 F16Y132               000240
3 AH 61570901J10MAY2131MAY211       TMX12001200+0100  ALG13301330+0100  736                                                                                                 F16Y85                000241
3 AH 61571001J12MAY2126MAY21  3     TMX15001500+0100  ALG16301630+0100  73H                                                                                                 F16Y132               000242
3 AH 61571101J16MAY2130MAY21      7 TMX11451145+0100  ALG13151315+0100  73H                                                                                                 F16Y132               000243
3 AH 61640101J13MAR2113MAR21     6  AAE14351435+0100  ORN16001600+0100  73H                                                                                                 F16Y132               000244
3 AH 61640201J15MAR2115MAR211       AAE15001500+0100  ORN17001700+0100  AT7                                                                                                 Y66                   000245
3 AH 61640301J18MAR2108APR21   4    AAE10451045+0100  ORN12351235+0100  73H                                                                                                 F16Y132               000246
3 AH 61640401J20MAR2129MAY21     6  AAE14351435+0100  ORN16001600+0100  73H                                                                                                 F16Y132               000247
3 AH 61640501J22MAR2131MAY211       AAE15001500+0100  ORN17001700+0100  AT7                                                                                                 Y66                   000248
3 AH 61640601J13MAY2127MAY21   4    AAE10451045+0100  ORN12351235+0100  73H                                                                                                 F16Y132               000249
3 AH 61650101J13MAR2113MAR21     6  ORN12201220+0100  AAE13351335+0100  73H                                                                                                 F16Y132               000250
3 AH 61650201J15MAR2115MAR211       ORN12151215+0100  AAE14151415+0100  AT7                                                                                                 Y66                   000251
3 AH 61650301J18MAR2108APR21   4    ORN13351335+0100  AAE15301530+0100  73H                                                                                                 F16Y132               000252
3 AH 61650401J20MAR2129MAY21     6  ORN12201220+0100  AAE13351335+0100  73H                                                                                                 F16Y132               000253
3 AH 61650501J22MAR2131MAY211       ORN12151215+0100  AAE14151415+0100  AT7                                                                                                 Y66                   000254
3 AH 61650601J13MAY2127MAY21   4    ORN13351335+0100  AAE15301530+0100  73H                                                                                                 F16Y132               000255
3 AH 61680101J15MAR2115MAR211       ORN07000700+0100  CZL08400840+0100  AT7                                                                                                 Y66                   000256
3 AH 61680201J16MAR2116MAR21 2      ORN07350735+0100  CZL09150915+0100  AT7                                                                                                 Y66                   000257
3 AH 61680301J17MAR2117MAR21  3     ORN10451045+0100  CZL12151215+0100  73H                                                                                                 F16Y132               000258
3 AH 61680401J22MAR2131MAY211       ORN07000700+0100  CZL08400840+0100  AT7                                                                                                 Y66                   000259
3 AH 61680501J23MAR2101JUN21 2      ORN07350735+0100  CZL09150915+0100  AT7                                                                                                 Y66                   000260
3 AH 61680601J24MAR2107APR21  3     ORN10451045+0100  CZL12151215+0100  73H                                                                                                 F16Y132               000261
3 AH 61680701J12MAY2126MAY21  3     ORN10451045+0100  CZL12151215+0100  73H                                                                                                 F16Y132               000262
3 AH 61690101J15MAR2115MAR211       CZL09300930+0100  ORN11251125+0100  AT7                                                                                                 Y66                   000263
3 AH 61690201J16MAR2116MAR21 2      CZL10051005+0100  ORN12001200+0100  AT7                                                                                                 Y66                   000264
3 AH 61690301J17MAR2117MAR21  3     CZL13151315+0100  ORN14451445+0100  73H                                                                                                 F16Y132               000265
3 AH 61690401J22MAR2131MAY211       CZL09300930+0100  ORN11251125+0100  AT7                                                                                                 Y66                   000266
3 AH 61690501J23MAR2101JUN21 2      CZL10051005+0100  ORN12001200+0100  AT7                                                                                                 Y66                   000267
3 AH 61690601J24MAR2107APR21  3     CZL13151315+0100  ORN14451445+0100  73H                                                                                                 F16Y132               000268
3 AH 61690701J12MAY2126MAY21  3     CZL13151315+0100  ORN14451445+0100  73H                                                                                                 F16Y132               000269
3 AH 61700101J12MAR2109APR21    5   ALG07300730+0100  AAE08450845+0100  AT7                                                                                                 Y66                   000270
3 AH 61700201J13MAR2115MAR211    6  ALG07150715+0100  AAE08300830+0100  AT7                                                                                                 Y66                   000271
3 AH 61700301J14MAR2121MAR21     67 ALG07150715+0100  AAE08300830+0100  AT7                                                                                                 Y66                   000272
3 AH 61700401J16MAR2106APR21 2      ALG13501350+0100  AAE14501450+0100  736                                                                                                 F16Y85                000273
3 AH 61700501J17MAR2117MAR21  3     ALG08050805+0100  AAE09200920+0100  AT7                                                                                                 Y66                   000274
3 AH 61700601J22MAR2129MAR211    67 ALG07150715+0100  AAE08300830+0100  AT7                                                                                                 Y66                   000275
3 AH 61700701J24MAR2124MAR21  3     ALG08050805+0100  AAE09200920+0100  AT7                                                                                                 Y66                   000276
3 AH 61700801J31MAR2131MAR21  3     ALG08050805+0100  AAE09200920+0100  AT7                                                                                                 Y66                   000277
3 AH 61700901J03APR2110APR21     6  ALG07150715+0100  AAE08300830+0100  AT7                                                                                                 Y66                   000278
3 AH 61701001J04APR2111APR211     7 ALG07150715+0100  AAE08300830+0100  AT7                                                                                                 Y66                   000279
3 AH 61701101J07APR2107APR21  3     ALG08050805+0100  AAE09200920+0100  AT7                                                                                                 Y66                   000280
3 AH 61701201J07MAY2128MAY21    5   ALG07300730+0100  AAE08450845+0100  AT7                                                                                                 Y66                   000281
3 AH 61701301J08MAY2129MAY21     6  ALG07150715+0100  AAE08300830+0100  AT7                                                                                                 Y66                   000282
3 AH 61701401J09MAY2131MAY211     7 ALG07150715+0100  AAE08300830+0100  AT7                                                                                                 Y66                   000283
3 AH 61701501J11MAY2125MAY21 2      ALG13501350+0100  AAE14501450+0100  736                                                                                                 F16Y85                000284
3 AH 61701601J12MAY2126MAY21  3     ALG08050805+0100  AAE09200920+0100  AT7                                                                                                 Y66                   000285
3 AH 61710101J12MAR2109APR21    5   AAE09350935+0100  ALG10551055+0100  AT7                                                                                                 Y66                   000286
3 AH 61710201J13MAR2113MAR21     6  AAE09200920+0100  ALG10351035+0100  AT7                                                                                                 Y66                   000287
3 AH 61710301J14MAR2121MAR21      7 AAE09200920+0100  ALG10401040+0100  AT7                                                                                                 Y66                   000288
3 AH 61710401J15MAR2115MAR211       AAE09200920+0100  ALG10401040+0100  AT7                                                                                                 Y66                   000289
3 AH 61710501J16MAR2106APR21 2      AAE15501550+0100  ALG16501650+0100  736                                                                                                 F16Y85                000290
3 AH 61710601J17MAR2117MAR21  3     AAE10101010+0100  ALG11301130+0100  AT7                                                                                                 Y66                   000291
3 AH 61710701J20MAR2127MAR21     6  AAE09200920+0100  ALG10351035+0100  AT7                                                                                                 Y66                   000292
3 AH 61710801J22MAR2111APR211     7 AAE09200920+0100  ALG10401040+0100  AT7                                                                                                 Y66                   000293
3 AH 61710901J24MAR2124MAR21  3     AAE10101010+0100  ALG11301130+0100  AT7                                                                                                 Y66                   000294
3 AH 61711001J31MAR2131MAR21  3     AAE10101010+0100  ALG11301130+0100  AT7                                                                                                 Y66                   000295
3 AH 61711101J03APR2110APR21     6  AAE09200920+0100  ALG10351035+0100  AT7                                                                                                 Y66                   000296
3 AH 61711201J07APR2107APR21  3     AAE10101010+0100  ALG11301130+0100  AT7                                                                                                 Y66                   000297
3 AH 61711301J07MAY2128MAY21    5   AAE09350935+0100  ALG10551055+0100  AT7                                                                                                 Y66                   000298
3 AH 61711401J08MAY2129MAY21     6  AAE09200920+0100  ALG10351035+0100  AT7                                                                                                 Y66                   000299
3 AH 61711501J09MAY2131MAY211     7 AAE09200920+0100  ALG10401040+0100  AT7                                                                                                 Y66                   000300
3 AH 61711601J11MAY2125MAY21 2      AAE15501550+0100  ALG16501650+0100  736                                                                                                 F16Y85                000301
3 AH 61711701J12MAY2126MAY21  3     AAE10101010+0100  ALG11301130+0100  AT7                                                                                                 Y66                   000302
3 AH 61760101J12MAR2119MAR21  3 5   ALG14001400+0100  AAE15151515+0100  AT7                                                                                                 Y66                   000303
3 AH 61760201J13MAR2110APR21     6  ALG15001500+0100  AAE16151615+0100  AT7                                                                                                 Y66                   000304
3 AH 61760301J14MAR2111APR21      7 ALG14151415+0100  AAE15151515+0100  736                                                                                                 F16Y85                000305
3 AH 61760401J15MAR2105APR211       ALG13251325+0100  AAE14251425+0100  736                                                                                                 F16Y85                000306
3 AH 61760501J16MAR2106APR21 2      ALG07150715+0100  AAE08300830+0100  AT7                                                                                                 Y66                   000307
3 AH 61760601J24MAR2107APR21  3     ALG14001400+0100  AAE15001500+0100  736                                                                                                 F16Y85                000308
3 AH 61760701J26MAR2109APR21    5   ALG14001400+0100  AAE15151515+0100  AT7                                                                                                 Y66                   000309
3 AH 61760801J07MAY2128MAY21    5   ALG14001400+0100  AAE15151515+0100  AT7                                                                                                 Y66                   000310
3 AH 61760901J08MAY2115MAY21     67 ALG15001500+0100  AAE16151615+0100  AT7                                                                                                 Y66                   000311
3 AH 61761001J10MAY2110MAY211       ALG13251325+0100  AAE14401440+0100  AT7                                                                                                 Y66                   000312
3 AH 61761101J11MAY2125MAY21 2      ALG07150715+0100  AAE08300830+0100  AT7                                                                                                 Y66                   000313
3 AH 61761201J12MAY2112MAY21  3     ALG14001400+0100  AAE15151515+0100  AT7                                                                                                 Y66                   000314
3 AH 61761301J16MAY2130MAY21      7 ALG14151415+0100  AAE15151515+0100  736                                                                                                 F16Y85                000315
3 AH 61761401J17MAY2131MAY211       ALG13251325+0100  AAE14251425+0100  736                                                                                                 F16Y85                000316
3 AH 61761501J19MAY2126MAY21  3     ALG14001400+0100  AAE15001500+0100  736                                                                                                 F16Y85                000317
3 AH 61761601J22MAY2129MAY21     6  ALG15001500+0100  AAE16151615+0100  AT7                                                                                                 Y66                   000318
3 AH 61770101J12MAR2119MAR21  3 5   AAE16051605+0100  ALG17251725+0100  AT7                                                                                                 Y66                   000319
3 AH 61770201J13MAR2110APR21     6  AAE17051705+0100  ALG18251825+0100  AT7                                                                                                 Y66                   000320
3 AH 61770301J14MAR2111APR21      7 AAE16151615+0100  ALG17151715+0100  736                                                                                                 F16Y85                000321
3 AH 61770401J15MAR2105APR211       AAE15251525+0100  ALG16251625+0100  736                                                                                                 F16Y85                000322
3 AH 61770501J16MAR2106APR21 2      AAE09200920+0100  ALG10401040+0100  AT7                                                                                                 Y66                   000323
3 AH 61770601J24MAR2107APR21  3     AAE16001600+0100  ALG17001700+0100  736                                                                                                 F16Y85                000324
3 AH 61770701J26MAR2109APR21    5   AAE16051605+0100  ALG17251725+0100  AT7                                                                                                 Y66                   000325
3 AH 61770801J07MAY2128MAY21    5   AAE16051605+0100  ALG17251725+0100  AT7                                                                                                 Y66                   000326
3 AH 61770901J08MAY2115MAY21     67 AAE17051705+0100  ALG18251825+0100  AT7                                                                                                 Y66                   000327
3 AH 61771001J10MAY2110MAY211       AAE15301530+0100  ALG16501650+0100  AT7                                                                                                 Y66                   000328
3 AH 61771101J11MAY2125MAY21 2      AAE09200920+0100  ALG10401040+0100  AT7                                                                                                 Y66                   000329
3 AH 61771201J12MAY2112MAY21  3     AAE16051605+0100  ALG17251725+0100  AT7                                                                                                 Y66                   000330
3 AH 61771301J16MAY2130MAY21      7 AAE16151615+0100  ALG17151715+0100  736                                                                                                 F16Y85                000331
3 AH 61771401J17MAY2131MAY211       AAE15251525+0100  ALG16251625+0100  736                                                                                                 F16Y85                000332
3 AH 61771501J19MAY2126MAY21  3     AAE16001600+0100  ALG17001700+0100  736                                                                                                 F16Y85                000333
3 AH 61771601J22MAY2129MAY21     6  AAE17051705+0100  ALG18251825+0100  AT7                                                                                                 Y66                   000334
3 AH 61800101J12MAR2112MAR21    5   ALG07300730+0100  ORN08200820+0100  73H                                                                                                 F16Y132               000335
3 AH 61800201J13MAR2113MAR21     6  ALG07300730+0100  ORN08450845+0100  AT7                                                                                                 Y66                   000336
3 AH 61800301J14MAR2114MAR21      7 ALG07400740+0100  ORN08550855+0100  AT7                                                                                                 Y66                   000337
3 AH 61800401J15MAR2122MAR211       ALG06300630+0100  ORN07450745+0100  AT7                                                                                                 Y66                   000338
3 AH 61800501J16MAR2106APR21 2      ALG09250925+0100  ORN10251025+0100  736                                                                                                 F16Y85                000339
3 AH 61800601J18MAR2108APR21   4    ALG06450645+0100  ORN08000800+0100  AT7                                                                                                 Y66                   000340
3 AH 61800701J19MAR2102APR21    56  ALG07300730+0100  ORN08450845+0100  AT7                                                                                                 Y66                   000341
3 AH 61800801J21MAR2121MAR21      7 ALG07400740+0100  ORN08550855+0100  AT7                                                                                                 Y66                   000342
3 AH 61800901J28MAR2111APR21      7 ALG07400740+0100  ORN08550855+0100  AT7                                                                                                 Y66                   000343
3 AH 61801001J29MAR2129MAR211       ALG06300630+0100  ORN07450745+0100  AT7                                                                                                 Y66                   000344
3 AH 61801101J03APR2110APR21     6  ALG07300730+0100  ORN08450845+0100  AT7                                                                                                 Y66                   000345
3 AH 61801201J05APR2105APR211       ALG06300630+0100  ORN07450745+0100  AT7                                                                                                 Y66                   000346
3 AH 61801301J09APR2109APR21    5   ALG07300730+0100  ORN08450845+0100  AT7                                                                                                 Y66                   000347
3 AH 61801401J07MAY2128MAY21    5   ALG07300730+0100  ORN08450845+0100  AT7                                                                                                 Y66                   000348
3 AH 61801501J08MAY2129MAY21     6  ALG07300730+0100  ORN08450845+0100  AT7                                                                                                 Y66                   000349
3 AH 61801601J09MAY2130MAY21      7 ALG07400740+0100  ORN08550855+0100  AT7                                                                                                 Y66                   000350
3 AH 61801701J10MAY2131MAY211       ALG06300630+0100  ORN07450745+0100  AT7                                                                                                 Y66                   000351
3 AH 61801801J11MAY2125MAY21 2      ALG09250925+0100  ORN10251025+0100  736                                                                                                 F16Y85                000352
3 AH 61801901J13MAY2127MAY21   4    ALG06450645+0100  ORN08000800+0100  AT7                                                                                                 Y66                   000353
3 AH 61810101J12MAR2112MAR21    5   ORN09350935+0100  ALG10251025+0100  73H                                                                                                 F16Y132               000354
3AAH 61810201J12MAR2112MAR21    5   ORN09350935+0100  ORN10251025+0100  73H                                                                                                 F16Y132               000355
3 AH 61810301J13MAR2113MAR21     6  ORN09350935+0100  ALG10501050+0100  AT7                                                                                                 Y66                   000356
3 AH 61810401J14MAR2114MAR21      7 ORN09450945+0100  ALG11001100+0100  AT7                                                                                                 Y66                   000357
3 AH 61810501J15MAR2122MAR211       ORN08350835+0100  ALG09500950+0100  AT7                                                                                                 Y66                   000358
3 AH 61810601J16MAR2106APR21 2      ORN11251125+0100  ALG12251225+0100  736                                                                                                 F16Y85                000359
3 AH 61810701J18MAR2108APR21   4    ORN08500850+0100  ALG10051005+0100  AT7                                                                                                 Y66                   000360
3 AH 61810801J19MAR2102APR21    56  ORN09350935+0100  ALG10501050+0100  AT7                                                                                                 Y66                   000361
3 AH 61810901J21MAR2121MAR21      7 ORN09450945+0100  ALG11001100+0100  AT7                                                                                                 Y66                   000362
3 AH 61811001J28MAR2111APR21      7 ORN09450945+0100  ALG11001100+0100  AT7                                                                                                 Y66                   000363
3 AH 61811101J29MAR2129MAR211       ORN08350835+0100  ALG09500950+0100  AT7                                                                                                 Y66                   000364
3 AH 61811201J03APR2110APR21     6  ORN09350935+0100  ALG10501050+0100  AT7                                                                                                 Y66                   000365
3 AH 61811301J05APR2105APR211       ORN08350835+0100  ALG09500950+0100  AT7                                                                                                 Y66                   000366
3 AH 61811401J09APR2109APR21    5   ORN09350935+0100  ALG10501050+0100  AT7                                                                                                 Y66                   000367
3 AH 61811501J07MAY2128MAY21    5   ORN09350935+0100  ALG10501050+0100  AT7                                                                                                 Y66                   000368
3 AH 61811601J08MAY2129MAY21     6  ORN09350935+0100  ALG10501050+0100  AT7                                                                                                 Y66                   000369
3 AH 61811701J09MAY2130MAY21      7 ORN09450945+0100  ALG11001100+0100  AT7                                                                                                 Y66                   000370
3 AH 61811801J10MAY2131MAY211       ORN08350835+0100  ALG09500950+0100  AT7                                                                                                 Y66                   000371
3 AH 61811901J11MAY2125MAY21 2      ORN11251125+0100  ALG12251225+0100  736                                                                                                 F16Y85                000372
3 AH 61812001J13MAY2127MAY21   4    ORN08500850+0100  ALG10051005+0100  AT7                                                                                                 Y66                   000373
3 AH 61820101J17MAR2107APR21  3     ALG13451345+0100  ORN14451445+0100  736                                                                                                 F16Y85                000374
3 AH 61820201J12MAY2126MAY21  3     ALG13451345+0100  ORN14451445+0100  736                                                                                                 F16Y85                000375
3 AH 61830101J17MAR2107APR21  3     ORN15451545+0100  ALG16451645+0100  736                                                                                                 F16Y85                000376
3 AH 61830201J12MAY2126MAY21  3     ORN15451545+0100  ALG16451645+0100  736                                                                                                 F16Y85                000377
3 AH 61840101J12MAR2110APR21    56  ALG14001400+0100  ORN15001500+0100  736                                                                                                 F16Y85                000378
3 AH 61840201J14MAR2111APR21      7 ALG14451445+0100  ORN15451545+0100  736                                                                                                 F16Y85                000379
3 AH 61840301J16MAR2106APR21 2      ALG13451345+0100  ORN14451445+0100  736                                                                                                 F16Y85                000380
3 AH 61840401J18MAR2108APR21   4    ALG15301530+0100  ORN16451645+0100  AT7                                                                                                 Y66                   000381
3 AH 61840501J07MAY2129MAY21    56  ALG14001400+0100  ORN15001500+0100  736                                                                                                 F16Y85                000382
3 AH 61840601J09MAY2130MAY21      7 ALG14451445+0100  ORN15451545+0100  736                                                                                                 F16Y85                000383
3 AH 61840701J11MAY2125MAY21 2      ALG13451345+0100  ORN14451445+0100  736                                                                                                 F16Y85                000384
3 AH 61840801J13MAY2127MAY21   4    ALG15301530+0100  ORN16451645+0100  AT7                                                                                                 Y66                   000385
3 AH 61850101J12MAR2110APR21 2  56  ORN16001600+0100  ALG17001700+0100  736                                                                                                 F16Y85                000386
3 AH 61850201J14MAR2111APR21      7 ORN16451645+0100  ALG17451745+0100  736                                                                                                 F16Y85                000387
3 AH 61850301J18MAR2108APR21   4    ORN17351735+0100  ALG18501850+0100  AT7                                                                                                 Y66                   000388
3 AH 61850401J07MAY2129MAY21 2  56  ORN16001600+0100  ALG17001700+0100  736                                                                                                 F16Y85                000389
3 AH 61850501J09MAY2130MAY21      7 ORN16451645+0100  ALG17451745+0100  736                                                                                                 F16Y85                000390
3 AH 61850601J13MAY2127MAY21   4    ORN17351735+0100  ALG18501850+0100  AT7                                                                                                 Y66                   000391
3 AH 61900101J12MAR2109APR21    5   ALG09300930+0100  CZL10201020+0100  736                                                                                                 F16Y85                000392
3 AH 61900201J13MAR2122MAR211  4 6  ALG07300730+0100  CZL08400840+0100  AT7                                                                                                 Y66                   000393
3 AH 61900301J14MAR2111APR21      7 ALG09450945+0100  CZL10351035+0100  736                                                                                                 F16Y85                000394
3 AH 61900401J16MAR2106APR21 2      ALG07050705+0100  CZL08150815+0100  AT7                                                                                                 Y66                   000395
3 AH 61900501J17MAR2107APR21  3     ALG07200720+0100  CZL08300830+0100  AT7                                                                                                 Y66                   000396
3 AH 61900601J25MAR2125MAR21   4    ALG07300730+0100  CZL08400840+0100  AT7                                                                                                 Y66                   000397
3 AH 61900701J27MAR2110APR211  4 6  ALG07300730+0100  CZL08400840+0100  AT7                                                                                                 Y66                   000398
3 AH 61900801J07MAY2128MAY21    5   ALG09300930+0100  CZL10201020+0100  736                                                                                                 F16Y85                000399
3 AH 61900901J08MAY2131MAY211  4 6  ALG07300730+0100  CZL08400840+0100  AT7                                                                                                 Y66                   000400
3 AH 61901001J09MAY2130MAY21      7 ALG09450945+0100  CZL10351035+0100  736                                                                                                 F16Y85                000401
3 AH 61901101J11MAY2125MAY21 2      ALG07050705+0100  CZL08150815+0100  AT7                                                                                                 Y66                   000402
3 AH 61901201J12MAY2126MAY21  3     ALG07200720+0100  CZL08300830+0100  AT7                                                                                                 Y66                   000403
3 AH 61910101J12MAR2109APR21    5   CZL11201120+0100  ALG12101210+0100  736                                                                                                 F16Y85                000404
3 AH 61910201J13MAR2122MAR211  4 6  CZL09300930+0100  ALG10401040+0100  AT7                                                                                                 Y66                   000405
3 AH 61910301J14MAR2111APR21      7 CZL11251125+0100  ALG12151215+0100  736                                                                                                 F16Y85                000406
3 AH 61910401J16MAR2106APR21 2      CZL09050905+0100  ALG10151015+0100  AT7                                                                                                 Y66                   000407
3 AH 61910501J17MAR2107APR21  3     CZL09200920+0100  ALG10301030+0100  AT7                                                                                                 Y66                   000408
3 AH 61910601J25MAR2125MAR21   4    CZL09300930+0100  ALG10401040+0100  AT7                                                                                                 Y66                   000409
3 AH 61910701J27MAR2110APR211  4 6  CZL09300930+0100  ALG10401040+0100  AT7                                                                                                 Y66                   000410
3 AH 61910801J07MAY2128MAY21    5   CZL11201120+0100  ALG12101210+0100  736                                                                                                 F16Y85                000411
3 AH 61910901J08MAY2131MAY211  4 6  CZL09300930+0100  ALG10401040+0100  AT7                                                                                                 Y66                   000412
3 AH 61911001J09MAY2130MAY21      7 CZL11251125+0100  ALG12151215+0100  736                                                                                                 F16Y85                000413
3 AH 61911101J11MAY2125MAY21 2      CZL09050905+0100  ALG10151015+0100  AT7                                                                                                 Y66                   000414
3 AH 61911201J12MAY2126MAY21  3     CZL09200920+0100  ALG10301030+0100  AT7                                                                                                 Y66                   000415
3 AH 61920101J12MAR2109APR21 2  5   ALG13501350+0100  CZL14401440+0100  736                                                                                                 F16Y85                000416
3 AH 61920201J13MAR2110APR21     6  ALG15001500+0100  CZL15501550+0100  73H                                                                                                 F16Y132               000417
3 AH 61920301J15MAR2105APR211       ALG14301430+0100  CZL15201520+0100  736                                                                                                 F16Y85                000418
3 AH 61920401J07MAY2128MAY21 2  5   ALG13501350+0100  CZL14401440+0100  736                                                                                                 F16Y85                000419
3 AH 61920501J08MAY2129MAY21     6  ALG15001500+0100  CZL15501550+0100  73H                                                                                                 F16Y132               000420
3 AH 61920601J10MAY2131MAY211       ALG14301430+0100  CZL15201520+0100  736                                                                                                 F16Y85                000421
3 AH 61930101J12MAR2109APR21 2  5   CZL15401540+0100  ALG16301630+0100  736                                                                                                 F16Y85                000422
3 AH 61930201J13MAR2110APR21     6  CZL16501650+0100  ALG17401740+0100  73H                                                                                                 F16Y132               000423
3 AH 61930301J15MAR2105APR211       CZL16201620+0100  ALG17101710+0100  736                                                                                                 F16Y85                000424
3 AH 61930401J07MAY2128MAY21 2  5   CZL15401540+0100  ALG16301630+0100  736                                                                                                 F16Y85                000425
3 AH 61930501J08MAY2129MAY21     6  CZL16501650+0100  ALG17401740+0100  73H                                                                                                 F16Y132               000426
3 AH 61930601J10MAY2131MAY211       CZL16201620+0100  ALG17101710+0100  736                                                                                                 F16Y85                000427
3 AH 61940101J14MAR2111APR21      7 ALG14051405+0100  CZL14551455+0100  73H                                                                                                 F16Y132               000428
3 AH 61940201J17MAR2107APR21  3     ALG15551555+0100  CZL17051705+0100  AT7                                                                                                 Y66                   000429
3 AH 61940301J18MAR2108APR21   4    ALG14001400+0100  CZL14501450+0100  736                                                                                                 F16Y85                000430
3 AH 61940401J09MAY2109MAY21      7 ALG14051405+0100  CZL14551455+0100  736                                                                                                 F16Y85                000431
3 AH 61940501J12MAY2126MAY21  3     ALG15551555+0100  CZL17051705+0100  AT7                                                                                                 Y66                   000432
3 AH 61940601J13MAY2127MAY21   4    ALG14001400+0100  CZL14501450+0100  736                                                                                                 F16Y85                000433
3 AH 61940701J16MAY2130MAY21      7 ALG14051405+0100  CZL14551455+0100  73H                                                                                                 F16Y132               000434
3 AH 61950101J14MAR2111APR21      7 CZL15551555+0100  ALG16451645+0100  73H                                                                                                 F16Y132               000435
3 AH 61950201J17MAR2107APR21  3     CZL17551755+0100  ALG19051905+0100  AT7                                                                                                 Y66                   000436
3 AH 61950301J18MAR2108APR21   4    CZL15501550+0100  ALG16401640+0100  736                                                                                                 F16Y85                000437
3 AH 61950401J09MAY2109MAY21      7 CZL15551555+0100  ALG16451645+0100  736                                                                                                 F16Y85                000438
3 AH 61950501J12MAY2126MAY21  3     CZL17551755+0100  ALG19051905+0100  AT7                                                                                                 Y66                   000439
3 AH 61950601J13MAY2127MAY21   4    CZL15501550+0100  ALG16401640+0100  736                                                                                                 F16Y85                000440
3 AH 61950701J16MAY2130MAY21      7 CZL15551555+0100  ALG16451645+0100  73H                                                                                                 F16Y132               000441
3 AH 62000101J12MAR2110APR211 34567 ALG17301730+0100  GHA19001900+0100  AT7                                                                                                 Y66                   000442
3 AH 62000201J12APR2106MAY211  4 6  ALG16301630+0100  GHA18001800+0100  AT7                                                                                                 Y66                   000443
3 AH 62000301J07MAY2112MAY211 3 567 ALG16301630+0100  GHA18001800+0100  AT7                                                                                                 Y66                   000444
3 AH 62000401J13MAY2131MAY211 34567 ALG17301730+0100  GHA19001900+0100  AT7                                                                                                 Y66                   000445
3 AH 62010101J12MAR2120MAR2112 4567 GHA07150715+0100  ALG08450845+0100  AT7                                                                                                 Y66                   000446
3 AH 62010201J21MAR2121MAR21      7 GHA07350735+0100  ALG09050905+0100  AT7                                                                                                 Y66                   000447
3 AH 62010301J22MAR2103APR2112 4567 GHA07150715+0100  ALG08450845+0100  AT7                                                                                                 Y66                   000448
3 AH 62010401J04APR2125APR21      7 GHA07350735+0100  ALG09050905+0100  AT7                                                                                                 Y66                   000449
3 AH 62010501J05APR2110APR2112 456  GHA07150715+0100  ALG08450845+0100  AT7                                                                                                 Y66                   000450
3 AH 62010601J13APR2107MAY21 2  5   GHA07150715+0100  ALG08450845+0100  AT7                                                                                                 Y66                   000451
3 AH 62010701J02MAY2130MAY21      7 GHA07350735+0100  ALG09050905+0100  AT7                                                                                                 Y66                   000452
3 AH 62010801J08MAY2101JUN2112 456  GHA07150715+0100  ALG08450845+0100  AT7                                                                                                 Y66                   000453
3 AH 62160101J12MAR2128MAY21    5   ALG11401140+0100  OGX13201320+0100  AT7                                                                                                 Y66                   000454
3 AH 62160201J13MAR2113MAR21     6  ALG11301130+0100  OGX13101310+0100  AT7                                                                                                 Y66                   000455
3 AH 62160301J14MAR2130MAY21      7 ALG07150715+0100  OGX08550855+0100  AT7                                                                                                 Y66                   000456
3 AH 62160401J16MAR2123MAR21 2      ALG08000800+0100  OGX09400940+0100  AT7                                                                                                 Y66                   000457
3 AH 62160501J17MAR2126MAY21  3     ALG13201320+0100  OGX14351435+0100  736                                                                                                 F16Y85                000458
3 AH 62160601J18MAR2118MAR21   4    ALG12451245+0100  OGX14251425+0100  AT7                                                                                                 Y66                   000459
3 AH 62160701J20MAR2127MAR21     6  ALG11301130+0100  OGX13101310+0100  AT7                                                                                                 Y66                   000460
3 AH 62160801J25MAR2108APR21   4    ALG12451245+0100  OGX14251425+0100  AT7                                                                                                 Y66                   000461
3 AH 62160901J30MAR2130MAR21 2      ALG08000800+0100  OGX09400940+0100  AT7                                                                                                 Y66                   000462
3 AH 62161001J03APR2110APR21     6  ALG11301130+0100  OGX13101310+0100  AT7                                                                                                 Y66                   000463
3 AH 62161101J06APR2125MAY21 2      ALG08000800+0100  OGX09400940+0100  AT7                                                                                                 Y66                   000464
3 AH 62161201J08MAY2129MAY21     6  ALG11301130+0100  OGX13101310+0100  AT7                                                                                                 Y66                   000465
3 AH 62161301J13MAY2127MAY21   4    ALG12451245+0100  OGX14251425+0100  AT7                                                                                                 Y66                   000466
3 AH 62170101J12MAR2128MAY21    5   OGX14101410+0100  ALG15501550+0100  AT7                                                                                                 Y66                   000467
3 AH 62170201J13MAR2113MAR21     6  OGX14001400+0100  ALG15401540+0100  AT7                                                                                                 Y66                   000468
3 AH 62170301J14MAR2130MAY21      7 OGX09450945+0100  ALG11251125+0100  AT7                                                                                                 Y66                   000469
3 AH 62170401J16MAR2123MAR21 2      OGX15501550+0100  ALG17301730+0100  AT7                                                                                                 Y66                   000470
3 AH 62170501J17MAR2126MAY21  3     OGX15351535+0100  ALG16451645+0100  736                                                                                                 F16Y85                000471
3 AH 62170601J18MAR2118MAR21   4    OGX15151515+0100  ALG16551655+0100  AT7                                                                                                 Y66                   000472
3 AH 62170701J20MAR2127MAR21     6  OGX14001400+0100  ALG15401540+0100  AT7                                                                                                 Y66                   000473
3 AH 62170801J25MAR2108APR21   4    OGX15151515+0100  ALG16551655+0100  AT7                                                                                                 Y66                   000474
3 AH 62170901J30MAR2130MAR21 2      OGX15501550+0100  ALG17301730+0100  AT7                                                                                                 Y66                   000475
3 AH 62171001J03APR2110APR21     6  OGX14001400+0100  ALG15401540+0100  AT7                                                                                                 Y66                   000476
3 AH 62171101J06APR2125MAY21 2      OGX15501550+0100  ALG17301730+0100  AT7                                                                                                 Y66                   000477
3 AH 62171201J08MAY2129MAY21     6  OGX14001400+0100  ALG15401540+0100  AT7                                                                                                 Y66                   000478
3 AH 62171301J13MAY2127MAY21   4    OGX15151515+0100  ALG16551655+0100  AT7                                                                                                 Y66                   000479
3 AH 62180101J15MAR2122MAR211       ALG11001100+0100  OGX12401240+0100  AT7                                                                                                 Y66                   000480
3 AH 62180201J29MAR2129MAR211       ALG11001100+0100  OGX12401240+0100  AT7                                                                                                 Y66                   000481
3 AH 62180301J05APR2105APR211       ALG11001100+0100  OGX12401240+0100  AT7                                                                                                 Y66                   000482
3 AH 62180401J10MAY2131MAY211       ALG11001100+0100  OGX12401240+0100  AT7                                                                                                 Y66                   000483
3 AH 62190101J15MAR2122MAR211       OGX13301330+0100  ALG15101510+0100  AT7                                                                                                 Y66                   000484
3 AH 62190201J29MAR2129MAR211       OGX13301330+0100  ALG15101510+0100  AT7                                                                                                 Y66                   000485
3 AH 62190301J05APR2105APR211       OGX13301330+0100  ALG15101510+0100  AT7                                                                                                 Y66                   000486
3 AH 62190401J10MAY2131MAY211       OGX13301330+0100  ALG15101510+0100  AT7                                                                                                 Y66                   000487
3 AH 62220101J12MAR2131MAR211 345 7 ALG16201620+0100  HME18001800+0100  AT7                                                                                                 Y66                   000488
3 AH 62220201J13MAR2129MAY21     6  ALG16101610+0100  HME17501750+0100  AT7                                                                                                 Y66                   000489
