1AIRLINE STANDARD SCHEDULE DATA SET                                                                                                                                                            001000001
00000000000000000000000000000000000000000000000000000000000000000000000000000000000000000000000000000000000000000000000000000000000000000000000000000000000000000000000000000000000000000000000000000000
00000000000000000000000000000000000000000000000000000000000000000000000000000000000000000000000000000000000000000000000000000000000000000000000000000000000000000000000000000000000000000000000000000000
00000000000000000000000000000000000000000000000000000000000000000000000000000000000000000000000000000000000000000000000000000000000000000000000000000000000000000000000000000000000000000000000000000000
00000000000000000000000000000000000000000000000000000000000000000000000000000000000000000000000000000000000000000000000000000000000000000000000000000000000000000000000000000000000000000000000000000000
2UAH          28MAR2127MAR2228MAR21 AIR ALGERIE                        C AIMS                                                                                                                 1300000002
00000000000000000000000000000000000000000000000000000000000000000000000000000000000000000000000000000000000000000000000000000000000000000000000000000000000000000000000000000000000000000000000000000000
00000000000000000000000000000000000000000000000000000000000000000000000000000000000000000000000000000000000000000000000000000000000000000000000000000000000000000000000000000000000000000000000000000000
00000000000000000000000000000000000000000000000000000000000000000000000000000000000000000000000000000000000000000000000000000000000000000000000000000000000000000000000000000000000000000000000000000000
00000000000000000000000000000000000000000000000000000000000000000000000000000000000000000000000000000000000000000000000000000000000000000000000000000000000000000000000000000000000000000000000000000000
3 AH 10380101J08MAY2112JUN21     6  BLJ13351335+0100  LYS15251525+0200  73H                                                                                                 C16Y132               000003
3 AH 10380201J19JUN2111SEP21     6  BLJ13251325+0100  LYS15151515+0200  73H                                                                                                 F16Y132               000004
3 AH 10380301J18SEP2130OCT21     6  BLJ13351335+0100  LYS15251525+0200  73H                                                                                                 C16Y132               000005
3 AH 10390101J08MAY2112JUN21     6  LYS10451045+0200  BLJ12351235+0100  73H                                                                                                 C16Y132               000006
3 AH 10390201J19JUN2111SEP21     6  LYS10451045+0200  BLJ12351235+0100  73H                                                                                                 F16Y132               000007
3 AH 10390301J18SEP2130OCT21     6  LYS10451045+0200  BLJ12351235+0100  73H                                                                                                 C16Y132               000008
3 AH 10600101J17JUN2109SEP21   4    ORN07000700+0100  ORY09300930+0200  73H                                                                                                 F16Y132               000009
3 AH 10610101J17JUN2109SEP21   4    ORY10451045+0200  ORN13101310+0100  73H                                                                                                 F16Y132               000010
3 AH 10680101J06MAY2110JUN21   4    ORN13451345+0100  MRS15301530+0200  73H                                                                                                 F16Y132               000011
3 AH 10680201J16JUN2108SEP21  3     ORN08000800+0100  MRS09450945+0200  73H                                                                                                 F16Y132               000012
3 AH 10680301J16SEP2128OCT21   4    ORN13451345+0100  MRS15301530+0200  73H                                                                                                 F16Y132               000013
3 AH 10690101J06MAY2110JUN21   4    MRS16301630+0200  ORN18201820+0100  73H                                                                                                 F16Y132               000014
3 AH 10690201J16JUN2108SEP21  3     MRS10451045+0200  ORN12351235+0100  73H                                                                                                 F16Y132               000015
3 AH 10690301J16SEP2128OCT21   4    MRS16301630+0200  ORN18201820+0100  73H                                                                                                 F16Y132               000016
3 AH 10760101J07MAY2111JUN21    5   ORN08300830+0100  TLS10051005+0200  73H                                                                                                 F16Y132               000017
3 AH 10760201J17SEP2129OCT21    5   ORN08300830+0100  TLS10051005+0200  73H                                                                                                 F16Y132               000018
3 AH 10770101J07MAY2111JUN21    5   TLS11051105+0200  ORN12401240+0100  73H                                                                                                 F16Y132               000019
3 AH 10770201J17SEP2129OCT21    5   TLS11051105+0200  ORN12401240+0100  73H                                                                                                 F16Y132               000020
3 AH 10800101J06MAY2112JUN21   4 6  ORN07000700+0100  LYS09100910+0200  73H                                                                                                 F16Y132               000021
3 AH 10800201J14JUN2106SEP211       ORN06000600+0100  LYS08100810+0200  73H                                                                                                 F16Y132               000022
3 AH 10800301J16JUN2108SEP21  3     ORN14101410+0100  LYS16201620+0200  73H                                                                                                 F16Y132               000023
3 AH 10800401J16SEP2130OCT21   4 6  ORN07000700+0100  LYS09100910+0200  73H                                                                                                 F16Y132               000024
3 AH 10810101J06MAY2112JUN21   4 6  LYS10151015+0200  ORN12201220+0100  73H                                                                                                 F16Y132               000025
3 AH 10810201J14JUN2106SEP211       LYS09100910+0200  ORN11151115+0100  73H                                                                                                 F16Y132               000026
3 AH 10810301J16JUN2108SEP21  3     LYS17201720+0200  ORN19251925+0100  73H                                                                                                 F16Y132               000027
3 AH 10810401J16SEP2130OCT21   4 6  LYS10151015+0200  ORN12201220+0100  73H                                                                                                 F16Y132               000028
3 AH 10820101J13JUN2106SEP211     7 ORN16001600+0100  CDG18351835+0200  73H                                                                                                 F16Y132               000029
3 AH 10830101J13JUN2106SEP211     7 CDG19501950+0200  ORN22152215+0100  73H                                                                                                 F16Y132               000030
3 AH 10840101J07MAY2111JUN21    5   ORN13501350+0100  CDG16251625+0200  73H                                                                                                 F16Y132               000031
3 AH 10840201J17SEP2129OCT21    5   ORN13501350+0100  CDG16251625+0200  73H                                                                                                 F16Y132               000032
3 AH 10850101J07MAY2111JUN21    5   CDG17351735+0200  ORN20002000+0100  73H                                                                                                 F16Y132               000033
3 AH 10850201J17SEP2129OCT21    5   CDG17351735+0200  ORN20002000+0100  73H                                                                                                 F16Y132               000034
3 AH 11060101J03MAY2103MAY211       BLJ11551155+0100  MRS13251325+0200  73H                                                                                                 C16Y132               000035
3 AH 11060201J10MAY2107JUN211       BLJ11551155+0100  MRS13251325+0200  73H                                                                                                 C16Y132               000036
3 AH 11060301J13SEP2125OCT211       BLJ11551155+0100  MRS13251325+0200  73H                                                                                                 C16Y132               000037
3 AH 11070101J03MAY2103MAY211       MRS09300930+0200  BLJ10551055+0100  73H                                                                                                 C16Y132               000038
3 AH 11070201J10MAY2107JUN211       MRS09300930+0200  BLJ10551055+0100  73H                                                                                                 C16Y132               000039
3 AH 11070301J13SEP2125OCT211       MRS09300930+0200  BLJ10551055+0100  73H                                                                                                 C16Y132               000040
3 AH 11180101J14JUN2114JUN211       CZL12351235+0100  CDG14551455+0200  73H                                                                                                 F16Y132               000041
3 AH 11180201J21JUN2106SEP211       CZL12351235+0100  CDG14551455+0200  73H                                                                                                 F16Y132               000042
3 AH 11190101J14JUN2114JUN211       CDG16001600+0200  CZL18151815+0100  73H                                                                                                 F16Y132               000043
3 AH 11190201J21JUN2106SEP211       CDG16001600+0200  CZL18151815+0100  73H                                                                                                 F16Y132               000044
3 AH 11220101J13JUN2113JUN21      7 CZL12301230+0100  ORY14501450+0200  73H                                                                                                 F16Y132               000045
3 AH 11220201J20JUN2105SEP21      7 CZL12301230+0100  ORY14501450+0200  73H                                                                                                 F16Y132               000046
3 AH 11230101J13JUN2113JUN21      7 ORY16001600+0200  CZL18151815+0100  73H                                                                                                 F16Y132               000047
3 AH 11230201J20JUN2105SEP21      7 ORY16001600+0200  CZL18151815+0100  73H                                                                                                 F16Y132               000048
3 AH 11440101J02MAY2124OCT21      7 AAE12451245+0100  ORY15051505+0200  73H                                                                                                 C16Y132               000049
3 AH 11440201J07MAY2111JUN21    5   AAE12451245+0100  ORY15051505+0200  73H                                                                                                 C16Y132               000050
3 AH 11440301J17SEP2129OCT21    5   AAE12451245+0100  ORY15051505+0200  73H                                                                                                 C16Y132               000051
3 AH 11450101J02MAY2124OCT21      7 ORY16151615+0200  AAE18301830+0100  73H                                                                                                 C16Y132               000052
3 AH 11450201J07MAY2111JUN21    5   ORY16151615+0200  AAE18301830+0100  73H                                                                                                 C16Y132               000053
3 AH 11450301J17SEP2129OCT21    5   ORY16151615+0200  AAE18301830+0100  73H                                                                                                 C16Y132               000054
3 AH 11500101J02MAY2125OCT211     7 AAE07300730+0100  MRS09000900+0200  73H                                                                                                 C16Y132               000055
3 AH 11500201J07MAY2111JUN21    5   AAE07300730+0100  MRS09000900+0200  73H                                                                                                 C16Y132               000056
3 AH 11500301J17JUN2110SEP21   45   AAE07300730+0100  MRS09000900+0200  73H                                                                                                 F16Y132               000057
3 AH 11500401J17SEP2129OCT21    5   AAE07300730+0100  MRS09000900+0200  73H                                                                                                 C16Y132               000058
3 AH 11510101J02MAY2125OCT211     7 MRS10101010+0200  AAE11351135+0100  73H                                                                                                 C16Y132               000059
4 AH 11510101J              AB010MRSAAETK 4590                                                                                                                                                    000060
3 AH 11510201J07MAY2111JUN21    5   MRS10101010+0200  AAE11351135+0100  73H                                                                                                 C16Y132               000061
3 AH 11510301J17JUN2109SEP21   4    MRS10101010+0200  AAE11351135+0100  73H                                                                                                 F16Y132               000062
3 AH 11510401J18JUN2110SEP21    5   MRS15001500+0200  AAE16251625+0100  73H                                                                                                 F16Y132               000063
3 AH 11510501J17SEP2129OCT21    5   MRS10101010+0200  AAE11351135+0100  73H                                                                                                 C16Y132               000064
3 AH 11540101J06MAY2110JUN21   4    QSF13301330+0100  LYS15151515+0200  73H                                                                                                 C16Y132               000065
3 AH 11540201J15JUN2115JUN21 2      QSF13251325+0100  LYS15101510+0200  73H                                                                                                 F16Y132               000066
3 AH 11540301J18JUN2110SEP21    5   QSF13251325+0100  LYS15101510+0200  73H                                                                                                 F16Y132               000067
3 AH 11540401J19JUN2111SEP21     6  QSF13251325+0100  LYS15101510+0200  73H                                                                                                 F16Y132               000068
3 AH 11540501J22JUN2107SEP21 2      QSF13251325+0100  LYS15101510+0200  73H                                                                                                 F16Y132               000069
3 AH 11540601J16SEP2128OCT21   4    QSF13301330+0100  LYS15151515+0200  73H                                                                                                 C16Y132               000070
3 AH 11550101J06MAY2110JUN21   4    LYS10451045+0200  QSF12301230+0100  73H                                                                                                 C16Y132               000071
3 AH 11550201J15JUN2115JUN21 2      LYS10501050+0200  QSF12351235+0100  73H                                                                                                 F16Y132               000072
3 AH 11550301J18JUN2110SEP21    5   LYS10501050+0200  QSF12351235+0100  73H                                                                                                 F16Y132               000073
3 AH 11550401J19JUN2111SEP21     6  LYS10501050+0200  QSF12351235+0100  73H                                                                                                 F16Y132               000074
3 AH 11550501J22JUN2107SEP21 2      LYS10501050+0200  QSF12351235+0100  73H                                                                                                 F16Y132               000075
3 AH 11550601J16SEP2128OCT21   4    LYS10451045+0200  QSF12301230+0100  73H                                                                                                 C16Y132               000076
3 AH 11560101J06MAY2112JUN21   4 6  AAE08000800+0100  LYS09450945+0200  73H                                                                                                 C16Y132               000077
3 AH 11560201J19JUN2111SEP21     6  AAE08000800+0100  LYS09450945+0200  73H                                                                                                 F16Y132               000078
3 AH 11560301J16SEP2130OCT21   4 6  AAE08000800+0100  LYS09450945+0200  73H                                                                                                 C16Y132               000079
3 AH 11570101J06MAY2110JUN21   4    LYS16151615+0200  AAE18001800+0100  73H                                                                                                 C16Y132               000080
3 AH 11570201J19JUN2111SEP21     6  LYS16151615+0200  AAE18001800+0100  73H                                                                                                 F16Y132               000081
3 AH 11570301J16SEP2128OCT21   4    LYS16151615+0200  AAE18001800+0100  73H                                                                                                 C16Y132               000082
3 AH 11640101J18JUN2110SEP21    5   QSF12301230+0100  MRS14001400+0200  73H                                                                                                 F16Y132               000083
3 AH 11650101J18JUN2110SEP21    5   MRS10001000+0200  QSF11301130+0100  73H                                                                                                 F16Y132               000084
3 AH 11980101J14JUN2114JUN211       CZL07150715+0100  NCE08450845+0200  73H                                                                                                 F16Y132               000085
3 AH 11980201J21JUN2106SEP211       CZL07150715+0100  NCE08450845+0200  73H                                                                                                 F16Y132               000086
3 AH 11990101J14JUN2114JUN211       NCE09450945+0200  CZL11101110+0100  73H                                                                                                 F16Y132               000087
3 AH 11990201J21JUN2106SEP211       NCE09450945+0200  CZL11101110+0100  73H                                                                                                 F16Y132               000088
3 AH 14260101J03MAY2103MAY211       CZL07000700+0100  MRS08300830+0200  73H                                                                                                 C16Y132               000089
3 AH 14260201J10MAY2107JUN211       CZL07000700+0100  MRS08300830+0200  73H                                                                                                 C16Y132               000090
3 AH 14260301J13JUN2113JUN21      7 CZL07150715+0100  MRS08450845+0200  73H                                                                                                 F16Y132               000091
3 AH 14260401J20JUN2105SEP21      7 CZL07150715+0100  MRS08450845+0200  73H                                                                                                 F16Y132               000092
3 AH 14260501J13SEP2125OCT211       CZL07000700+0100  MRS08300830+0200  73H                                                                                                 C16Y132               000093
3 AH 14270101J03MAY2103MAY211       MRS14251425+0200  CZL15551555+0100  73H                                                                                                 C16Y132               000094
3 AH 14270201J10MAY2107JUN211       MRS14251425+0200  CZL15551555+0100  73H                                                                                                 C16Y132               000095
3 AH 14270301J13JUN2113JUN21      7 MRS09450945+0200  CZL11151115+0100  73H                                                                                                 F16Y132               000096
3 AH 14270401J20JUN2105SEP21      7 MRS09450945+0200  CZL11151115+0100  73H                                                                                                 F16Y132               000097
3 AH 14270501J13SEP2125OCT211       MRS14251425+0200  CZL15551555+0100  73H                                                                                                 C16Y132               000098
3 AH 14600101J15JUN2115JUN21 2      CZL08000800+0100  LYS09500950+0200  73H                                                                                                 F16Y132               000099
3 AH 14600201J18JUN2111SEP21    56  CZL08000800+0100  LYS09500950+0200  73H                                                                                                 F16Y132               000100
3 AH 14600301J22JUN2107SEP21 2      CZL08000800+0100  LYS09500950+0200  73H                                                                                                 F16Y132               000101
3 AH 14610101J08MAY2112JUN21     6  LYS16251625+0200  CZL18151815+0100  73H                                                                                                 C16Y132               000102
3 AH 14610201J15JUN2115JUN21 2      LYS16101610+0200  CZL18001800+0100  73H                                                                                                 F16Y132               000103
3 AH 14610301J18JUN2111SEP21    56  LYS16101610+0200  CZL18001800+0100  73H                                                                                                 F16Y132               000104
3 AH 14610401J22JUN2107SEP21 2      LYS16101610+0200  CZL18001800+0100  73H                                                                                                 F16Y132               000105
3 AH 14610501J18SEP2130OCT21     6  LYS16251625+0200  CZL18151815+0100  73H                                                                                                 C16Y132               000106
3 AH 15440101J03MAY2107JUN211       AAE12501250+0100  CDG15101510+0200  73H                                                                                                 C16Y132               000107
3 AH 15440201J14JUN2106SEP211       AAE13101310+0100  CDG15301530+0200  73H                                                                                                 F16Y132               000108
3 AH 15440301J17JUN2109SEP21   4    AAE12501250+0100  CDG15101510+0200  73H                                                                                                 F16Y132               000109
3 AH 15440401J13SEP2125OCT211       AAE12501250+0100  CDG15101510+0200  73H                                                                                                 C16Y132               000110
3 AH 15450101J03MAY2107JUN211       CDG16101610+0200  AAE18201820+0100  73H                                                                                                 C16Y132               000111
3 AH 15450201J17JUN2109SEP21   4    CDG16101610+0200  AAE18201820+0100  73H                                                                                                 F16Y132               000112
3 AH 15450301J13SEP2125OCT211       CDG16101610+0200  AAE18201820+0100  73H                                                                                                 C16Y132               000113
3 AH 20160101J08MAY2112JUN21     6  ORN14201420+0100  ALC15201520+0200  73H                                                                                                 F16Y132               000114
3 AH 20160201J17JUN2109SEP21   4    ORN14201420+0100  ALC15201520+0200  73H                                                                                                 F16Y132               000115
3 AH 20160301J18SEP2130OCT21     6  ORN14201420+0100  ALC15201520+0200  73H                                                                                                 F16Y132               000116
3 AH 20170101J08MAY2112JUN21     6  ALC16201620+0200  ORN17201720+0100  73H                                                                                                 F16Y132               000117
3 AH 20170201J17JUN2109SEP21   4    ALC16201620+0200  ORN17201720+0100  73H                                                                                                 F16Y132               000118
3 AH 20170301J18SEP2130OCT21     6  ALC16201620+0200  ORN17201720+0100  73H                                                                                                 F16Y132               000119
3 AH 30160101J02MAY2106JUN21      7 ALG09000900+0100  IST12151215+0300  332                                                                                                 F18C40Y211            000120
4 AH 30160101J              AB010ALGISTTK 4596                                                                                                                                                    000121
3 AH 30160201J03MAY2111JUN211 345   ALG08400840+0100  IST12151215+0300  73H                                                                                                 F16Y132               000122
4 AH 30160201J              AB010ALGISTTK 4596                                                                                                                                                    000123
3 AH 30160301J04MAY2108JUN21 2      ALG08450845+0100  IST12201220+0300  73H                                                                                                 F16Y132               000124
4 AH 30160301J              AB010ALGISTTK 4596                                                                                                                                                    000125
3 AH 30160401J13JUN2109SEP211 34  7 ALG08400840+0100  IST12151215+0300  73H                                                                                                 F16Y132               000126
4 AH 30160401J              AB010ALGISTTK 4596                                                                                                                                                    000127
3 AH 30160501J15JUN2107SEP21 2      ALG08450845+0100  IST12201220+0300  736                                                                                                 F16Y85                000128
4 AH 30160501J              AB010ALGISTTK 4596                                                                                                                                                    000129
3 AH 30160601J19JUN2111SEP21     6  ALG09050905+0100  IST12401240+0300  73H                                                                                                 F16Y132               000130
4 AH 30160601J              AB010ALGISTTK 4596                                                                                                                                                    000131
3 AH 30160701J12SEP2124OCT21      7 ALG09000900+0100  IST12151215+0300  332                                                                                                 F18C40Y211            000132
4 AH 30160701J              AB010ALGISTTK 4596                                                                                                                                                    000133
3 AH 30160801J13SEP2129OCT211 345   ALG08400840+0100  IST12151215+0300  73H                                                                                                 F16Y132               000134
4 AH 30160801J              AB010ALGISTTK 4596                                                                                                                                                    000135
3 AH 30160901J14SEP2126OCT21 2      ALG08450845+0100  IST12201220+0300  73H                                                                                                 F16Y132               000136
4 AH 30160901J              AB010ALGISTTK 4596                                                                                                                                                    000137
3 AH 30170101J02MAY2106JUN21      7 IST13451345+0300  ALG17151715+0100  332                                                                                                 F18C40Y211            000138
4 AH 30170101J              AB010ISTALGTK 4597                                                                                                                                                    000139
3 AH 30170201J03MAY2114JUN2112345   IST13251325+0300  ALG16551655+0100  73H                                                                                                 F16Y132               000140
4 AH 30170201J              AB010ISTALGTK 4597                                                                                                                                                    000141
3 AH 30170301J13JUN2105SEP21      7 IST13451345+0300  ALG17151715+0100  73H                                                                                                 F16Y132               000142
4 AH 30170301J              AB010ISTALGTK 4597                                                                                                                                                    000143
3 AH 30170401J15JUN2107SEP21 2      IST13251325+0300  ALG16551655+0100  736                                                                                                 F16Y85                000144
4 AH 30170401J              AB010ISTALGTK 4597                                                                                                                                                    000145
3 AH 30170501J16JUN2113SEP211 34    IST13251325+0300  ALG16551655+0100  73H                                                                                                 F16Y132               000146
4 AH 30170501J              AB010ISTALGTK 4597                                                                                                                                                    000147
3 AH 30170601J19JUN2111SEP21     6  IST13501350+0300  ALG17201720+0100  73H                                                                                                 F16Y132               000148
4 AH 30170601J              AB010ISTALGTK 4597                                                                                                                                                    000149
3 AH 30170701J12SEP2124OCT21      7 IST13451345+0300  ALG17151715+0100  332                                                                                                 F18C40Y211            000150
4 AH 30170701J              AB010ISTALGTK 4597                                                                                                                                                    000151
3 AH 30170801J14SEP2129OCT2112345   IST13251325+0300  ALG16551655+0100  73H                                                                                                 F16Y132               000152
4 AH 30170801J              AB010ISTALGTK 4597                                                                                                                                                    000153
3 AH 30180101J01MAY2115JUN2112 4 67 ALG21102110+0100  IST00450045+0300  73H                                                                                                 F24Y120               000154
4 AH 30180101J              AB010ALGISTTK 4798                                                                                                                                                    000155
3 AH 30180201J05MAY2109JUN21  3     ALG21302130+0100  IST00450045+0300  332                                                                                                 F18C40Y211            000156
4 AH 30180201J              AB010ALGISTTK 4798                                                                                                                                                    000157
3 AH 30180301J07MAY2111JUN21    5   ALG21302130+0100  IST00450045+0300  332                                                                                                 F18C14Y219            000158
4 AH 30180301J              AB010ALGISTTK 4798                                                                                                                                                    000159
3 AH 30180401J16JUN2114SEP211234567 ALG21102110+0100  IST00450045+0300  73H                                                                                                 F16Y132               000160
4 AH 30180401J              AB010ALGISTTK 4798                                                                                                                                                    000161
3 AH 30180501J15SEP2127OCT21  3     ALG21302130+0100  IST00450045+0300  332                                                                                                 F18C40Y211            000162
4 AH 30180501J              AB010ALGISTTK 4798                                                                                                                                                    000163
3 AH 30180601J16SEP2130OCT2112 4 67 ALG21102110+0100  IST00450045+0300  73H                                                                                                 F16Y132               000164
4 AH 30180601J              AB010ALGISTTK 4798                                                                                                                                                    000165
3 AH 30180701J17SEP2129OCT21    5   ALG21302130+0100  IST00450045+0300  332                                                                                                 F18C14Y219            000166
4 AH 30180701J              AB010ALGISTTK 4798                                                                                                                                                    000167
3 AH 30190101J02MAY2106JUN21      7 IST02000200+0300  ALG05300530+0100  73H                                                                                                 F24Y120               000168
4 AH 30190101J              AB010ISTALGTK 4599                                                                                                                                                    000169
3 AH 30190201J03MAY2111JUN21123 5   IST02000200+0300  ALG05300530+0100  73H                                                                                                 F16Y132               000170
4 AH 30190201J              AB010ISTALGTK 4599                                                                                                                                                    000171
3 AH 30190301J06MAY2110JUN21   4    IST02000200+0300  ALG05300530+0100  332                                                                                                 F18C40Y211            000172
4 AH 30190301J              AB010ISTALGTK 4599                                                                                                                                                    000173
3 AH 30190401J08MAY2112JUN21     6  IST02150215+0300  ALG05450545+0100  332                                                                                                 F18C14Y219            000174
4 AH 30190401J              AB010ISTALGTK 4599                                                                                                                                                    000175
3 AH 30190501J13JUN2119JUN211234567 IST02000200+0300  ALG05300530+0100  73H                                                                                                 F24Y120               000176
4 AH 30190501J              AB010ISTALGTK 4599                                                                                                                                                    000177
3 AH 30190601J20JUN2105SEP21      7 IST02000200+0300  ALG05300530+0100  73H                                                                                                 F24Y120               000178
4 AH 30190601J              AB010ISTALGTK 4599                                                                                                                                                    000179
3 AH 30190701J21JUN2111SEP21123456  IST02000200+0300  ALG05300530+0100  73H                                                                                                 F24Y120               000180
4 AH 30190701J              AB010ISTALGTK 4599                                                                                                                                                    000181
3 AH 30190801J12SEP2117SEP21123 5 7 IST02000200+0300  ALG05300530+0100  73H                                                                                                 F24Y120               000182
4 AH 30190801J              AB010ISTALGTK 4599                                                                                                                                                    000183
3 AH 30190901J16SEP2128OCT21   4    IST02000200+0300  ALG05300530+0100  332                                                                                                 F18C40Y211            000184
4 AH 30190901J              AB010ISTALGTK 4599                                                                                                                                                    000185
3 AH 30191001J18SEP2130OCT21     6  IST02150215+0300  ALG05450545+0100  332                                                                                                 F18C14Y219            000186
4 AH 30191001J              AB010ISTALGTK 4599                                                                                                                                                    000187
3 AH 30191101J19SEP2124OCT21      7 IST02000200+0300  ALG05300530+0100  73H                                                                                                 F24Y120               000188
4 AH 30191101J              AB010ISTALGTK 4599                                                                                                                                                    000189
3 AH 30191201J20SEP2129OCT21123 5   IST02000200+0300  ALG05300530+0100  73H                                                                                                 F16Y132               000190
4 AH 30191201J              AB010ISTALGTK 4599                                                                                                                                                    000191
3 AH 30191301J31OCT2131OCT21      7 IST02000200+0300  ALG05300530+0100  73H                                                                                                 F24Y120               000192
4 AH 30191301J              AB010ISTALGTK 4599                                                                                                                                                    000193
3 AH 30200101J02MAY2124OCT21      7 AAE19301930+0100  IST22152215+0300  73H                                                                                                 F16Y132               000194
4 AH 30200101J              AB010AAEISTTK 4590                                                                                                                                                    000195
3 AH 30200201J05MAY2105MAY21  3     AAE19301930+0100  IST22152215+0300  73H                                                                                                 F16Y132               000196
4 AH 30200201J              AB010AAEISTTK 4590                                                                                                                                                    000197
3 AH 30200301J12MAY2116JUN21  3     AAE19301930+0100  IST22152215+0300  73H                                                                                                 F16Y132               000198
4 AH 30200301J              AB010AAEISTTK 4590                                                                                                                                                    000199
3 AH 30200401J18JUN2115SEP21  3 5   AAE19301930+0100  IST22152215+0300  73H                                                                                                 F16Y132               000200
4 AH 30200401J              AB010AAEISTTK 4590                                                                                                                                                    000201
3 AH 30200501J22SEP2127OCT21  3     AAE19301930+0100  IST22152215+0300  73H                                                                                                 F16Y132               000202
4 AH 30200501J              AB010AAEISTTK 4590                                                                                                                                                    000203
3 AH 30210101J02MAY2124OCT21      7 IST23302330+0300  AAE02300230+0100  73H                                                                                                 F16Y132               000204
4 AH 30210101J              AB010ISTAAETK 4591                                                                                                                                                    000205
3 AH 30210201J05MAY2105MAY21  3     IST23302330+0300  AAE02300230+0100  73H                                                                                                 F16Y132               000206
4 AH 30210201J              AB010ISTAAETK 4591                                                                                                                                                    000207
3 AH 30210301J12MAY2116JUN21  3     IST23302330+0300  AAE02300230+0100  73H                                                                                                 F16Y132               000208
4 AH 30210301J              AB010ISTAAETK 4591                                                                                                                                                    000209
3 AH 30210401J18JUN2115SEP21  3 5   IST23302330+0300  AAE02300230+0100  73H                                                                                                 F16Y132               000210
4 AH 30210401J              AB010ISTAAETK 4591                                                                                                                                                    000211
3 AH 30210501J22SEP2127OCT21  3     IST23302330+0300  AAE02300230+0100  73H                                                                                                 F16Y132               000212
4 AH 30210501J              AB010ISTAAETK 4591                                                                                                                                                    000213
3 AH 30220101J03MAY2106MAY211  4    CZL21302130+0100  IST00200020+0300  73H                                                                                                 F16Y132               000214
4 AH 30220101J              AB010CZLISTTK 4592                                                                                                                                                    000215
3 AH 30220201J08MAY2112JUN21     6  CZL21302130+0100  IST00200020+0300  73H                                                                                                 F16Y132               000216
4 AH 30220201J              AB010CZLISTTK 4592                                                                                                                                                    000217
3 AH 30220301J10MAY2110JUN211  4    CZL21302130+0100  IST00200020+0300  73H                                                                                                 F16Y132               000218
4 AH 30220301J              AB010CZLISTTK 4592                                                                                                                                                    000219
3 AH 30220401J13JUN2114JUN211     7 CZL21302130+0100  IST00200020+0300  73H                                                                                                 F16Y132               000220
4 AH 30220401J              AB010CZLISTTK 4592                                                                                                                                                    000221
3 AH 30220501J17JUN2109SEP21   4    CZL21302130+0100  IST00200020+0300  73H                                                                                                 F16Y132               000222
4 AH 30220501J              AB010CZLISTTK 4592                                                                                                                                                    000223
3 AH 30220601J19JUN2111SEP21     6  CZL21302130+0100  IST00200020+0300  73H                                                                                                 F16Y132               000224
4 AH 30220601J              AB010CZLISTTK 4592                                                                                                                                                    000225
3 AH 30220701J20JUN2106SEP211     7 CZL21302130+0100  IST00200020+0300  73H                                                                                                 F16Y132               000226
4 AH 30220701J              AB010CZLISTTK 4592                                                                                                                                                    000227
3 AH 30220801J13SEP2128OCT211  4    CZL21302130+0100  IST00200020+0300  73H                                                                                                 F16Y132               000228
4 AH 30220801J              AB010CZLISTTK 4592                                                                                                                                                    000229
3 AH 30220901J18SEP2130OCT21     6  CZL21302130+0100  IST00200020+0300  73H                                                                                                 F16Y132               000230
4 AH 30220901J              AB010CZLISTTK 4592                                                                                                                                                    000231
3 AH 30230101J02MAY2106JUN21      7 IST01300130+0300  CZL04300430+0100  73H                                                                                                 F16Y132               000232
4 AH 30230101J              AB010ISTCZLTK 4593                                                                                                                                                    000233
3 AH 30230201J04MAY2107MAY21 2  5   IST01300130+0300  CZL04300430+0100  73H                                                                                                 F16Y132               000234
4 AH 30230201J              AB010ISTCZLTK 4593                                                                                                                                                    000235
3 AH 30230301J11MAY2111JUN21 2  5   IST01300130+0300  CZL04300430+0100  73H                                                                                                 F16Y132               000236
4 AH 30230301J              AB010ISTCZLTK 4593                                                                                                                                                    000237
3 AH 30230401J13JUN2115JUN2112    7 IST01300130+0300  CZL04300430+0100  73H                                                                                                 F16Y132               000238
4 AH 30230401J              AB010ISTCZLTK 4593                                                                                                                                                    000239
3 AH 30230501J18JUN2110SEP21    5   IST01300130+0300  CZL04300430+0100  73H                                                                                                 F16Y132               000240
4 AH 30230501J              AB010ISTCZLTK 4593                                                                                                                                                    000241
3 AH 30230601J20JUN2107SEP2112    7 IST01300130+0300  CZL04300430+0100  73H                                                                                                 F16Y132               000242
4 AH 30230601J              AB010ISTCZLTK 4593                                                                                                                                                    000243
3 AH 30230701J12SEP2112SEP21      7 IST01300130+0300  CZL04300430+0100  73H                                                                                                 F16Y132               000244
4 AH 30230701J              AB010ISTCZLTK 4593                                                                                                                                                    000245
3 AH 30230801J14SEP2129OCT21 2  5   IST01300130+0300  CZL04300430+0100  73H                                                                                                 F16Y132               000246
4 AH 30230801J              AB010ISTCZLTK 4593                                                                                                                                                    000247
3 AH 30230901J19SEP2124OCT21      7 IST01300130+0300  CZL04300430+0100  73H                                                                                                 F16Y132               000248
4 AH 30230901J              AB010ISTCZLTK 4593                                                                                                                                                    000249
3 AH 30231001J31OCT2131OCT21      7 IST01300130+0300  CZL04300430+0100  73H                                                                                                 F16Y132               000250
3 AH 30240101J01MAY2130OCT21     6  ORN08250825+0100  IST12151215+0300  736                                                                                                 F16Y85                000251
4 AH 30240101J              AB010ORNISTTK 4594                                                                                                                                                    000252
3 AH 30240201J04MAY2108JUN21 2      ORN08250825+0100  IST12151215+0300  73H                                                                                                 F16Y132               000253
4 AH 30240201J              AB010ORNISTTK 4594                                                                                                                                                    000254
3 AH 30240301J05MAY2109JUN21  3     ORN09050905+0100  IST12551255+0300  73H                                                                                                 F16Y132               000255
4 AH 30240301J              AB010ORNISTTK 4594                                                                                                                                                    000256
3 AH 30240401J15JUN2107SEP21 2      ORN08250825+0100  IST12151215+0300  73H                                                                                                 F16Y132               000257
4 AH 30240401J              AB010ORNISTTK 4594                                                                                                                                                    000258
3 AH 30240501J16JUN2108SEP21  3     ORN09050905+0100  IST12551255+0300  736                                                                                                 F16Y85                000259
4 AH 30240501J              AB010ORNISTTK 4594                                                                                                                                                    000260
3 AH 30240601J14SEP2126OCT21 2      ORN08250825+0100  IST12151215+0300  73H                                                                                                 F16Y132               000261
4 AH 30240601J              AB010ORNISTTK 4594                                                                                                                                                    000262
3 AH 30240701J15SEP2127OCT21  3     ORN09050905+0100  IST12551255+0300  73H                                                                                                 F16Y132               000263
4 AH 30240701J              AB010ORNISTTK 4594                                                                                                                                                    000264
3 AH 30250101J01MAY2130OCT21     6  IST13251325+0300  ORN18001800+0100  736                                                                                                 F16Y85                000265
4 AH 30250101J              AB010ISTORNTK 4595                                                                                                                                                    000266
3 AH 30250201J04MAY2108JUN21 2      IST13251325+0300  ORN18001800+0100  73H                                                                                                 F16Y132               000267
4 AH 30250201J              AB010ISTORNTK 4595                                                                                                                                                    000268
3 AH 30250301J05MAY2109JUN21  3     IST14201420+0300  ORN18551855+0100  73H                                                                                                 F16Y132               000269
4 AH 30250301J              AB010ISTORNTK 4595                                                                                                                                                    000270
3 AH 30250401J15JUN2107SEP21 2      IST13251325+0300  ORN18001800+0100  73H                                                                                                 F16Y132               000271
4 AH 30250401J              AB010ISTORNTK 4595                                                                                                                                                    000272
3 AH 30250501J16JUN2108SEP21  3     IST14201420+0300  ORN18551855+0100  736                                                                                                 F16Y85                000273
4 AH 30250501J              AB010ISTORNTK 4595                                                                                                                                                    000274
3 AH 30250601J14SEP2126OCT21 2      IST13251325+0300  ORN18001800+0100  73H                                                                                                 F16Y132               000275
4 AH 30250601J              AB010ISTORNTK 4595                                                                                                                                                    000276
3 AH 30250701J15SEP2127OCT21  3     IST14201420+0300  ORN18551855+0100  73H                                                                                                 F16Y132               000277
4 AH 30250701J              AB010ISTORNTK 4595                                                                                                                                                    000278
3 AH 30600101J31MAR2128APR21  3     ALG10001000+0100  CTU21552155+0800  332                                                                                                 F18C14Y219            000279
3 AH 30600201J01APR2129APR21   4    CTU17101710+0800  PEK20102010+0800  332                                                                                                 F18C14Y219            000280
3 AH 30600301J03JUN2130DEC21   4  7 ALG12001200+0100  PEK23102310+0800  332                                                                                                 F18C14Y219            000281
3 AH 30610101J01APR2129APR21   4    PEK21402140+0800  ALG10401040+0100  332                                                                                                 F18C14Y219            000282
3 AH 30610201J04JUN2131DEC211   5   PEK00500050+0800  ALG13201320+0100  332                                                                                                 F18C14Y219            000283
3 AH 60000101J01APR2108APR21   4    ALG08500850+0100  AAE09500950+0100  73H                                                                                                 F16Y132               000284
3 AH 60000201J13MAY2127MAY21   4    ALG08500850+0100  AAE09500950+0100  73H                                                                                                 F16Y132               000285
3 AH 60010101J01APR2108APR21   4    AAE16301630+0100  ALG17301730+0100  73H                                                                                                 F16Y132               000286
3 AH 60010201J13MAY2127MAY21   4    AAE16301630+0100  ALG17301730+0100  73H                                                                                                 F16Y132               000287
3 AH 60060101J28MAR2107APR21  3   7 ALG18151815+0100  AAE19151915+0100  73H                                                                                                 F16Y132               000288
3 AH 60060201J29MAR2109APR2112  5   ALG18001800+0100  AAE19001900+0100  73H                                                                                                 F16Y132               000289
3 AH 60060301J01APR2110APR21   4 6  ALG18301830+0100  AAE19301930+0100  73H                                                                                                 F16Y132               000290
3 AH 60060401J11APR2111APR21      7 ALG18001800+0100  AAE19001900+0100  73H                                                                                                 F16Y132               000291
3 AH 60060501J12APR2104MAY211234567 ALG16101610+0100  AAE17101710+0100  73H                                                                                                 F16Y132               000292
3 AH 60060601J05MAY2105MAY21  3     ALG17001700+0100  AAE18001800+0100  73H                                                                                                 C16Y132               000293
4 AH 60060601J              AB010ALGAAETK 4590                                                                                                                                                    000294
3 AH 60060701J06MAY2106MAY21   4    ALG16101610+0100  AAE17101710+0100  73H                                                                                                 F16Y132               000295
3 AH 60060801J07MAY2112MAY21123 567 ALG17001700+0100  AAE18001800+0100  73H                                                                                                 F16Y132               000296
3 AH 60060901J13MAY2129MAY21   4 6  ALG18301830+0100  AAE19301930+0100  73H                                                                                                 F16Y132               000297
3 AH 60061001J14MAY2131MAY2112  5   ALG18001800+0100  AAE19001900+0100  73H                                                                                                 F16Y132               000298
3 AH 60061101J16MAY2130MAY21      7 ALG18151815+0100  AAE19151915+0100  73H                                                                                                 F16Y132               000299
3 AH 60061201J19MAY2109JUN21  3     ALG17001700+0100  AAE18001800+0100  73H                                                                                                 C16Y132               000300
3 AH 60061301J16JUN2108SEP21  3     ALG17301730+0100  AAE18301830+0100  73H                                                                                                 F16Y132               000301
3 AH 60061401J15SEP2127OCT21  3     ALG17001700+0100  AAE18001800+0100  73H                                                                                                 C16Y132               000302
3 AH 60070101J28MAR2112APR21123 567 AAE07150715+0100  ALG08150815+0100  73H                                                                                                 F16Y132               000303
3 AH 60070201J01APR2108APR21   4    AAE06500650+0100  ALG07500750+0100  73H                                                                                                 F16Y132               000304
3 AH 60070301J13APR2103MAY211234567 AAE09100910+0100  ALG10101010+0100  73H                                                                                                 F16Y132               000305
3 AH 60070401J04MAY2108JUN21 2      AAE06500650+0100  ALG07500750+0100  73H                                                                                                 C16Y132               000306
3 AH 60070501J05MAY2107MAY21  3 5   AAE09100910+0100  ALG10101010+0100  73H                                                                                                 F16Y132               000307
3 AH 60070601J06MAY2106MAY21   4    AAE06150615+0100  ALG07150715+0100  73H                                                                                                 C16Y132               000308
3 AH 60070701J08MAY2131MAY211 3 567 AAE07150715+0100  ALG08150815+0100  73H                                                                                                 F16Y132               000309
3 AH 60070801J13MAY2110JUN21   4    AAE06150615+0100  ALG07150715+0100  73H                                                                                                 C16Y132               000310
3 AH 60070901J14SEP2126OCT21 2      AAE06500650+0100  ALG07500750+0100  73H                                                                                                 C16Y132               000311
3 AH 60071001J16SEP2128OCT21   4    AAE06150615+0100  ALG07150715+0100  73H                                                                                                 C16Y132               000312
3 AH 60100101J05MAY2109JUN21  3     ALG18001800+0100  AAE19001900+0100  73H                                                                                                 C16Y132               000313
3 AH 60100201J15SEP2127OCT21  3     ALG18001800+0100  AAE19001900+0100  73H                                                                                                 C16Y132               000314
3 AH 60260101J28MAR2109APR2112345 7 ALG18151815+0100  CZL19051905+0100  73H                                                                                                 F16Y132               000315
3 AH 60260201J03APR2110APR21     6  ALG18401840+0100  CZL19301930+0100  73H                                                                                                 F16Y132               000316
3 AH 60260301J11APR2111APR21      7 ALG18301830+0100  CZL19201920+0100  73H                                                                                                 F16Y132               000317
3 AH 60260401J12APR2101MAY211234567 ALG16201620+0100  CZL17101710+0100  73H                                                                                                 F16Y132               000318
3 AH 60260501J02MAY2106MAY21   4  7 ALG17301730+0100  CZL18201820+0100  73H                                                                                                 C16Y132               000319
3 AH 60260601J03MAY2105MAY21123     ALG16201620+0100  CZL17101710+0100  73H                                                                                                 F16Y132               000320
3 AH 60260701J07MAY2112MAY21123 56  ALG17151715+0100  CZL18051805+0100  73H                                                                                                 F16Y132               000321
3 AH 60260801J09MAY2110JUN21   4  7 ALG17301730+0100  CZL18201820+0100  73H                                                                                                 C16Y132               000322
3 AH 60260901J14MAY2131MAY21123 5   ALG18151815+0100  CZL19051905+0100  73H                                                                                                 F16Y132               000323
3 AH 60261001J15MAY2129MAY21     6  ALG18401840+0100  CZL19301930+0100  73H                                                                                                 F16Y132               000324
3 AH 60261101J17JUN2109SEP21   4    ALG17251725+0100  CZL18151815+0100  73H                                                                                                 F16Y132               000325
3 AH 60261201J12SEP2128OCT21   4  7 ALG17301730+0100  CZL18201820+0100  73H                                                                                                 C16Y132               000326
3 AH 60270101J28MAR2103APR211234567 CZL07200720+0100  ALG08100810+0100  73H                                                                                                 F16Y132               000327
3 AH 60270201J04APR2111APR21      7 CZL07450745+0100  ALG08350835+0100  73H                                                                                                 F16Y132               000328
3 AH 60270301J05APR2110APR21123456  CZL07200720+0100  ALG08100810+0100  73H                                                                                                 F16Y132               000329
3 AH 60270401J12APR2112APR211       CZL07350735+0100  ALG08250825+0100  73H                                                                                                 F16Y132               000330
3 AH 60270501J13APR2101MAY211234567 CZL09000900+0100  ALG09500950+0100  73H                                                                                                 F16Y132               000331
3 AH 60270601J02MAY2106JUN21      7 CZL06350635+0100  ALG07250725+0100  73H                                                                                                 C16Y132               000332
3 AH 60270701J03MAY2106MAY211 34    CZL09000900+0100  ALG09500950+0100  73H                                                                                                 F16Y132               000333
3 AH 60270801J04MAY2107MAY21 2  5   CZL06350635+0100  ALG07250725+0100  73H                                                                                                 C16Y132               000334
3 AH 60270901J08MAY2129MAY21  34 6  CZL07200720+0100  ALG08100810+0100  73H                                                                                                 F16Y132               000335
3 AH 60271001J10MAY2131MAY211       CZL07200720+0100  ALG08100810+0100  73H                                                                                                 F16Y132               000336
3 AH 60271101J11MAY2111JUN21 2  5   CZL06350635+0100  ALG07250725+0100  73H                                                                                                 C16Y132               000337
3 AH 60271201J16JUN2116JUN21  3     CZL06300630+0100  ALG07200720+0100  73H                                                                                                 F16Y132               000338
3 AH 60271301J23JUN2108SEP21  3     CZL06300630+0100  ALG07200720+0100  73H                                                                                                 F16Y132               000339
3 AH 60271401J12SEP2112SEP21      7 CZL06350635+0100  ALG07250725+0100  73H                                                                                                 C16Y132               000340
3 AH 60271501J14SEP2129OCT21 2  5   CZL06350635+0100  ALG07250725+0100  73H                                                                                                 C16Y132               000341
3 AH 60271601J19SEP2124OCT21      7 CZL06350635+0100  ALG07250725+0100  73H                                                                                                 C16Y132               000342
3 AH 60271701J31OCT2131OCT21      7 CZL06350635+0100  ALG07250725+0100  73H                                                                                                 C16Y132               000343
3 AH 60280101J03APR2129MAY21     6  ALG09100910+0100  CZL10151015+0100  AT7                                                                                                 Y66                   000344
3 AH 60320101J28MAR2130MAY21      7 ALG12151215+0100  TEE13301330+0100  AT7                                                                                                 Y66                   000345
3 AH 60320201J29MAR2112APR211   5   ALG08300830+0100  TEE09450945+0100  AT7                                                                                                 Y66                   000346
3 AH 60320301J31MAR2107APR21  3     ALG11451145+0100  TEE13001300+0100  AT7                                                                                                 Y66                   000347
3 AH 60320401J14APR2105MAY21  3     ALG12501250+0100  TEE14051405+0100  AT7                                                                                                 Y66                   000348
3 AH 60320501J07MAY2131MAY211   5   ALG08300830+0100  TEE09450945+0100  AT7                                                                                                 Y66                   000349
3 AH 60320601J12MAY2126MAY21  3     ALG11451145+0100  TEE13001300+0100  AT7                                                                                                 Y66                   000350
3 AH 60330101J28MAR2130MAY21      7 TEE14201420+0100  ALG15551555+0100  AT7                                                                                                 Y66                   000351
3 AH 60330201J29MAR2112APR211   5   TEE10351035+0100  ALG12101210+0100  AT7                                                                                                 Y66                   000352
3 AH 60330301J31MAR2107APR21  3     TEE13501350+0100  ALG15251525+0100  AT7                                                                                                 Y66                   000353
3 AH 60330401J14APR2105MAY21  3     TEE14551455+0100  ALG16301630+0100  AT7                                                                                                 Y66                   000354
3 AH 60330501J07MAY2131MAY211   5   TEE10351035+0100  ALG12101210+0100  AT7                                                                                                 Y66                   000355
3 AH 60330601J12MAY2126MAY21  3     TEE13501350+0100  ALG15251525+0100  AT7                                                                                                 Y66                   000356
3 AH 60380101J28MAR2128MAR21      7 ALG07300730+0100  BLJ08450845+0100  AT7                                                                                                 F16Y86                000357
3 AH 60380201J02APR2109APR21    5   ALG13401340+0100  BLJ14301430+0100  736                                                                                                 F16Y85                000358
3 AH 60380301J04APR2130MAY21      7 ALG07300730+0100  BLJ08450845+0100  AT7                                                                                                 F16Y86                000359
3 AH 60380401J16APR2130APR21    5   ALG14001400+0100  BLJ15151515+0100  AT7                                                                                                 Y66                   000360
3 AH 60380501J07MAY2128MAY21    5   ALG13401340+0100  BLJ14301430+0100  736                                                                                                 F16Y85                000361
3 AH 60390101J28MAR2128MAR21      7 BLJ09350935+0100  ALG10501050+0100  AT7                                                                                                 F16Y86                000362
3 AH 60390201J02APR2109APR21    5   BLJ15301530+0100  ALG16201620+0100  736                                                                                                 F16Y85                000363
3 AH 60390301J04APR2130MAY21      7 BLJ09350935+0100  ALG10501050+0100  AT7                                                                                                 F16Y86                000364
3 AH 60390401J16APR2130APR21    5   BLJ16051605+0100  ALG17201720+0100  AT7                                                                                                 Y66                   000365
3 AH 60390501J07MAY2128MAY21    5   BLJ15301530+0100  ALG16201620+0100  736                                                                                                 F16Y85                000366
3 AH 60400101J29MAR2131MAY211       ALG11301130+0100  BSK12301230+0100  AT7                                                                                                 Y66                   000367
3 AH 60400201J31MAR2131MAR21  3     ALG10001000+0100  BSK10501050+0100  736                                                                                                 F16Y85                000368
3 AH 60400301J01APR2108APR21   4    ALG09450945+0100  BSK10351035+0100  736                                                                                                 F16Y85                000369
3 AH 60400401J15APR2106MAY21   4    ALG10501050+0100  BSK11401140+0100  736                                                                                                 F16Y85                000370
3 AH 60400501J12MAY2126MAY21  3     ALG10001000+0100  BSK10501050+0100  736                                                                                                 F16Y85                000371
3 AH 60400601J13MAY2127MAY21   4    ALG09450945+0100  BSK10351035+0100  736                                                                                                 F16Y85                000372
3 AH 60410101J29MAR2131MAY211       BSK13201320+0100  ALG14201420+0100  AT7                                                                                                 Y66                   000373
3 AH 60410201J31MAR2131MAR21  3     BSK11501150+0100  ALG12401240+0100  736                                                                                                 F16Y85                000374
3 AH 60410301J01APR2108APR21   4    BSK11351135+0100  ALG12251225+0100  736                                                                                                 F16Y85                000375
3 AH 60410401J15APR2106MAY21   4    BSK12401240+0100  ALG13301330+0100  736                                                                                                 F16Y85                000376
3 AH 60410501J12MAY2126MAY21  3     BSK11501150+0100  ALG12401240+0100  736                                                                                                 F16Y85                000377
3 AH 60410601J13MAY2127MAY21   4    BSK11351135+0100  ALG12251225+0100  736                                                                                                 F16Y85                000378
3 AH 60420101J28MAR2128MAR21      7 ALG13401340+0100  BSK14301430+0100  73H                                                                                                 F16Y132               000379
3 AH 60420201J03APR2110APR21     6  ALG09500950+0100  BSK10401040+0100  736                                                                                                 F16Y85                000380
3 AH 60420301J04APR2111APR21      7 ALG13401340+0100  BSK14301430+0100  736                                                                                                 F16Y85                000381
3 AH 60420401J17APR2101MAY21     6  ALG11001100+0100  BSK11501150+0100  736                                                                                                 F16Y85                000382
3 AH 60420501J08MAY2129MAY21     6  ALG09500950+0100  BSK10401040+0100  736                                                                                                 F16Y85                000383
3 AH 60420601J09MAY2130MAY21      7 ALG13401340+0100  BSK14301430+0100  736                                                                                                 F16Y85                000384
3 AH 60430101J28MAR2128MAR21      7 BSK15301530+0100  ALG16201620+0100  73H                                                                                                 F16Y132               000385
3 AH 60430201J03APR2110APR21     6  BSK11401140+0100  ALG12301230+0100  736                                                                                                 F16Y85                000386
3 AH 60430301J04APR2111APR21      7 BSK15301530+0100  ALG16201620+0100  736                                                                                                 F16Y85                000387
3 AH 60430401J17APR2101MAY21     6  BSK12501250+0100  ALG13401340+0100  736                                                                                                 F16Y85                000388
3 AH 60430501J08MAY2129MAY21     6  BSK11401140+0100  ALG12301230+0100  736                                                                                                 F16Y85                000389
3 AH 60430601J09MAY2130MAY21      7 BSK15301530+0100  ALG16201620+0100  736                                                                                                 F16Y85                000390
3 AH 60500101J30MAR2125MAY21 2      ALG10001000+0100  BJA10451045+0100  AT7                                                                                                 Y66                   000391
3 AH 60510101J30MAR2125MAY21 2      BJA11351135+0100  ALG12201220+0100  AT7                                                                                                 Y66                   000392
3 AH 60520101J01APR2108APR21   4    ALG12201220+0100  BJA13051305+0100  AT7                                                                                                 Y66                   000393
3 AH 60520201J15APR2106MAY21   4    ALG14001400+0100  BJA14451445+0100  AT7                                                                                                 Y66                   000394
3 AH 60520301J13MAY2127MAY21   4    ALG12201220+0100  BJA13051305+0100  AT7                                                                                                 Y66                   000395
3 AH 60530101J01APR2108APR21   4    BJA13551355+0100  ALG14401440+0100  AT7                                                                                                 Y66                   000396
3 AH 60530201J15APR2106MAY21   4    BJA15351535+0100  ALG16201620+0100  AT7                                                                                                 Y66                   000397
3 AH 60530301J13MAY2127MAY21   4    BJA13551355+0100  ALG14401440+0100  AT7                                                                                                 Y66                   000398
3 AH 60560101J30MAR2106APR21 2      ALG09300930+0100  GJL10201020+0100  736                                                                                                 F16Y85                000399
3 AH 60560201J01APR2108APR21   4    ALG09250925+0100  GJL10151015+0100  AT7                                                                                                 Y66                   000400
3 AH 60560301J03APR2110APR21     6  ALG13501350+0100  GJL14451445+0100  736                                                                                                 F16Y85                000401
3 AH 60560401J08MAY2129MAY21     6  ALG13501350+0100  GJL14451445+0100  736                                                                                                 F16Y85                000402
3 AH 60560501J11MAY2125MAY21 2      ALG09300930+0100  GJL10201020+0100  736                                                                                                 F16Y85                000403
3 AH 60560601J13MAY2127MAY21   4    ALG09250925+0100  GJL10151015+0100  AT7                                                                                                 Y66                   000404
3 AH 60570101J30MAR2106APR21 2      GJL11201120+0100  ALG12101210+0100  736                                                                                                 F16Y85                000405
3 AH 60570201J01APR2108APR21   4    GJL11051105+0100  ALG11551155+0100  AT7                                                                                                 Y66                   000406
3 AH 60570301J03APR2110APR21     6  GJL15451545+0100  ALG16401640+0100  736                                                                                                 F16Y85                000407
3 AH 60570401J08MAY2129MAY21     6  GJL15451545+0100  ALG16401640+0100  736                                                                                                 F16Y85                000408
3 AH 60570501J11MAY2125MAY21 2      GJL11201120+0100  ALG12101210+0100  736                                                                                                 F16Y85                000409
3 AH 60570601J13MAY2127MAY21   4    GJL11051105+0100  ALG11551155+0100  AT7                                                                                                 Y66                   000410
3 AH 60580101J29MAR2105APR211       ALG09450945+0100  GJL10351035+0100  736                                                                                                 F16Y85                000411
3 AH 60580201J31MAR2107APR21  3     ALG09500950+0100  GJL10401040+0100  736                                                                                                 F16Y85                000412
3 AH 60580301J02APR2109APR21    5   ALG10001000+0100  GJL10501050+0100  736                                                                                                 F16Y85                000413
3 AH 60580401J12APR2103MAY211       ALG11001100+0100  GJL11501150+0100  736                                                                                                 F16Y85                000414
3 AH 60580501J14APR2105MAY21  3 5   ALG10501050+0100  GJL11401140+0100  736                                                                                                 F16Y85                000415
3 AH 60580601J07MAY2128MAY21    5   ALG10001000+0100  GJL10501050+0100  736                                                                                                 F16Y85                000416
3 AH 60580701J10MAY2131MAY211       ALG09450945+0100  GJL10351035+0100  736                                                                                                 F16Y85                000417
3 AH 60580801J12MAY2126MAY21  3     ALG09500950+0100  GJL10401040+0100  736                                                                                                 F16Y85                000418
3 AH 60590101J29MAR2105APR211       GJL11351135+0100  ALG12251225+0100  736                                                                                                 F16Y85                000419
3 AH 60590201J31MAR2107APR21  3     GJL11401140+0100  ALG12301230+0100  736                                                                                                 F16Y85                000420
3 AH 60590301J02APR2109APR21    5   GJL11501150+0100  ALG12401240+0100  736                                                                                                 F16Y85                000421
3 AH 60590401J12APR2103MAY211       GJL12501250+0100  ALG13401340+0100  736                                                                                                 F16Y85                000422
3 AH 60590501J14APR2105MAY21  3 5   GJL12401240+0100  ALG13301330+0100  736                                                                                                 F16Y85                000423
3 AH 60590601J07MAY2128MAY21    5   GJL11501150+0100  ALG12401240+0100  736                                                                                                 F16Y85                000424
3 AH 60590701J10MAY2131MAY211       GJL11351135+0100  ALG12251225+0100  736                                                                                                 F16Y85                000425
3 AH 60590801J12MAY2126MAY21  3     GJL11401140+0100  ALG12301230+0100  736                                                                                                 F16Y85                000426
3 AH 60700101J28MAR2130MAY21      7 ALG11301130+0100  LOO12401240+0100  AT7                                                                                                 Y66                   000427
3 AH 60700201J30MAR2106APR21 2      ALG09500950+0100  LOO11001100+0100  AT7                                                                                                 Y66                   000428
3 AH 60700301J01APR2127MAY21   4    ALG11451145+0100  LOO12551255+0100  AT7                                                                                                 Y66                   000429
3 AH 60700401J03APR2110APR21     6  ALG09400940+0100  LOO10501050+0100  AT7                                                                                                 Y66                   000430
3 AH 60700501J08MAY2129MAY21     6  ALG09400940+0100  LOO10501050+0100  AT7                                                                                                 Y66                   000431
3 AH 60700601J11MAY2125MAY21 2      ALG09500950+0100  LOO11001100+0100  AT7                                                                                                 Y66                   000432
3 AH 60710101J28MAR2130MAY21      7 LOO13301330+0100  ALG14351435+0100  AT7                                                                                                 Y66                   000433
3 AH 60710201J30MAR2106APR21 2      LOO11501150+0100  ALG12551255+0100  AT7                                                                                                 Y66                   000434
3 AH 60710301J01APR2127MAY21   4    LOO13451345+0100  ALG14501450+0100  AT7                                                                                                 Y66                   000435
3 AH 60710401J03APR2110APR21     6  LOO11401140+0100  ALG12451245+0100  AT7                                                                                                 Y66                   000436
3 AH 60710501J08MAY2129MAY21     6  LOO11401140+0100  ALG12451245+0100  AT7                                                                                                 Y66                   000437
3 AH 60710601J11MAY2125MAY21 2      LOO11501150+0100  ALG12551255+0100  AT7                                                                                                 Y66                   000438
3 AH 61000101J29MAR2105APR211       ALG10001000+0100  ORN11001100+0100  73H                                                                                                 F16Y132               000439
3 AH 61000201J31MAR2126MAY21  3     ALG07000700+0100  ORN08150815+0100  AT7                                                                                                 Y66                   000440
3 AH 61000301J01MAY2112JUN21     6  ALG06100610+0100  ORN07100710+0100  736                                                                                                 F16Y85                000441
3 AH 61000401J04MAY2108JUN21 2      ALG06100610+0100  ORN07100710+0100  73H                                                                                                 F16Y132               000442
3 AH 61000501J10MAY2131MAY211       ALG10001000+0100  ORN11001100+0100  73H                                                                                                 F16Y132               000443
3 AH 61000601J16JUN2108SEP21  3     ALG06550655+0100  ORN07550755+0100  736                                                                                                 F16Y85                000444
3 AH 61000701J19JUN2111SEP21     6  ALG06250625+0100  ORN07250725+0100  736                                                                                                 F16Y85                000445
3 AH 61000801J14SEP2126OCT21 2      ALG06100610+0100  ORN07100710+0100  73H                                                                                                 F16Y132               000446
3 AH 61000901J18SEP2130OCT21     6  ALG06100610+0100  ORN07100710+0100  736                                                                                                 F16Y85                000447
3 AH 61010101J19JUN2111SEP21     6  ORN19001900+0100  ALG20002000+0100  736                                                                                                 F16Y85                000448
3 AH 61030101J31MAR2131MAR21  3     ORN16001600+0100  ALG17151715+0100  AT7                                                                                                 Y66                   000449
3 AH 61030201J07APR2126MAY21  3     ORN16001600+0100  ALG17151715+0100  AT7                                                                                                 Y66                   000450
3 AH 61030301J16JUN2108SEP21  3     ORN20052005+0100  ALG21052105+0100  736                                                                                                 F16Y85                000451
3 AH 61040101J13JUN2105SEP21      7 ALG14001400+0100  ORN15001500+0100  73H                                                                                                 F16Y132               000452
3 AH 61060101J28MAR2111APR21 23 5 7 ALG18451845+0100  ORN19451945+0100  73H                                                                                                 F16Y132               000453
3 AH 61060201J29MAR2110APR211    6  ALG18301830+0100  ORN19301930+0100  73H                                                                                                 F16Y132               000454
3 AH 61060301J01APR2108APR21   4    ALG18401840+0100  ORN19401940+0100  73H                                                                                                 F16Y132               000455
3 AH 61060401J12APR2106MAY211234567 ALG16001600+0100  ORN17001700+0100  73H                                                                                                 F16Y132               000456
3 AH 61060501J07MAY2112MAY21123 567 ALG17301730+0100  ORN18301830+0100  73H                                                                                                 F16Y132               000457
3 AH 61060601J13MAY2131MAY211  4 6  ALG18301830+0100  ORN19301930+0100  73H                                                                                                 F16Y132               000458
3 AH 61060701J14MAY2130MAY21 23 5 7 ALG18451845+0100  ORN19451945+0100  73H                                                                                                 F16Y132               000459
3 AH 61070101J28MAR2111APR21    5 7 ORN06300630+0100  ALG07300730+0100  73H                                                                                                 F16Y132               000460
3 AH 61070201J29MAR2110APR21123  6  ORN07000700+0100  ALG08000800+0100  73H                                                                                                 F16Y132               000461
3 AH 61070301J01APR2108APR21   4    ORN06450645+0100  ALG07450745+0100  73H                                                                                                 F16Y132               000462
3 AH 61070401J12APR2112APR211       ORN08000800+0100  ALG09000900+0100  73H                                                                                                 F16Y132               000463
3 AH 61070501J13APR2107MAY211234567 ORN08500850+0100  ALG09500950+0100  73H                                                                                                 F16Y132               000464
3 AH 61070601J08MAY2101JUN21123  6  ORN07000700+0100  ALG08000800+0100  73H                                                                                                 F16Y132               000465
3 AH 61070701J09MAY2130MAY21    5 7 ORN06300630+0100  ALG07300730+0100  73H                                                                                                 F16Y132               000466
3 AH 61070801J13MAY2127MAY21   4    ORN06450645+0100  ALG07450745+0100  73H                                                                                                 F16Y132               000467
3 AH 61070901J18JUN2110SEP21    5   ORN06000600+0100  ALG07000700+0100  73H                                                                                                 F16Y132               000468
3 AH 61071001J31OCT2131OCT21      7 ORN06000600+0100  ALG07000700+0100  736                                                                                                 F16Y85                000469
3 AH 61110101J29MAR2105APR211       ORN13251325+0100  ALG14251425+0100  73H                                                                                                 F16Y132               000470
3 AH 61110201J08MAY2112JUN21     6  ORN21002100+0100  ALG22002200+0100  73H                                                                                                 F16Y132               000471
3 AH 61110301J10MAY2131MAY211       ORN13251325+0100  ALG14251425+0100  73H                                                                                                 F16Y132               000472
3 AH 61110401J18SEP2130OCT21     6  ORN21002100+0100  ALG22002200+0100  73H                                                                                                 F16Y132               000473
3 AH 61180101J02APR2109APR21    5   ALG09300930+0100  TLM10301030+0100  736                                                                                                 F16Y85                000474
3 AH 61180201J16APR2130APR21    5   ALG11001100+0100  TLM12001200+0100  736                                                                                                 F16Y85                000475
3 AH 61180301J07MAY2128MAY21    5   ALG09300930+0100  TLM10301030+0100  736                                                                                                 F16Y85                000476
3 AH 61190101J02APR2109APR21    5   TLM11301130+0100  ALG12301230+0100  736                                                                                                 F16Y85                000477
3 AH 61190201J16APR2130APR21    5   TLM13001300+0100  ALG14001400+0100  736                                                                                                 F16Y85                000478
3 AH 61190301J07MAY2128MAY21    5   TLM11301130+0100  ALG12301230+0100  736                                                                                                 F16Y85                000479
3 AH 61200101J29MAR2105APR211       ALG13001300+0100  TLM14001400+0100  73H                                                                                                 F16Y132               000480
3 AH 61200201J12APR2103MAY211       ALG12101210+0100  TLM13101310+0100  736                                                                                                 F16Y85                000481
3 AH 61200301J10MAY2131MAY211       ALG13001300+0100  TLM14001400+0100  73H                                                                                                 F16Y132               000482
3 AH 61210101J29MAR2105APR211       TLM15001500+0100  ALG16001600+0100  73H                                                                                                 F16Y132               000483
3 AH 61210201J12APR2103MAY211       TLM14101410+0100  ALG15101510+0100  736                                                                                                 F16Y85                000484
3 AH 61210301J10MAY2131MAY211       TLM15001500+0100  ALG16001600+0100  73H                                                                                                 F16Y132               000485
3 AH 61240101J28MAR2111APR21      7 ALG11501150+0100  TID12401240+0100  AT7                                                                                                 Y66                   000486
3 AH 61240201J31MAR2131MAR21  3     ALG10401040+0100  TID11301130+0100  AT7                                                                                                 Y66                   000487
3 AH 61240301J07APR2107APR21  3     ALG10401040+0100  TID11301130+0100  AT7                                                                                                 Y66                   000488
3 AH 61240401J14APR2105MAY21  3     ALG09300930+0100  TID10201020+0100  AT7                                                                                                 Y66                   000489
