1AIRLINE STANDARD SCHEDULE DATA SET                                                                                                                                                            001000001
00000000000000000000000000000000000000000000000000000000000000000000000000000000000000000000000000000000000000000000000000000000000000000000000000000000000000000000000000000000000000000000000000000000
00000000000000000000000000000000000000000000000000000000000000000000000000000000000000000000000000000000000000000000000000000000000000000000000000000000000000000000000000000000000000000000000000000000
00000000000000000000000000000000000000000000000000000000000000000000000000000000000000000000000000000000000000000000000000000000000000000000000000000000000000000000000000000000000000000000000000000000
00000000000000000000000000000000000000000000000000000000000000000000000000000000000000000000000000000000000000000000000000000000000000000000000000000000000000000000000000000000000000000000000000000000
2UAH          14FEB2113FEB2214FEB21 AIR ALGERIE                        C AIMS                                                                                                                 1300000002
00000000000000000000000000000000000000000000000000000000000000000000000000000000000000000000000000000000000000000000000000000000000000000000000000000000000000000000000000000000000000000000000000000000
00000000000000000000000000000000000000000000000000000000000000000000000000000000000000000000000000000000000000000000000000000000000000000000000000000000000000000000000000000000000000000000000000000000
00000000000000000000000000000000000000000000000000000000000000000000000000000000000000000000000000000000000000000000000000000000000000000000000000000000000000000000000000000000000000000000000000000000
00000000000000000000000000000000000000000000000000000000000000000000000000000000000000000000000000000000000000000000000000000000000000000000000000000000000000000000000000000000000000000000000000000000
3 AH 10010101J14FEB2125FEB211234567 CDG13401340+0100  ALG15451545+0100  332                                                                                                 F18C40Y211            000003
3 AH 10010201J26FEB2128FEB21    567 CDG13401340+0100  ALG15451545+0100  332                                                                                                 F18C14Y219            000004
3 AH 10030101J16FEB2128FEB211234567 CDG11101110+0100  ALG13151315+0100  332                                                                                                 F18C14Y219            000005
3 AH 10040101J14FEB2115FEB211     7 ALG10451045+0100  ORY13051305+0100  332                                                                                                 Y302                  000006
3 AH 10050101J14FEB2115FEB211     7 ORY14201420+0100  ALG16301630+0100  332                                                                                                 Y302                  000007
3 AH 10110101J14FEB2115FEB211     7 ORY13001300+0100  ALG15101510+0100  332                                                                                                 Y302                  000008
3 AH 12150101J16FEB2128FEB211234567 CDG16401640+0100  ALG18451845+0100  332                                                                                                 Y302                  000009
3 AH 30600101J17FEB2131MAR21  3     ALG10001000+0100  CTU21552155+0800  332                                                                                                 F18C14Y219            000010
3 AH 30600201J18FEB2101APR21   4    CTU17101710+0800  PEK20102010+0800  332                                                                                                 F18C14Y219            000011
3 AH 30600301J01APR2130DEC21   4  7 ALG12001200+0100  PEK23102310+0800  332                                                                                                 F18C14Y219            000012
3 AH 30610101J18FEB2101APR21   4    PEK21402140+0800  ALG10401040+0100  332                                                                                                 F18C14Y219            000013
3 AH 30610201J02APR2131DEC211   5   PEK00500050+0800  ALG13201320+0100  332                                                                                                 F18C14Y219            000014
3 AH 60000101J18FEB2125MAR21   4    ALG08500850+0100  AAE09500950+0100  73H                                                                                                 F16Y132               000015
3 AH 60010101J18FEB2125MAR21   4    AAE16301630+0100  ALG17301730+0100  73H                                                                                                 F16Y132               000016
3 AH 60060101J14FEB2115FEB211     7 ALG16001600+0100  AAE17001700+0100  73H                                                                                                 F16Y132               000017
3 AH 60060201J16FEB2130MAR2112  5 7 ALG18001800+0100  AAE19001900+0100  73H                                                                                                 F16Y132               000018
3 AH 60060301J17FEB2131MAR21  3     ALG17351735+0100  AAE18351835+0100  73H                                                                                                 F16Y132               000019
3 AH 60060401J18FEB2127MAR21   4 6  ALG18301830+0100  AAE19301930+0100  73H                                                                                                 F16Y132               000020
3 AH 60070101J14FEB2115FEB211     7 AAE07200720+0100  ALG08200820+0100  73H                                                                                                 F16Y132               000021
3 AH 60070201J16FEB2131MAR21123  6  AAE07150715+0100  ALG08150815+0100  73H                                                                                                 F16Y132               000022
3 AH 60070301J18FEB2101APR21   4    AAE06500650+0100  ALG07500750+0100  73H                                                                                                 F16Y132               000023
3 AH 60070401J19FEB2128MAR21    5 7 AAE07450745+0100  ALG08450845+0100  73H                                                                                                 F16Y132               000024
3 AH 60260101J14FEB2114FEB21      7 ALG16101610+0100  CZL17001700+0100  73H                                                                                                 F16Y132               000025
3 AH 60260201J15FEB2115FEB211       ALG16201620+0100  CZL17101710+0100  73H                                                                                                 F16Y132               000026
3 AH 60260301J16FEB2131MAR21 2345   ALG18151815+0100  CZL19051905+0100  73H                                                                                                 F16Y132               000027
3 AH 60260401J20FEB2127MAR21     6  ALG18401840+0100  CZL19301930+0100  73H                                                                                                 F16Y132               000028
3 AH 60260501J21FEB2128MAR21      7 ALG18151815+0100  CZL19151915+0100  73H                                                                                                 F16Y132               000029
3 AH 60260601J22FEB2129MAR211       ALG18201820+0100  CZL19301930+0100  73H                                                                                                 F16Y132               000030
3 AH 60270101J14FEB2114FEB21      7 CZL07150715+0100  ALG08050805+0100  73H                                                                                                 F16Y132               000031
3 AH 60270201J16FEB2130MAR21 2      CZL07350735+0100  ALG08250825+0100  73H                                                                                                 F16Y132               000032
3 AH 60270301J17FEB2131MAR21  3 56  CZL07200720+0100  ALG08100810+0100  73H                                                                                                 F16Y132               000033
3 AH 60270401J18FEB2101APR21   4    CZL07150715+0100  ALG08150815+0100  73H                                                                                                 F16Y132               000034
3 AH 60270501J21FEB2128MAR21      7 CZL07450745+0100  ALG08350835+0100  73H                                                                                                 F16Y132               000035
3 AH 60270601J22FEB2129MAR211       CZL07300730+0100  ALG08300830+0100  73H                                                                                                 F16Y132               000036
3 AH 60280101J20FEB2127MAR21     6  ALG09100910+0100  CZL10151015+0100  AT7                                                                                                 Y66                   000037
3 AH 60320101J14FEB2117FEB21  3   7 ALG11451145+0100  TEE13001300+0100  AT7                                                                                                 Y66                   000038
3 AH 60320201J15FEB2129MAR211   5   ALG08300830+0100  TEE09450945+0100  AT7                                                                                                 Y66                   000039
3 AH 60320301J21FEB2128MAR21      7 ALG12151215+0100  TEE13301330+0100  AT7                                                                                                 Y66                   000040
3 AH 60320401J24FEB2131MAR21  3     ALG11451145+0100  TEE13001300+0100  AT7                                                                                                 Y66                   000041
3 AH 60330101J14FEB2117FEB21  3   7 TEE13501350+0100  ALG15251525+0100  AT7                                                                                                 Y66                   000042
3 AH 60330201J15FEB2129MAR211   5   TEE10351035+0100  ALG12101210+0100  AT7                                                                                                 Y66                   000043
3 AH 60330301J21FEB2128MAR21      7 TEE14201420+0100  ALG15551555+0100  AT7                                                                                                 Y66                   000044
3 AH 60330401J24FEB2131MAR21  3     TEE13501350+0100  ALG15251525+0100  AT7                                                                                                 Y66                   000045
3 AH 60380101J14FEB2128MAR21      7 ALG07300730+0100  BLJ08450845+0100  AT7                                                                                                 F16Y86                000046
3 AH 60380201J19FEB2126MAR21    5   ALG13401340+0100  BLJ14301430+0100  736                                                                                                 F16Y85                000047
3 AH 60390101J14FEB2128MAR21      7 BLJ09350935+0100  ALG10501050+0100  AT7                                                                                                 F16Y86                000048
3 AH 60390201J19FEB2126MAR21    5   BLJ15301530+0100  ALG16201620+0100  736                                                                                                 F16Y85                000049
3 AH 60400101J15FEB2115FEB211       ALG11301130+0100  BSK12301230+0100  AT7                                                                                                 Y66                   000050
3 AH 60400201J17FEB2131MAR21  3     ALG10001000+0100  BSK10501050+0100  736                                                                                                 F16Y85                000051
3 AH 60400301J18FEB2125MAR21   4    ALG09450945+0100  BSK10351035+0100  736                                                                                                 F16Y85                000052
3 AH 60400401J22FEB2129MAR211       ALG14151415+0100  BSK15151515+0100  AT7                                                                                                 Y66                   000053
3 AH 60410101J15FEB2115FEB211       BSK13201320+0100  ALG14201420+0100  AT7                                                                                                 Y66                   000054
3 AH 60410201J17FEB2131MAR21  3     BSK11501150+0100  ALG12401240+0100  736                                                                                                 F16Y85                000055
3 AH 60410301J18FEB2125MAR21   4    BSK11351135+0100  ALG12251225+0100  736                                                                                                 F16Y85                000056
3 AH 60410401J22FEB2129MAR211       BSK16051605+0100  ALG17051705+0100  AT7                                                                                                 Y66                   000057
3 AH 60420101J14FEB2114FEB21      7 ALG11101110+0100  BSK12101210+0100  AT7                                                                                                 Y66                   000058
3 AH 60420201J20FEB2127MAR21     6  ALG09500950+0100  BSK10401040+0100  736                                                                                                 F16Y85                000059
3 AH 60420301J21FEB2128MAR21      7 ALG13401340+0100  BSK14301430+0100  736                                                                                                 F16Y85                000060
3 AH 60430101J14FEB2114FEB21      7 BSK13001300+0100  ALG14001400+0100  AT7                                                                                                 Y66                   000061
3 AH 60430201J20FEB2127MAR21     6  BSK11401140+0100  ALG12301230+0100  736                                                                                                 F16Y85                000062
3 AH 60430301J21FEB2128MAR21      7 BSK15301530+0100  ALG16201620+0100  736                                                                                                 F16Y85                000063
3 AH 60500101J16FEB2130MAR21 2      ALG10001000+0100  BJA10301030+0100  736                                                                                                 F16Y85                000064
3 AH 60510101J16FEB2130MAR21 2      BJA11301130+0100  ALG12001200+0100  736                                                                                                 F16Y85                000065
3 AH 60520101J18FEB2125MAR21   4    ALG14501450+0100  BJA15351535+0100  AT7                                                                                                 Y66                   000066
3 AH 60530101J18FEB2125MAR21   4    BJA16251625+0100  ALG17101710+0100  AT7                                                                                                 Y66                   000067
3 AH 60560101J16FEB2130MAR21 2      ALG09300930+0100  GJL10201020+0100  736                                                                                                 F16Y85                000068
3 AH 60560201J18FEB2125MAR21   4    ALG14201420+0100  GJL15101510+0100  AT7                                                                                                 Y66                   000069
3 AH 60560301J20FEB2127MAR21     6  ALG14001400+0100  GJL14501450+0100  AT7                                                                                                 Y66                   000070
3 AH 60570101J16FEB2130MAR21 2      GJL11201120+0100  ALG12101210+0100  736                                                                                                 F16Y85                000071
3 AH 60570201J18FEB2125MAR21   4    GJL16001600+0100  ALG16501650+0100  AT7                                                                                                 Y66                   000072
3 AH 60570301J20FEB2127MAR21     6  GJL15501550+0100  ALG16401640+0100  AT7                                                                                                 Y66                   000073
3 AH 60580101J15FEB2115FEB211       ALG09200920+0100  GJL10101010+0100  AT7                                                                                                 Y66                   000074
3 AH 60580201J17FEB2131MAR21  3     ALG09500950+0100  GJL10401040+0100  736                                                                                                 F16Y85                000075
3 AH 60580301J19FEB2126MAR21    5   ALG10001000+0100  GJL10501050+0100  736                                                                                                 F16Y85                000076
3 AH 60580401J22FEB2129MAR211       ALG09450945+0100  GJL10351035+0100  736                                                                                                 F16Y85                000077
3 AH 60590101J15FEB2115FEB211       GJL11001100+0100  ALG11501150+0100  AT7                                                                                                 Y66                   000078
3 AH 60590201J17FEB2131MAR21  3     GJL11401140+0100  ALG12301230+0100  736                                                                                                 F16Y85                000079
3 AH 60590301J19FEB2126MAR21    5   GJL11501150+0100  ALG12401240+0100  736                                                                                                 F16Y85                000080
3 AH 60590401J22FEB2129MAR211       GJL11351135+0100  ALG12251225+0100  736                                                                                                 F16Y85                000081
3 AH 60700101J14FEB2114FEB21      7 ALG11301130+0100  LOO12401240+0100  AT7                                                                                                 Y66                   000082
3 AH 60700201J16FEB2130MAR21 2      ALG09500950+0100  LOO11001100+0100  AT7                                                                                                 Y66                   000083
3 AH 60700301J18FEB2125MAR21   4    ALG11451145+0100  LOO12551255+0100  AT7                                                                                                 Y66                   000084
3 AH 60700401J20FEB2127MAR21     6  ALG09400940+0100  LOO10501050+0100  AT7                                                                                                 Y66                   000085
3 AH 60700501J21FEB2128MAR21      7 ALG11301130+0100  LOO12401240+0100  AT7                                                                                                 Y66                   000086
3 AH 60710101J14FEB2114FEB21      7 LOO13301330+0100  ALG14351435+0100  AT7                                                                                                 Y66                   000087
3 AH 60710201J16FEB2130MAR21 2      LOO11501150+0100  ALG12551255+0100  AT7                                                                                                 Y66                   000088
3 AH 60710301J18FEB2125MAR21   4    LOO13451345+0100  ALG14501450+0100  AT7                                                                                                 Y66                   000089
3 AH 60710401J20FEB2127MAR21     6  LOO11401140+0100  ALG12451245+0100  AT7                                                                                                 Y66                   000090
3 AH 60710501J21FEB2128MAR21      7 LOO13301330+0100  ALG14351435+0100  AT7                                                                                                 Y66                   000091
3 AH 61000101J15FEB2115FEB211       ALG09350935+0100  ORN10501050+0100  AT7                                                                                                 Y66                   000092
3 AH 61000201J17FEB2131MAR21  3     ALG06000600+0100  ORN07150715+0100  AT7                                                                                                 Y66                   000093
3 AH 61000301J22FEB2129MAR211       ALG10301030+0100  ORN11301130+0100  73H                                                                                                 F16Y132               000094
3 AH 61030101J17FEB2117FEB21  3     ORN16251625+0100  ALG17401740+0100  AT7                                                                                                 Y66                   000095
3 AH 61030201J24FEB2124FEB21  3     ORN16251625+0100  ALG17401740+0100  AT7                                                                                                 Y66                   000096
3 AH 61030301J03MAR2103MAR21  3     ORN16251625+0100  ALG17401740+0100  AT7                                                                                                 Y66                   000097
3 AH 61030401J10MAR2131MAR21  3     ORN16251625+0100  ALG17401740+0100  AT7                                                                                                 Y66                   000098
3 AH 61060101J14FEB2115FEB211     7 ALG16001600+0100  ORN17001700+0100  73H                                                                                                 F16Y132               000099
3 AH 61060201J16FEB2130MAR2112  56  ALG18301830+0100  ORN19301930+0100  73H                                                                                                 F16Y132               000100
3 AH 61060301J17FEB2131MAR21  3   7 ALG18451845+0100  ORN19451945+0100  73H                                                                                                 F16Y132               000101
3 AH 61060401J18FEB2125MAR21   4    ALG18001800+0100  ORN19001900+0100  73H                                                                                                 F16Y132               000102
3 AH 61070101J14FEB2114FEB21      7 ORN08000800+0100  ALG09000900+0100  73H                                                                                                 F16Y132               000103
3 AH 61070201J15FEB2118FEB211  4    ORN07000700+0100  ALG08000800+0100  73H                                                                                                 F16Y132               000104
3 AH 61070301J16FEB2130MAR21 2      ORN07200720+0100  ALG08200820+0100  73H                                                                                                 F16Y132               000105
3 AH 61070401J17FEB2131MAR211 3  6  ORN07450745+0100  ALG08450845+0100  73H                                                                                                 F16Y132               000106
3 AH 61070501J19FEB2126MAR21    5   ORN06300630+0100  ALG07300730+0100  73H                                                                                                 F16Y132               000107
3 AH 61070601J21FEB2128MAR21      7 ORN06450645+0100  ALG07450745+0100  73H                                                                                                 F16Y132               000108
3 AH 61070701J25FEB2101APR21   4    ORN07000700+0100  ALG08000800+0100  73H                                                                                                 F16Y132               000109
3 AH 61110101J15FEB2129MAR211       ORN13251325+0100  ALG14251425+0100  73H                                                                                                 F16Y132               000110
3 AH 61180101J19FEB2126MAR21    5   ALG09300930+0100  TLM10301030+0100  736                                                                                                 F16Y85                000111
3 AH 61190101J19FEB2126MAR21    5   TLM11301130+0100  ALG12301230+0100  736                                                                                                 F16Y85                000112
3 AH 61200101J15FEB2115FEB211       ALG12201220+0100  TLM13501350+0100  AT7                                                                                                 Y66                   000113
3 AH 61200201J22FEB2129MAR211       ALG13001300+0100  TLM14001400+0100  73H                                                                                                 F16Y132               000114
3 AH 61210101J15FEB2115FEB211       TLM14401440+0100  ALG16101610+0100  AT7                                                                                                 Y66                   000115
3 AH 61210201J22FEB2129MAR211       TLM15001500+0100  ALG16001600+0100  73H                                                                                                 F16Y132               000116
3 AH 61240101J14FEB2117FEB21  3   7 ALG10401040+0100  TID11301130+0100  AT7                                                                                                 Y66                   000117
3 AH 61240201J21FEB2128MAR21      7 ALG11501150+0100  TID12401240+0100  AT7                                                                                                 Y66                   000118
3 AH 61240301J24FEB2131MAR21  3     ALG10401040+0100  TID11301130+0100  AT7                                                                                                 Y66                   000119
3 AH 61250101J14FEB2117FEB21  3   7 TID12201220+0100  ALG13101310+0100  AT7                                                                                                 Y66                   000120
3 AH 61250201J21FEB2128MAR21      7 TID13301330+0100  ALG14201420+0100  AT7                                                                                                 Y66                   000121
3 AH 61250301J24FEB2131MAR21  3     TID12201220+0100  ALG13101310+0100  AT7                                                                                                 Y66                   000122
3 AH 61260101J17FEB2117FEB21  3     ORN07000700+0100  EBH08000800+0100  AT7                                                                                                 Y66                   000123
3 AH 61260201J24FEB2124FEB21  3     ORN07000700+0100  EBH08000800+0100  AT7                                                                                                 Y66                   000124
3 AH 61260301J03MAR2103MAR21  3     ORN07000700+0100  EBH08000800+0100  AT7                                                                                                 Y66                   000125
3 AH 61260401J10MAR2131MAR21  3     ORN07000700+0100  EBH08000800+0100  AT7                                                                                                 Y66                   000126
3 AH 61270101J17FEB2117FEB21  3     EBH08500850+0100  ORN09550955+0100  AT7                                                                                                 Y66                   000127
3 AH 61270201J24FEB2124FEB21  3     EBH08500850+0100  ORN09550955+0100  AT7                                                                                                 Y66                   000128
3 AH 61270301J03MAR2103MAR21  3     EBH08500850+0100  ORN09550955+0100  AT7                                                                                                 Y66                   000129
3 AH 61270401J10MAR2131MAR21  3     EBH08500850+0100  ORN09550955+0100  AT7                                                                                                 Y66                   000130
3 AH 61280101J14FEB2128MAR21      7 ORN07000700+0100  MZW08200820+0100  AT7                                                                                                 Y66                   000131
3 AH 61290101J14FEB2128MAR21      7 MZW09100910+0100  ORN10351035+0100  AT7                                                                                                 Y66                   000132
3 AH 61320101J15FEB2129MAR211       ALG09000900+0100  CBH10351035+0100  73H                                                                                                 F16Y132               000133
3 AH 61320201J18FEB2125MAR21   4    ALG10001000+0100  CBH12151215+0100  AT7                                                                                                 Y66                   000134
3 AH 61320301J20FEB2127MAR21     6  ALG09000900+0100  CBH11151115+0100  AT7                                                                                                 Y66                   000135
3 AH 61330101J15FEB2115FEB211       CBH15351535+0100  ALG17501750+0100  AT7                                                                                                 Y66                   000136
3 AH 61330201J18FEB2125MAR21   4    CBH13051305+0100  ALG15051505+0100  AT7                                                                                                 Y66                   000137
3 AH 61330301J20FEB2127MAR21     6  CBH12051205+0100  ALG14051405+0100  AT7                                                                                                 Y66                   000138
3 AH 61330401J22FEB2129MAR211       CBH15101510+0100  ALG16401640+0100  73H                                                                                                 F16Y132               000139
3 AH 61340101J19FEB2126MAR21    5   ALG10001000+0100  CBH11301130+0100  AT7                                                                                                 Y66                   000140
3 AH 61350101J19FEB2126MAR21    5   CBH12301230+0100  ALG14001400+0100  AT7                                                                                                 Y66                   000141
3 AH 61400101J14FEB2128MAR21      7 ALG07300730+0100  AZR10201020+0100  AT7                                                                                                 Y66                   000142
3 AH 61400201J15FEB2130MAR2112      ALG14001400+0100  AZR16501650+0100  AT7                                                                                                 Y66                   000143
3 AH 61400301J19FEB2126MAR21    5   ALG08300830+0100  AZR11201120+0100  AT7                                                                                                 Y66                   000144
3 AH 61410101J15FEB2129MAR211       AZR13201320+0100  ALG16101610+0100  AT7                                                                                                 Y66                   000145
3 AH 61410201J16FEB2130MAR21 2      AZR14551455+0100  ALG17351735+0100  AT7                                                                                                 Y66                   000146
3 AH 61410301J18FEB2101APR21   4    AZR07000700+0100  ALG09500950+0100  AT7                                                                                                 Y66                   000147
3 AH 61410401J20FEB2127MAR21     6  AZR07000700+0100  ALG09500950+0100  AT7                                                                                                 Y66                   000148
3 AH 61420101J14FEB2114FEB21      7 ALG10001000+0100  AZR12401240+0100  736                                                                                                 F16Y85                000149
3 AH 61420201J15FEB2115FEB211       ALG10001000+0100  AZR12401240+0100  AT7                                                                                                 Y66                   000150
3 AH 61420301J18FEB2128MAR21   4  7 ALG09000900+0100  AZR10501050+0100  73H                                                                                                 F16Y132               000151
3 AH 61420401J20FEB2127MAR21     6  ALG09200920+0100  AZR11101110+0100  736                                                                                                 F16Y86                000152
3 AH 61420501J22FEB2129MAR211       ALG10001000+0100  AZR12501250+0100  AT7                                                                                                 Y66                   000153
3 AH 61430101J14FEB2114FEB21      7 AZR13301330+0100  ALG16101610+0100  736                                                                                                 F16Y85                000154
3 AH 61430201J15FEB2115FEB211       AZR13301330+0100  ALG16101610+0100  AT7                                                                                                 Y66                   000155
3 AH 61430301J18FEB2128MAR21   4  7 AZR11501150+0100  ALG13401340+0100  73H                                                                                                 F16Y132               000156
3 AH 61430401J20FEB2127MAR21     6  AZR12101210+0100  ALG14001400+0100  736                                                                                                 F16Y86                000157
3 AH 61430501J22FEB2129MAR211       AZR13401340+0100  ALG16301630+0100  AT7                                                                                                 Y66                   000158
3 AH 61460101J15FEB2129MAR211       ALG10301030+0100  TIN13001300+0100  73H                                                                                                 F16Y132               000159
3 AH 61460201J18FEB2125MAR21   4    ALG09050905+0100  TIN11351135+0100  73H                                                                                                 F16Y132               000160
3 AH 61460301J19FEB2119FEB21    5   ALG09300930+0100  TIN12001200+0100  73H                                                                                                 F16Y132               000161
3 AH 61460401J20FEB2127MAR21     6  ALG11401140+0100  TIN14101410+0100  73H                                                                                                 F16Y132               000162
3 AH 61460501J26FEB2126MAR21    5   ALG10001000+0100  TIN12301230+0100  73H                                                                                                 F16Y132               000163
3 AH 61470101J15FEB2129MAR211       TIN14001400+0100  ALG16201620+0100  73H                                                                                                 F16Y132               000164
3 AH 61470201J18FEB2125MAR21   4    TIN12301230+0100  ALG14451445+0100  73H                                                                                                 F16Y132               000165
3 AH 61470301J19FEB2119FEB21    5   TIN12501250+0100  ALG15101510+0100  73H                                                                                                 F16Y132               000166
3 AH 61470401J20FEB2127MAR21     6  TIN15101510+0100  ALG17301730+0100  73H                                                                                                 F16Y132               000167
3 AH 61470501J26FEB2126FEB21    5   TIN13301330+0100  ALG15401540+0100  73H                                                                                                 F16Y132               000168
3 AH 61470601J05MAR2126MAR21    5   TIN13201320+0100  ALG15401540+0100  73H                                                                                                 F16Y132               000169
3 AH 61480101J16FEB2130MAR21 2      ALG09300930+0100  CBH11001100+0100  73H                                                                                                 F16Y132               000170
3 AH 61480102J16FEB2130MAR21 2      CBH12001200+0100  TIN13101310+0100  73H                                                                                                 F16Y132               000171
3 AH 61490101J16FEB2130MAR21 2      TIN14101410+0100  ALG16301630+0100  73H                                                                                                 F16Y132               000172
3 AH 61500101J16FEB2130MAR21 2      ALG09300930+0100  TIN12001200+0100  73H                                                                                                 F16Y132               000173
3 AH 61510101J16FEB2130MAR21 2      TIN13001300+0100  CBH14001400+0100  73H                                                                                                 F16Y132               000174
3 AH 61510102J16FEB2130MAR21 2      CBH15001500+0100  ALG16351635+0100  73H                                                                                                 F16Y132               000175
3 AH 61560101J14FEB2114FEB21      7 ALG10001000+0100  TMX11151115+0100  736                                                                                                 F16Y85                000176
3 AH 61560201J15FEB2115FEB211       ALG10001000+0100  TMX11301130+0100  736                                                                                                 F16Y85                000177
3 AH 61560301J17FEB2131MAR21  3     ALG12301230+0100  TMX14001400+0100  73H                                                                                                 F16Y132               000178
3 AH 61560401J20FEB2127MAR21     6  ALG09300930+0100  TMX11001100+0100  73H                                                                                                 F16Y132               000179
3 AH 61560501J21FEB2128MAR21      7 ALG10001000+0100  TMX11301130+0100  73H                                                                                                 F16Y132               000180
3 AH 61560601J22FEB2129MAR211       ALG09300930+0100  TMX11001100+0100  736                                                                                                 F16Y85                000181
3 AH 61570101J14FEB2114FEB21      7 TMX12151215+0100  ALG13401340+0100  736                                                                                                 F16Y85                000182
3 AH 61570201J15FEB2115FEB211       TMX12301230+0100  ALG14001400+0100  736                                                                                                 F16Y85                000183
3 AH 61570301J17FEB2131MAR21  3     TMX15001500+0100  ALG16301630+0100  73H                                                                                                 F16Y132               000184
3 AH 61570401J20FEB2127MAR21     6  TMX12001200+0100  ALG13301330+0100  73H                                                                                                 F16Y132               000185
3 AH 61570501J21FEB2128MAR21      7 TMX12301230+0100  ALG14001400+0100  73H                                                                                                 F16Y132               000186
3 AH 61570601J22FEB2129MAR211       TMX12001200+0100  ALG13301330+0100  736                                                                                                 F16Y85                000187
3 AH 61640101J15FEB2115FEB211       AAE15001500+0100  ORN17001700+0100  AT7                                                                                                 Y66                   000188
3 AH 61640201J18FEB2125MAR21   4    AAE10451045+0100  ORN12351235+0100  73H                                                                                                 F16Y132               000189
3 AH 61640301J20FEB2120FEB21     6  AAE14351435+0100  ORN16001600+0100  73H                                                                                                 F16Y132               000190
3 AH 61640401J22FEB2129MAR211       AAE15001500+0100  ORN17001700+0100  AT7                                                                                                 Y66                   000191
3 AH 61640501J27FEB2127MAR21     6  AAE14351435+0100  ORN16001600+0100  73H                                                                                                 F16Y132               000192
3 AH 61650101J15FEB2115FEB211       ORN12151215+0100  AAE14151415+0100  AT7                                                                                                 Y66                   000193
3 AH 61650201J18FEB2125MAR21   4    ORN13351335+0100  AAE15301530+0100  73H                                                                                                 F16Y132               000194
3 AH 61650301J20FEB2120FEB21     6  ORN12201220+0100  AAE13351335+0100  73H                                                                                                 F16Y132               000195
3 AH 61650401J22FEB2129MAR211       ORN12151215+0100  AAE14151415+0100  AT7                                                                                                 Y66                   000196
3 AH 61650501J27FEB2127MAR21     6  ORN12201220+0100  AAE13351335+0100  73H                                                                                                 F16Y132               000197
3 AH 61680101J15FEB2115FEB211       ORN07000700+0100  CZL08400840+0100  AT7                                                                                                 Y66                   000198
3 AH 61680201J16FEB2116FEB21 2      ORN07350735+0100  CZL09150915+0100  AT7                                                                                                 Y66                   000199
3 AH 61680301J17FEB2117FEB21  3     ORN11001100+0100  CZL12301230+0100  73H                                                                                                 F16Y132               000200
3 AH 61680401J22FEB2129MAR211       ORN07000700+0100  CZL08400840+0100  AT7                                                                                                 Y66                   000201
3 AH 61680501J23FEB2130MAR21 2      ORN07350735+0100  CZL09150915+0100  AT7                                                                                                 Y66                   000202
3 AH 61680601J24FEB2131MAR21  3     ORN11001100+0100  CZL12301230+0100  73H                                                                                                 F16Y132               000203
3 AH 61690101J15FEB2115FEB211       CZL09300930+0100  ORN11251125+0100  AT7                                                                                                 Y66                   000204
3 AH 61690201J16FEB2116FEB21 2      CZL10051005+0100  ORN12001200+0100  AT7                                                                                                 Y66                   000205
3 AH 61690301J17FEB2117FEB21  3     CZL13301330+0100  ORN15001500+0100  73H                                                                                                 F16Y132               000206
3 AH 61690401J22FEB2129MAR211       CZL09300930+0100  ORN11251125+0100  AT7                                                                                                 Y66                   000207
3 AH 61690501J23FEB2130MAR21 2      CZL10051005+0100  ORN12001200+0100  AT7                                                                                                 Y66                   000208
3 AH 61690601J24FEB2131MAR21  3     CZL13301330+0100  ORN15001500+0100  73H                                                                                                 F16Y132               000209
3 AH 61700101J14FEB2114FEB21      7 ALG07150715+0100  AAE08300830+0100  AT7                                                                                                 Y66                   000210
3 AH 61700201J15FEB2129MAR211    67 ALG07150715+0100  AAE08300830+0100  AT7                                                                                                 Y66                   000211
3 AH 61700301J16FEB2130MAR21 2      ALG13501350+0100  AAE14501450+0100  736                                                                                                 F16Y85                000212
3 AH 61700401J17FEB2131MAR21  3     ALG08050805+0100  AAE09200920+0100  AT7                                                                                                 Y66                   000213
3 AH 61700501J19FEB2126MAR21    5   ALG07300730+0100  AAE08450845+0100  AT7                                                                                                 Y66                   000214
3 AH 61710101J14FEB2114FEB21      7 AAE09200920+0100  ALG10401040+0100  AT7                                                                                                 Y66                   000215
3 AH 61710201J15FEB2129MAR211     7 AAE09200920+0100  ALG10401040+0100  AT7                                                                                                 Y66                   000216
3 AH 61710301J16FEB2130MAR21 2      AAE15501550+0100  ALG16501650+0100  736                                                                                                 F16Y85                000217
3 AH 61710401J17FEB2131MAR21  3     AAE10101010+0100  ALG11301130+0100  AT7                                                                                                 Y66                   000218
3 AH 61710501J19FEB2126MAR21    5   AAE09350935+0100  ALG10551055+0100  AT7                                                                                                 Y66                   000219
3 AH 61710601J20FEB2127MAR21     6  AAE09200920+0100  ALG10351035+0100  AT7                                                                                                 Y66                   000220
3 AH 61760101J14FEB2115FEB211     7 ALG13251325+0100  AAE14401440+0100  AT7                                                                                                 Y66                   000221
3 AH 61760201J16FEB2130MAR21 2      ALG07150715+0100  AAE08300830+0100  AT7                                                                                                 Y66                   000222
3 AH 61760301J17FEB2131MAR21  3 5   ALG14001400+0100  AAE15151515+0100  AT7                                                                                                 Y66                   000223
3 AH 61760401J20FEB2128MAR21     67 ALG15001500+0100  AAE16151615+0100  AT7                                                                                                 Y66                   000224
3 AH 61760501J22FEB2129MAR211       ALG13251325+0100  AAE14401440+0100  AT7                                                                                                 Y66                   000225
3 AH 61770101J14FEB2115FEB211     7 AAE15301530+0100  ALG16501650+0100  AT7                                                                                                 Y66                   000226
3 AH 61770201J16FEB2130MAR21 2      AAE09200920+0100  ALG10401040+0100  AT7                                                                                                 Y66                   000227
3 AH 61770301J17FEB2131MAR21  3 5   AAE16051605+0100  ALG17251725+0100  AT7                                                                                                 Y66                   000228
3 AH 61770401J20FEB2128MAR21     67 AAE17051705+0100  ALG18251825+0100  AT7                                                                                                 Y66                   000229
3 AH 61770501J22FEB2129MAR211       AAE15301530+0100  ALG16501650+0100  AT7                                                                                                 Y66                   000230
3 AH 61800101J14FEB2115FEB211     7 ALG06300630+0100  ORN07450745+0100  AT7                                                                                                 Y66                   000231
3 AH 61800201J16FEB2130MAR21 2      ALG09250925+0100  ORN10251025+0100  736                                                                                                 F16Y85                000232
3 AH 61800301J17FEB2131MAR21  3     ALG07000700+0100  ORN08150815+0100  AT7                                                                                                 Y66                   000233
3 AH 61800401J18FEB2125MAR21   4    ALG06450645+0100  ORN08000800+0100  AT7                                                                                                 Y66                   000234
3 AH 61800501J19FEB2126MAR21    5   ALG07300730+0100  ORN08450845+0100  AT7                                                                                                 Y66                   000235
3 AH 61800601J20FEB2127MAR21     6  ALG07300730+0100  ORN08450845+0100  AT7                                                                                                 Y66                   000236
3 AH 61800701J21FEB2128MAR21      7 ALG07400740+0100  ORN08550855+0100  AT7                                                                                                 Y66                   000237
3 AH 61800801J22FEB2129MAR211       ALG06300630+0100  ORN07450745+0100  AT7                                                                                                 Y66                   000238
3 AH 61810101J14FEB2115FEB211     7 ORN08350835+0100  ALG09500950+0100  AT7                                                                                                 Y66                   000239
3 AH 61810201J16FEB2130MAR21 2      ORN11251125+0100  ALG12251225+0100  736                                                                                                 F16Y85                000240
3 AH 61810301J17FEB2131MAR21  3     ORN09050905+0100  ALG10201020+0100  AT7                                                                                                 Y66                   000241
3 AH 61810401J18FEB2125MAR21   4    ORN08500850+0100  ALG10051005+0100  AT7                                                                                                 Y66                   000242
3 AH 61810501J19FEB2126MAR21    5   ORN09350935+0100  ALG10501050+0100  AT7                                                                                                 Y66                   000243
3 AH 61810601J20FEB2127MAR21     6  ORN09350935+0100  ALG10501050+0100  AT7                                                                                                 Y66                   000244
3 AH 61810701J21FEB2128MAR21      7 ORN09450945+0100  ALG11001100+0100  AT7                                                                                                 Y66                   000245
3 AH 61810801J22FEB2129MAR211       ORN08350835+0100  ALG09500950+0100  AT7                                                                                                 Y66                   000246
3 AH 61820101J17FEB2131MAR21  3     ALG14001400+0100  ORN15001500+0100  736                                                                                                 F16Y85                000247
3 AH 61830101J17FEB2131MAR21  3     ORN16001600+0100  ALG17001700+0100  736                                                                                                 F16Y85                000248
3 AH 61840101J14FEB2114FEB21      7 ALG15251525+0100  ORN16401640+0100  AT7                                                                                                 Y66                   000249
3 AH 61840201J15FEB2115FEB211       ALG13401340+0100  ORN14551455+0100  AT7                                                                                                 Y66                   000250
3 AH 61840301J16FEB2130MAR21 2      ALG13451345+0100  ORN14451445+0100  736                                                                                                 F16Y85                000251
3 AH 61840401J18FEB2125MAR21   4    ALG15301530+0100  ORN16451645+0100  AT7                                                                                                 Y66                   000252
3 AH 61840501J19FEB2127MAR21    56  ALG14001400+0100  ORN15001500+0100  736                                                                                                 F16Y85                000253
3 AH 61840601J21FEB2128MAR21      7 ALG14451445+0100  ORN15451545+0100  736                                                                                                 F16Y85                000254
3 AH 61850101J14FEB2114FEB21      7 ORN17501750+0100  ALG19051905+0100  AT7                                                                                                 Y66                   000255
3 AH 61850201J15FEB2115FEB211       ORN15451545+0100  ALG17001700+0100  AT7                                                                                                 Y66                   000256
3 AH 61850301J16FEB2130MAR21 2  56  ORN16001600+0100  ALG17001700+0100  736                                                                                                 F16Y85                000257
3 AH 61850401J18FEB2125MAR21   4    ORN17351735+0100  ALG18501850+0100  AT7                                                                                                 Y66                   000258
3 AH 61850501J21FEB2128MAR21      7 ORN16451645+0100  ALG17451745+0100  736                                                                                                 F16Y85                000259
3 AH 61900101J14FEB2115FEB211     7 ALG06300630+0100  CZL07400740+0100  AT7                                                                                                 Y66                   000260
3 AH 61900201J16FEB2130MAR21 2      ALG07050705+0100  CZL08150815+0100  AT7                                                                                                 Y66                   000261
3 AH 61900301J17FEB2131MAR21  3     ALG07200720+0100  CZL08300830+0100  AT7                                                                                                 Y66                   000262
3 AH 61900401J18FEB2129MAR211  4 6  ALG07300730+0100  CZL08400840+0100  AT7                                                                                                 Y66                   000263
3 AH 61900501J19FEB2126MAR21    5   ALG08300830+0100  CZL09200920+0100  736                                                                                                 F16Y85                000264
3 AH 61900601J21FEB2128MAR21      7 ALG09450945+0100  CZL10351035+0100  736                                                                                                 F16Y85                000265
3 AH 61910101J14FEB2115FEB211     7 CZL08300830+0100  ALG09400940+0100  AT7                                                                                                 Y66                   000266
3 AH 61910201J16FEB2130MAR21 2      CZL09050905+0100  ALG10151015+0100  AT7                                                                                                 Y66                   000267
3 AH 61910301J17FEB2131MAR21  3     CZL09200920+0100  ALG10301030+0100  AT7                                                                                                 Y66                   000268
3 AH 61910401J18FEB2129MAR211  4 6  CZL09300930+0100  ALG10401040+0100  AT7                                                                                                 Y66                   000269
3 AH 61910501J19FEB2126MAR21    5   CZL10201020+0100  ALG11101110+0100  736                                                                                                 F16Y85                000270
3 AH 61910601J21FEB2128MAR21      7 CZL11251125+0100  ALG12151215+0100  736                                                                                                 F16Y85                000271
3 AH 61920101J15FEB2115FEB211       ALG12301230+0100  CZL13201320+0100  73H                                                                                                 F16Y132               000272
3 AH 61920201J16FEB2130MAR21 2  5   ALG13501350+0100  CZL14401440+0100  736                                                                                                 F16Y85                000273
3 AH 61920301J20FEB2127MAR21     6  ALG15001500+0100  CZL15501550+0100  73H                                                                                                 F16Y132               000274
3 AH 61920401J22FEB2129MAR211       ALG14301430+0100  CZL15201520+0100  736                                                                                                 F16Y85                000275
3 AH 61930101J15FEB2115FEB211       CZL14201420+0100  ALG15101510+0100  73H                                                                                                 F16Y132               000276
3 AH 61930201J16FEB2130MAR21 2      CZL15401540+0100  ALG16401640+0100  736                                                                                                 F16Y85                000277
3 AH 61930301J19FEB2126MAR21    5   CZL15401540+0100  ALG16301630+0100  736                                                                                                 F16Y85                000278
3 AH 61930401J20FEB2127MAR21     6  CZL16501650+0100  ALG17401740+0100  73H                                                                                                 F16Y132               000279
3 AH 61930501J22FEB2129MAR211       CZL16201620+0100  ALG17101710+0100  736                                                                                                 F16Y85                000280
3 AH 61940101J14FEB2114FEB21      7 ALG13551355+0100  CZL15051505+0100  AT7                                                                                                 Y66                   000281
3 AH 61940201J17FEB2131MAR21  3     ALG15551555+0100  CZL17051705+0100  AT7                                                                                                 Y66                   000282
3 AH 61940301J18FEB2125MAR21   4    ALG14001400+0100  CZL15001500+0100  736                                                                                                 F16Y85                000283
3 AH 61940401J21FEB2128MAR21      7 ALG14051405+0100  CZL14551455+0100  736                                                                                                 F16Y85                000284
3 AH 61950101J14FEB2114FEB21      7 CZL15551555+0100  ALG17051705+0100  AT7                                                                                                 Y66                   000285
3 AH 61950201J17FEB2131MAR21  3     CZL17551755+0100  ALG19051905+0100  AT7                                                                                                 Y66                   000286
3 AH 61950301J18FEB2125MAR21   4    CZL16001600+0100  ALG17001700+0100  736                                                                                                 F16Y85                000287
3 AH 61950401J21FEB2128MAR21      7 CZL15551555+0100  ALG16451645+0100  736                                                                                                 F16Y85                000288
3 AH 62000101J14FEB2129MAR211  4567 ALG15301530+0100  GHA17001700+0100  AT7                                                                                                 Y66                   000289
3 AH 62000201J17FEB2131MAR21  3     ALG16151615+0100  GHA17451745+0100  AT7                                                                                                 Y66                   000290
3 AH 62010101J14FEB2121FEB2112 4567 GHA07000700+0100  ALG08300830+0100  AT7                                                                                                 Y66                   000291
3 AH 62010201J22FEB2129MAR211       GHA06000600+0100  ALG07300730+0100  AT7                                                                                                 Y66                   000292
3 AH 62010301J23FEB2101APR21 2 4567 GHA07000700+0100  ALG08300830+0100  AT7                                                                                                 Y66                   000293
3 AH 62160101J14FEB2128MAR21      7 ALG07150715+0100  OGX08550855+0100  AT7                                                                                                 Y66                   000294
3 AH 62160201J16FEB2130MAR21 2      ALG08000800+0100  OGX09400940+0100  AT7                                                                                                 Y66                   000295
3 AH 62160301J17FEB2131MAR21  3     ALG13201320+0100  OGX14351435+0100  736                                                                                                 F16Y85                000296
3 AH 62160401J18FEB2125MAR21   4    ALG12451245+0100  OGX14251425+0100  AT7                                                                                                 Y66                   000297
3 AH 62160501J19FEB2126MAR21    5   ALG11401140+0100  OGX13201320+0100  AT7                                                                                                 Y66                   000298
3 AH 62160601J20FEB2127MAR21     6  ALG11301130+0100  OGX13101310+0100  AT7                                                                                                 Y66                   000299
3 AH 62170101J14FEB2128MAR21      7 OGX09450945+0100  ALG11251125+0100  AT7                                                                                                 Y66                   000300
3 AH 62170201J16FEB2130MAR21 2      OGX15501550+0100  ALG17301730+0100  AT7                                                                                                 Y66                   000301
3 AH 62170301J17FEB2131MAR21  3     OGX15351535+0100  ALG16451645+0100  736                                                                                                 F16Y85                000302
3 AH 62170401J18FEB2125MAR21   4    OGX15151515+0100  ALG16551655+0100  AT7                                                                                                 Y66                   000303
3 AH 62170501J19FEB2126MAR21    5   OGX14101410+0100  ALG15501550+0100  AT7                                                                                                 Y66                   000304
3 AH 62170601J20FEB2127MAR21     6  OGX14001400+0100  ALG15401540+0100  AT7                                                                                                 Y66                   000305
3 AH 62180101J15FEB2129MAR211       ALG07000700+0100  OGX08400840+0100  AT7                                                                                                 Y66                   000306
3 AH 62190101J15FEB2129MAR211       OGX09300930+0100  ALG11101110+0100  AT7                                                                                                 Y66                   000307
3 AH 62220101J14FEB2114FEB21      7 ALG15501550+0100  HME17001700+0100  AT7                                                                                                 Y66                   000308
3 AH 62220201J15FEB2115FEB211       ALG15501550+0100  HME17001700+0100  736                                                                                                 F16Y85                000309
3 AH 62220301J17FEB2131MAR21  34567 ALG15501550+0100  HME17301730+0100  AT7                                                                                                 Y66                   000310
3 AH 62220401J22FEB2129MAR211       ALG15501550+0100  HME17001700+0100  AT7                                                                                                 Y66                   000311
3 AH 62230101J14FEB2114FEB21      7 HME07000700+0100  ALG08450845+0100  AT7                                                                                                 Y66                   000312
3 AH 62230201J15FEB2115FEB211       HME07000700+0100  ALG08150815+0100  AT7                                                                                                 Y66                   000313
3 AH 62230301J16FEB2116FEB21 2      HME07150715+0100  ALG08150815+0100  736                                                                                                 F16Y85                000314
3 AH 62230401J18FEB2101APR211  4567 HME07000700+0100  ALG08400840+0100  AT7                                                                                                 Y66                   000315
3 AH 62230501J23FEB2130MAR21 2      HME07000700+0100  ALG08400840+0100  AT7                                                                                                 Y66                   000316
3 AH 62240101J15FEB2115FEB211       ALG08000800+0100  HME09400940+0100  AT7                                                                                                 Y66                   000317
3 AH 62240102J15FEB2115FEB211       HME10301030+0100  IAM11501150+0100  AT7                                                                                                 Y66                   000318
3 AH 62250101J15FEB2115FEB211       IAM12401240+0100  HME14051405+0100  AT7                                                                                                 Y66                   000319
3 AH 62250102J15FEB2115FEB211       HME14551455+0100  ALG16401640+0100  AT7                                                                                                 Y66                   000320
3 AH 62260101J14FEB2128MAR21    5 7 ALG10201020+0100  HME12001200+0100  AT7                                                                                                 Y66                   000321
3 AH 62260201J17FEB2131MAR21  3     ALG11201120+0100  HME13001300+0100  AT7                                                                                                 Y66                   000322
3 AH 62260301J18FEB2125MAR21   4    ALG10401040+0100  HME11551155+0100  AT7                                                                                                 Y66                   000323
3 AH 62270101J14FEB2114FEB21      7 HME12501250+0100  ALG14351435+0100  AT7                                                                                                 Y66                   000324
3 AH 62270201J17FEB2131MAR21  3     HME13501350+0100  ALG15301530+0100  AT7                                                                                                 Y66                   000325
3 AH 62270301J18FEB2125MAR21   4    HME12451245+0100  ALG14001400+0100  AT7                                                                                                 Y66                   000326
3 AH 62270401J19FEB2128MAR21    5 7 HME12501250+0100  ALG14301430+0100  AT7                                                                                                 Y66                   000327
3 AH 62280101J20FEB2127MAR21     6  ALG11101110+0100  HME12501250+0100  AT7                                                                                                 Y66                   000328
3 AH 62290101J20FEB2127MAR21     6  HME13401340+0100  ALG15201520+0100  AT7                                                                                                 Y66                   000329
3 AH 62300101J15FEB2129MAR211       ALG10001000+0100  TMR12251225+0100  73H                                                                                                 F16Y132               000330
3 AH 62300201J18FEB2125MAR21   4    ALG11101110+0100  TMR13301330+0100  73H                                                                                                 F16Y132               000331
3 AH 62310101J15FEB2129MAR211       TMR13251325+0100  ALG15551555+0100  73H                                                                                                 F16Y132               000332
3 AH 62310201J18FEB2125MAR21   4    TMR14251425+0100  ALG17001700+0100  73H                                                                                                 F16Y132               000333
3 AH 62320101J14FEB2128MAR21      7 ALG08000800+0100  TMR10251025+0100  73H                                                                                                 F16Y132               000334
3 AH 62320102J14FEB2128MAR21      7 TMR11251125+0100  DJG12151215+0100  73H                                                                                                 F16Y132               000335
3 AH 62320103J14FEB2128MAR21      7 DJG13151315+0100  ALG15301530+0100  73H                                                                                                 F16Y132               000336
3 AH 62320201J19FEB2126MAR21    5   ALG07300730+0100  TMR09550955+0100  73H                                                                                                 F16Y86                000337
3 AH 62320202J19FEB2126MAR21    5   TMR10551055+0100  DJG11451145+0100  73H                                                                                                 F16Y86                000338
3 AH 62320203J19FEB2126MAR21    5   DJG12451245+0100  ALG15001500+0100  73H                                                                                                 F16Y86                000339
3 AH 62340101J18FEB2125MAR21   4    ORN08000800+0100  TMR10301030+0100  73H                                                                                                 F16Y132               000340
3 AH 62350101J18FEB2125MAR21   4    TMR11301130+0100  ORN13451345+0100  73H                                                                                                 F16Y132               000341
3 AH 62360101J16FEB2130MAR21 2      ALG08450845+0100  GHA09450945+0100  73H                                                                                                 F16Y132               000342
3 AH 62360102J16FEB2130MAR21 2      GHA10501050+0100  TMR12301230+0100  73H                                                                                                 F16Y132               000343
3 AH 62370101J16FEB2130MAR21 2      TMR13301330+0100  ALG16001600+0100  73H                                                                                                 F16Y132               000344
3 AH 62380101J20FEB2127MAR21     6  ALG09000900+0100  TMR11251125+0100  73H                                                                                                 F16Y132               000345
3 AH 62390101J20FEB2127MAR21     6  TMR12251225+0100  GHA14051405+0100  73H                                                                                                 F16Y132               000346
3 AH 62390102J20FEB2127MAR21     6  GHA15051505+0100  ALG16051605+0100  73H                                                                                                 F16Y132               000347
3 AH 62440101J16FEB2130MAR21 2      ALG09450945+0100  IAM12251225+0100  AT7                                                                                                 Y66                   000348
3 AH 62440201J19FEB2126MAR21    5   ALG12051205+0100  IAM13551355+0100  AT7                                                                                                 Y66                   000349
3 AH 62450101J16FEB2130MAR21 2      IAM13151315+0100  ALG16051605+0100  AT7                                                                                                 Y66                   000350
3 AH 62450201J19FEB2126MAR21    5   IAM14551455+0100  ALG16451645+0100  AT7                                                                                                 Y66                   000351
3 AH 62520101J14FEB2114FEB21      7 ALG11001100+0100  ELU12001200+0100  73H                                                                                                 F16Y132               000352
3 AH 62520201J16FEB2130MAR21 2      ALG09100910+0100  ELU10351035+0100  AT7                                                                                                 Y66                   000353
3 AH 62520301J17FEB2131MAR21  34    ALG07100710+0100  ELU08350835+0100  AT7                                                                                                 Y66                   000354
3 AH 62520401J19FEB2126MAR21    5   ALG13001300+0100  ELU14251425+0100  AT7                                                                                                 Y66                   000355
3 AH 62520501J20FEB2127MAR21     6  ALG09350935+0100  ELU11001100+0100  AT7                                                                                                 Y66                   000356
3 AH 62520601J21FEB2128MAR21      7 ALG11501150+0100  ELU13151315+0100  AT7                                                                                                 Y66                   000357
3 AH 62530101J14FEB2114FEB21      7 ELU13001300+0100  ALG14051405+0100  73H                                                                                                 F16Y132               000358
3 AH 62530201J16FEB2130MAR21 2      ELU11251125+0100  ALG12551255+0100  AT7                                                                                                 Y66                   000359
3 AH 62530301J17FEB2131MAR21  3     ELU09250925+0100  ALG10551055+0100  AT7                                                                                                 Y66                   000360
3 AH 62530401J18FEB2125MAR21   4    ELU15101510+0100  ALG16401640+0100  AT7                                                                                                 Y66                   000361
3 AH 62530501J19FEB2126MAR21    5   ELU15151515+0100  ALG16451645+0100  AT7                                                                                                 Y66                   000362
3 AH 62530601J20FEB2127MAR21     6  ELU11501150+0100  ALG13201320+0100  AT7                                                                                                 Y66                   000363
3 AH 62530701J21FEB2128MAR21      7 ELU14051405+0100  ALG15351535+0100  AT7                                                                                                 Y66                   000364
3 AH 62540101J18FEB2125MAR21   4    ORN12201220+0100  ELU14201420+0100  AT7                                                                                                 Y66                   000365
3 AH 62550101J18FEB2125MAR21   4    ELU09250925+0100  ORN11301130+0100  AT7                                                                                                 Y66                   000366
3 AH 62660101J14FEB2128MAR21      7 ALG09250925+0100  TGR10501050+0100  AT7                                                                                                 Y66                   000367
3 AH 62660201J15FEB2129MAR211       ALG11301130+0100  TGR12551255+0100  AT7                                                                                                 Y66                   000368
3 AH 62660301J18FEB2126MAR21   45   ALG09300930+0100  TGR10551055+0100  AT7                                                                                                 Y66                   000369
3 AH 62670101J14FEB2128MAR21      7 TGR11401140+0100  ALG13051305+0100  AT7                                                                                                 Y66                   000370
3 AH 62670201J15FEB2129MAR211       TGR13451345+0100  ALG15101510+0100  AT7                                                                                                 Y66                   000371
3 AH 62670301J18FEB2126MAR21   45   TGR11451145+0100  ALG13101310+0100  AT7                                                                                                 Y66                   000372
3 AH 62840101J16FEB2130MAR21 2      INZ15001500+0100  TMR16351635+0100  AT7                                                                                                 Y66                   000373
3 AH 62840201J17FEB2131MAR21  3     TMR07000700+0100  INF08150815+0100  AT7                                                                                                 Y66                   000374
3 AH 62850101J17FEB2131MAR21  3     INF09050905+0100  TMR10101010+0100  AT7                                                                                                 Y66                   000375
3 AH 62850102J17FEB2131MAR21  3     TMR11001100+0100  INZ12351235+0100  AT7                                                                                                 Y66                   000376
3 AH 62880101J17FEB2131MAR21  3     ALG09100910+0100  TMR11351135+0100  73H                                                                                                 F16Y132               000377
3 AH 62890101J17FEB2131MAR21  3     TMR12251225+0100  ALG14551455+0100  73H                                                                                                 F16Y132               000378
3 AH 62920101J17FEB2131MAR21  3     ALG07000700+0100  DJG09150915+0100  73H                                                                                                 F16Y132               000379
3 AH 62920102J17FEB2131MAR21  3     DJG10151015+0100  TMR11051105+0100  73H                                                                                                 F16Y132               000380
3 AH 62920103J17FEB2131MAR21  3     TMR12051205+0100  ALG14351435+0100  73H                                                                                                 F16Y132               000381
3 AH 62920201J20FEB2127MAR21     6  ALG09050905+0100  DJG11201120+0100  736                                                                                                 F16Y86                000382
3 AH 62920202J20FEB2127MAR21     6  DJG12201220+0100  TMR13101310+0100  736                                                                                                 F16Y86                000383
3 AH 62920203J20FEB2127MAR21     6  TMR14101410+0100  ALG16401640+0100  736                                                                                                 F16Y86                000384
3 AH 62960101J16FEB2130MAR21 2      ALG11151115+0100  INZ14101410+0100  AT7                                                                                                 Y66                   000385
3 AH 62970101J17FEB2131MAR21  3     INZ13251325+0100  ALG16151615+0100  AT7                                                                                                 Y66                   000386
3 AH 63040101J15FEB2129MAR211       ALG08150815+0100  OGX09250925+0100  736                                                                                                 F16Y86                000387
3 AH 63040102J15FEB2129MAR211       OGX10251025+0100  VVZ11351135+0100  736                                                                                                 F16Y86                000388
3 AH 63050101J15FEB2129MAR211       VVZ12351235+0100  OGX13451345+0100  736                                                                                                 F16Y86                000389
3 AH 63050102J15FEB2129MAR211       OGX14451445+0100  ALG15551555+0100  736                                                                                                 F16Y86                000390
3 AH 63100101J25FEB2125MAR21   4    ALG07000700+0100  OGX08100810+0100  736                                                                                                 F16Y85                000391
3 AH 63100102J25FEB2125MAR21   4    OGX09100910+0100  DJG10401040+0100  736                                                                                                 F16Y85                000392
3 AH 63110101J25FEB2125MAR21   4    DJG11401140+0100  ALG13551355+0100  736                                                                                                 F16Y85                000393
3 AH 63120101J18FEB2118FEB21   4    ALG07000700+0100  DJG09150915+0100  736                                                                                                 F16Y86                000394
3 AH 63130101J18FEB2118FEB21   4    DJG10151015+0100  OGX11451145+0100  736                                                                                                 F16Y86                000395
3 AH 63130102J18FEB2118FEB21   4    OGX12451245+0100  ALG13551355+0100  736                                                                                                 F16Y86                000396
3 AH 63180101J19FEB2126MAR21    5   ALG09000900+0100  ELG10251025+0100  AT7                                                                                                 Y66                   000397
3 AH 63190101J19FEB2126MAR21    5   ELG11151115+0100  OGX12401240+0100  AT7                                                                                                 Y66                   000398
3 AH 63190102J19FEB2126MAR21    5   OGX13301330+0100  ALG14501450+0100  AT7                                                                                                 Y66                   000399
3 AH 63340101J19FEB2126MAR21    5   ALG07000700+0100  VVZ08550855+0100  736                                                                                                 F16Y86                000400
3 AH 63340102J19FEB2126MAR21    5   VVZ09550955+0100  TMR11001100+0100  736                                                                                                 F16Y86                000401
3 AH 63350101J19FEB2126MAR21    5   TMR12001200+0100  VVZ13001300+0100  736                                                                                                 F16Y86                000402
3 AH 63350102J19FEB2126MAR21    5   VVZ14001400+0100  ALG16001600+0100  736                                                                                                 F16Y86                000403
3 AH 63380101J15FEB2115FEB211       CZL14101410+0100  OGX15101510+0100  73H                                                                                                 F16Y132               000404
3 AH 63380201J22FEB2129MAR211       CZL15101510+0100  OGX16101610+0100  73H                                                                                                 F16Y132               000405
3 AH 63390101J15FEB2115FEB211       OGX16101610+0100  CZL17101710+0100  73H                                                                                                 F16Y132               000406
3 AH 63390201J22FEB2129MAR211       OGX17101710+0100  CZL18101810+0100  73H                                                                                                 F16Y132               000407
3 AH 63400101J15FEB2118FEB211  4    CZL07000700+0100  TIN09550955+0100  73H                                                                                                 F16Y132               000408
3 AH 63400201J22FEB2129MAR211       CZL08000800+0100  TIN10551055+0100  73H                                                                                                 F16Y132               000409
3 AH 63400301J25FEB2125MAR21   4    CZL07000700+0100  TIN09550955+0100  73H                                                                                                 F16Y132               000410
3 AH 63410101J15FEB2115FEB211       TIN10501050+0100  CZL13101310+0100  73H                                                                                                 F16Y132               000411
3 AH 63410201J18FEB2118FEB21   4    TIN10501050+0100  CZL13151315+0100  73H                                                                                                 F16Y132               000412
3 AH 63410301J22FEB2129MAR211       TIN11501150+0100  CZL14101410+0100  73H                                                                                                 F16Y132               000413
3 AH 63410401J25FEB2125MAR21   4    TIN10501050+0100  CZL13151315+0100  73H                                                                                                 F16Y132               000414
3 AH 63420101J20FEB2127MAR21     6  ALG07500750+0100  OGX09000900+0100  73H                                                                                                 F16Y132               000415
3 AH 63420102J20FEB2127MAR21     6  OGX10001000+0100  TMR11501150+0100  73H                                                                                                 F16Y132               000416
3 AH 63430101J20FEB2127MAR21     6  TMR12501250+0100  OGX14301430+0100  73H                                                                                                 F16Y132               000417
3 AH 63430102J20FEB2127MAR21     6  OGX15301530+0100  ALG16401640+0100  73H                                                                                                 F16Y132               000418
3 AH 63440101J19FEB2119FEB21    5   CZL12251225+0100  HME13401340+0100  73H                                                                                                 F16Y132               000419
3 AH 63440201J26FEB2126MAR21    5   CZL12251225+0100  HME13401340+0100  73H                                                                                                 F16Y132               000420
3 AH 63450101J19FEB2119FEB21    5   HME14401440+0100  CZL15501550+0100  73H                                                                                                 F16Y132               000421
3 AH 63450201J26FEB2126MAR21    5   HME14401440+0100  CZL15501550+0100  73H                                                                                                 F16Y132               000422
3 AH 63460101J20FEB2120FEB21     6  CZL10551055+0100  CBH12251225+0100  73H                                                                                                 F16Y132               000423
3 AH 63460201J27FEB2127MAR21     6  CZL10551055+0100  CBH12251225+0100  73H                                                                                                 F16Y132               000424
3 AH 63470101J20FEB2120FEB21     6  CBH13251325+0100  CZL15001500+0100  73H                                                                                                 F16Y132               000425
3 AH 63470201J27FEB2127MAR21     6  CBH13251325+0100  CZL15001500+0100  73H                                                                                                 F16Y132               000426
3 AH 63480101J20FEB2127MAR21     6  CZL11051105+0100  OGX12251225+0100  AT7                                                                                                 Y66                   000427
3 AH 63490101J20FEB2127MAR21     6  OGX13151315+0100  ALG14551455+0100  AT7                                                                                                 Y66                   000428
3 AH 63500101J17FEB2117FEB21  3     CZL10201020+0100  GHA11251125+0100  73H                                                                                                 F16Y86                000429
3 AH 63500201J24FEB2131MAR21  3     CZL10201020+0100  GHA11251125+0100  73H                                                                                                 F16Y86                000430
3 AH 63510101J17FEB2117FEB21  3     GHA12251225+0100  CZL13401340+0100  73H                                                                                                 F16Y86                000431
3 AH 63510201J24FEB2131MAR21  3     GHA12251225+0100  CZL13401340+0100  73H                                                                                                 F16Y86                000432
3 AH 63520101J18FEB2118FEB21   4    CZL14151415+0100  TMR16151615+0100  73H                                                                                                 F16Y132               000433
3 AH 63520201J25FEB2125MAR21   4    CZL14151415+0100  TMR16151615+0100  73H                                                                                                 F16Y132               000434
3 AH 63530101J18FEB2118FEB21   4    TMR17151715+0100  CZL19151915+0100  73H                                                                                                 F16Y132               000435
3 AH 63530201J25FEB2125MAR21   4    TMR17151715+0100  CZL19151915+0100  73H                                                                                                 F16Y132               000436
3 AH 63720101J22FEB2129MAR211       ALG07000700+0100  HME08400840+0100  AT7                                                                                                 Y66                   000437
3 AH 63720102J22FEB2129MAR211       HME09300930+0100  INZ11151115+0100  AT7                                                                                                 Y66                   000438
3 AH 63730101J22FEB2129MAR211       INZ12051205+0100  HME13551355+0100  AT7                                                                                                 Y66                   000439
3 AH 63730102J22FEB2129MAR211       HME14451445+0100  ALG16301630+0100  AT7                                                                                                 Y66                   000440
3 AH 63780101J17FEB2131MAR21  3     ORN08000800+0100  TMX10251025+0100  AT7                                                                                                 Y66                   000441
3 AH 63780201J19FEB2119FEB21    5   ORN07000700+0100  TMX09250925+0100  AT7                                                                                                 Y66                   000442
3 AH 63780301J26FEB2126MAR21    5   ORN07000700+0100  TMX09250925+0100  AT7                                                                                                 Y66                   000443
3 AH 63790101J17FEB2131MAR21  3     TMX11151115+0100  ORN13401340+0100  AT7                                                                                                 Y66                   000444
3 AH 63790201J19FEB2119FEB21    5   TMX10151015+0100  ORN12401240+0100  AT7                                                                                                 Y66                   000445
3 AH 63790301J26FEB2126MAR21    5   TMX10151015+0100  ORN12401240+0100  AT7                                                                                                 Y66                   000446
3 AH 63800101J20FEB2120FEB21     6  ORN13201320+0100  GHA14501450+0100  AT7                                                                                                 Y66                   000447
3 AH 63800201J27FEB2127MAR21     6  ORN13201320+0100  GHA14501450+0100  AT7                                                                                                 Y66                   000448
3 AH 63810101J20FEB2120FEB21     6  GHA15401540+0100  ORN17101710+0100  AT7                                                                                                 Y66                   000449
3 AH 63810201J27FEB2127MAR21     6  GHA15401540+0100  ORN17101710+0100  AT7                                                                                                 Y66                   000450
3 AH 63820101J17FEB2131MAR21  3     HME17251725+0100  ORN19301930+0100  AT7                                                                                                 Y66                   000451
3 AH 63820201J19FEB2119FEB21    5   HME16251625+0100  ORN18451845+0100  AT7                                                                                                 Y66                   000452
3 AH 63820301J26FEB2126MAR21    5   HME16251625+0100  ORN18451845+0100  AT7                                                                                                 Y66                   000453
3 AH 63830101J17FEB2131MAR21  3     ORN14301430+0100  HME16351635+0100  AT7                                                                                                 Y66                   000454
3 AH 63830201J19FEB2119FEB21    5   ORN13301330+0100  HME15351535+0100  AT7                                                                                                 Y66                   000455
3 AH 63830301J26FEB2126MAR21    5   ORN13301330+0100  HME15351535+0100  AT7                                                                                                 Y66                   000456
3 AH 63840101J14FEB2128MAR21      7 ORN11201120+0100  AZR13451345+0100  AT7                                                                                                 Y66                   000457
3 AH 63840201J15FEB2115FEB211       ORN09200920+0100  AZR10451045+0100  73H                                                                                                 F16Y132               000458
3 AH 63840301J16FEB2116FEB21 2      ORN11051105+0100  AZR12301230+0100  73H                                                                                                 F16Y132               000459
3 AH 63840401J18FEB2125MAR21   4    ORN14451445+0100  AZR16101610+0100  73H                                                                                                 F16Y132               000460
3 AH 63840501J22FEB2129MAR211       ORN09200920+0100  AZR10451045+0100  73H                                                                                                 F16Y132               000461
3 AH 63840601J23FEB2130MAR21 2      ORN11051105+0100  AZR12301230+0100  73H                                                                                                 F16Y132               000462
3 AH 63850101J14FEB2128MAR21      7 AZR14351435+0100  ORN17001700+0100  AT7                                                                                                 Y66                   000463
3 AH 63850201J15FEB2115FEB211       AZR11451145+0100  ORN13151315+0100  73H                                                                                                 F16Y132               000464
3 AH 63850301J16FEB2116FEB21 2      AZR13301330+0100  ORN15001500+0100  73H                                                                                                 F16Y132               000465
3 AH 63850401J18FEB2125MAR21   4    AZR17101710+0100  ORN18401840+0100  73H                                                                                                 F16Y132               000466
3 AH 63850501J22FEB2129MAR211       AZR11451145+0100  ORN13151315+0100  73H                                                                                                 F16Y132               000467
3 AH 63850601J23FEB2130MAR21 2      AZR13301330+0100  ORN15001500+0100  73H                                                                                                 F16Y132               000468
3 AH 63860101J16FEB2116FEB21 2      CZL10101010+0100  AZR11551155+0100  73H                                                                                                 F16Y132               000469
3 AH 63860201J19FEB2119FEB21    5   CZL07000700+0100  AZR08450845+0100  73H                                                                                                 F16Y132               000470
3 AH 63860301J23FEB2130MAR21 2      CZL10101010+0100  AZR11551155+0100  73H                                                                                                 F16Y132               000471
3 AH 63860401J26FEB2126MAR21    5   CZL07000700+0100  AZR08450845+0100  73H                                                                                                 F16Y132               000472
3 AH 63870101J16FEB2116FEB21 2      AZR12551255+0100  CZL14351435+0100  73H                                                                                                 F16Y132               000473
3 AH 63870201J19FEB2119FEB21    5   AZR09450945+0100  CZL11251125+0100  73H                                                                                                 F16Y132               000474
3 AH 63870301J23FEB2130MAR21 2      AZR12551255+0100  CZL14351435+0100  73H                                                                                                 F16Y132               000475
3 AH 63870401J26FEB2126MAR21    5   AZR09450945+0100  CZL11251125+0100  73H                                                                                                 F16Y132               000476
3 AH 63880101J15FEB2115FEB211       ORN11401140+0100  CBH14451445+0100  AT7                                                                                                 Y66                   000477
3 AH 63880201J17FEB2117FEB21  3     ORN10451045+0100  CBH12451245+0100  AT7                                                                                                 Y66                   000478
3 AH 63880301J20FEB2120FEB21     6  ORN07000700+0100  CBH09000900+0100  AT7                                                                                                 Y66                   000479
3 AH 63880401J22FEB2129MAR211       ORN12301230+0100  CBH14101410+0100  73H                                                                                                 F16Y132               000480
3 AH 63880501J24FEB2124FEB21  3     ORN10451045+0100  CBH12451245+0100  AT7                                                                                                 Y66                   000481
3 AH 63880601J27FEB2127MAR21     6  ORN07000700+0100  CBH09000900+0100  AT7                                                                                                 Y66                   000482
3 AH 63880701J03MAR2103MAR21  3     ORN10451045+0100  CBH12451245+0100  AT7                                                                                                 Y66                   000483
3 AH 63880801J10MAR2131MAR21  3     ORN10451045+0100  CBH12451245+0100  AT7                                                                                                 Y66                   000484
3 AH 63890101J15FEB2129MAR211       CBH11351135+0100  ORN12251225+0100  73H                                                                                                 F16Y132               000485
3 AH 63890201J17FEB2117FEB21  3     CBH13351335+0100  ORN15351535+0100  AT7                                                                                                 Y66                   000486
3 AH 63890301J20FEB2120FEB21     6  CBH09400940+0100  ORN11401140+0100  AT7                                                                                                 Y66                   000487
3 AH 63890401J24FEB2124FEB21  3     CBH13351335+0100  ORN15351535+0100  AT7                                                                                                 Y66                   000488
3 AH 63890501J27FEB2127MAR21     6  CBH09400940+0100  ORN11401140+0100  AT7                                                                                                 Y66                   000489
