1AIRLINE STANDARD SCHEDULE DATA SET                                                                                                                                                            001000001
00000000000000000000000000000000000000000000000000000000000000000000000000000000000000000000000000000000000000000000000000000000000000000000000000000000000000000000000000000000000000000000000000000000
00000000000000000000000000000000000000000000000000000000000000000000000000000000000000000000000000000000000000000000000000000000000000000000000000000000000000000000000000000000000000000000000000000000
00000000000000000000000000000000000000000000000000000000000000000000000000000000000000000000000000000000000000000000000000000000000000000000000000000000000000000000000000000000000000000000000000000000
00000000000000000000000000000000000000000000000000000000000000000000000000000000000000000000000000000000000000000000000000000000000000000000000000000000000000000000000000000000000000000000000000000000
2UAH          19FEB2118FEB2219FEB21 AIR ALGERIE                        C AIMS                                                                                                                 1300000002
00000000000000000000000000000000000000000000000000000000000000000000000000000000000000000000000000000000000000000000000000000000000000000000000000000000000000000000000000000000000000000000000000000000
00000000000000000000000000000000000000000000000000000000000000000000000000000000000000000000000000000000000000000000000000000000000000000000000000000000000000000000000000000000000000000000000000000000
00000000000000000000000000000000000000000000000000000000000000000000000000000000000000000000000000000000000000000000000000000000000000000000000000000000000000000000000000000000000000000000000000000000
00000000000000000000000000000000000000000000000000000000000000000000000000000000000000000000000000000000000000000000000000000000000000000000000000000000000000000000000000000000000000000000000000000000
3 AH 10010101J19FEB2128FEB211234567 CDG13401340+0100  ALG15451545+0100  332                                                                                                 Y302                  000003
3 AH 10030101J19FEB2128FEB211234567 CDG11101110+0100  ALG13151315+0100  332                                                                                                 Y302                  000004
3 AH 12150101J19FEB2120FEB21    56  CDG16401640+0100  ALG18451845+0100  332                                                                                                 Y302                  000005
3 AH 12150201J21FEB2128FEB21 2 4567 CDG16401640+0100  ALG18451845+0100  332                                                                                                 F18C40Y211            000006
3 AH 12150301J22FEB2124FEB211 3     CDG15251525+0100  ALG17301730+0100  332                                                                                                 F18C40Y211            000007
3 AH 30600101J24FEB2131MAR21  3     ALG10001000+0100  CTU21552155+0800  332                                                                                                 F18C14Y219            000008
3 AH 30600201J25FEB2101APR21   4    CTU17101710+0800  PEK20102010+0800  332                                                                                                 F18C14Y219            000009
3 AH 30600301J01APR2130DEC21   4  7 ALG12001200+0100  PEK23102310+0800  332                                                                                                 F18C14Y219            000010
3 AH 30610101J25FEB2101APR21   4    PEK21402140+0800  ALG10401040+0100  332                                                                                                 F18C14Y219            000011
3 AH 30610201J02APR2131DEC211   5   PEK00500050+0800  ALG13201320+0100  332                                                                                                 F18C14Y219            000012
3 AH 60000101J25FEB2125MAR21   4    ALG08500850+0100  AAE09500950+0100  73H                                                                                                 F16Y132               000013
3 AH 60010101J25FEB2125MAR21   4    AAE16301630+0100  ALG17301730+0100  73H                                                                                                 F16Y132               000014
3 AH 60060101J19FEB2130MAR2112  5 7 ALG18001800+0100  AAE19001900+0100  73H                                                                                                 F16Y132               000015
3 AH 60060201J20FEB2127MAR21   4 6  ALG18301830+0100  AAE19301930+0100  73H                                                                                                 F16Y132               000016
3 AH 60060301J24FEB2131MAR21  3     ALG18151815+0100  AAE19151915+0100  73H                                                                                                 F16Y132               000017
3 AH 60070101J19FEB2128FEB21    5 7 AAE07450745+0100  ALG08450845+0100  73H                                                                                                 F16Y132               000018
3 AH 60070201J20FEB2103MAR21123  6  AAE07150715+0100  ALG08150815+0100  73H                                                                                                 F16Y132               000019
3 AH 60070301J25FEB2101APR21   4    AAE06500650+0100  ALG07500750+0100  73H                                                                                                 F16Y132               000020
3 AH 60070401J05MAR2131MAR21123 567 AAE07150715+0100  ALG08150815+0100  73H                                                                                                 F16Y132               000021
3 AH 60260101J19FEB2128FEB21 2345 7 ALG18151815+0100  CZL19051905+0100  73H                                                                                                 F16Y132               000022
3 AH 60260201J20FEB2127MAR21     6  ALG18401840+0100  CZL19301930+0100  73H                                                                                                 F16Y132               000023
3 AH 60260301J22FEB2122FEB211       ALG18201820+0100  CZL19301930+0100  73H                                                                                                 F16Y132               000024
3 AH 60260401J01MAR2131MAR2112345 7 ALG18151815+0100  CZL19051905+0100  73H                                                                                                 F16Y132               000025
3 AH 60270101J19FEB2127FEB21  3 56  CZL07200720+0100  ALG08100810+0100  73H                                                                                                 F16Y132               000026
3 AH 60270201J21FEB2128FEB21      7 CZL07450745+0100  ALG08350835+0100  73H                                                                                                 F16Y132               000027
3 AH 60270301J22FEB2122FEB211       CZL07400740+0100  ALG08300830+0100  73H                                                                                                 F16Y132               000028
3 AH 60270401J23FEB2123FEB21 2      CZL07350735+0100  ALG08250825+0100  73H                                                                                                 F16Y132               000029
3 AH 60270501J25FEB2125FEB21   4    CZL07150715+0100  ALG08150815+0100  73H                                                                                                 F16Y132               000030
3 AH 60270601J01MAR2131MAR211234567 CZL07200720+0100  ALG08100810+0100  73H                                                                                                 F16Y132               000031
3 AH 60270701J01APR2101APR21   4    CZL07250725+0100  ALG08150815+0100  73H                                                                                                 F16Y132               000032
3 AH 60280101J20FEB2127MAR21     6  ALG09100910+0100  CZL10151015+0100  AT7                                                                                                 Y66                   000033
3 AH 60320101J19FEB2129MAR211   5   ALG08300830+0100  TEE09450945+0100  AT7                                                                                                 Y66                   000034
3 AH 60320201J21FEB2128MAR21      7 ALG12151215+0100  TEE13301330+0100  AT7                                                                                                 Y66                   000035
3 AH 60320301J24FEB2131MAR21  3     ALG11451145+0100  TEE13001300+0100  AT7                                                                                                 Y66                   000036
3 AH 60330101J19FEB2129MAR211   5   TEE10351035+0100  ALG12101210+0100  AT7                                                                                                 Y66                   000037
3 AH 60330201J21FEB2128MAR21      7 TEE14201420+0100  ALG15551555+0100  AT7                                                                                                 Y66                   000038
3 AH 60330301J24FEB2131MAR21  3     TEE13501350+0100  ALG15251525+0100  AT7                                                                                                 Y66                   000039
3 AH 60380101J19FEB2126MAR21    5   ALG13401340+0100  BLJ14301430+0100  736                                                                                                 F16Y85                000040
3 AH 60380201J21FEB2128MAR21      7 ALG07300730+0100  BLJ08450845+0100  AT7                                                                                                 F16Y86                000041
3 AH 60390101J19FEB2126MAR21    5   BLJ15301530+0100  ALG16201620+0100  736                                                                                                 F16Y85                000042
3 AH 60390201J21FEB2128MAR21      7 BLJ09350935+0100  ALG10501050+0100  AT7                                                                                                 F16Y86                000043
3 AH 60400101J22FEB2122FEB211       ALG14151415+0100  BSK15151515+0100  AT7                                                                                                 Y66                   000044
3 AH 60400201J24FEB2131MAR21  3     ALG10001000+0100  BSK10501050+0100  736                                                                                                 F16Y85                000045
3 AH 60400301J25FEB2125MAR21   4    ALG09450945+0100  BSK10351035+0100  736                                                                                                 F16Y85                000046
3 AH 60400401J01MAR2129MAR211       ALG11301130+0100  BSK12301230+0100  AT7                                                                                                 Y66                   000047
3 AH 60410101J22FEB2122FEB211       BSK16051605+0100  ALG17051705+0100  AT7                                                                                                 Y66                   000048
3 AH 60410201J24FEB2131MAR21  3     BSK11501150+0100  ALG12401240+0100  736                                                                                                 F16Y85                000049
3 AH 60410301J25FEB2125MAR21   4    BSK11351135+0100  ALG12251225+0100  736                                                                                                 F16Y85                000050
3 AH 60410401J01MAR2129MAR211       BSK13201320+0100  ALG14201420+0100  AT7                                                                                                 Y66                   000051
3 AH 60420101J20FEB2127MAR21     6  ALG09500950+0100  BSK10401040+0100  736                                                                                                 F16Y85                000052
3 AH 60420201J21FEB2128MAR21      7 ALG13401340+0100  BSK14301430+0100  736                                                                                                 F16Y85                000053
3 AH 60430101J20FEB2127MAR21     6  BSK11401140+0100  ALG12301230+0100  736                                                                                                 F16Y85                000054
3 AH 60430201J21FEB2128MAR21      7 BSK15301530+0100  ALG16201620+0100  736                                                                                                 F16Y85                000055
3 AH 60500101J23FEB2130MAR21 2      ALG10001000+0100  BJA10301030+0100  736                                                                                                 F16Y85                000056
3 AH 60510101J23FEB2130MAR21 2      BJA11301130+0100  ALG12001200+0100  736                                                                                                 F16Y85                000057
3 AH 60520101J25FEB2125FEB21   4    ALG14501450+0100  BJA15351535+0100  AT7                                                                                                 Y66                   000058
3 AH 60520201J04MAR2125MAR21   4    ALG12201220+0100  BJA13051305+0100  AT7                                                                                                 Y66                   000059
3 AH 60530101J25FEB2125FEB21   4    BJA16251625+0100  ALG17101710+0100  AT7                                                                                                 Y66                   000060
3 AH 60530201J04MAR2125MAR21   4    BJA13551355+0100  ALG14401440+0100  AT7                                                                                                 Y66                   000061
3 AH 60560101J20FEB2127FEB21     6  ALG14001400+0100  GJL14501450+0100  AT7                                                                                                 Y66                   000062
3 AH 60560201J23FEB2130MAR21 2      ALG09300930+0100  GJL10201020+0100  736                                                                                                 F16Y85                000063
3 AH 60560301J25FEB2125FEB21   4    ALG14201420+0100  GJL15101510+0100  AT7                                                                                                 Y66                   000064
3 AH 60560401J04MAR2125MAR21   4    ALG09250925+0100  GJL10151015+0100  AT7                                                                                                 Y66                   000065
3 AH 60560501J06MAR2127MAR21     6  ALG13501350+0100  GJL14401440+0100  AT7                                                                                                 Y66                   000066
3 AH 60570101J20FEB2127FEB21     6  GJL15501550+0100  ALG16401640+0100  AT7                                                                                                 Y66                   000067
3 AH 60570201J23FEB2130MAR21 2      GJL11201120+0100  ALG12101210+0100  736                                                                                                 F16Y85                000068
3 AH 60570301J25FEB2125FEB21   4    GJL16001600+0100  ALG16501650+0100  AT7                                                                                                 Y66                   000069
3 AH 60570401J04MAR2125MAR21   4    GJL11051105+0100  ALG11551155+0100  AT7                                                                                                 Y66                   000070
3 AH 60570501J06MAR2127MAR21     6  GJL15301530+0100  ALG16201620+0100  AT7                                                                                                 Y66                   000071
3 AH 60580101J19FEB2126MAR21    5   ALG10001000+0100  GJL10501050+0100  736                                                                                                 F16Y85                000072
3 AH 60580201J22FEB2129MAR211       ALG09450945+0100  GJL10351035+0100  736                                                                                                 F16Y85                000073
3 AH 60580301J24FEB2131MAR21  3     ALG09500950+0100  GJL10401040+0100  736                                                                                                 F16Y85                000074
3 AH 60590101J19FEB2126MAR21    5   GJL11501150+0100  ALG12401240+0100  736                                                                                                 F16Y85                000075
3 AH 60590201J22FEB2129MAR211       GJL11351135+0100  ALG12251225+0100  736                                                                                                 F16Y85                000076
3 AH 60590301J24FEB2131MAR21  3     GJL11401140+0100  ALG12301230+0100  736                                                                                                 F16Y85                000077
3 AH 60700101J20FEB2127MAR21     6  ALG09400940+0100  LOO10501050+0100  AT7                                                                                                 Y66                   000078
3 AH 60700201J21FEB2128MAR21      7 ALG11301130+0100  LOO12401240+0100  AT7                                                                                                 Y66                   000079
3 AH 60700301J23FEB2130MAR21 2      ALG09500950+0100  LOO11001100+0100  AT7                                                                                                 Y66                   000080
3 AH 60700401J25FEB2125MAR21   4    ALG11451145+0100  LOO12551255+0100  AT7                                                                                                 Y66                   000081
3 AH 60710101J20FEB2127MAR21     6  LOO11401140+0100  ALG12451245+0100  AT7                                                                                                 Y66                   000082
3 AH 60710201J21FEB2128MAR21      7 LOO13301330+0100  ALG14351435+0100  AT7                                                                                                 Y66                   000083
3 AH 60710301J23FEB2130MAR21 2      LOO11501150+0100  ALG12551255+0100  AT7                                                                                                 Y66                   000084
3 AH 60710401J25FEB2125MAR21   4    LOO13451345+0100  ALG14501450+0100  AT7                                                                                                 Y66                   000085
3 AH 61000101J22FEB2122FEB211       ALG10301030+0100  ORN11301130+0100  73H                                                                                                 F16Y132               000086
3 AH 61000201J24FEB2124FEB21  3     ALG06000600+0100  ORN07150715+0100  AT7                                                                                                 Y66                   000087
3 AH 61000301J01MAR2129MAR211       ALG10001000+0100  ORN11001100+0100  73H                                                                                                 F16Y132               000088
3 AH 61000401J03MAR2131MAR21  3     ALG07000700+0100  ORN08150815+0100  AT7                                                                                                 Y66                   000089
3 AH 61030101J24FEB2124FEB21  3     ORN16251625+0100  ALG17401740+0100  AT7                                                                                                 Y66                   000090
3 AH 61030201J03MAR2103MAR21  3     ORN16151615+0100  ALG17301730+0100  AT7                                                                                                 Y66                   000091
3 AH 61030301J10MAR2131MAR21  3     ORN16151615+0100  ALG17301730+0100  AT7                                                                                                 Y66                   000092
3 AH 61060101J19FEB2101MAR21123 56  ALG18301830+0100  ORN19301930+0100  73H                                                                                                 F16Y132               000093
3 AH 61060201J21FEB2128FEB21      7 ALG18451845+0100  ORN19451945+0100  73H                                                                                                 F16Y132               000094
3 AH 61060301J25FEB2125FEB21   4    ALG18001800+0100  ORN19001900+0100  73H                                                                                                 F16Y132               000095
3 AH 61060401J02MAR2131MAR21 23 5 7 ALG18451845+0100  ORN19451945+0100  73H                                                                                                 F16Y132               000096
3 AH 61060501J04MAR2129MAR211  4 6  ALG18301830+0100  ORN19301930+0100  73H                                                                                                 F16Y132               000097
3 AH 61070101J19FEB2119FEB21    5   ORN06300630+0100  ALG07300730+0100  73H                                                                                                 F16Y132               000098
3 AH 61070201J20FEB2120FEB21     6  ORN07450745+0100  ALG08450845+0100  73H                                                                                                 F16Y132               000099
3 AH 61070301J21FEB2128FEB21      7 ORN06450645+0100  ALG07450745+0100  73H                                                                                                 F16Y132               000100
3 AH 61070401J22FEB2127FEB211 3  6  ORN07450745+0100  ALG08450845+0100  73H                                                                                                 F16Y132               000101
3 AH 61070501J23FEB2123FEB21 2      ORN07200720+0100  ALG08200820+0100  73H                                                                                                 F16Y132               000102
3 AH 61070601J25FEB2103MAR211234    ORN07000700+0100  ALG08000800+0100  73H                                                                                                 F16Y132               000103
3 AH 61070701J26FEB2105MAR21    5   ORN06300630+0100  ALG07300730+0100  73H                                                                                                 F16Y132               000104
3 AH 61070801J04MAR2125MAR21   4    ORN06450645+0100  ALG07450745+0100  73H                                                                                                 F16Y132               000105
3 AH 61070901J06MAR2131MAR21123  6  ORN07000700+0100  ALG08000800+0100  73H                                                                                                 F16Y132               000106
3 AH 61071001J07MAR2128MAR21    5 7 ORN06300630+0100  ALG07300730+0100  73H                                                                                                 F16Y132               000107
3 AH 61071101J01APR2101APR21   4    ORN07000700+0100  ALG08000800+0100  73H                                                                                                 F16Y132               000108
3 AH 61110101J22FEB2129MAR211       ORN13251325+0100  ALG14251425+0100  73H                                                                                                 F16Y132               000109
3 AH 61180101J19FEB2126MAR21    5   ALG09300930+0100  TLM10301030+0100  736                                                                                                 F16Y85                000110
3 AH 61190101J19FEB2126MAR21    5   TLM11301130+0100  ALG12301230+0100  736                                                                                                 F16Y85                000111
3 AH 61200101J22FEB2129MAR211       ALG13001300+0100  TLM14001400+0100  73H                                                                                                 F16Y132               000112
3 AH 61210101J22FEB2129MAR211       TLM15001500+0100  ALG16001600+0100  73H                                                                                                 F16Y132               000113
3 AH 61240101J21FEB2128MAR21      7 ALG11501150+0100  TID12401240+0100  AT7                                                                                                 Y66                   000114
3 AH 61240201J24FEB2131MAR21  3     ALG10401040+0100  TID11301130+0100  AT7                                                                                                 Y66                   000115
3 AH 61250101J21FEB2128MAR21      7 TID13301330+0100  ALG14201420+0100  AT7                                                                                                 Y66                   000116
3 AH 61250201J24FEB2131MAR21  3     TID12201220+0100  ALG13101310+0100  AT7                                                                                                 Y66                   000117
3 AH 61260101J24FEB2124FEB21  3     ORN07000700+0100  EBH08000800+0100  AT7                                                                                                 Y66                   000118
3 AH 61260201J03MAR2103MAR21  3     ORN06000600+0100  EBH07000700+0100  AT7                                                                                                 Y66                   000119
3 AH 61260301J10MAR2131MAR21  3     ORN06000600+0100  EBH07000700+0100  AT7                                                                                                 Y66                   000120
3 AH 61270101J24FEB2124FEB21  3     EBH08500850+0100  ORN09550955+0100  AT7                                                                                                 Y66                   000121
3 AH 61270201J03MAR2103MAR21  3     EBH07500750+0100  ORN08550855+0100  AT7                                                                                                 Y66                   000122
3 AH 61270301J10MAR2131MAR21  3     EBH07500750+0100  ORN08550855+0100  AT7                                                                                                 Y66                   000123
3 AH 61280101J21FEB2128MAR21      7 ORN07000700+0100  MZW08200820+0100  AT7                                                                                                 Y66                   000124
3 AH 61290101J21FEB2128MAR21      7 MZW09100910+0100  ORN10351035+0100  AT7                                                                                                 Y66                   000125
3 AH 61320101J20FEB2127MAR21     6  ALG09000900+0100  CBH11151115+0100  AT7                                                                                                 Y66                   000126
3 AH 61320201J22FEB2129MAR211       ALG09000900+0100  CBH10351035+0100  73H                                                                                                 F16Y132               000127
3 AH 61320301J25FEB2125MAR21   4    ALG10001000+0100  CBH12151215+0100  AT7                                                                                                 Y66                   000128
3 AH 61330101J20FEB2127MAR21     6  CBH12051205+0100  ALG14051405+0100  AT7                                                                                                 Y66                   000129
3 AH 61330201J22FEB2129MAR211       CBH15101510+0100  ALG16401640+0100  73H                                                                                                 F16Y132               000130
3 AH 61330301J25FEB2125MAR21   4    CBH13051305+0100  ALG15051505+0100  AT7                                                                                                 Y66                   000131
3 AH 61340101J19FEB2126MAR21    5   ALG10001000+0100  CBH11301130+0100  AT7                                                                                                 Y66                   000132
3 AH 61350101J19FEB2126MAR21    5   CBH12301230+0100  ALG14001400+0100  AT7                                                                                                 Y66                   000133
3 AH 61400101J19FEB2126MAR21    5   ALG08300830+0100  AZR11201120+0100  AT7                                                                                                 Y66                   000134
3 AH 61400201J21FEB2128MAR21      7 ALG07300730+0100  AZR10201020+0100  AT7                                                                                                 Y66                   000135
3 AH 61400301J22FEB2130MAR2112      ALG14001400+0100  AZR16501650+0100  AT7                                                                                                 Y66                   000136
3 AH 61410101J20FEB2127MAR21     6  AZR07000700+0100  ALG09500950+0100  AT7                                                                                                 Y66                   000137
3 AH 61410201J22FEB2129MAR211       AZR13201320+0100  ALG16101610+0100  AT7                                                                                                 Y66                   000138
3 AH 61410301J23FEB2123FEB21 2      AZR14551455+0100  ALG17351735+0100  AT7                                                                                                 Y66                   000139
3 AH 61410401J25FEB2101APR21   4    AZR07000700+0100  ALG09500950+0100  AT7                                                                                                 Y66                   000140
3 AH 61410501J02MAR2130MAR21 2      AZR12551255+0100  ALG15351535+0100  AT7                                                                                                 Y66                   000141
3 AH 61420101J20FEB2127MAR21     6  ALG09200920+0100  AZR11101110+0100  736                                                                                                 F16Y86                000142
3 AH 61420201J21FEB2128MAR21   4  7 ALG09000900+0100  AZR10501050+0100  73H                                                                                                 F16Y132               000143
3 AH 61420301J22FEB2129MAR211       ALG10001000+0100  AZR12501250+0100  AT7                                                                                                 Y66                   000144
3 AH 61430101J20FEB2127MAR21     6  AZR12101210+0100  ALG14001400+0100  736                                                                                                 F16Y86                000145
3 AH 61430201J21FEB2128MAR21   4  7 AZR11501150+0100  ALG13401340+0100  73H                                                                                                 F16Y132               000146
3 AH 61430301J22FEB2129MAR211       AZR13401340+0100  ALG16301630+0100  AT7                                                                                                 Y66                   000147
3 AH 61460101J19FEB2119FEB21    5   ALG09300930+0100  TIN12001200+0100  73H                                                                                                 F16Y132               000148
3 AH 61460201J20FEB2120FEB21     6  ALG11401140+0100  TIN14101410+0100  736                                                                                                 F16Y85                000149
3 AH 61460301J22FEB2129MAR211       ALG10301030+0100  TIN13001300+0100  73H                                                                                                 F16Y132               000150
3 AH 61460401J25FEB2125MAR21   4    ALG09050905+0100  TIN11351135+0100  73H                                                                                                 F16Y132               000151
3 AH 61460501J26FEB2126MAR21    5   ALG10001000+0100  TIN12301230+0100  73H                                                                                                 F16Y132               000152
3 AH 61460601J27FEB2127MAR21     6  ALG11401140+0100  TIN14101410+0100  73H                                                                                                 F16Y132               000153
3 AH 61470101J19FEB2119FEB21    5   TIN12501250+0100  ALG15101510+0100  73H                                                                                                 F16Y132               000154
3 AH 61470201J20FEB2120FEB21     6  TIN15101510+0100  ALG17301730+0100  736                                                                                                 F16Y85                000155
3 AH 61470301J22FEB2129MAR211       TIN14001400+0100  ALG16201620+0100  73H                                                                                                 F16Y132               000156
3 AH 61470401J25FEB2125MAR21   4    TIN12301230+0100  ALG14451445+0100  73H                                                                                                 F16Y132               000157
3 AH 61470501J26FEB2126FEB21    5   TIN13301330+0100  ALG15401540+0100  73H                                                                                                 F16Y132               000158
3 AH 61470601J27FEB2127MAR21     6  TIN15101510+0100  ALG17301730+0100  73H                                                                                                 F16Y132               000159
3 AH 61470701J05MAR2126MAR21    5   TIN13201320+0100  ALG15401540+0100  73H                                                                                                 F16Y132               000160
3 AH 61480101J23FEB2130MAR21 2      ALG09300930+0100  CBH11001100+0100  73H                                                                                                 F16Y132               000161
3 AH 61480102J23FEB2130MAR21 2      CBH12001200+0100  TIN13101310+0100  73H                                                                                                 F16Y132               000162
3 AH 61490101J23FEB2130MAR21 2      TIN14101410+0100  ALG16301630+0100  73H                                                                                                 F16Y132               000163
3 AH 61500101J23FEB2130MAR21 2      ALG09300930+0100  TIN12001200+0100  73H                                                                                                 F16Y132               000164
3 AH 61510101J23FEB2130MAR21 2      TIN13001300+0100  CBH14001400+0100  73H                                                                                                 F16Y132               000165
3 AH 61510102J23FEB2130MAR21 2      CBH15001500+0100  ALG16351635+0100  73H                                                                                                 F16Y132               000166
3 AH 61560101J20FEB2122FEB211    6  ALG09300930+0100  TMX11001100+0100  736                                                                                                 F16Y85                000167
3 AH 61560201J21FEB2128MAR21      7 ALG10001000+0100  TMX11301130+0100  73H                                                                                                 F16Y132               000168
3 AH 61560301J24FEB2131MAR21  3     ALG12301230+0100  TMX14001400+0100  73H                                                                                                 F16Y132               000169
3 AH 61560401J27FEB2127MAR21     6  ALG09300930+0100  TMX11001100+0100  73H                                                                                                 F16Y132               000170
3 AH 61560501J01MAR2129MAR211       ALG09300930+0100  TMX11001100+0100  736                                                                                                 F16Y85                000171
3 AH 61570101J20FEB2122FEB211    6  TMX12001200+0100  ALG13301330+0100  736                                                                                                 F16Y85                000172
3 AH 61570201J21FEB2128MAR21      7 TMX12301230+0100  ALG14001400+0100  73H                                                                                                 F16Y132               000173
3 AH 61570301J24FEB2131MAR21  3     TMX15001500+0100  ALG16301630+0100  73H                                                                                                 F16Y132               000174
3 AH 61570401J27FEB2127MAR21     6  TMX12001200+0100  ALG13301330+0100  73H                                                                                                 F16Y132               000175
3 AH 61570501J01MAR2129MAR211       TMX12001200+0100  ALG13301330+0100  736                                                                                                 F16Y85                000176
3 AH 61640101J20FEB2120FEB21     6  AAE14351435+0100  ORN16001600+0100  73H                                                                                                 F16Y132               000177
3 AH 61640201J22FEB2129MAR211       AAE15001500+0100  ORN17001700+0100  AT7                                                                                                 Y66                   000178
3 AH 61640301J25FEB2125MAR21   4    AAE10451045+0100  ORN12351235+0100  73H                                                                                                 F16Y132               000179
3 AH 61640401J27FEB2127MAR21     6  AAE14351435+0100  ORN16001600+0100  73H                                                                                                 F16Y132               000180
3 AH 61650101J20FEB2120FEB21     6  ORN12201220+0100  AAE13351335+0100  73H                                                                                                 F16Y132               000181
3 AH 61650201J22FEB2129MAR211       ORN12151215+0100  AAE14151415+0100  AT7                                                                                                 Y66                   000182
3 AH 61650301J25FEB2125MAR21   4    ORN13351335+0100  AAE15301530+0100  73H                                                                                                 F16Y132               000183
3 AH 61650401J27FEB2127MAR21     6  ORN12201220+0100  AAE13351335+0100  73H                                                                                                 F16Y132               000184
3 AH 61680101J22FEB2129MAR211       ORN07000700+0100  CZL08400840+0100  AT7                                                                                                 Y66                   000185
3 AH 61680201J23FEB2130MAR21 2      ORN07350735+0100  CZL09150915+0100  AT7                                                                                                 Y66                   000186
3 AH 61680301J24FEB2124FEB21  3     ORN11001100+0100  CZL12301230+0100  73H                                                                                                 F16Y132               000187
3 AH 61680401J03MAR2131MAR21  3     ORN10451045+0100  CZL12151215+0100  73H                                                                                                 F16Y132               000188
3 AH 61690101J22FEB2129MAR211       CZL09300930+0100  ORN11251125+0100  AT7                                                                                                 Y66                   000189
3 AH 61690201J23FEB2130MAR21 2      CZL10051005+0100  ORN12001200+0100  AT7                                                                                                 Y66                   000190
3 AH 61690301J24FEB2124FEB21  3     CZL13301330+0100  ORN15001500+0100  73H                                                                                                 F16Y132               000191
3 AH 61690401J03MAR2131MAR21  3     CZL13151315+0100  ORN14451445+0100  73H                                                                                                 F16Y132               000192
3 AH 61700101J19FEB2126MAR21    5   ALG07300730+0100  AAE08450845+0100  AT7                                                                                                 Y66                   000193
3 AH 61700201J20FEB2129MAR211    67 ALG07150715+0100  AAE08300830+0100  AT7                                                                                                 Y66                   000194
3 AH 61700301J23FEB2130MAR21 2      ALG13501350+0100  AAE14501450+0100  736                                                                                                 F16Y85                000195
3 AH 61700401J24FEB2131MAR21  3     ALG08050805+0100  AAE09200920+0100  AT7                                                                                                 Y66                   000196
3 AH 61710101J19FEB2126MAR21    5   AAE09350935+0100  ALG10551055+0100  AT7                                                                                                 Y66                   000197
3 AH 61710201J20FEB2127MAR21     6  AAE09200920+0100  ALG10351035+0100  AT7                                                                                                 Y66                   000198
3 AH 61710301J21FEB2129MAR211     7 AAE09200920+0100  ALG10401040+0100  AT7                                                                                                 Y66                   000199
3 AH 61710401J23FEB2130MAR21 2      AAE15501550+0100  ALG16501650+0100  736                                                                                                 F16Y85                000200
3 AH 61710501J24FEB2131MAR21  3     AAE10101010+0100  ALG11301130+0100  AT7                                                                                                 Y66                   000201
3 AH 61760101J19FEB2131MAR21  3 5   ALG14001400+0100  AAE15151515+0100  AT7                                                                                                 Y66                   000202
3 AH 61760201J20FEB2128MAR21     67 ALG15001500+0100  AAE16151615+0100  AT7                                                                                                 Y66                   000203
3 AH 61760301J22FEB2129MAR211       ALG13251325+0100  AAE14401440+0100  AT7                                                                                                 Y66                   000204
3 AH 61760401J23FEB2130MAR21 2      ALG07150715+0100  AAE08300830+0100  AT7                                                                                                 Y66                   000205
3 AH 61770101J19FEB2131MAR21  3 5   AAE16051605+0100  ALG17251725+0100  AT7                                                                                                 Y66                   000206
3 AH 61770201J20FEB2128MAR21     67 AAE17051705+0100  ALG18251825+0100  AT7                                                                                                 Y66                   000207
3 AH 61770301J22FEB2129MAR211       AAE15301530+0100  ALG16501650+0100  AT7                                                                                                 Y66                   000208
3 AH 61770401J23FEB2130MAR21 2      AAE09200920+0100  ALG10401040+0100  AT7                                                                                                 Y66                   000209
3 AH 61800101J19FEB2126MAR21    5   ALG07300730+0100  ORN08450845+0100  AT7                                                                                                 Y66                   000210
3 AH 61800201J20FEB2127MAR21     6  ALG07300730+0100  ORN08450845+0100  AT7                                                                                                 Y66                   000211
3 AH 61800301J21FEB2128MAR21      7 ALG07400740+0100  ORN08550855+0100  AT7                                                                                                 Y66                   000212
3 AH 61800401J22FEB2122FEB211       ALG06300630+0100  ORN07450745+0100  AT7                                                                                                 Y66                   000213
3 AH 61800501J23FEB2130MAR21 2      ALG09250925+0100  ORN10251025+0100  736                                                                                                 F16Y85                000214
3 AH 61800601J24FEB2124FEB21  3     ALG07000700+0100  ORN08150815+0100  AT7                                                                                                 Y66                   000215
3 AH 61800701J25FEB2125MAR21   4    ALG06450645+0100  ORN08000800+0100  AT7                                                                                                 Y66                   000216
3 AH 61800801J01MAR2101MAR211       ALG06300630+0100  ORN07450745+0100  AT7                                                                                                 Y66                   000217
3 AH 61800901J08MAR2129MAR211       ALG06300630+0100  ORN07450745+0100  AT7                                                                                                 Y66                   000218
3 AH 61810101J19FEB2126MAR21    5   ORN09350935+0100  ALG10501050+0100  AT7                                                                                                 Y66                   000219
3 AH 61810201J20FEB2127MAR21     6  ORN09350935+0100  ALG10501050+0100  AT7                                                                                                 Y66                   000220
3 AH 61810301J21FEB2128MAR21      7 ORN09450945+0100  ALG11001100+0100  AT7                                                                                                 Y66                   000221
3 AH 61810401J22FEB2122FEB211       ORN08350835+0100  ALG09500950+0100  AT7                                                                                                 Y66                   000222
3 AH 61810501J23FEB2130MAR21 2      ORN11251125+0100  ALG12251225+0100  736                                                                                                 F16Y85                000223
3 AH 61810601J24FEB2124FEB21  3     ORN09050905+0100  ALG10201020+0100  AT7                                                                                                 Y66                   000224
3 AH 61810701J25FEB2125MAR21   4    ORN08500850+0100  ALG10051005+0100  AT7                                                                                                 Y66                   000225
3 AH 61810801J01MAR2101MAR211       ORN08350835+0100  ALG09500950+0100  AT7                                                                                                 Y66                   000226
3 AH 61810901J08MAR2129MAR211       ORN08350835+0100  ALG09500950+0100  AT7                                                                                                 Y66                   000227
3 AH 61820101J24FEB2124FEB21  3     ALG14001400+0100  ORN15001500+0100  736                                                                                                 F16Y85                000228
3 AH 61820201J03MAR2131MAR21  3     ALG13451345+0100  ORN14451445+0100  736                                                                                                 F16Y85                000229
3 AH 61830101J24FEB2124FEB21  3     ORN16001600+0100  ALG17001700+0100  736                                                                                                 F16Y85                000230
3 AH 61830201J03MAR2131MAR21  3     ORN15451545+0100  ALG16451645+0100  736                                                                                                 F16Y85                000231
3 AH 61840101J19FEB2127MAR21    56  ALG14001400+0100  ORN15001500+0100  736                                                                                                 F16Y85                000232
3 AH 61840201J21FEB2128MAR21      7 ALG14451445+0100  ORN15451545+0100  736                                                                                                 F16Y85                000233
3 AH 61840301J23FEB2130MAR21 2      ALG13451345+0100  ORN14451445+0100  736                                                                                                 F16Y85                000234
3 AH 61840401J25FEB2125MAR21   4    ALG15301530+0100  ORN16451645+0100  AT7                                                                                                 Y66                   000235
3 AH 61850101J19FEB2130MAR21 2  56  ORN16001600+0100  ALG17001700+0100  736                                                                                                 F16Y85                000236
3 AH 61850201J21FEB2128MAR21      7 ORN16451645+0100  ALG17451745+0100  736                                                                                                 F16Y85                000237
3 AH 61850301J25FEB2125MAR21   4    ORN17351735+0100  ALG18501850+0100  AT7                                                                                                 Y66                   000238
3 AH 61900101J19FEB2126MAR21    5   ALG08300830+0100  CZL09200920+0100  736                                                                                                 F16Y85                000239
3 AH 61900201J20FEB2129MAR211  4 6  ALG07300730+0100  CZL08400840+0100  AT7                                                                                                 Y66                   000240
3 AH 61900301J21FEB2128MAR21      7 ALG09450945+0100  CZL10351035+0100  736                                                                                                 F16Y85                000241
3 AH 61900401J23FEB2130MAR21 2      ALG07050705+0100  CZL08150815+0100  AT7                                                                                                 Y66                   000242
3 AH 61900501J24FEB2131MAR21  3     ALG07200720+0100  CZL08300830+0100  AT7                                                                                                 Y66                   000243
3 AH 61910101J19FEB2126MAR21    5   CZL10201020+0100  ALG11101110+0100  736                                                                                                 F16Y85                000244
3 AH 61910201J20FEB2129MAR211  4 6  CZL09300930+0100  ALG10401040+0100  AT7                                                                                                 Y66                   000245
3 AH 61910301J21FEB2128MAR21      7 CZL11251125+0100  ALG12151215+0100  736                                                                                                 F16Y85                000246
3 AH 61910401J23FEB2130MAR21 2      CZL09050905+0100  ALG10151015+0100  AT7                                                                                                 Y66                   000247
3 AH 61910501J24FEB2131MAR21  3     CZL09200920+0100  ALG10301030+0100  AT7                                                                                                 Y66                   000248
3 AH 61920101J19FEB2130MAR21 2  5   ALG13501350+0100  CZL14401440+0100  736                                                                                                 F16Y85                000249
3 AH 61920201J20FEB2120FEB21     6  ALG15001500+0100  CZL15501550+0100  736                                                                                                 F16Y85                000250
3 AH 61920301J22FEB2129MAR211       ALG14301430+0100  CZL15201520+0100  736                                                                                                 F16Y85                000251
3 AH 61920401J27FEB2127MAR21     6  ALG15001500+0100  CZL15501550+0100  73H                                                                                                 F16Y132               000252
3 AH 61930101J19FEB2126FEB21    5   CZL15401540+0100  ALG16301630+0100  736                                                                                                 F16Y85                000253
3 AH 61930201J20FEB2120FEB21     6  CZL16501650+0100  ALG17401740+0100  736                                                                                                 F16Y85                000254
3 AH 61930301J22FEB2129MAR211       CZL16201620+0100  ALG17101710+0100  736                                                                                                 F16Y85                000255
3 AH 61930401J23FEB2123FEB21 2      CZL15401540+0100  ALG16401640+0100  736                                                                                                 F16Y85                000256
3 AH 61930501J27FEB2127MAR21     6  CZL16501650+0100  ALG17401740+0100  73H                                                                                                 F16Y132               000257
3 AH 61930601J02MAR2130MAR21 2  5   CZL15401540+0100  ALG16301630+0100  736                                                                                                 F16Y85                000258
3 AH 61940101J21FEB2128MAR21      7 ALG14051405+0100  CZL14551455+0100  736                                                                                                 F16Y85                000259
3 AH 61940201J24FEB2131MAR21  3     ALG15551555+0100  CZL17051705+0100  AT7                                                                                                 Y66                   000260
3 AH 61940301J25FEB2125MAR21   4    ALG14001400+0100  CZL14501450+0100  736                                                                                                 F16Y85                000261
3 AH 61950101J21FEB2128MAR21      7 CZL15551555+0100  ALG16451645+0100  736                                                                                                 F16Y85                000262
3 AH 61950201J24FEB2131MAR21  3     CZL17551755+0100  ALG19051905+0100  AT7                                                                                                 Y66                   000263
3 AH 61950301J25FEB2125FEB21   4    CZL16101610+0100  ALG17001700+0100  736                                                                                                 F16Y85                000264
3 AH 61950401J04MAR2125MAR21   4    CZL15501550+0100  ALG16401640+0100  736                                                                                                 F16Y85                000265
3 AH 62000101J19FEB2128FEB211  4567 ALG15301530+0100  GHA17001700+0100  AT7                                                                                                 Y66                   000266
3 AH 62000201J24FEB2124FEB21  3     ALG16151615+0100  GHA17451745+0100  AT7                                                                                                 Y66                   000267
3 AH 62000301J01MAR2131MAR211 34567 ALG17301730+0100  GHA19001900+0100  AT7                                                                                                 Y66                   000268
3 AH 62010101J19FEB2128FEB21 2 4567 GHA07000700+0100  ALG08300830+0100  AT7                                                                                                 Y66                   000269
3 AH 62010201J22FEB2122FEB211       GHA06000600+0100  ALG07300730+0100  AT7                                                                                                 Y66                   000270
3 AH 62010301J01MAR2101APR2112 4567 GHA07150715+0100  ALG08450845+0100  AT7                                                                                                 Y66                   000271
3 AH 62160101J19FEB2126MAR21    5   ALG11401140+0100  OGX13201320+0100  AT7                                                                                                 Y66                   000272
3 AH 62160201J20FEB2127MAR21     6  ALG11301130+0100  OGX13101310+0100  AT7                                                                                                 Y66                   000273
3 AH 62160301J21FEB2128MAR21      7 ALG07150715+0100  OGX08550855+0100  AT7                                                                                                 Y66                   000274
3 AH 62160401J23FEB2130MAR21 2      ALG08000800+0100  OGX09400940+0100  AT7                                                                                                 Y66                   000275
3 AH 62160501J24FEB2131MAR21  3     ALG13201320+0100  OGX14351435+0100  736                                                                                                 F16Y85                000276
3 AH 62160601J25FEB2125FEB21   4    ALG12451245+0100  OGX14251425+0100  AT7                                                                                                 Y66                   000277
3 AH 62160701J04MAR2125MAR21   4    ALG12451245+0100  OGX14251425+0100  AT7                                                                                                 Y66                   000278
3 AH 62170101J19FEB2126MAR21    5   OGX14101410+0100  ALG15501550+0100  AT7                                                                                                 Y66                   000279
3 AH 62170201J20FEB2127MAR21     6  OGX14001400+0100  ALG15401540+0100  AT7                                                                                                 Y66                   000280
3 AH 62170301J21FEB2128MAR21      7 OGX09450945+0100  ALG11251125+0100  AT7                                                                                                 Y66                   000281
3 AH 62170401J23FEB2130MAR21 2      OGX15501550+0100  ALG17301730+0100  AT7                                                                                                 Y66                   000282
3 AH 62170501J24FEB2131MAR21  3     OGX15351535+0100  ALG16451645+0100  736                                                                                                 F16Y85                000283
3 AH 62170601J25FEB2125FEB21   4    OGX15151515+0100  ALG16551655+0100  AT7                                                                                                 Y66                   000284
3 AH 62170701J04MAR2125MAR21   4    OGX15151515+0100  ALG16551655+0100  AT7                                                                                                 Y66                   000285
3 AH 62180101J22FEB2122FEB211       ALG07000700+0100  OGX08400840+0100  AT7                                                                                                 Y66                   000286
3 AH 62180201J01MAR2101MAR211       ALG11001100+0100  OGX12401240+0100  AT7                                                                                                 Y66                   000287
3 AH 62180301J08MAR2129MAR211       ALG11001100+0100  OGX12401240+0100  AT7                                                                                                 Y66                   000288
3 AH 62190101J22FEB2122FEB211       OGX09300930+0100  ALG11101110+0100  AT7                                                                                                 Y66                   000289
3 AH 62190201J01MAR2101MAR211       OGX13301330+0100  ALG15101510+0100  AT7                                                                                                 Y66                   000290
3 AH 62190301J08MAR2129MAR211       OGX13301330+0100  ALG15101510+0100  AT7                                                                                                 Y66                   000291
3 AH 62220101J19FEB2128FEB21  34567 ALG15501550+0100  HME17301730+0100  AT7                                                                                                 Y66                   000292
3 AH 62220201J22FEB2122FEB211       ALG15501550+0100  HME17001700+0100  AT7                                                                                                 Y66                   000293
3 AH 62220301J01MAR2101MAR211       ALG16201620+0100  HME18001800+0100  AT7                                                                                                 Y66                   000294
3 AH 62220401J03MAR2131MAR211 345 7 ALG16201620+0100  HME18001800+0100  AT7                                                                                                 Y66                   000295
3 AH 62220501J06MAR2127MAR21     6  ALG16101610+0100  HME17501750+0100  AT7                                                                                                 Y66                   000296
3 AH 62230101J19FEB2128FEB211  4567 HME07000700+0100  ALG08400840+0100  AT7                                                                                                 Y66                   000297
3 AH 62230201J23FEB2123FEB21 2      HME07000700+0100  ALG08400840+0100  AT7                                                                                                 Y66                   000298
3 AH 62230301J01MAR2108MAR211  4567 HME06300630+0100  ALG08100810+0100  AT7                                                                                                 Y66                   000299
3 AH 62230401J02MAR2102MAR21 2      HME06300630+0100  ALG08100810+0100  AT7                                                                                                 Y66                   000300
3 AH 62230501J09MAR2101APR2112 4567 HME06300630+0100  ALG08100810+0100  AT7                                                                                                 Y66                   000301
3 AH 62240101J01MAR2101MAR211       ALG08000800+0100  HME09400940+0100  AT7                                                                                                 Y66                   000302
3 AH 62240102J01MAR2101MAR211       HME10301030+0100  IAM11501150+0100  AT7                                                                                                 Y66                   000303
3 AH 62240201J15MAR2115MAR211       ALG08000800+0100  HME09400940+0100  AT7                                                                                                 Y66                   000304
3 AH 62240202J15MAR2115MAR211       HME10301030+0100  IAM11501150+0100  AT7                                                                                                 Y66                   000305
3 AH 62240301J29MAR2129MAR211       ALG08000800+0100  HME09400940+0100  AT7                                                                                                 Y66                   000306
3 AH 62240302J29MAR2129MAR211       HME10301030+0100  IAM11501150+0100  AT7                                                                                                 Y66                   000307
3 AH 62250101J01MAR2101MAR211       IAM12401240+0100  HME14051405+0100  AT7                                                                                                 Y66                   000308
3 AH 62250102J01MAR2101MAR211       HME14551455+0100  ALG16401640+0100  AT7                                                                                                 Y66                   000309
3 AH 62250201J15MAR2115MAR211       IAM12401240+0100  HME14051405+0100  AT7                                                                                                 Y66                   000310
3 AH 62250202J15MAR2115MAR211       HME14551455+0100  ALG16401640+0100  AT7                                                                                                 Y66                   000311
3 AH 62250301J29MAR2129MAR211       IAM12401240+0100  HME14051405+0100  AT7                                                                                                 Y66                   000312
3 AH 62250302J29MAR2129MAR211       HME14551455+0100  ALG16401640+0100  AT7                                                                                                 Y66                   000313
3 AH 62260101J19FEB2128MAR21    5 7 ALG10201020+0100  HME12001200+0100  AT7                                                                                                 Y66                   000314
3 AH 62260201J24FEB2131MAR21  3     ALG11201120+0100  HME13001300+0100  AT7                                                                                                 Y66                   000315
3 AH 62260301J25FEB2125MAR21   4    ALG10401040+0100  HME11551155+0100  AT7                                                                                                 Y66                   000316
3 AH 62270101J19FEB2128MAR21    5 7 HME12501250+0100  ALG14301430+0100  AT7                                                                                                 Y66                   000317
3 AH 62270201J24FEB2131MAR21  3     HME13501350+0100  ALG15301530+0100  AT7                                                                                                 Y66                   000318
3 AH 62270301J25FEB2125MAR21   4    HME12451245+0100  ALG14001400+0100  AT7                                                                                                 Y66                   000319
3 AH 62280101J20FEB2127FEB21     6  ALG11101110+0100  HME12501250+0100  AT7                                                                                                 Y66                   000320
3 AH 62280201J06MAR2127MAR21     6  ALG11301130+0100  HME13101310+0100  AT7                                                                                                 Y66                   000321
3 AH 62290101J20FEB2127FEB21     6  HME13401340+0100  ALG15201520+0100  AT7                                                                                                 Y66                   000322
3 AH 62290201J06MAR2127MAR21     6  HME14001400+0100  ALG15401540+0100  AT7                                                                                                 Y66                   000323
3 AH 62300101J22FEB2129MAR211       ALG10001000+0100  TMR12251225+0100  73H                                                                                                 F16Y132               000324
3 AH 62300201J25FEB2125MAR21   4    ALG11101110+0100  TMR13301330+0100  73H                                                                                                 F16Y132               000325
3 AH 62310101J22FEB2129MAR211       TMR13251325+0100  ALG15551555+0100  73H                                                                                                 F16Y132               000326
3 AH 62310201J25FEB2125MAR21   4    TMR14251425+0100  ALG17001700+0100  73H                                                                                                 F16Y132               000327
3 AH 62320101J19FEB2126MAR21    5   ALG07300730+0100  TMR09550955+0100  73H                                                                                                 F16Y86                000328
3 AH 62320102J19FEB2126MAR21    5   TMR10551055+0100  DJG11451145+0100  73H                                                                                                 F16Y86                000329
3 AH 62320103J19FEB2126MAR21    5   DJG12451245+0100  ALG15001500+0100  73H                                                                                                 F16Y86                000330
3 AH 62320201J21FEB2128MAR21      7 ALG08000800+0100  TMR10251025+0100  73H                                                                                                 F16Y132               000331
3 AH 62320202J21FEB2128MAR21      7 TMR11251125+0100  DJG12151215+0100  73H                                                                                                 F16Y132               000332
3 AH 62320203J21FEB2128MAR21      7 DJG13151315+0100  ALG15301530+0100  73H                                                                                                 F16Y132               000333
3 AH 62340101J25FEB2125MAR21   4    ORN08000800+0100  TMR10301030+0100  73H                                                                                                 F16Y132               000334
3 AH 62350101J25FEB2125MAR21   4    TMR11301130+0100  ORN13451345+0100  73H                                                                                                 F16Y132               000335
3 AH 62360101J23FEB2130MAR21 2      ALG08450845+0100  GHA09450945+0100  73H                                                                                                 F16Y132               000336
3 AH 62360102J23FEB2130MAR21 2      GHA10501050+0100  TMR12301230+0100  73H                                                                                                 F16Y132               000337
3 AH 62370101J23FEB2130MAR21 2      TMR13301330+0100  ALG16001600+0100  73H                                                                                                 F16Y132               000338
3 AH 62380101J20FEB2127MAR21     6  ALG09000900+0100  TMR11251125+0100  73H                                                                                                 F16Y132               000339
3 AH 62390101J20FEB2127MAR21     6  TMR12251225+0100  GHA14051405+0100  73H                                                                                                 F16Y132               000340
3 AH 62390102J20FEB2127MAR21     6  GHA15051505+0100  ALG16051605+0100  73H                                                                                                 F16Y132               000341
3 AH 62440101J19FEB2126MAR21    5   ALG12051205+0100  IAM14451445+0100  AT7                                                                                                 Y66                   000342
3 AH 62440201J23FEB2130MAR21 2      ALG09450945+0100  IAM12251225+0100  AT7                                                                                                 Y66                   000343
3 AH 62450101J19FEB2126MAR21    5   IAM15351535+0100  ALG18251825+0100  AT7                                                                                                 Y66                   000344
3 AH 62450201J23FEB2130MAR21 2      IAM13151315+0100  ALG16051605+0100  AT7                                                                                                 Y66                   000345
3 AH 62520101J19FEB2126FEB21    5   ALG12501250+0100  ELU14151415+0100  AT7                                                                                                 Y66                   000346
3 AH 62520201J20FEB2127MAR21     6  ALG09350935+0100  ELU11001100+0100  AT7                                                                                                 Y66                   000347
3 AH 62520301J21FEB2128MAR21      7 ALG11501150+0100  ELU13151315+0100  AT7                                                                                                 Y66                   000348
3 AH 62520401J23FEB2123FEB21 2      ALG09100910+0100  ELU10351035+0100  AT7                                                                                                 Y66                   000349
3 AH 62520501J24FEB2131MAR21  34    ALG07100710+0100  ELU08350835+0100  AT7                                                                                                 Y66                   000350
3 AH 62520601J02MAR2102MAR21 2      ALG09100910+0100  ELU10351035+0100  AT7                                                                                                 Y66                   000351
3 AH 62520701J05MAR2126MAR21    5   ALG13001300+0100  ELU14251425+0100  AT7                                                                                                 Y66                   000352
3 AH 62520801J09MAR2130MAR21 2      ALG09100910+0100  ELU10351035+0100  AT7                                                                                                 Y66                   000353
3 AH 62530101J19FEB2126FEB21    5   ELU15051505+0100  ALG16351635+0100  AT7                                                                                                 Y66                   000354
3 AH 62530201J20FEB2127MAR21     6  ELU11501150+0100  ALG13201320+0100  AT7                                                                                                 Y66                   000355
3 AH 62530301J21FEB2128MAR21      7 ELU14051405+0100  ALG15351535+0100  AT7                                                                                                 Y66                   000356
3 AH 62530401J23FEB2123FEB21 2      ELU11251125+0100  ALG12551255+0100  AT7                                                                                                 Y66                   000357
3 AH 62530501J24FEB2131MAR21  3     ELU09250925+0100  ALG10551055+0100  AT7                                                                                                 Y66                   000358
3 AH 62530601J25FEB2125MAR21   4    ELU15101510+0100  ALG16401640+0100  AT7                                                                                                 Y66                   000359
3 AH 62530701J02MAR2102MAR21 2      ELU11251125+0100  ALG12551255+0100  AT7                                                                                                 Y66                   000360
3 AH 62530801J05MAR2126MAR21    5   ELU15151515+0100  ALG16451645+0100  AT7                                                                                                 Y66                   000361
3 AH 62530901J09MAR2130MAR21 2      ELU11251125+0100  ALG12551255+0100  AT7                                                                                                 Y66                   000362
3 AH 62540101J25FEB2125MAR21   4    ORN12201220+0100  ELU14201420+0100  AT7                                                                                                 Y66                   000363
3 AH 62550101J25FEB2125MAR21   4    ELU09250925+0100  ORN11301130+0100  AT7                                                                                                 Y66                   000364
3 AH 62660101J19FEB2126MAR21   45   ALG09300930+0100  TGR10551055+0100  AT7                                                                                                 Y66                   000365
3 AH 62660201J21FEB2128FEB21      7 ALG09250925+0100  TGR10501050+0100  AT7                                                                                                 Y66                   000366
3 AH 62660301J22FEB2129MAR211       ALG11301130+0100  TGR12551255+0100  AT7                                                                                                 Y66                   000367
3 AH 62660401J07MAR2128MAR21      7 ALG10201020+0100  TGR11501150+0100  AT7                                                                                                 Y66                   000368
3 AH 62670101J19FEB2126MAR21   45   TGR11451145+0100  ALG13101310+0100  AT7                                                                                                 Y66                   000369
3 AH 62670201J21FEB2128FEB21      7 TGR11401140+0100  ALG13051305+0100  AT7                                                                                                 Y66                   000370
3 AH 62670301J22FEB2129MAR211       TGR13451345+0100  ALG15101510+0100  AT7                                                                                                 Y66                   000371
3 AH 62670401J07MAR2128MAR21      7 TGR12401240+0100  ALG14001400+0100  AT7                                                                                                 Y66                   000372
3 AH 62840101J23FEB2130MAR21 2      INZ15001500+0100  TMR16351635+0100  AT7                                                                                                 Y66                   000373
3 AH 62840201J24FEB2131MAR21  3     TMR07000700+0100  INF08150815+0100  AT7                                                                                                 Y66                   000374
3 AH 62850101J24FEB2131MAR21  3     INF09050905+0100  TMR10101010+0100  AT7                                                                                                 Y66                   000375
3 AH 62850102J24FEB2131MAR21  3     TMR11001100+0100  INZ12351235+0100  AT7                                                                                                 Y66                   000376
3 AH 62880101J24FEB2131MAR21  3     ALG09100910+0100  TMR11351135+0100  73H                                                                                                 F16Y132               000377
3 AH 62890101J24FEB2131MAR21  3     TMR12251225+0100  ALG14551455+0100  73H                                                                                                 F16Y132               000378
3 AH 62920101J20FEB2120FEB21     6  ALG09050905+0100  DJG11201120+0100  73H                                                                                                 F16Y86                000379
3 AH 62920102J20FEB2120FEB21     6  DJG12201220+0100  TMR13101310+0100  73H                                                                                                 F16Y86                000380
3 AH 62920103J20FEB2120FEB21     6  TMR14101410+0100  ALG16401640+0100  73H                                                                                                 F16Y86                000381
3 AH 62920201J24FEB2131MAR21  3     ALG07000700+0100  DJG09150915+0100  73H                                                                                                 F16Y132               000382
3 AH 62920202J24FEB2131MAR21  3     DJG10151015+0100  TMR11051105+0100  73H                                                                                                 F16Y132               000383
3 AH 62920203J24FEB2131MAR21  3     TMR12051205+0100  ALG14351435+0100  73H                                                                                                 F16Y132               000384
3 AH 62920301J27FEB2127MAR21     6  ALG09050905+0100  DJG11201120+0100  736                                                                                                 F16Y86                000385
3 AH 62920302J27FEB2127MAR21     6  DJG12201220+0100  TMR13101310+0100  736                                                                                                 F16Y86                000386
3 AH 62920303J27FEB2127MAR21     6  TMR14101410+0100  ALG16401640+0100  736                                                                                                 F16Y86                000387
3 AH 62960101J23FEB2130MAR21 2      ALG11151115+0100  INZ14101410+0100  AT7                                                                                                 Y66                   000388
3 AH 62970101J24FEB2131MAR21  3     INZ13251325+0100  ALG16151615+0100  AT7                                                                                                 Y66                   000389
3 AH 63040101J22FEB2129MAR211       ALG08150815+0100  OGX09250925+0100  736                                                                                                 F16Y86                000390
3 AH 63040102J22FEB2129MAR211       OGX10251025+0100  VVZ11351135+0100  736                                                                                                 F16Y86                000391
3 AH 63050101J22FEB2129MAR211       VVZ12351235+0100  OGX13451345+0100  736                                                                                                 F16Y86                000392
3 AH 63050102J22FEB2129MAR211       OGX14451445+0100  ALG15551555+0100  736                                                                                                 F16Y86                000393
3 AH 63100101J25FEB2125FEB21   4    ALG07000700+0100  OGX08100810+0100  736                                                                                                 F16Y85                000394
3 AH 63100102J25FEB2125FEB21   4    OGX09100910+0100  DJG10401040+0100  736                                                                                                 F16Y85                000395
3 AH 63100201J11MAR2111MAR21   4    ALG07000700+0100  OGX08100810+0100  736                                                                                                 F16Y85                000396
3 AH 63100202J11MAR2111MAR21   4    OGX09100910+0100  DJG10401040+0100  736                                                                                                 F16Y85                000397
3 AH 63100301J25MAR2125MAR21   4    ALG07000700+0100  OGX08100810+0100  736                                                                                                 F16Y85                000398
3 AH 63100302J25MAR2125MAR21   4    OGX09100910+0100  DJG10401040+0100  736                                                                                                 F16Y85                000399
3 AH 63110101J25FEB2125FEB21   4    DJG11401140+0100  ALG13551355+0100  736                                                                                                 F16Y85                000400
3 AH 63110201J11MAR2111MAR21   4    DJG11401140+0100  ALG13551355+0100  736                                                                                                 F16Y85                000401
3 AH 63110301J25MAR2125MAR21   4    DJG11401140+0100  ALG13551355+0100  736                                                                                                 F16Y85                000402
3 AH 63120101J04MAR2104MAR21   4    ALG07000700+0100  DJG09150915+0100  736                                                                                                 F16Y85                000403
3 AH 63120201J18MAR2118MAR21   4    ALG07000700+0100  DJG09150915+0100  736                                                                                                 F16Y85                000404
3 AH 63130101J04MAR2104MAR21   4    DJG10151015+0100  OGX11451145+0100  736                                                                                                 F16Y85                000405
3 AH 63130102J04MAR2104MAR21   4    OGX12451245+0100  ALG13551355+0100  736                                                                                                 F16Y85                000406
3 AH 63130201J18MAR2118MAR21   4    DJG10151015+0100  OGX11451145+0100  736                                                                                                 F16Y85                000407
3 AH 63130202J18MAR2118MAR21   4    OGX12451245+0100  ALG13551355+0100  736                                                                                                 F16Y85                000408
3 AH 63180101J19FEB2126FEB21    5   ALG09000900+0100  ELG10251025+0100  AT7                                                                                                 Y66                   000409
3 AH 63180201J05MAR2126MAR21    5   ALG10301030+0100  ELG11551155+0100  AT7                                                                                                 Y66                   000410
3 AH 63190101J19FEB2126FEB21    5   ELG11151115+0100  OGX12401240+0100  AT7                                                                                                 Y66                   000411
3 AH 63190102J19FEB2126FEB21    5   OGX13301330+0100  ALG14501450+0100  AT7                                                                                                 Y66                   000412
3 AH 63190201J05MAR2126MAR21    5   ELG12451245+0100  OGX14101410+0100  AT7                                                                                                 Y66                   000413
3 AH 63190202J05MAR2126MAR21    5   OGX15001500+0100  ALG16201620+0100  AT7                                                                                                 Y66                   000414
3 AH 63340101J19FEB2126MAR21    5   ALG07000700+0100  VVZ08550855+0100  736                                                                                                 F16Y86                000415
3 AH 63340102J19FEB2126MAR21    5   VVZ09550955+0100  TMR11001100+0100  736                                                                                                 F16Y86                000416
3 AH 63350101J19FEB2126MAR21    5   TMR12001200+0100  VVZ13001300+0100  736                                                                                                 F16Y86                000417
3 AH 63350102J19FEB2126MAR21    5   VVZ14001400+0100  ALG16001600+0100  736                                                                                                 F16Y86                000418
3 AH 63380101J22FEB2129MAR211       CZL15101510+0100  OGX16101610+0100  73H                                                                                                 F16Y132               000419
3 AH 63390101J22FEB2129MAR211       OGX17101710+0100  CZL18101810+0100  73H                                                                                                 F16Y132               000420
3 AH 63400101J22FEB2129MAR211       CZL08000800+0100  TIN10551055+0100  73H                                                                                                 F16Y132               000421
3 AH 63400201J25FEB2125MAR21   4    CZL07000700+0100  TIN09550955+0100  73H                                                                                                 F16Y132               000422
3 AH 63410101J22FEB2129MAR211       TIN11501150+0100  CZL14101410+0100  73H                                                                                                 F16Y132               000423
3 AH 63410201J25FEB2125MAR21   4    TIN10501050+0100  CZL13151315+0100  73H                                                                                                 F16Y132               000424
3 AH 63420101J20FEB2127MAR21     6  ALG07500750+0100  OGX09000900+0100  73H                                                                                                 F16Y132               000425
3 AH 63420102J20FEB2127MAR21     6  OGX10001000+0100  TMR11501150+0100  73H                                                                                                 F16Y132               000426
3 AH 63430101J20FEB2127MAR21     6  TMR12501250+0100  OGX14301430+0100  73H                                                                                                 F16Y132               000427
3 AH 63430102J20FEB2127MAR21     6  OGX15301530+0100  ALG16401640+0100  73H                                                                                                 F16Y132               000428
3 AH 63440101J19FEB2119FEB21    5   CZL12251225+0100  HME13401340+0100  73H                                                                                                 F16Y132               000429
3 AH 63440201J26FEB2126MAR21    5   CZL12251225+0100  HME13401340+0100  73H                                                                                                 F16Y132               000430
3 AH 63450101J19FEB2119FEB21    5   HME14401440+0100  CZL15501550+0100  73H                                                                                                 F16Y132               000431
3 AH 63450201J26FEB2126MAR21    5   HME14401440+0100  CZL15501550+0100  73H                                                                                                 F16Y132               000432
3 AH 63460101J20FEB2120FEB21     6  CZL10551055+0100  CBH12251225+0100  73H                                                                                                 F16Y132               000433
3 AH 63460201J27FEB2127MAR21     6  CZL10551055+0100  CBH12251225+0100  73H                                                                                                 F16Y132               000434
3 AH 63470101J20FEB2120FEB21     6  CBH13251325+0100  CZL15001500+0100  73H                                                                                                 F16Y132               000435
3 AH 63470201J27FEB2127MAR21     6  CBH13251325+0100  CZL15001500+0100  73H                                                                                                 F16Y132               000436
3 AH 63480101J20FEB2127MAR21     6  CZL11051105+0100  OGX12251225+0100  AT7                                                                                                 Y66                   000437
3 AH 63490101J20FEB2127MAR21     6  OGX13151315+0100  ALG14551455+0100  AT7                                                                                                 Y66                   000438
3 AH 63500101J24FEB2131MAR21  3     CZL10201020+0100  GHA11251125+0100  73H                                                                                                 F16Y86                000439
3 AH 63510101J24FEB2131MAR21  3     GHA12251225+0100  CZL13401340+0100  73H                                                                                                 F16Y86                000440
3 AH 63520101J25FEB2125MAR21   4    CZL14151415+0100  TMR16151615+0100  73H                                                                                                 F16Y132               000441
3 AH 63530101J25FEB2125MAR21   4    TMR17151715+0100  CZL19151915+0100  73H                                                                                                 F16Y132               000442
3 AH 63720101J22FEB2122FEB211       ALG07000700+0100  HME08400840+0100  AT7                                                                                                 Y66                   000443
3 AH 63720102J22FEB2122FEB211       HME09300930+0100  INZ11151115+0100  AT7                                                                                                 Y66                   000444
3 AH 63720201J08MAR2108MAR211       ALG07000700+0100  HME08400840+0100  AT7                                                                                                 Y66                   000445
3 AH 63720202J08MAR2108MAR211       HME09300930+0100  INZ11151115+0100  AT7                                                                                                 Y66                   000446
3 AH 63720301J22MAR2122MAR211       ALG07000700+0100  HME08400840+0100  AT7                                                                                                 Y66                   000447
3 AH 63720302J22MAR2122MAR211       HME09300930+0100  INZ11151115+0100  AT7                                                                                                 Y66                   000448
3 AH 63730101J22FEB2122FEB211       INZ12051205+0100  HME13551355+0100  AT7                                                                                                 Y66                   000449
3 AH 63730102J22FEB2122FEB211       HME14451445+0100  ALG16301630+0100  AT7                                                                                                 Y66                   000450
3 AH 63730201J08MAR2108MAR211       INZ12051205+0100  HME13551355+0100  AT7                                                                                                 Y66                   000451
3 AH 63730202J08MAR2108MAR211       HME14451445+0100  ALG16301630+0100  AT7                                                                                                 Y66                   000452
3 AH 63730301J22MAR2122MAR211       INZ12051205+0100  HME13551355+0100  AT7                                                                                                 Y66                   000453
3 AH 63730302J22MAR2122MAR211       HME14451445+0100  ALG16301630+0100  AT7                                                                                                 Y66                   000454
3 AH 63780101J19FEB2126MAR21    5   ORN07000700+0100  TMX09250925+0100  AT7                                                                                                 Y66                   000455
3 AH 63780201J24FEB2124FEB21  3     ORN08000800+0100  TMX10251025+0100  AT7                                                                                                 Y66                   000456
3 AH 63780301J03MAR2103MAR21  3     ORN09450945+0100  TMX12101210+0100  AT7                                                                                                 Y66                   000457
3 AH 63780401J10MAR2131MAR21  3     ORN09450945+0100  TMX12101210+0100  AT7                                                                                                 Y66                   000458
3 AH 63790101J19FEB2126MAR21    5   TMX10151015+0100  ORN12401240+0100  AT7                                                                                                 Y66                   000459
3 AH 63790201J24FEB2124FEB21  3     TMX11151115+0100  ORN13401340+0100  AT7                                                                                                 Y66                   000460
3 AH 63790301J03MAR2103MAR21  3     TMX13001300+0100  ORN15251525+0100  AT7                                                                                                 Y66                   000461
3 AH 63790401J10MAR2131MAR21  3     TMX13001300+0100  ORN15251525+0100  AT7                                                                                                 Y66                   000462
3 AH 63800101J20FEB2127MAR21     6  ORN13201320+0100  GHA14501450+0100  AT7                                                                                                 Y66                   000463
3 AH 63810101J20FEB2127MAR21     6  GHA15401540+0100  ORN17101710+0100  AT7                                                                                                 Y66                   000464
3 AH 63820101J19FEB2126MAR21    5   HME16251625+0100  ORN18451845+0100  AT7                                                                                                 Y66                   000465
3 AH 63820201J24FEB2124FEB21  3     HME17251725+0100  ORN19301930+0100  AT7                                                                                                 Y66                   000466
3 AH 63820301J03MAR2131MAR21  3     HME17401740+0100  ORN19451945+0100  AT7                                                                                                 Y66                   000467
3 AH 63830101J19FEB2126MAR21    5   ORN13301330+0100  HME15351535+0100  AT7                                                                                                 Y66                   000468
3 AH 63830201J24FEB2124FEB21  3     ORN14301430+0100  HME16351635+0100  AT7                                                                                                 Y66                   000469
3 AH 63830301J03MAR2131MAR21  3     ORN14451445+0100  HME16501650+0100  AT7                                                                                                 Y66                   000470
3 AH 63840101J21FEB2128MAR21      7 ORN11201120+0100  AZR13451345+0100  AT7                                                                                                 Y66                   000471
3 AH 63840201J22FEB2129MAR211       ORN09200920+0100  AZR10451045+0100  73H                                                                                                 F16Y132               000472
3 AH 63840301J23FEB2130MAR21 2      ORN11051105+0100  AZR12301230+0100  73H                                                                                                 F16Y132               000473
3 AH 63840401J25FEB2125MAR21   4    ORN14451445+0100  AZR16101610+0100  73H                                                                                                 F16Y132               000474
3 AH 63850101J21FEB2128MAR21      7 AZR14351435+0100  ORN17001700+0100  AT7                                                                                                 Y66                   000475
3 AH 63850201J22FEB2129MAR211       AZR11451145+0100  ORN13151315+0100  73H                                                                                                 F16Y132               000476
3 AH 63850301J23FEB2130MAR21 2      AZR13301330+0100  ORN15001500+0100  73H                                                                                                 F16Y132               000477
3 AH 63850401J25FEB2125MAR21   4    AZR17101710+0100  ORN18401840+0100  73H                                                                                                 F16Y132               000478
3 AH 63860101J19FEB2119FEB21    5   CZL07000700+0100  AZR08450845+0100  73H                                                                                                 F16Y132               000479
3 AH 63860201J23FEB2123FEB21 2      CZL10101010+0100  AZR11551155+0100  73H                                                                                                 F16Y132               000480
3 AH 63860301J26FEB2126MAR21    5   CZL07000700+0100  AZR08450845+0100  73H                                                                                                 F16Y132               000481
3 AH 63860401J02MAR2102MAR21 2      CZL10101010+0100  AZR11551155+0100  73H                                                                                                 F16Y132               000482
3 AH 63860501J09MAR2130MAR21 2      CZL10101010+0100  AZR11551155+0100  73H                                                                                                 F16Y132               000483
3 AH 63870101J19FEB2119FEB21    5   AZR09450945+0100  CZL11251125+0100  73H                                                                                                 F16Y132               000484
3 AH 63870201J23FEB2123FEB21 2      AZR12551255+0100  CZL14351435+0100  73H                                                                                                 F16Y132               000485
3 AH 63870301J26FEB2126MAR21    5   AZR09450945+0100  CZL11251125+0100  73H                                                                                                 F16Y132               000486
3 AH 63870401J02MAR2102MAR21 2      AZR12551255+0100  CZL14351435+0100  73H                                                                                                 F16Y132               000487
3 AH 63870501J09MAR2130MAR21 2      AZR12551255+0100  CZL14351435+0100  73H                                                                                                 F16Y132               000488
3 AH 63880101J20FEB2127MAR21     6  ORN07000700+0100  CBH09000900+0100  AT7                                                                                                 Y66                   000489
