1AIRLINE STANDARD SCHEDULE DATA SET                                                                                                                                                            001000001
00000000000000000000000000000000000000000000000000000000000000000000000000000000000000000000000000000000000000000000000000000000000000000000000000000000000000000000000000000000000000000000000000000000
00000000000000000000000000000000000000000000000000000000000000000000000000000000000000000000000000000000000000000000000000000000000000000000000000000000000000000000000000000000000000000000000000000000
00000000000000000000000000000000000000000000000000000000000000000000000000000000000000000000000000000000000000000000000000000000000000000000000000000000000000000000000000000000000000000000000000000000
00000000000000000000000000000000000000000000000000000000000000000000000000000000000000000000000000000000000000000000000000000000000000000000000000000000000000000000000000000000000000000000000000000000
2UAH          24FEB2123FEB2224FEB21 AIR ALGERIE                        C AIMS                                                                                                                 1300000002
00000000000000000000000000000000000000000000000000000000000000000000000000000000000000000000000000000000000000000000000000000000000000000000000000000000000000000000000000000000000000000000000000000000
00000000000000000000000000000000000000000000000000000000000000000000000000000000000000000000000000000000000000000000000000000000000000000000000000000000000000000000000000000000000000000000000000000000
00000000000000000000000000000000000000000000000000000000000000000000000000000000000000000000000000000000000000000000000000000000000000000000000000000000000000000000000000000000000000000000000000000000
00000000000000000000000000000000000000000000000000000000000000000000000000000000000000000000000000000000000000000000000000000000000000000000000000000000000000000000000000000000000000000000000000000000
3 AH 10010101J24FEB2128FEB21  34567 CDG13401340+0100  ALG15451545+0100  332                                                                                                 Y302                  000003
3 AH 10030101J24FEB2128FEB21  34567 CDG11101110+0100  ALG13151315+0100  332                                                                                                 Y302                  000004
3 AH 12150101J24FEB2124FEB21  3     CDG15251525+0100  ALG17301730+0100  332                                                                                                 F18C40Y211            000005
3 AH 12150201J25FEB2128FEB21   4567 CDG16401640+0100  ALG18451845+0100  332                                                                                                 F18C40Y211            000006
3 AH 30600101J24FEB2131MAR21  3     ALG10001000+0100  CTU21552155+0800  332                                                                                                 F18C14Y219            000007
3 AH 30600201J25FEB2101APR21   4    CTU17101710+0800  PEK20102010+0800  332                                                                                                 F18C14Y219            000008
3 AH 30600301J01APR2130DEC21   4  7 ALG12001200+0100  PEK23102310+0800  332                                                                                                 F18C14Y219            000009
3 AH 30610101J25FEB2101APR21   4    PEK21402140+0800  ALG10401040+0100  332                                                                                                 F18C14Y219            000010
3 AH 30610201J02APR2131DEC211   5   PEK00500050+0800  ALG13201320+0100  332                                                                                                 F18C14Y219            000011
3 AH 60000101J25FEB2125MAR21   4    ALG08500850+0100  AAE09500950+0100  73H                                                                                                 F16Y132               000012
3 AH 60010101J25FEB2125MAR21   4    AAE16301630+0100  ALG17301730+0100  73H                                                                                                 F16Y132               000013
3 AH 60060101J24FEB2131MAR21  3     ALG18151815+0100  AAE19151915+0100  73H                                                                                                 F16Y132               000014
3 AH 60060201J25FEB2127MAR21   4 6  ALG18301830+0100  AAE19301930+0100  73H                                                                                                 F16Y132               000015
3 AH 60060301J26FEB2130MAR2112  5 7 ALG18001800+0100  AAE19001900+0100  73H                                                                                                 F16Y132               000016
3 AH 60070101J24FEB2103MAR21123  6  AAE07150715+0100  ALG08150815+0100  73H                                                                                                 F16Y132               000017
3 AH 60070201J25FEB2101APR21   4    AAE06500650+0100  ALG07500750+0100  73H                                                                                                 F16Y132               000018
3 AH 60070301J26FEB2128FEB21    5 7 AAE07450745+0100  ALG08450845+0100  73H                                                                                                 F16Y132               000019
3 AH 60070401J05MAR2131MAR21123 567 AAE07150715+0100  ALG08150815+0100  73H                                                                                                 F16Y132               000020
3 AH 60260101J24FEB2131MAR2112345 7 ALG18151815+0100  CZL19051905+0100  73H                                                                                                 F16Y132               000021
3 AH 60260201J27FEB2127MAR21     6  ALG18401840+0100  CZL19301930+0100  73H                                                                                                 F16Y132               000022
3 AH 60270101J24FEB2103MAR21123 56  CZL07200720+0100  ALG08100810+0100  73H                                                                                                 F16Y132               000023
3 AH 60270201J25FEB2125FEB21   4    CZL07150715+0100  ALG08150815+0100  73H                                                                                                 F16Y132               000024
3 AH 60270301J28FEB2128FEB21      7 CZL07450745+0100  ALG08350835+0100  73H                                                                                                 F16Y132               000025
3 AH 60270401J04MAR2131MAR211234567 CZL07200720+0100  ALG08100810+0100  73H                                                                                                 F16Y132               000026
3 AH 60270501J01APR2101APR21   4    CZL07250725+0100  ALG08150815+0100  73H                                                                                                 F16Y132               000027
3 AH 60280101J27FEB2127MAR21     6  ALG09100910+0100  CZL10151015+0100  AT7                                                                                                 Y66                   000028
3 AH 60320101J24FEB2124FEB21  3     ALG11451145+0100  TEE13001300+0100  AT7                                                                                                 Y66                   000029
3 AH 60320201J26FEB2129MAR211   5   ALG08300830+0100  TEE09450945+0100  AT7                                                                                                 Y66                   000030
3 AH 60320301J28FEB2128MAR21      7 ALG12151215+0100  TEE13301330+0100  AT7                                                                                                 Y66                   000031
3 AH 60320401J03MAR2103MAR21  3     ALG11451145+0100  TEE13001300+0100  AT7                                                                                                 Y66                   000032
3 AH 60320501J10MAR2131MAR21  3     ALG11451145+0100  TEE13001300+0100  AT7                                                                                                 Y66                   000033
3 AH 60330101J24FEB2124FEB21  3     TEE13501350+0100  ALG15251525+0100  AT7                                                                                                 Y66                   000034
3 AH 60330201J26FEB2129MAR211   5   TEE10351035+0100  ALG12101210+0100  AT7                                                                                                 Y66                   000035
3 AH 60330301J28FEB2128MAR21      7 TEE14201420+0100  ALG15551555+0100  AT7                                                                                                 Y66                   000036
3 AH 60330401J03MAR2103MAR21  3     TEE13501350+0100  ALG15251525+0100  AT7                                                                                                 Y66                   000037
3 AH 60330501J10MAR2131MAR21  3     TEE13501350+0100  ALG15251525+0100  AT7                                                                                                 Y66                   000038
3 AH 60380101J26FEB2126MAR21    5   ALG13401340+0100  BLJ14301430+0100  736                                                                                                 F16Y85                000039
3 AH 60380201J28FEB2128FEB21      7 ALG07300730+0100  BLJ08450845+0100  AT7                                                                                                 F16Y86                000040
3 AH 60380301J07MAR2107MAR21      7 ALG07300730+0100  BLJ08450845+0100  AT7                                                                                                 F16Y86                000041
3 AH 60380401J14MAR2128MAR21      7 ALG07300730+0100  BLJ08450845+0100  AT7                                                                                                 F16Y86                000042
3 AH 60390101J26FEB2126MAR21    5   BLJ15301530+0100  ALG16201620+0100  736                                                                                                 F16Y85                000043
3 AH 60390201J28FEB2128FEB21      7 BLJ09350935+0100  ALG10501050+0100  AT7                                                                                                 F16Y86                000044
3 AH 60390301J07MAR2107MAR21      7 BLJ09350935+0100  ALG10501050+0100  AT7                                                                                                 F16Y86                000045
3 AH 60390401J14MAR2128MAR21      7 BLJ09350935+0100  ALG10501050+0100  AT7                                                                                                 F16Y86                000046
3 AH 60400101J24FEB2131MAR21  3     ALG10001000+0100  BSK10501050+0100  736                                                                                                 F16Y85                000047
3 AH 60400201J25FEB2125MAR21   4    ALG09450945+0100  BSK10351035+0100  736                                                                                                 F16Y85                000048
3 AH 60400301J01MAR2108MAR211       ALG11301130+0100  BSK12301230+0100  AT7                                                                                                 Y66                   000049
3 AH 60400401J15MAR2115MAR211       ALG11301130+0100  BSK12301230+0100  AT7                                                                                                 Y66                   000050
3 AH 60400501J22MAR2129MAR211       ALG11301130+0100  BSK12301230+0100  AT7                                                                                                 Y66                   000051
3 AH 60410101J24FEB2131MAR21  3     BSK11501150+0100  ALG12401240+0100  736                                                                                                 F16Y85                000052
3 AH 60410201J25FEB2125MAR21   4    BSK11351135+0100  ALG12251225+0100  736                                                                                                 F16Y85                000053
3 AH 60410301J01MAR2108MAR211       BSK13201320+0100  ALG14201420+0100  AT7                                                                                                 Y66                   000054
3 AH 60410401J15MAR2115MAR211       BSK13201320+0100  ALG14201420+0100  AT7                                                                                                 Y66                   000055
3 AH 60410501J22MAR2129MAR211       BSK13201320+0100  ALG14201420+0100  AT7                                                                                                 Y66                   000056
3 AH 60420101J27FEB2127FEB21     6  ALG09500950+0100  BSK10401040+0100  73H                                                                                                 F16Y132               000057
3 AH 60420201J28FEB2128MAR21      7 ALG13401340+0100  BSK14301430+0100  736                                                                                                 F16Y85                000058
3 AH 60420301J06MAR2127MAR21     6  ALG09500950+0100  BSK10401040+0100  736                                                                                                 F16Y85                000059
3 AH 60430101J27FEB2127FEB21     6  BSK11401140+0100  ALG12301230+0100  73H                                                                                                 F16Y132               000060
3 AH 60430201J28FEB2128MAR21      7 BSK15301530+0100  ALG16201620+0100  736                                                                                                 F16Y85                000061
3 AH 60430301J06MAR2127MAR21     6  BSK11401140+0100  ALG12301230+0100  736                                                                                                 F16Y85                000062
3 AH 60500101J02MAR2102MAR21 2      ALG10001000+0100  BJA10451045+0100  AT7                                                                                                 Y66                   000063
3 AH 60500201J09MAR2130MAR21 2      ALG10001000+0100  BJA10451045+0100  AT7                                                                                                 Y66                   000064
3 AH 60510101J02MAR2102MAR21 2      BJA11351135+0100  ALG12201220+0100  AT7                                                                                                 Y66                   000065
3 AH 60510201J09MAR2130MAR21 2      BJA11351135+0100  ALG12201220+0100  AT7                                                                                                 Y66                   000066
3 AH 60520101J25FEB2125FEB21   4    ALG14501450+0100  BJA15351535+0100  AT7                                                                                                 Y66                   000067
3 AH 60520201J04MAR2125MAR21   4    ALG12201220+0100  BJA13051305+0100  AT7                                                                                                 Y66                   000068
3 AH 60530101J25FEB2125FEB21   4    BJA16251625+0100  ALG17101710+0100  AT7                                                                                                 Y66                   000069
3 AH 60530201J04MAR2125MAR21   4    BJA13551355+0100  ALG14401440+0100  AT7                                                                                                 Y66                   000070
3 AH 60560101J25FEB2125FEB21   4    ALG14201420+0100  GJL15101510+0100  AT7                                                                                                 Y66                   000071
3 AH 60560201J27FEB2127FEB21     6  ALG14001400+0100  GJL14501450+0100  AT7                                                                                                 Y66                   000072
3 AH 60560301J02MAR2130MAR21 2      ALG09300930+0100  GJL10201020+0100  736                                                                                                 F16Y85                000073
3 AH 60560401J04MAR2104MAR21   4    ALG09250925+0100  GJL10151015+0100  AT7                                                                                                 Y66                   000074
3 AH 60560501J06MAR2127MAR21     6  ALG13501350+0100  GJL14451445+0100  736                                                                                                 F16Y85                000075
3 AH 60560601J11MAR2111MAR21   4    ALG09250925+0100  GJL10151015+0100  AT7                                                                                                 Y66                   000076
3 AH 60560701J18MAR2118MAR21   4    ALG09250925+0100  GJL10151015+0100  AT7                                                                                                 Y66                   000077
3 AH 60560801J25MAR2125MAR21   4    ALG09250925+0100  GJL10151015+0100  AT7                                                                                                 Y66                   000078
3 AH 60570101J25FEB2125FEB21   4    GJL16001600+0100  ALG16501650+0100  AT7                                                                                                 Y66                   000079
3 AH 60570201J27FEB2127FEB21     6  GJL15501550+0100  ALG16401640+0100  AT7                                                                                                 Y66                   000080
3 AH 60570301J02MAR2130MAR21 2      GJL11201120+0100  ALG12101210+0100  736                                                                                                 F16Y85                000081
3 AH 60570401J04MAR2104MAR21   4    GJL11051105+0100  ALG11551155+0100  AT7                                                                                                 Y66                   000082
3 AH 60570501J06MAR2127MAR21     6  GJL15451545+0100  ALG16401640+0100  736                                                                                                 F16Y85                000083
3 AH 60570601J11MAR2111MAR21   4    GJL11051105+0100  ALG11551155+0100  AT7                                                                                                 Y66                   000084
3 AH 60570701J18MAR2118MAR21   4    GJL11051105+0100  ALG11551155+0100  AT7                                                                                                 Y66                   000085
3 AH 60570801J25MAR2125MAR21   4    GJL11051105+0100  ALG11551155+0100  AT7                                                                                                 Y66                   000086
3 AH 60580101J24FEB2131MAR21  3     ALG09500950+0100  GJL10401040+0100  736                                                                                                 F16Y85                000087
3 AH 60580201J26FEB2126MAR21    5   ALG10001000+0100  GJL10501050+0100  736                                                                                                 F16Y85                000088
3 AH 60580301J01MAR2129MAR211       ALG09450945+0100  GJL10351035+0100  736                                                                                                 F16Y85                000089
3 AH 60590101J24FEB2131MAR21  3     GJL11401140+0100  ALG12301230+0100  736                                                                                                 F16Y85                000090
3 AH 60590201J26FEB2126MAR21    5   GJL11501150+0100  ALG12401240+0100  736                                                                                                 F16Y85                000091
3 AH 60590301J01MAR2129MAR211       GJL11351135+0100  ALG12251225+0100  736                                                                                                 F16Y85                000092
3 AH 60700101J25FEB2118MAR21   4    ALG11451145+0100  LOO12551255+0100  AT7                                                                                                 Y66                   000093
3 AH 60700201J27FEB2127MAR21     6  ALG09400940+0100  LOO10501050+0100  AT7                                                                                                 Y66                   000094
3 AH 60700301J28FEB2128MAR21      7 ALG11301130+0100  LOO12401240+0100  AT7                                                                                                 Y66                   000095
3 AH 60700401J02MAR2130MAR21 2      ALG09500950+0100  LOO11001100+0100  AT7                                                                                                 Y66                   000096
3 AH 60700501J25MAR2125MAR21   4    ALG11451145+0100  LOO12551255+0100  AT7                                                                                                 Y66                   000097
3 AH 60710101J25FEB2118MAR21   4    LOO13451345+0100  ALG14501450+0100  AT7                                                                                                 Y66                   000098
3 AH 60710201J27FEB2127MAR21     6  LOO11401140+0100  ALG12451245+0100  AT7                                                                                                 Y66                   000099
3 AH 60710301J28FEB2128MAR21      7 LOO13301330+0100  ALG14351435+0100  AT7                                                                                                 Y66                   000100
3 AH 60710401J02MAR2130MAR21 2      LOO11501150+0100  ALG12551255+0100  AT7                                                                                                 Y66                   000101
3 AH 60710501J25MAR2125MAR21   4    LOO13451345+0100  ALG14501450+0100  AT7                                                                                                 Y66                   000102
3 AH 61000101J24FEB2124FEB21  3     ALG06000600+0100  ORN07150715+0100  AT7                                                                                                 Y66                   000103
3 AH 61000201J01MAR2129MAR211       ALG10001000+0100  ORN11001100+0100  73H                                                                                                 F16Y132               000104
3 AH 61000301J03MAR2131MAR21  3     ALG07000700+0100  ORN08150815+0100  AT7                                                                                                 Y66                   000105
3 AH 61030101J24FEB2124FEB21  3     ORN16251625+0100  ALG17301730+0100  AT7                                                                                                 Y66                   000106
3 AH 61030201J03MAR2103MAR21  3     ORN16001600+0100  ALG17151715+0100  AT7                                                                                                 Y66                   000107
3 AH 61030301J10MAR2131MAR21  3     ORN16001600+0100  ALG17151715+0100  AT7                                                                                                 Y66                   000108
3 AH 61060101J24FEB2101MAR211 3 56  ALG18301830+0100  ORN19301930+0100  73H                                                                                                 F16Y132               000109
3 AH 61060201J25FEB2125FEB21   4    ALG18001800+0100  ORN19001900+0100  73H                                                                                                 F16Y132               000110
3 AH 61060301J28FEB2131MAR21 23 5 7 ALG18451845+0100  ORN19451945+0100  73H                                                                                                 F16Y132               000111
3 AH 61060401J04MAR2129MAR211  4 6  ALG18301830+0100  ORN19301930+0100  73H                                                                                                 F16Y132               000112
3 AH 61070101J24FEB2127FEB21  3  6  ORN07450745+0100  ALG08450845+0100  73H                                                                                                 F16Y132               000113
3 AH 61070201J25FEB2125FEB21   4    ORN07000700+0100  ALG08000800+0100  736                                                                                                 F16Y85                000114
3 AH 61070301J26FEB2105MAR21    5   ORN06300630+0100  ALG07300730+0100  73H                                                                                                 F16Y132               000115
3 AH 61070401J28FEB2104MAR21   4  7 ORN06450645+0100  ALG07450745+0100  73H                                                                                                 F16Y132               000116
3 AH 61070501J01MAR2131MAR21123  6  ORN07000700+0100  ALG08000800+0100  73H                                                                                                 F16Y132               000117
3 AH 61070601J07MAR2128MAR21    5 7 ORN06300630+0100  ALG07300730+0100  73H                                                                                                 F16Y132               000118
3 AH 61070701J11MAR2125MAR21   4    ORN06450645+0100  ALG07450745+0100  73H                                                                                                 F16Y132               000119
3 AH 61070801J01APR2101APR21   4    ORN07000700+0100  ALG08000800+0100  73H                                                                                                 F16Y132               000120
3 AH 61110101J01MAR2129MAR211       ORN13251325+0100  ALG14251425+0100  73H                                                                                                 F16Y132               000121
3 AH 61180101J26FEB2126MAR21    5   ALG09300930+0100  TLM10301030+0100  736                                                                                                 F16Y85                000122
3 AH 61190101J26FEB2126MAR21    5   TLM11301130+0100  ALG12301230+0100  736                                                                                                 F16Y85                000123
3 AH 61200101J01MAR2129MAR211       ALG13001300+0100  TLM14001400+0100  73H                                                                                                 F16Y132               000124
3 AH 61210101J01MAR2129MAR211       TLM15001500+0100  ALG16001600+0100  73H                                                                                                 F16Y132               000125
3 AH 61240101J24FEB2103MAR21  3     ALG10401040+0100  TID11301130+0100  AT7                                                                                                 Y66                   000126
3 AH 61240201J28FEB2114MAR21      7 ALG11501150+0100  TID12401240+0100  AT7                                                                                                 Y66                   000127
3 AH 61240301J10MAR2110MAR21  3     ALG10401040+0100  TID11301130+0100  AT7                                                                                                 Y66                   000128
3 AH 61240401J17MAR2117MAR21  3     ALG10401040+0100  TID11301130+0100  AT7                                                                                                 Y66                   000129
3 AH 61240501J21MAR2121MAR21      7 ALG11501150+0100  TID12401240+0100  AT7                                                                                                 Y66                   000130
3 AH 61240601J24MAR2124MAR21  3     ALG10401040+0100  TID11301130+0100  AT7                                                                                                 Y66                   000131
3 AH 61240701J28MAR2128MAR21      7 ALG11501150+0100  TID12401240+0100  AT7                                                                                                 Y66                   000132
3 AH 61240801J31MAR2131MAR21  3     ALG10401040+0100  TID11301130+0100  AT7                                                                                                 Y66                   000133
3 AH 61250101J24FEB2103MAR21  3     TID12201220+0100  ALG13101310+0100  AT7                                                                                                 Y66                   000134
3 AH 61250201J28FEB2114MAR21      7 TID13301330+0100  ALG14201420+0100  AT7                                                                                                 Y66                   000135
3 AH 61250301J10MAR2110MAR21  3     TID12201220+0100  ALG13101310+0100  AT7                                                                                                 Y66                   000136
3 AH 61250401J17MAR2117MAR21  3     TID12201220+0100  ALG13101310+0100  AT7                                                                                                 Y66                   000137
3 AH 61250501J21MAR2121MAR21      7 TID13301330+0100  ALG14201420+0100  AT7                                                                                                 Y66                   000138
3 AH 61250601J24MAR2124MAR21  3     TID12201220+0100  ALG13101310+0100  AT7                                                                                                 Y66                   000139
3 AH 61250701J28MAR2128MAR21      7 TID13301330+0100  ALG14201420+0100  AT7                                                                                                 Y66                   000140
3 AH 61250801J31MAR2131MAR21  3     TID12201220+0100  ALG13101310+0100  AT7                                                                                                 Y66                   000141
3 AH 61260101J24FEB2124FEB21  3     ORN07000700+0100  EBH08000800+0100  AT7                                                                                                 Y66                   000142
3 AH 61260201J03MAR2131MAR21  3     ORN06200620+0100  EBH07200720+0100  AT7                                                                                                 Y66                   000143
3 AH 61270101J24FEB2124FEB21  3     EBH08500850+0100  ORN09500950+0100  AT7                                                                                                 Y66                   000144
3 AH 61270201J03MAR2131MAR21  3     EBH08100810+0100  ORN09150915+0100  AT7                                                                                                 Y66                   000145
3 AH 61280101J28FEB2128FEB21      7 ORN07000700+0100  MZW08200820+0100  AT7                                                                                                 Y66                   000146
3 AH 61280201J07MAR2128MAR21      7 ORN07000700+0100  MZW08200820+0100  AT7                                                                                                 Y66                   000147
3 AH 61290101J28FEB2128FEB21      7 MZW09100910+0100  ORN10351035+0100  AT7                                                                                                 Y66                   000148
3 AH 61290201J07MAR2128MAR21      7 MZW09100910+0100  ORN10351035+0100  AT7                                                                                                 Y66                   000149
3 AH 61320101J25FEB2104MAR21   4    ALG10001000+0100  CBH12151215+0100  AT7                                                                                                 Y66                   000150
3 AH 61320201J27FEB2127MAR21     6  ALG09000900+0100  CBH11151115+0100  AT7                                                                                                 Y66                   000151
3 AH 61320301J01MAR2129MAR211       ALG09000900+0100  CBH10351035+0100  73H                                                                                                 F16Y132               000152
3 AH 61320401J11MAR2111MAR21   4    ALG10001000+0100  CBH12151215+0100  AT7                                                                                                 Y66                   000153
3 AH 61320501J18MAR2125MAR21   4    ALG10001000+0100  CBH12151215+0100  AT7                                                                                                 Y66                   000154
3 AH 61330101J25FEB2104MAR21   4    CBH13051305+0100  ALG15051505+0100  AT7                                                                                                 Y66                   000155
3 AH 61330201J27FEB2127MAR21     6  CBH12051205+0100  ALG14051405+0100  AT7                                                                                                 Y66                   000156
3 AH 61330301J01MAR2129MAR211       CBH15101510+0100  ALG16401640+0100  73H                                                                                                 F16Y132               000157
3 AH 61330401J11MAR2111MAR21   4    CBH13051305+0100  ALG15051505+0100  AT7                                                                                                 Y66                   000158
3 AH 61330501J18MAR2125MAR21   4    CBH13051305+0100  ALG15051505+0100  AT7                                                                                                 Y66                   000159
3 AH 61340101J26FEB2126MAR21    5   ALG10001000+0100  CBH11301130+0100  AT7                                                                                                 Y66                   000160
3 AH 61350101J26FEB2126MAR21    5   CBH12301230+0100  ALG14001400+0100  AT7                                                                                                 Y66                   000161
3 AH 61400101J26FEB2126MAR21    5   ALG08300830+0100  AZR11201120+0100  AT7                                                                                                 Y66                   000162
3 AH 61400201J28FEB2128MAR21      7 ALG07300730+0100  AZR10201020+0100  AT7                                                                                                 Y66                   000163
3 AH 61400301J01MAR2130MAR2112      ALG14001400+0100  AZR16501650+0100  AT7                                                                                                 Y66                   000164
3 AH 61410101J25FEB2101APR21   4    AZR07000700+0100  ALG09500950+0100  AT7                                                                                                 Y66                   000165
3 AH 61410201J27FEB2127MAR21     6  AZR07000700+0100  ALG09500950+0100  AT7                                                                                                 Y66                   000166
3 AH 61410301J01MAR2129MAR211       AZR13201320+0100  ALG16101610+0100  AT7                                                                                                 Y66                   000167
3 AH 61410401J02MAR2130MAR21 2      AZR12551255+0100  ALG15351535+0100  AT7                                                                                                 Y66                   000168
3 AH 61420101J25FEB2128MAR21   4  7 ALG09000900+0100  AZR10501050+0100  73H                                                                                                 F16Y132               000169
3 AH 61420201J27FEB2127MAR21     6  ALG09200920+0100  AZR11101110+0100  736                                                                                                 F16Y86                000170
3 AH 61420301J01MAR2115MAR211       ALG10001000+0100  AZR12501250+0100  AT7                                                                                                 Y66                   000171
3 AH 61420401J22MAR2122MAR211       ALG10001000+0100  AZR12501250+0100  AT7                                                                                                 Y66                   000172
3 AH 61420501J29MAR2129MAR211       ALG10001000+0100  AZR12501250+0100  AT7                                                                                                 Y66                   000173
3 AH 61430101J25FEB2128MAR21   4  7 AZR11501150+0100  ALG13401340+0100  73H                                                                                                 F16Y132               000174
3 AH 61430201J27FEB2127MAR21     6  AZR12101210+0100  ALG14001400+0100  736                                                                                                 F16Y86                000175
3 AH 61430301J01MAR2115MAR211       AZR13401340+0100  ALG16301630+0100  AT7                                                                                                 Y66                   000176
3 AH 61430401J22MAR2122MAR211       AZR13401340+0100  ALG16301630+0100  AT7                                                                                                 Y66                   000177
3 AH 61430501J29MAR2129MAR211       AZR13401340+0100  ALG16301630+0100  AT7                                                                                                 Y66                   000178
3 AH 61460101J25FEB2125MAR21   4    ALG09050905+0100  TIN11351135+0100  73H                                                                                                 F16Y132               000179
3 AH 61460201J26FEB2126MAR21    5   ALG10001000+0100  TIN12301230+0100  73H                                                                                                 F16Y132               000180
3 AH 61460301J27FEB2127MAR21     6  ALG11401140+0100  TIN14101410+0100  73H                                                                                                 F16Y132               000181
3 AH 61460401J01MAR2129MAR211       ALG10301030+0100  TIN13001300+0100  73H                                                                                                 F16Y132               000182
3 AH 61470101J25FEB2125MAR21   4    TIN12301230+0100  ALG14451445+0100  73H                                                                                                 F16Y132               000183
3 AH 61470201J26FEB2126FEB21    5   TIN13301330+0100  ALG15401540+0100  73H                                                                                                 F16Y132               000184
3 AH 61470301J27FEB2127MAR21     6  TIN15101510+0100  ALG17301730+0100  73H                                                                                                 F16Y132               000185
3 AH 61470401J01MAR2129MAR211       TIN14001400+0100  ALG16201620+0100  73H                                                                                                 F16Y132               000186
3 AH 61470501J05MAR2126MAR21    5   TIN13201320+0100  ALG15401540+0100  73H                                                                                                 F16Y132               000187
3 AH 61480101J02MAR2130MAR21 2      ALG09300930+0100  CBH11001100+0100  73H                                                                                                 F16Y132               000188
3 AH 61480102J02MAR2130MAR21 2      CBH12001200+0100  TIN13101310+0100  73H                                                                                                 F16Y132               000189
3 AH 61490101J02MAR2130MAR21 2      TIN14101410+0100  ALG16301630+0100  73H                                                                                                 F16Y132               000190
3 AH 61500101J02MAR2130MAR21 2      ALG09300930+0100  TIN12001200+0100  73H                                                                                                 F16Y132               000191
3 AH 61510101J02MAR2130MAR21 2      TIN13001300+0100  CBH14001400+0100  73H                                                                                                 F16Y132               000192
3 AH 61510102J02MAR2130MAR21 2      CBH15001500+0100  ALG16351635+0100  73H                                                                                                 F16Y132               000193
3 AH 61560101J24FEB2131MAR21  3     ALG12301230+0100  TMX14001400+0100  73H                                                                                                 F16Y132               000194
3 AH 61560201J27FEB2127MAR21     6  ALG09300930+0100  TMX11001100+0100  73H                                                                                                 F16Y132               000195
3 AH 61560301J28FEB2128MAR21      7 ALG10001000+0100  TMX11301130+0100  73H                                                                                                 F16Y132               000196
3 AH 61560401J01MAR2129MAR211       ALG09300930+0100  TMX11001100+0100  736                                                                                                 F16Y85                000197
3 AH 61570101J24FEB2131MAR21  3     TMX15001500+0100  ALG16301630+0100  73H                                                                                                 F16Y132               000198
3 AH 61570201J27FEB2127MAR21     6  TMX12001200+0100  ALG13301330+0100  73H                                                                                                 F16Y132               000199
3 AH 61570301J28FEB2128MAR21      7 TMX12301230+0100  ALG14001400+0100  73H                                                                                                 F16Y132               000200
3 AH 61570401J01MAR2129MAR211       TMX12001200+0100  ALG13301330+0100  736                                                                                                 F16Y85                000201
3 AH 61640101J25FEB2125MAR21   4    AAE10451045+0100  ORN12351235+0100  73H                                                                                                 F16Y132               000202
3 AH 61640201J27FEB2127FEB21     6  AAE14351435+0100  ORN16001600+0100  73H                                                                                                 F16Y132               000203
3 AH 61640301J01MAR2101MAR211       AAE15001500+0100  ORN17001700+0100  AT7                                                                                                 Y66                   000204
3 AH 61640401J06MAR2127MAR21     6  AAE14351435+0100  ORN16001600+0100  73H                                                                                                 F16Y132               000205
3 AH 61640501J08MAR2129MAR211       AAE15001500+0100  ORN17001700+0100  AT7                                                                                                 Y66                   000206
3 AH 61650101J25FEB2125MAR21   4    ORN13351335+0100  AAE15301530+0100  73H                                                                                                 F16Y132               000207
3 AH 61650201J27FEB2127FEB21     6  ORN12201220+0100  AAE13351335+0100  73H                                                                                                 F16Y132               000208
3 AH 61650301J01MAR2101MAR211       ORN12151215+0100  AAE14151415+0100  AT7                                                                                                 Y66                   000209
3 AH 61650401J06MAR2127MAR21     6  ORN12201220+0100  AAE13351335+0100  73H                                                                                                 F16Y132               000210
3 AH 61650501J08MAR2129MAR211       ORN12151215+0100  AAE14151415+0100  AT7                                                                                                 Y66                   000211
3 AH 61680101J24FEB2124FEB21  3     ORN11001100+0100  CZL12301230+0100  73H                                                                                                 F16Y132               000212
3 AH 61680201J01MAR2101MAR211       ORN07000700+0100  CZL08400840+0100  AT7                                                                                                 Y66                   000213
3 AH 61680301J02MAR2102MAR21 2      ORN07350735+0100  CZL09150915+0100  AT7                                                                                                 Y66                   000214
3 AH 61680401J03MAR2103MAR21  3     ORN10451045+0100  CZL12151215+0100  73H                                                                                                 F16Y132               000215
3 AH 61680501J08MAR2129MAR211       ORN07000700+0100  CZL08400840+0100  AT7                                                                                                 Y66                   000216
3 AH 61680601J09MAR2130MAR21 2      ORN07350735+0100  CZL09150915+0100  AT7                                                                                                 Y66                   000217
3 AH 61680701J10MAR2131MAR21  3     ORN10451045+0100  CZL12151215+0100  73H                                                                                                 F16Y132               000218
3 AH 61690101J24FEB2124FEB21  3     CZL13301330+0100  ORN15001500+0100  73H                                                                                                 F16Y132               000219
3 AH 61690201J01MAR2101MAR211       CZL09300930+0100  ORN11251125+0100  AT7                                                                                                 Y66                   000220
3 AH 61690301J02MAR2102MAR21 2      CZL10051005+0100  ORN12001200+0100  AT7                                                                                                 Y66                   000221
3 AH 61690401J03MAR2103MAR21  3     CZL13151315+0100  ORN14451445+0100  73H                                                                                                 F16Y132               000222
3 AH 61690501J08MAR2129MAR211       CZL09300930+0100  ORN11251125+0100  AT7                                                                                                 Y66                   000223
3 AH 61690601J09MAR2130MAR21 2      CZL10051005+0100  ORN12001200+0100  AT7                                                                                                 Y66                   000224
3 AH 61690701J10MAR2131MAR21  3     CZL13151315+0100  ORN14451445+0100  73H                                                                                                 F16Y132               000225
3 AH 61700101J24FEB2124FEB21  3     ALG08050805+0100  AAE09200920+0100  AT7                                                                                                 Y66                   000226
3 AH 61700201J26FEB2126MAR21    5   ALG07300730+0100  AAE08450845+0100  AT7                                                                                                 Y66                   000227
3 AH 61700301J27FEB2108MAR211    67 ALG07150715+0100  AAE08300830+0100  AT7                                                                                                 Y66                   000228
3 AH 61700401J02MAR2130MAR21 2      ALG13501350+0100  AAE14501450+0100  736                                                                                                 F16Y85                000229
3 AH 61700501J03MAR2110MAR21  3     ALG08050805+0100  AAE09200920+0100  AT7                                                                                                 Y66                   000230
3 AH 61700601J13MAR2115MAR211    6  ALG07150715+0100  AAE08300830+0100  AT7                                                                                                 Y66                   000231
3 AH 61700701J14MAR2121MAR21     67 ALG07150715+0100  AAE08300830+0100  AT7                                                                                                 Y66                   000232
3 AH 61700801J17MAR2117MAR21  3     ALG08050805+0100  AAE09200920+0100  AT7                                                                                                 Y66                   000233
3 AH 61700901J22MAR2129MAR211    67 ALG07150715+0100  AAE08300830+0100  AT7                                                                                                 Y66                   000234
3 AH 61701001J24MAR2124MAR21  3     ALG08050805+0100  AAE09200920+0100  AT7                                                                                                 Y66                   000235
3 AH 61701101J31MAR2131MAR21  3     ALG08050805+0100  AAE09200920+0100  AT7                                                                                                 Y66                   000236
3 AH 61710101J24FEB2124FEB21  3     AAE10101010+0100  ALG11301130+0100  AT7                                                                                                 Y66                   000237
3 AH 61710201J26FEB2126MAR21    5   AAE09350935+0100  ALG10551055+0100  AT7                                                                                                 Y66                   000238
3 AH 61710301J27FEB2106MAR21     6  AAE09200920+0100  ALG10351035+0100  AT7                                                                                                 Y66                   000239
3 AH 61710401J28FEB2114MAR211     7 AAE09200920+0100  ALG10401040+0100  AT7                                                                                                 Y66                   000240
3 AH 61710501J02MAR2130MAR21 2      AAE15501550+0100  ALG16501650+0100  736                                                                                                 F16Y85                000241
3 AH 61710601J03MAR2110MAR21  3     AAE10101010+0100  ALG11301130+0100  AT7                                                                                                 Y66                   000242
3 AH 61710701J13MAR2113MAR21     6  AAE09200920+0100  ALG10351035+0100  AT7                                                                                                 Y66                   000243
3 AH 61710801J15MAR2115MAR211       AAE09200920+0100  ALG10401040+0100  AT7                                                                                                 Y66                   000244
3 AH 61710901J17MAR2117MAR21  3     AAE10101010+0100  ALG11301130+0100  AT7                                                                                                 Y66                   000245
3 AH 61711001J20MAR2127MAR21     6  AAE09200920+0100  ALG10351035+0100  AT7                                                                                                 Y66                   000246
3 AH 61711101J21MAR2129MAR211     7 AAE09200920+0100  ALG10401040+0100  AT7                                                                                                 Y66                   000247
3 AH 61711201J24MAR2124MAR21  3     AAE10101010+0100  ALG11301130+0100  AT7                                                                                                 Y66                   000248
3 AH 61711301J31MAR2131MAR21  3     AAE10101010+0100  ALG11301130+0100  AT7                                                                                                 Y66                   000249
3 AH 61760101J24FEB2105MAR21  3 5   ALG14001400+0100  AAE15151515+0100  AT7                                                                                                 Y66                   000250
3 AH 61760201J27FEB2113MAR21     67 ALG15001500+0100  AAE16151615+0100  AT7                                                                                                 Y66                   000251
3 AH 61760301J01MAR2129MAR211       ALG13251325+0100  AAE14401440+0100  AT7                                                                                                 Y66                   000252
3 AH 61760401J02MAR2130MAR21 2      ALG07150715+0100  AAE08300830+0100  AT7                                                                                                 Y66                   000253
3 AH 61760501J10MAR2110MAR21  3     ALG14001400+0100  AAE15151515+0100  AT7                                                                                                 Y66                   000254
3 AH 61760601J12MAR2119MAR21  3 5   ALG14001400+0100  AAE15151515+0100  AT7                                                                                                 Y66                   000255
3 AH 61760701J14MAR2114MAR21      7 ALG15001500+0100  AAE16151615+0100  AT7                                                                                                 Y66                   000256
3 AH 61760801J20MAR2128MAR21     67 ALG15001500+0100  AAE16151615+0100  AT7                                                                                                 Y66                   000257
3 AH 61760901J24MAR2124MAR21  3     ALG14001400+0100  AAE15151515+0100  AT7                                                                                                 Y66                   000258
3 AH 61761001J26MAR2131MAR21  3 5   ALG14001400+0100  AAE15151515+0100  AT7                                                                                                 Y66                   000259
3 AH 61770101J24FEB2105MAR21  3 5   AAE16051605+0100  ALG17251725+0100  AT7                                                                                                 Y66                   000260
3 AH 61770201J27FEB2113MAR21     67 AAE17051705+0100  ALG18251825+0100  AT7                                                                                                 Y66                   000261
3 AH 61770301J01MAR2129MAR211       AAE15301530+0100  ALG16501650+0100  AT7                                                                                                 Y66                   000262
3 AH 61770401J02MAR2130MAR21 2      AAE09200920+0100  ALG10401040+0100  AT7                                                                                                 Y66                   000263
3 AH 61770501J10MAR2110MAR21  3     AAE16051605+0100  ALG17251725+0100  AT7                                                                                                 Y66                   000264
3 AH 61770601J12MAR2119MAR21  3 5   AAE16051605+0100  ALG17251725+0100  AT7                                                                                                 Y66                   000265
3 AH 61770701J14MAR2114MAR21      7 AAE17051705+0100  ALG18251825+0100  AT7                                                                                                 Y66                   000266
3 AH 61770801J20MAR2128MAR21     67 AAE17051705+0100  ALG18251825+0100  AT7                                                                                                 Y66                   000267
3 AH 61770901J24MAR2124MAR21  3     AAE16051605+0100  ALG17251725+0100  AT7                                                                                                 Y66                   000268
3 AH 61771001J26MAR2131MAR21  3 5   AAE16051605+0100  ALG17251725+0100  AT7                                                                                                 Y66                   000269
3 AH 61800101J24FEB2124FEB21  3     ALG07000700+0100  ORN08150815+0100  AT7                                                                                                 Y66                   000270
3 AH 61800201J25FEB2125MAR21   4    ALG06450645+0100  ORN08000800+0100  AT7                                                                                                 Y66                   000271
3 AH 61800301J26FEB2119MAR21    5   ALG07300730+0100  ORN08450845+0100  AT7                                                                                                 Y66                   000272
3 AH 61800401J27FEB2113MAR21     6  ALG07300730+0100  ORN08450845+0100  AT7                                                                                                 Y66                   000273
3 AH 61800501J28FEB2114MAR21      7 ALG07400740+0100  ORN08550855+0100  AT7                                                                                                 Y66                   000274
3 AH 61800601J01MAR2101MAR211       ALG06300630+0100  ORN07450745+0100  AT7                                                                                                 Y66                   000275
3 AH 61800701J02MAR2130MAR21 2      ALG09250925+0100  ORN10251025+0100  736                                                                                                 F16Y85                000276
3 AH 61800801J08MAR2122MAR211       ALG06300630+0100  ORN07450745+0100  AT7                                                                                                 Y66                   000277
3 AH 61800901J20MAR2127MAR21    56  ALG07300730+0100  ORN08450845+0100  AT7                                                                                                 Y66                   000278
3 AH 61801001J21MAR2121MAR21      7 ALG07400740+0100  ORN08550855+0100  AT7                                                                                                 Y66                   000279
3 AH 61801101J28MAR2128MAR21      7 ALG07400740+0100  ORN08550855+0100  AT7                                                                                                 Y66                   000280
3 AH 61801201J29MAR2129MAR211       ALG06300630+0100  ORN07450745+0100  AT7                                                                                                 Y66                   000281
3 AH 61810101J24FEB2124FEB21  3     ORN09050905+0100  ALG10201020+0100  AT7                                                                                                 Y66                   000282
3 AH 61810201J25FEB2125MAR21   4    ORN08500850+0100  ALG10051005+0100  AT7                                                                                                 Y66                   000283
3 AH 61810301J26FEB2119MAR21    5   ORN09350935+0100  ALG10501050+0100  AT7                                                                                                 Y66                   000284
3 AH 61810401J27FEB2113MAR21     6  ORN09350935+0100  ALG10501050+0100  AT7                                                                                                 Y66                   000285
3 AH 61810501J28FEB2114MAR21      7 ORN09450945+0100  ALG11001100+0100  AT7                                                                                                 Y66                   000286
3 AH 61810601J01MAR2101MAR211       ORN08350835+0100  ALG09500950+0100  AT7                                                                                                 Y66                   000287
3 AH 61810701J02MAR2130MAR21 2      ORN11251125+0100  ALG12251225+0100  736                                                                                                 F16Y85                000288
3 AH 61810801J08MAR2122MAR211       ORN08350835+0100  ALG09500950+0100  AT7                                                                                                 Y66                   000289
3 AH 61810901J20MAR2127MAR21    56  ORN09350935+0100  ALG10501050+0100  AT7                                                                                                 Y66                   000290
3 AH 61811001J21MAR2121MAR21      7 ORN09450945+0100  ALG11001100+0100  AT7                                                                                                 Y66                   000291
3 AH 61811101J28MAR2128MAR21      7 ORN09450945+0100  ALG11001100+0100  AT7                                                                                                 Y66                   000292
3 AH 61811201J29MAR2129MAR211       ORN08350835+0100  ALG09500950+0100  AT7                                                                                                 Y66                   000293
3 AH 61820101J24FEB2124FEB21  3     ALG14001400+0100  ORN15001500+0100  736                                                                                                 F16Y85                000294
3 AH 61820201J03MAR2131MAR21  3     ALG13451345+0100  ORN14451445+0100  736                                                                                                 F16Y85                000295
3 AH 61830101J24FEB2124FEB21  3     ORN16001600+0100  ALG17001700+0100  73H                                                                                                 F16Y132               000296
3 AH 61830201J03MAR2131MAR21  3     ORN15451545+0100  ALG16451645+0100  736                                                                                                 F16Y85                000297
3 AH 61840101J25FEB2125MAR21   4    ALG15301530+0100  ORN16451645+0100  AT7                                                                                                 Y66                   000298
3 AH 61840201J26FEB2127MAR21    56  ALG14001400+0100  ORN15001500+0100  736                                                                                                 F16Y85                000299
3 AH 61840301J28FEB2128MAR21      7 ALG14451445+0100  ORN15451545+0100  736                                                                                                 F16Y85                000300
3 AH 61840401J02MAR2130MAR21 2      ALG13451345+0100  ORN14451445+0100  736                                                                                                 F16Y85                000301
3 AH 61850101J25FEB2125MAR21   4    ORN17351735+0100  ALG18501850+0100  AT7                                                                                                 Y66                   000302
3 AH 61850201J26FEB2130MAR21 2  56  ORN16001600+0100  ALG17001700+0100  736                                                                                                 F16Y85                000303
3 AH 61850301J28FEB2128MAR21      7 ORN16451645+0100  ALG17451745+0100  736                                                                                                 F16Y85                000304
3 AH 61900101J24FEB2131MAR21  3     ALG07200720+0100  CZL08300830+0100  AT7                                                                                                 Y66                   000305
3 AH 61900201J25FEB2122MAR211  4 6  ALG07300730+0100  CZL08400840+0100  AT7                                                                                                 Y66                   000306
3 AH 61900301J26FEB2126MAR21    5   ALG08300830+0100  CZL09200920+0100  736                                                                                                 F16Y85                000307
3 AH 61900401J28FEB2128MAR21      7 ALG09450945+0100  CZL10351035+0100  736                                                                                                 F16Y85                000308
3 AH 61900501J02MAR2130MAR21 2      ALG07050705+0100  CZL08150815+0100  AT7                                                                                                 Y66                   000309
3 AH 61900601J25MAR2125MAR21   4    ALG07300730+0100  CZL08400840+0100  AT7                                                                                                 Y66                   000310
3 AH 61900701J27MAR2129MAR211    6  ALG07300730+0100  CZL08400840+0100  AT7                                                                                                 Y66                   000311
3 AH 61910101J24FEB2131MAR21  3     CZL09200920+0100  ALG10301030+0100  AT7                                                                                                 Y66                   000312
3 AH 61910201J25FEB2122MAR211  4 6  CZL09300930+0100  ALG10401040+0100  AT7                                                                                                 Y66                   000313
3 AH 61910301J26FEB2126MAR21    5   CZL10201020+0100  ALG11101110+0100  736                                                                                                 F16Y85                000314
3 AH 61910401J28FEB2128MAR21      7 CZL11251125+0100  ALG12151215+0100  736                                                                                                 F16Y85                000315
3 AH 61910501J02MAR2130MAR21 2      CZL09050905+0100  ALG10151015+0100  AT7                                                                                                 Y66                   000316
3 AH 61910601J25MAR2125MAR21   4    CZL09300930+0100  ALG10401040+0100  AT7                                                                                                 Y66                   000317
3 AH 61910701J27MAR2129MAR211    6  CZL09300930+0100  ALG10401040+0100  AT7                                                                                                 Y66                   000318
3 AH 61920101J26FEB2126FEB21    5   ALG13501350+0100  CZL15001500+0100  AT7                                                                                                 Y66                   000319
3 AH 61920201J27FEB2127MAR21     6  ALG15001500+0100  CZL15501550+0100  73H                                                                                                 F16Y132               000320
3 AH 61920301J01MAR2129MAR211       ALG14301430+0100  CZL15201520+0100  736                                                                                                 F16Y85                000321
3 AH 61920401J02MAR2130MAR21 2  5   ALG13501350+0100  CZL14401440+0100  736                                                                                                 F16Y85                000322
3 AH 61930101J26FEB2126FEB21    5   CZL15501550+0100  ALG17001700+0100  AT7                                                                                                 Y66                   000323
3 AH 61930201J27FEB2127MAR21     6  CZL16501650+0100  ALG17401740+0100  73H                                                                                                 F16Y132               000324
3 AH 61930301J01MAR2129MAR211       CZL16201620+0100  ALG17101710+0100  736                                                                                                 F16Y85                000325
3 AH 61930401J02MAR2130MAR21 2  5   CZL15401540+0100  ALG16301630+0100  736                                                                                                 F16Y85                000326
3 AH 61940101J24FEB2131MAR21  3     ALG15551555+0100  CZL17051705+0100  AT7                                                                                                 Y66                   000327
3 AH 61940201J25FEB2125MAR21   4    ALG14001400+0100  CZL14501450+0100  736                                                                                                 F16Y85                000328
3 AH 61940301J28FEB2128FEB21      7 ALG14051405+0100  CZL15151515+0100  AT7                                                                                                 Y66                   000329
3 AH 61940401J07MAR2128MAR21      7 ALG14051405+0100  CZL14551455+0100  736                                                                                                 F16Y85                000330
3 AH 61950101J24FEB2131MAR21  3     CZL17551755+0100  ALG19051905+0100  AT7                                                                                                 Y66                   000331
3 AH 61950201J25FEB2125FEB21   4    CZL16101610+0100  ALG17001700+0100  736                                                                                                 F16Y85                000332
3 AH 61950301J28FEB2128FEB21      7 CZL16051605+0100  ALG17151715+0100  AT7                                                                                                 Y66                   000333
3 AH 61950401J04MAR2125MAR21   4    CZL15501550+0100  ALG16401640+0100  736                                                                                                 F16Y85                000334
3 AH 61950501J07MAR2128MAR21      7 CZL15551555+0100  ALG16451645+0100  736                                                                                                 F16Y85                000335
3 AH 62000101J24FEB2124FEB21  3     ALG16151615+0100  GHA17451745+0100  AT7                                                                                                 Y66                   000336
3 AH 62000201J25FEB2128FEB21   4567 ALG15301530+0100  GHA17001700+0100  AT7                                                                                                 Y66                   000337
3 AH 62000301J01MAR2131MAR211 34567 ALG17301730+0100  GHA19001900+0100  AT7                                                                                                 Y66                   000338
3 AH 62010101J25FEB2128FEB21   4567 GHA07000700+0100  ALG08300830+0100  AT7                                                                                                 Y66                   000339
3 AH 62010201J01MAR2113MAR2112 456  GHA07150715+0100  ALG08450845+0100  AT7                                                                                                 Y66                   000340
3 AH 62010301J07MAR2107MAR21      7 GHA07350735+0100  ALG09050905+0100  AT7                                                                                                 Y66                   000341
3 AH 62010401J14MAR2120MAR2112 4567 GHA07150715+0100  ALG08450845+0100  AT7                                                                                                 Y66                   000342
3 AH 62010501J21MAR2121MAR21      7 GHA07350735+0100  ALG09050905+0100  AT7                                                                                                 Y66                   000343
3 AH 62010601J22MAR2101APR2112 4567 GHA07150715+0100  ALG08450845+0100  AT7                                                                                                 Y66                   000344
3 AH 62160101J24FEB2124FEB21  3     ALG13201320+0100  OGX14351435+0100  73H                                                                                                 F16Y132               000345
3 AH 62160201J25FEB2104MAR21   4    ALG12451245+0100  OGX14251425+0100  AT7                                                                                                 Y66                   000346
3 AH 62160301J26FEB2126MAR21    5   ALG11401140+0100  OGX13201320+0100  AT7                                                                                                 Y66                   000347
3 AH 62160401J27FEB2106MAR21     6  ALG11301130+0100  OGX13101310+0100  AT7                                                                                                 Y66                   000348
3 AH 62160501J28FEB2128MAR21      7 ALG07150715+0100  OGX08550855+0100  AT7                                                                                                 Y66                   000349
3 AH 62160601J02MAR2123MAR21 2      ALG08000800+0100  OGX09400940+0100  AT7                                                                                                 Y66                   000350
3 AH 62160701J03MAR2131MAR21  3     ALG13201320+0100  OGX14351435+0100  736                                                                                                 F16Y85                000351
3 AH 62160801J11MAR2111MAR21   4    ALG12451245+0100  OGX14251425+0100  AT7                                                                                                 Y66                   000352
3 AH 62160901J13MAR2113MAR21     6  ALG11301130+0100  OGX13101310+0100  AT7                                                                                                 Y66                   000353
3 AH 62161001J18MAR2118MAR21   4    ALG12451245+0100  OGX14251425+0100  AT7                                                                                                 Y66                   000354
3 AH 62161101J20MAR2127MAR21     6  ALG11301130+0100  OGX13101310+0100  AT7                                                                                                 Y66                   000355
3 AH 62161201J25MAR2125MAR21   4    ALG12451245+0100  OGX14251425+0100  AT7                                                                                                 Y66                   000356
3 AH 62161301J30MAR2130MAR21 2      ALG08000800+0100  OGX09400940+0100  AT7                                                                                                 Y66                   000357
3 AH 62170101J24FEB2124FEB21  3     OGX15351535+0100  ALG16451645+0100  73H                                                                                                 F16Y132               000358
3 AH 62170201J25FEB2104MAR21   4    OGX15151515+0100  ALG16551655+0100  AT7                                                                                                 Y66                   000359
3 AH 62170301J26FEB2126MAR21    5   OGX14101410+0100  ALG15501550+0100  AT7                                                                                                 Y66                   000360
3 AH 62170401J27FEB2106MAR21     6  OGX14001400+0100  ALG15401540+0100  AT7                                                                                                 Y66                   000361
3 AH 62170501J28FEB2128MAR21      7 OGX09450945+0100  ALG11251125+0100  AT7                                                                                                 Y66                   000362
3 AH 62170601J02MAR2123MAR21 2      OGX15501550+0100  ALG17301730+0100  AT7                                                                                                 Y66                   000363
3 AH 62170701J03MAR2131MAR21  3     OGX15351535+0100  ALG16451645+0100  736                                                                                                 F16Y85                000364
3 AH 62170801J11MAR2111MAR21   4    OGX15151515+0100  ALG16551655+0100  AT7                                                                                                 Y66                   000365
3 AH 62170901J13MAR2113MAR21     6  OGX14001400+0100  ALG15401540+0100  AT7                                                                                                 Y66                   000366
3 AH 62171001J18MAR2118MAR21   4    OGX15151515+0100  ALG16551655+0100  AT7                                                                                                 Y66                   000367
3 AH 62171101J20MAR2127MAR21     6  OGX14001400+0100  ALG15401540+0100  AT7                                                                                                 Y66                   000368
3 AH 62171201J25MAR2125MAR21   4    OGX15151515+0100  ALG16551655+0100  AT7                                                                                                 Y66                   000369
3 AH 62171301J30MAR2130MAR21 2      OGX15501550+0100  ALG17301730+0100  AT7                                                                                                 Y66                   000370
3 AH 62180101J01MAR2101MAR211       ALG11001100+0100  OGX12401240+0100  AT7                                                                                                 Y66                   000371
3 AH 62180201J08MAR2122MAR211       ALG11001100+0100  OGX12401240+0100  AT7                                                                                                 Y66                   000372
3 AH 62180301J29MAR2129MAR211       ALG11001100+0100  OGX12401240+0100  AT7                                                                                                 Y66                   000373
3 AH 62190101J01MAR2101MAR211       OGX13301330+0100  ALG15101510+0100  AT7                                                                                                 Y66                   000374
3 AH 62190201J08MAR2122MAR211       OGX13301330+0100  ALG15101510+0100  AT7                                                                                                 Y66                   000375
3 AH 62190301J29MAR2129MAR211       OGX13301330+0100  ALG15101510+0100  AT7                                                                                                 Y66                   000376
3 AH 62220101J24FEB2128FEB21  34567 ALG15501550+0100  HME17301730+0100  AT7                                                                                                 Y66                   000377
3 AH 62220201J01MAR2101MAR211       ALG16201620+0100  HME18001800+0100  AT7                                                                                                 Y66                   000378
3 AH 62220301J03MAR2110MAR211 345 7 ALG16201620+0100  HME18001800+0100  AT7                                                                                                 Y66                   000379
3 AH 62220401J06MAR2127MAR21     6  ALG16101610+0100  HME17501750+0100  AT7                                                                                                 Y66                   000380
3 AH 62220501J11MAR2111MAR21   4    ALG16201620+0100  HME18001800+0100  AT7                                                                                                 Y66                   000381
3 AH 62220601J12MAR2131MAR211 345 7 ALG16201620+0100  HME18001800+0100  AT7                                                                                                 Y66                   000382
3 AH 62230101J25FEB2128FEB21   4567 HME07000700+0100  ALG08400840+0100  AT7                                                                                                 Y66                   000383
3 AH 62230201J01MAR2108MAR211  45 7 HME06300630+0100  ALG08100810+0100  AT7                                                                                                 Y66                   000384
3 AH 62230301J02MAR2102MAR21 2      HME06300630+0100  ALG08100810+0100  AT7                                                                                                 Y66                   000385
3 AH 62230401J06MAR2106MAR21     6  HME07150715+0100  ALG08550855+0100  AT7                                                                                                 Y66                   000386
3 AH 62230501J09MAR2118MAR2112 4 67 HME06300630+0100  ALG08100810+0100  AT7                                                                                                 Y66                   000387
3 AH 62230601J12MAR2112MAR21    5   HME06300630+0100  ALG08100810+0100  AT7                                                                                                 Y66                   000388
3 AH 62230701J19MAR2126MAR2112 45 7 HME06300630+0100  ALG08100810+0100  AT7                                                                                                 Y66                   000389
3 AH 62230801J20MAR2120MAR21     6  HME07150715+0100  ALG08550855+0100  AT7                                                                                                 Y66                   000390
3 AH 62230901J27MAR2101APR2112 4 67 HME06300630+0100  ALG08100810+0100  AT7                                                                                                 Y66                   000391
3 AH 62240101J01MAR2101MAR211       ALG08000800+0100  HME09400940+0100  AT7                                                                                                 Y66                   000392
3 AH 62240102J01MAR2101MAR211       HME10301030+0100  IAM11501150+0100  AT7                                                                                                 Y66                   000393
3 AH 62240201J15MAR2115MAR211       ALG08000800+0100  HME09400940+0100  AT7                                                                                                 Y66                   000394
3 AH 62240202J15MAR2115MAR211       HME10301030+0100  IAM11501150+0100  AT7                                                                                                 Y66                   000395
3 AH 62240301J29MAR2129MAR211       ALG08000800+0100  HME09400940+0100  AT7                                                                                                 Y66                   000396
3 AH 62240302J29MAR2129MAR211       HME10301030+0100  IAM11501150+0100  AT7                                                                                                 Y66                   000397
3 AH 62250101J01MAR2101MAR211       IAM12401240+0100  HME14051405+0100  AT7                                                                                                 Y66                   000398
3 AH 62250102J01MAR2101MAR211       HME14551455+0100  ALG16401640+0100  AT7                                                                                                 Y66                   000399
3 AH 62250201J15MAR2115MAR211       IAM12401240+0100  HME14051405+0100  AT7                                                                                                 Y66                   000400
3 AH 62250202J15MAR2115MAR211       HME14551455+0100  ALG16401640+0100  AT7                                                                                                 Y66                   000401
3 AH 62250301J29MAR2129MAR211       IAM12401240+0100  HME14051405+0100  AT7                                                                                                 Y66                   000402
3 AH 62250302J29MAR2129MAR211       HME14551455+0100  ALG16401640+0100  AT7                                                                                                 Y66                   000403
3 AH 62260101J24FEB2131MAR21  3     ALG11201120+0100  HME13001300+0100  AT7                                                                                                 Y66                   000404
3 AH 62260201J25FEB2125MAR21   4    ALG10401040+0100  HME11551155+0100  AT7                                                                                                 Y66                   000405
3 AH 62260301J26FEB2128MAR21    5 7 ALG10201020+0100  HME12001200+0100  AT7                                                                                                 Y66                   000406
3 AH 62270101J24FEB2131MAR21  3     HME13501350+0100  ALG15301530+0100  AT7                                                                                                 Y66                   000407
3 AH 62270201J25FEB2125MAR21   4    HME12451245+0100  ALG14001400+0100  AT7                                                                                                 Y66                   000408
3 AH 62270301J26FEB2128MAR21    5 7 HME12501250+0100  ALG14301430+0100  AT7                                                                                                 Y66                   000409
3 AH 62280101J27FEB2127FEB21     6  ALG11101110+0100  HME12501250+0100  AT7                                                                                                 Y66                   000410
3 AH 62280201J06MAR2127MAR21     6  ALG11301130+0100  HME13101310+0100  AT7                                                                                                 Y66                   000411
3 AH 62290101J27FEB2127FEB21     6  HME13401340+0100  ALG15201520+0100  AT7                                                                                                 Y66                   000412
3 AH 62290201J06MAR2127MAR21     6  HME14001400+0100  ALG15401540+0100  AT7                                                                                                 Y66                   000413
3 AH 62300101J25FEB2125MAR21   4    ALG11101110+0100  TMR13301330+0100  73H                                                                                                 F16Y132               000414
3 AH 62300201J01MAR2129MAR211       ALG10001000+0100  TMR12251225+0100  73H                                                                                                 F16Y132               000415
3 AH 62310101J25FEB2125MAR21   4    TMR14251425+0100  ALG17001700+0100  73H                                                                                                 F16Y132               000416
3 AH 62310201J01MAR2129MAR211       TMR13251325+0100  ALG15551555+0100  73H                                                                                                 F16Y132               000417
3 AH 62320101J26FEB2126MAR21    5   ALG07300730+0100  TMR09550955+0100  73H                                                                                                 F16Y86                000418
3 AH 62320102J26FEB2126MAR21    5   TMR10551055+0100  DJG11451145+0100  73H                                                                                                 F16Y86                000419
3 AH 62320103J26FEB2126MAR21    5   DJG12451245+0100  ALG15001500+0100  73H                                                                                                 F16Y86                000420
3 AH 62320201J28FEB2128MAR21      7 ALG08000800+0100  TMR10251025+0100  73H                                                                                                 F16Y132               000421
3 AH 62320202J28FEB2128MAR21      7 TMR11251125+0100  DJG12151215+0100  73H                                                                                                 F16Y132               000422
3 AH 62320203J28FEB2128MAR21      7 DJG13151315+0100  ALG15301530+0100  73H                                                                                                 F16Y132               000423
3 AH 62340101J25FEB2104MAR21   4    ORN08000800+0100  TMR10301030+0100  73H                                                                                                 F16Y132               000424
3 AH 62340201J11MAR2125MAR21   4    ORN08000800+0100  TMR10301030+0100  73H                                                                                                 F16Y132               000425
3 AH 62350101J25FEB2104MAR21   4    TMR11301130+0100  ORN13451345+0100  73H                                                                                                 F16Y132               000426
3 AH 62350201J11MAR2125MAR21   4    TMR11301130+0100  ORN13451345+0100  73H                                                                                                 F16Y132               000427
3 AH 62360101J02MAR2130MAR21 2      ALG08450845+0100  GHA09450945+0100  73H                                                                                                 F16Y132               000428
3 AH 62360102J02MAR2130MAR21 2      GHA10501050+0100  TMR12301230+0100  73H                                                                                                 F16Y132               000429
3 AH 62370101J02MAR2130MAR21 2      TMR13301330+0100  ALG16001600+0100  73H                                                                                                 F16Y132               000430
3 AH 62380101J27FEB2127MAR21     6  ALG09000900+0100  TMR11251125+0100  73H                                                                                                 F16Y132               000431
3 AH 62390101J27FEB2127MAR21     6  TMR12251225+0100  GHA14051405+0100  73H                                                                                                 F16Y132               000432
3 AH 62390102J27FEB2127MAR21     6  GHA15051505+0100  ALG16051605+0100  73H                                                                                                 F16Y132               000433
3 AH 62440101J26FEB2126MAR21    5   ALG12051205+0100  IAM14451445+0100  AT7                                                                                                 Y66                   000434
3 AH 62440201J02MAR2102MAR21 2      ALG09450945+0100  IAM12251225+0100  AT7                                                                                                 Y66                   000435
3 AH 62440301J09MAR2116MAR21 2      ALG09450945+0100  IAM12251225+0100  AT7                                                                                                 Y66                   000436
3 AH 62440401J23MAR2130MAR21 2      ALG09450945+0100  IAM12251225+0100  AT7                                                                                                 Y66                   000437
3 AH 62450101J26FEB2126MAR21    5   IAM15351535+0100  ALG18251825+0100  AT7                                                                                                 Y66                   000438
3 AH 62450201J02MAR2102MAR21 2      IAM13151315+0100  ALG16051605+0100  AT7                                                                                                 Y66                   000439
3 AH 62450301J09MAR2116MAR21 2      IAM13151315+0100  ALG16051605+0100  AT7                                                                                                 Y66                   000440
3 AH 62450401J23MAR2130MAR21 2      IAM13151315+0100  ALG16051605+0100  AT7                                                                                                 Y66                   000441
3 AH 62520101J24FEB2125FEB21  34    ALG07100710+0100  ELU08350835+0100  AT7                                                                                                 Y66                   000442
3 AH 62520201J26FEB2126FEB21    5   ALG12501250+0100  ELU13501350+0100  736                                                                                                 F16Y85                000443
3 AH 62520301J27FEB2127FEB21     6  ALG09350935+0100  ELU10351035+0100  736                                                                                                 F16Y85                000444
3 AH 62520401J28FEB2128FEB21      7 ALG11501150+0100  ELU12501250+0100  736                                                                                                 F16Y85                000445
3 AH 62520501J02MAR2130MAR21 2      ALG09100910+0100  ELU10001000+0100  736                                                                                                 F16Y85                000446
3 AH 62520601J03MAR2103MAR21  3     ALG07100710+0100  ELU08350835+0100  AT7                                                                                                 Y66                   000447
3 AH 62520701J04MAR2131MAR21  34    ALG07100710+0100  ELU08350835+0100  AT7                                                                                                 Y66                   000448
3 AH 62520801J05MAR2126MAR21    5   ALG13001300+0100  ELU14251425+0100  AT7                                                                                                 Y66                   000449
3 AH 62520901J06MAR2106MAR21     6  ALG09450945+0100  ELU11101110+0100  AT7                                                                                                 Y66                   000450
3 AH 62521001J07MAR2107MAR21      7 ALG11501150+0100  ELU13151315+0100  AT7                                                                                                 Y66                   000451
3 AH 62521101J13MAR2113MAR21     6  ALG09350935+0100  ELU11001100+0100  AT7                                                                                                 Y66                   000452
3 AH 62521201J14MAR2128MAR21      7 ALG11501150+0100  ELU13151315+0100  AT7                                                                                                 Y66                   000453
3 AH 62521301J20MAR2120MAR21     6  ALG09450945+0100  ELU11101110+0100  AT7                                                                                                 Y66                   000454
3 AH 62521401J27MAR2127MAR21     6  ALG09350935+0100  ELU11001100+0100  AT7                                                                                                 Y66                   000455
3 AH 62530101J24FEB2124FEB21  3     ELU09250925+0100  ALG10551055+0100  AT7                                                                                                 Y66                   000456
3 AH 62530201J25FEB2125MAR21   4    ELU15101510+0100  ALG16401640+0100  AT7                                                                                                 Y66                   000457
3 AH 62530301J26FEB2126FEB21    5   ELU14501450+0100  ALG15501550+0100  736                                                                                                 F16Y85                000458
3 AH 62530401J27FEB2127FEB21     6  ELU11351135+0100  ALG12351235+0100  736                                                                                                 F16Y85                000459
3 AH 62530501J28FEB2128FEB21      7 ELU13501350+0100  ALG14501450+0100  736                                                                                                 F16Y85                000460
3 AH 62530601J02MAR2130MAR21 2      ELU11001100+0100  ALG12001200+0100  736                                                                                                 F16Y85                000461
3 AH 62530701J03MAR2103MAR21  3     ELU09250925+0100  ALG10551055+0100  AT7                                                                                                 Y66                   000462
3 AH 62530801J05MAR2126MAR21    5   ELU15151515+0100  ALG16451645+0100  AT7                                                                                                 Y66                   000463
3 AH 62530901J06MAR2106MAR21     6  ELU12001200+0100  ALG13301330+0100  AT7                                                                                                 Y66                   000464
3 AH 62531001J07MAR2107MAR21      7 ELU14051405+0100  ALG15351535+0100  AT7                                                                                                 Y66                   000465
3 AH 62531101J10MAR2131MAR21  3     ELU09250925+0100  ALG10551055+0100  AT7                                                                                                 Y66                   000466
3 AH 62531201J13MAR2113MAR21     6  ELU11501150+0100  ALG13201320+0100  AT7                                                                                                 Y66                   000467
3 AH 62531301J14MAR2128MAR21      7 ELU14051405+0100  ALG15351535+0100  AT7                                                                                                 Y66                   000468
3 AH 62531401J20MAR2120MAR21     6  ELU12001200+0100  ALG13301330+0100  AT7                                                                                                 Y66                   000469
3 AH 62531501J27MAR2127MAR21     6  ELU11501150+0100  ALG13201320+0100  AT7                                                                                                 Y66                   000470
3 AH 62540101J25FEB2125MAR21   4    ORN12201220+0100  ELU14201420+0100  AT7                                                                                                 Y66                   000471
3 AH 62550101J25FEB2125MAR21   4    ELU09250925+0100  ORN11301130+0100  AT7                                                                                                 Y66                   000472
3 AH 62660101J25FEB2126MAR21   45   ALG09300930+0100  TGR10551055+0100  AT7                                                                                                 Y66                   000473
3 AH 62660201J28FEB2128FEB21      7 ALG09250925+0100  TGR10501050+0100  AT7                                                                                                 Y66                   000474
3 AH 62660301J01MAR2129MAR211       ALG11301130+0100  TGR12551255+0100  AT7                                                                                                 Y66                   000475
3 AH 62660401J07MAR2107MAR21      7 ALG10201020+0100  TGR11501150+0100  AT7                                                                                                 Y66                   000476
3 AH 62660501J14MAR2114MAR21      7 ALG10201020+0100  TGR11501150+0100  AT7                                                                                                 Y66                   000477
3 AH 62660601J21MAR2128MAR21      7 ALG10201020+0100  TGR11501150+0100  AT7                                                                                                 Y66                   000478
3 AH 62670101J25FEB2126MAR21   45   TGR11451145+0100  ALG13101310+0100  AT7                                                                                                 Y66                   000479
3 AH 62670201J28FEB2128FEB21      7 TGR11401140+0100  ALG13051305+0100  AT7                                                                                                 Y66                   000480
3 AH 62670301J01MAR2129MAR211       TGR13451345+0100  ALG15101510+0100  AT7                                                                                                 Y66                   000481
3 AH 62670401J07MAR2107MAR21      7 TGR12401240+0100  ALG14001400+0100  AT7                                                                                                 Y66                   000482
3 AH 62670501J14MAR2114MAR21      7 TGR12401240+0100  ALG14001400+0100  AT7                                                                                                 Y66                   000483
3 AH 62670601J21MAR2128MAR21      7 TGR12401240+0100  ALG14001400+0100  AT7                                                                                                 Y66                   000484
3 AH 62840101J24FEB2131MAR21  3     TMR07000700+0100  INF08150815+0100  AT7                                                                                                 Y66                   000485
3 AH 62840201J02MAR2130MAR21 2      INZ15001500+0100  TMR16351635+0100  AT7                                                                                                 Y66                   000486
3 AH 62850101J24FEB2131MAR21  3     INF09050905+0100  TMR10101010+0100  AT7                                                                                                 Y66                   000487
3 AH 62850102J24FEB2131MAR21  3     TMR11001100+0100  INZ12351235+0100  AT7                                                                                                 Y66                   000488
3 AH 62880101J24FEB2131MAR21  3     ALG09100910+0100  TMR11351135+0100  73H                                                                                                 F16Y132               000489
